{"contracts/src/DssExecLib.sol":{"DssExecLib":{"abi":[{"inputs":[],"name":"LOG","outputs":[{"internalType":"address","name":"","type":"address"}],"stateMutability":"view","type":"function"},{"inputs":[],"name":"autoLine","outputs":[{"internalType":"address","name":"","type":"address"}],"stateMutability":"view","type":"function"},{"inputs":[{"internalType":"bytes32","name":"_ilk","type":"bytes32"}],"name":"calc","outputs":[{"internalType":"address","name":"_calc","type":"address"}],"stateMutability":"view","type":"function"},{"inputs":[{"internalType":"uint40","name":"_ts","type":"uint40"},{"internalType":"bool","name":"_officeHours","type":"bool"}],"name":"canCast","outputs":[{"internalType":"bool","name":"","type":"bool"}],"stateMutability":"pure","type":"function"},{"inputs":[],"name":"cat","outputs":[{"internalType":"address","name":"","type":"address"}],"stateMutability":"view","type":"function"},{"inputs":[{"internalType":"bytes32","name":"_ilk","type":"bytes32"}],"name":"clip","outputs":[{"internalType":"address","name":"_clip","type":"address"}],"stateMutability":"view","type":"function"},{"inputs":[],"name":"clipperMom","outputs":[{"internalType":"address","name":"","type":"address"}],"stateMutability":"view","type":"function"},{"inputs":[],"name":"dai","outputs":[{"internalType":"address","name":"","type":"address"}],"stateMutability":"view","type":"function"},{"inputs":[],"name":"daiJoin","outputs":[{"internalType":"address","name":"","type":"address"}],"stateMutability":"view","type":"function"},{"inputs":[],"name":"dog","outputs":[{"internalType":"address","name":"","type":"address"}],"stateMutability":"view","type":"function"},{"inputs":[],"name":"end","outputs":[{"internalType":"address","name":"","type":"address"}],"stateMutability":"view","type":"function"},{"inputs":[],"name":"esm","outputs":[{"internalType":"address","name":"","type":"address"}],"stateMutability":"view","type":"function"},{"inputs":[],"name":"flap","outputs":[{"internalType":"address","name":"","type":"address"}],"stateMutability":"view","type":"function"},{"inputs":[{"internalType":"bytes32","name":"_ilk","type":"bytes32"}],"name":"flip","outputs":[{"internalType":"address","name":"_flip","type":"address"}],"stateMutability":"view","type":"function"},{"inputs":[],"name":"flipperMom","outputs":[{"internalType":"address","name":"","type":"address"}],"stateMutability":"view","type":"function"},{"inputs":[],"name":"flop","outputs":[{"internalType":"address","name":"","type":"address"}],"stateMutability":"view","type":"function"},{"inputs":[{"internalType":"bytes32","name":"_key","type":"bytes32"}],"name":"getChangelogAddress","outputs":[{"internalType":"address","name":"","type":"address"}],"stateMutability":"view","type":"function"},{"inputs":[],"name":"govGuard","outputs":[{"internalType":"address","name":"","type":"address"}],"stateMutability":"view","type":"function"},{"inputs":[],"name":"jug","outputs":[{"internalType":"address","name":"","type":"address"}],"stateMutability":"view","type":"function"},{"inputs":[],"name":"lerpFab","outputs":[{"internalType":"address","name":"","type":"address"}],"stateMutability":"view","type":"function"},{"inputs":[],"name":"mkr","outputs":[{"internalType":"address","name":"","type":"address"}],"stateMutability":"view","type":"function"},{"inputs":[{"internalType":"uint40","name":"_eta","type":"uint40"},{"internalType":"uint40","name":"_ts","type":"uint40"},{"internalType":"bool","name":"_officeHours","type":"bool"}],"name":"nextCastTime","outputs":[{"internalType":"uint256","name":"castTime","type":"uint256"}],"stateMutability":"pure","type":"function"},{"inputs":[],"name":"osmMom","outputs":[{"internalType":"address","name":"","type":"address"}],"stateMutability":"view","type":"function"},{"inputs":[],"name":"pauseProxy","outputs":[{"internalType":"address","name":"","type":"address"}],"stateMutability":"view","type":"function"},{"inputs":[],"name":"pot","outputs":[{"internalType":"address","name":"","type":"address"}],"stateMutability":"view","type":"function"},{"inputs":[],"name":"reg","outputs":[{"internalType":"address","name":"","type":"address"}],"stateMutability":"view","type":"function"},{"inputs":[],"name":"spotter","outputs":[{"internalType":"address","name":"","type":"address"}],"stateMutability":"view","type":"function"},{"inputs":[],"name":"vat","outputs":[{"internalType":"address","name":"","type":"address"}],"stateMutability":"view","type":"function"},{"inputs":[],"name":"vow","outputs":[{"internalType":"address","name":"","type":"address"}],"stateMutability":"view","type":"function"}],"evm":{"bytecode":{"linkReferences":{},"object":"615b0662000054600b82828239805160001a607314610047577f4e487b7100000000000000000000000000000000000000000000000000000000600052600060045260246000fd5b30600052607381538281f3fe73000000000000000000000000000000000000000030146080604052600436106105705760003560e01c806391cd0648116102d4578063c3b3ad7f11610197578063e4881813116100fe578063edfc90c4116100b7578063f02b0d0211610091578063f02b0d02146113d1578063f36464aa146113fa578063f4b9fa7514611423578063fd549de21461144157610570565b8063edfc90c414611361578063ef94132e1461138a578063efbe1c1c146113b357610570565b8063e488181314611281578063e5c6eb331461129f578063e7796f33146112c8578063e9d8ccb8146112f1578063eb3ffe9e1461131a578063ebb7920e1461134357610570565b8063d255745611610150578063d25574561461118f578063d6d55e7d146111bf578063ded3a489146111e8578063dfe425b914611211578063e40898e01461123a578063e475ac5d1461126357610570565b8063c3b3ad7f146110a4578063c3bbce6a146110c2578063c661c88c146110eb578063c7732adc14611114578063caa683871461113d578063d0bab9331461116657610570565b8063aee953c81161023b578063b7953078116101f4578063b795307814610fbd578063b90aca8114610fe6578063bbbb0d7b1461100f578063bdc56f301461102d578063c11645bc14611056578063c341a8901461107457610570565b8063aee953c814610ebe578063af41b24814610ee7578063b085f23714610f05578063b0e2236314610f2e578063b1698f4114610f6b578063b452c13114610f9457610570565b8063a16ed56f1161028d578063a16ed56f14610dd3578063a1d8eb3214610e03578063a1f217c514610e1a578063a497d53614610e43578063a7e0833614610e6c578063add7f43c14610e9557610570565b806391cd064814610cdd57806392125fa514610d0657806396856bfe14610d2f5780639976f02b14610d585780639bd0a56a14610d815780639f476ee114610daa57610570565b80634ba2363a116104375780636ffd80011161039e5780638050ec6011610357578063846a54fe11610331578063846a54fe14610c4f57806384718d8914610c6d57806389c3207614610c8b5780638d196e3214610cb457610570565b80638050ec6014610bd457806380bce70514610bfd57806381acdce914610c2657610570565b80636ffd800114610aed578063738fdd1a14610b1d57806377dbf55a14610b3b5780637c4c3bf114610b645780637d2a54f414610b8d5780637e992cb814610bb657610570565b8063626cb3c5116103f0578063626cb3c514610a0d57806363a8fd8914610a2b5780636604930d14610a495780636cf7a7fa14610a725780636d530fb314610a9b5780636d892f7e14610ac457610570565b80634ba2363a146109225780634c940024146109405780634e39aee31461096957806353d9e20e146109925780635f3a7dd7146109bb5780635fc132c1146109e457610570565b8063229039fc116104db57806335329d4c1161049457806335329d4c1461082957806336569e7714610859578063402ef0761461087757806340a8d9de146108a057806341daca2e146108d0578063437757b9146108f957610570565b8063229039fc14610749578063268e51431461077257806327eddd121461079b5780632bef4595146107c45780632e77468d146107ed57806331e0b8021461080b57610570565b8063153a85131161052d578063153a85131461065e578063161c6510146106875780631816a5e1146106b057806319d900a1146106ce5780631b1aff63146106f7578063204884531461072057610570565b80630650843114610575578063067322e01461059e5780630905213e146105db5780630daa5eb5146105f95780630e01198b146106225780631307f3ab14610640575b600080fd5b81801561058157600080fd5b5061059c600480360381019061059791906148b4565b61146a565b005b8180156105aa57600080fd5b506105c560048036038101906105c09190614952565b6114ce565b6040516105d29190614a03565b60405180910390f35b6105e361164e565b6040516105f09190614a03565b60405180910390f35b81801561060557600080fd5b50610620600480360381019061061b91906148b4565b61167e565b005b61062a6117ed565b6040516106379190614a03565b60405180910390f35b61064861181d565b6040516106559190614a03565b60405180910390f35b81801561066a57600080fd5b5061068560048036038101906106809190614a1e565b61184d565b005b81801561069357600080fd5b506106ae60048036038101906106a99190614a4b565b611896565b005b6106b86118f2565b6040516106c59190614a03565b60405180910390f35b8180156106da57600080fd5b506106f560048036038101906106f09190614a8b565b61190a565b005b81801561070357600080fd5b5061071e60048036038101906107199190614a4b565b61198f565b005b81801561072c57600080fd5b5061074760048036038101906107429190614a1e565b611a34565b005b81801561075557600080fd5b50610770600480360381019061076b91906148b4565b611a69565b005b81801561077e57600080fd5b5061079960048036038101906107949190614acb565b611aa0565b005b8180156107a757600080fd5b506107c260048036038101906107bd91906148b4565b611b0f565b005b8180156107d057600080fd5b506107eb60048036038101906107e69190614acb565b611c60565b005b6107f5611ccf565b6040516108029190614a03565b60405180910390f35b610813611cff565b6040516108209190614a03565b60405180910390f35b610843600480360381019061083e9190614b80565b611d2f565b6040516108509190614bcf565b60405180910390f35b610861611dce565b60405161086e9190614a03565b60405180910390f35b81801561088357600080fd5b5061089e60048036038101906108999190614a1e565b611dfe565b005b6108ba60048036038101906108b59190614bea565b611e47565b6040516108c79190614a03565b60405180910390f35b8180156108dc57600080fd5b506108f760048036038101906108f29190614acb565b611ed1565b005b81801561090557600080fd5b50610920600480360381019061091b9190614c17565b611f40565b005b61092a612027565b6040516109379190614a03565b60405180910390f35b81801561094c57600080fd5b50610967600480360381019061096291906148b4565b612057565b005b81801561097557600080fd5b50610990600480360381019061098b9190614a1e565b6120bb565b005b81801561099e57600080fd5b506109b960048036038101906109b49190614c57565b612117565b005b8180156109c757600080fd5b506109e260048036038101906109dd9190614df0565b6121eb565b005b8180156109f057600080fd5b50610a0b6004803603810190610a0691906148b4565b61226d565b005b610a15612484565b604051610a229190614a03565b60405180910390f35b610a336124b4565b604051610a409190614a03565b60405180910390f35b818015610a5557600080fd5b50610a706004803603810190610a6b91906148b4565b6124e4565b005b818015610a7e57600080fd5b50610a996004803603810190610a949190614a4b565b61256d565b005b818015610aa757600080fd5b50610ac26004803603810190610abd9190614bea565b6125c9565b005b818015610ad057600080fd5b50610aeb6004803603810190610ae69190614acb565b61263e565b005b610b076004803603810190610b029190614bea565b6126ad565b604051610b149190614a03565b60405180910390f35b610b25612737565b604051610b329190614a03565b60405180910390f35b818015610b4757600080fd5b50610b626004803603810190610b5d9190614a1e565b612767565b005b818015610b7057600080fd5b50610b8b6004803603810190610b869190614a1e565b6127ce565b005b818015610b9957600080fd5b50610bb46004803603810190610baf9190614a1e565b612835565b005b610bbe61291b565b604051610bcb9190614a03565b60405180910390f35b818015610be057600080fd5b50610bfb6004803603810190610bf69190614e39565b61294b565b005b818015610c0957600080fd5b50610c246004803603810190610c1f9190614a1e565b6129c0565b005b818015610c3257600080fd5b50610c4d6004803603810190610c489190614a1e565b612aa6565b005b610c57612b1b565b604051610c649190614a03565b60405180910390f35b610c75612b4b565b604051610c829190614a03565b60405180910390f35b818015610c9757600080fd5b50610cb26004803603810190610cad9190614ea0565b612b7b565b005b818015610cc057600080fd5b50610cdb6004803603810190610cd69190614a1e565b612bf3565b005b818015610ce957600080fd5b50610d046004803603810190610cff9190614a1e565b612c5a565b005b818015610d1257600080fd5b50610d2d6004803603810190610d289190614ee0565b612cae565b005b818015610d3b57600080fd5b50610d566004803603810190610d519190614bea565b612d23565b005b818015610d6457600080fd5b50610d7f6004803603810190610d7a91906148b4565b612daa565b005b818015610d8d57600080fd5b50610da86004803603810190610da391906148b4565b612e13565b005b818015610db657600080fd5b50610dd16004803603810190610dcc9190614a1e565b612e7c565b005b610ded6004803603810190610de89190614bea565b612ee3565b604051610dfa9190614a03565b60405180910390f35b818015610e0f57600080fd5b50610e18612f7a565b005b818015610e2657600080fd5b50610e416004803603810190610e3c9190614a1e565b612ff5565b005b818015610e4f57600080fd5b50610e6a6004803603810190610e659190614a1e565b61306a565b005b818015610e7857600080fd5b50610e936004803603810190610e8e9190614f0d565b61309f565b005b818015610ea157600080fd5b50610ebc6004803603810190610eb79190614a1e565b6131af565b005b818015610eca57600080fd5b50610ee56004803603810190610ee09190614a1e565b613215565b005b610eef61327c565b604051610efc9190614a03565b60405180910390f35b818015610f1157600080fd5b50610f2c6004803603810190610f279190614f60565b6132ac565b005b818015610f3a57600080fd5b50610f556004803603810190610f509190614fc7565b61338e565b604051610f629190614a03565b60405180910390f35b818015610f7757600080fd5b50610f926004803603810190610f8d9190614a4b565b613511565b005b818015610fa057600080fd5b50610fbb6004803603810190610fb69190614a1e565b61364b565b005b818015610fc957600080fd5b50610fe46004803603810190610fdf91906148b4565b613680565b005b818015610ff257600080fd5b5061100d60048036038101906110089190614a1e565b6136e9565b005b611017613750565b6040516110249190614a03565b60405180910390f35b81801561103957600080fd5b50611054600480360381019061104f91906148b4565b613780565b005b61105e613809565b60405161106b9190614a03565b60405180910390f35b61108e60048036038101906110899190614bea565b613839565b60405161109b9190614a03565b60405180910390f35b6110ac6138b9565b6040516110b99190614a03565b60405180910390f35b8180156110ce57600080fd5b506110e960048036038101906110e49190614df0565b6138e9565b005b8180156110f757600080fd5b50611112600480360381019061110d9190614ee0565b61396b565b005b81801561112057600080fd5b5061113b60048036038101906111369190614a1e565b6139e0565b005b81801561114957600080fd5b50611164600480360381019061115f9190614acb565b613a55565b005b81801561117257600080fd5b5061118d6004803603810190611188919061507d565b613b54565b005b6111a960048036038101906111a491906150d0565b613bdc565b6040516111b69190615132565b60405180910390f35b8180156111cb57600080fd5b506111e660048036038101906111e19190614a4b565b613e17565b005b8180156111f457600080fd5b5061120f600480360381019061120a9190614df0565b613e46565b005b81801561121d57600080fd5b5061123860048036038101906112339190614acb565b613ec8565b005b81801561124657600080fd5b50611261600480360381019061125c9190614f0d565b613fc7565b005b61126b6140ba565b6040516112789190614a03565b60405180910390f35b6112896140ea565b6040516112969190614a03565b60405180910390f35b8180156112ab57600080fd5b506112c660048036038101906112c1919061514d565b61411a565b005b8180156112d457600080fd5b506112ef60048036038101906112ea9190614acb565b61418f565b005b8180156112fd57600080fd5b5061131860048036038101906113139190614ee0565b6141fe565b005b81801561132657600080fd5b50611341600480360381019061133c91906151b4565b614413565b005b61134b614485565b6040516113589190614a03565b60405180910390f35b81801561136d57600080fd5b5061138860048036038101906113839190614a1e565b6144b5565b005b81801561139657600080fd5b506113b160048036038101906113ac9190614f0d565b6144ea565b005b6113bb6145fa565b6040516113c89190614a03565b60405180910390f35b8180156113dd57600080fd5b506113f860048036038101906113f39190614bea565b61462a565b005b81801561140657600080fd5b50611421600480360381019061141c9190615207565b61469f565b005b61142b614711565b6040516114389190614a03565b60405180910390f35b81801561144d57600080fd5b5061146860048036038101906114639190614a4b565b614741565b005b6064806114779190615289565b811061148257600080fd5b6114ca61148e83611e47565b7f63757370000000000000000000000000000000000000000000000000000000006114c5846064806114c09190615289565b6147b0565b614413565b5050565b6000806114d9612b1b565b73ffffffffffffffffffffffffffffffffffffffff16633f10119d8a8a8a8a8a8a8a6040518863ffffffff1660e01b815260040161151d9796959493929190615310565b6020604051808303816000875af115801561153c573d6000803e3d6000fd5b505050506040513d601f19601f820116820180604052508101906115609190615394565b90508773ffffffffffffffffffffffffffffffffffffffff166365fae35e826040518263ffffffff1660e01b815260040161159b91906153c1565b600060405180830381600087803b1580156115b557600080fd5b505af11580156115c9573d6000803e3d6000fd5b505050508073ffffffffffffffffffffffffffffffffffffffff16633eaf5d9f6040518163ffffffff1660e01b81526004016020604051808303816000875af115801561161a573d6000803e3d6000fd5b505050506040513d601f19601f8201168201806040525081019061163e91906153f1565b5080915050979650505050505050565b60006116797f474f565f47554152440000000000000000000000000000000000000000000000612ee3565b905090565b60648061168b9190615289565b811061169657600080fd5b6116f16116a16138b9565b837f63686f70000000000000000000000000000000000000000000000000000000006116d9856064806116d49190615289565b6147f4565b670de0b6b3a76400006116ec919061541e565b61294b565b60006116fc83611e47565b73ffffffffffffffffffffffffffffffffffffffff166040516024016040516020818303038152906040527f0cbb5862000000000000000000000000000000000000000000000000000000007bffffffffffffffffffffffffffffffffffffffffffffffffffffffff19166020820180517bffffffffffffffffffffffffffffffffffffffffffffffffffffffff83818316178352505050506040516117a291906154c3565b6000604051808303816000865af19150503d80600081146117df576040519150601f19603f3d011682016040523d82523d6000602084013e6117e4565b606091505b50509050505050565b60006118187f4d43445f464c4150000000000000000000000000000000000000000000000000612ee3565b905090565b60006118487f464c49505045525f4d4f4d000000000000000000000000000000000000000000612ee3565b905090565b65ffffffffffff8016811061186157600080fd5b61189361186c613750565b7f746175000000000000000000000000000000000000000000000000000000000083614413565b50565b6064806118a39190615289565b81106118ae57600080fd5b6118ee827f63757400000000000000000000000000000000000000000000000000000000006118e9846064806118e49190615289565b6147b0565b614413565b5050565b73da0ab1e0017debcd72be8599041a2aa3ba7e740f81565b73da0ab1e0017debcd72be8599041a2aa3ba7e740f73ffffffffffffffffffffffffffffffffffffffff1663ca446dd983836040518363ffffffff1660e01b81526004016119599291906154da565b600060405180830381600087803b15801561197357600080fd5b505af1158015611987573d6000803e3d6000fd5b505050505050565b60648061199c9190615289565b81106119a757600080fd5b6119af611cff565b73ffffffffffffffffffffffffffffffffffffffff1663bf90f418836119e1846064806119dc9190615289565b6147b0565b6040518363ffffffff1660e01b81526004016119fe929190615503565b600060405180830381600087803b158015611a1857600080fd5b505af1158015611a2c573d6000803e3d6000fd5b505050505050565b611a66611a3f612484565b7f776169740000000000000000000000000000000000000000000000000000000083614413565b50565b611a9c611a7583611e47565b7f7461696c0000000000000000000000000000000000000000000000000000000083614413565b5050565b8173ffffffffffffffffffffffffffffffffffffffff1663f29c29c4826040518263ffffffff1660e01b8152600401611ad991906153c1565b600060405180830381600087803b158015611af357600080fd5b505af1158015611b07573d6000803e3d6000fd5b505050505050565b6000611b19614485565b90506000808273ffffffffffffffffffffffffffffffffffffffff1663d9638d36866040518263ffffffff1660e01b8152600401611b57919061552c565b60a060405180830381865afa158015611b74573d6000803e3d6000fd5b505050506040513d601f19601f82011682018060405250810190611b989190615585565b5050925092505060008214158015611bb9575060008165ffffffffffff1614155b611bc257600080fd5b8273ffffffffffffffffffffffffffffffffffffffff16632a48322d86722cd76fe086b93ce2f768a00b22a0000000000087611bfe9190615289565b858565ffffffffffff166040518563ffffffff1660e01b8152600401611c279493929190615600565b600060405180830381600087803b158015611c4157600080fd5b505af1158015611c55573d6000803e3d6000fd5b505050505050505050565b8173ffffffffffffffffffffffffffffffffffffffff166365fae35e826040518263ffffffff1660e01b8152600401611c9991906153c1565b600060405180830381600087803b158015611cb357600080fd5b505af1158015611cc7573d6000803e3d6000fd5b505050505050565b6000611cfa7f4d43445f53504f54000000000000000000000000000000000000000000000000612ee3565b905090565b6000611d2a7f434c49505045525f4d4f4d000000000000000000000000000000000000000000612ee3565b905090565b60008115611dc3576000600760036201518086611d4c9190615674565b611d5691906156a5565b611d6091906156de565b64ffffffffff16905060058110611d7b576000915050611dc8565b60006018610e1086611d8d9190615674565b611d9791906156de565b64ffffffffff169050600e811080611db0575060158110155b15611dc057600092505050611dc8565b50505b600190505b92915050565b6000611df97f4d43445f56415400000000000000000000000000000000000000000000000000612ee3565b905090565b65ffffffffffff80168110611e1257600080fd5b611e44611e1d613750565b7f74746c000000000000000000000000000000000000000000000000000000000083614413565b50565b6000611e51612737565b73ffffffffffffffffffffffffffffffffffffffff1663247c803f836040518263ffffffff1660e01b8152600401611e89919061552c565b602060405180830381865afa158015611ea6573d6000803e3d6000fd5b505050506040513d601f19601f82011682018060405250810190611eca9190615394565b9050919050565b8173ffffffffffffffffffffffffffffffffffffffff166365c4ce7a826040518263ffffffff1660e01b8152600401611f0a91906153c1565b600060405180830381600087803b158015611f2457600080fd5b505af1158015611f38573d6000803e3d6000fd5b505050505050565b6b033b2e3c9fd0803ce80000008210158015611f6857506b033b2e3dd0d78f60556d65838211155b611f7157600080fd5b8015611ff157611f7f612027565b73ffffffffffffffffffffffffffffffffffffffff16639f678cca6040518163ffffffff1660e01b81526004016020604051808303816000875af1158015611fcb573d6000803e3d6000fd5b505050506040513d601f19601f82011682018060405250810190611fef91906153f1565b505b612023611ffc612027565b7f647372000000000000000000000000000000000000000000000000000000000084614413565b5050565b60006120527f4d43445f504f5400000000000000000000000000000000000000000000000000612ee3565b905090565b6064806120649190615289565b811061206f57600080fd5b6120b761207b83611e47565b7f63686970000000000000000000000000000000000000000000000000000000006120b2846064806120ad9190615289565b6147f4565b614413565b5050565b670de0b6b3a764000081106120cf57600080fd5b6121146120da612484565b7f64756d7000000000000000000000000000000000000000000000000000000000670de0b6b3a76400008461210f9190615289565b614413565b50565b670de0b6b3a7640000811061212b57600080fd5b6121358383612daa565b61215e7f4d495032315f4c49515549444154494f4e5f4f5241434c450000000000000000612ee3565b73ffffffffffffffffffffffffffffffffffffffff1663e9eb09f684670de0b6b3a76400008461218e9190615289565b6040518363ffffffff1660e01b81526004016121ab92919061570f565b600060405180830381600087803b1580156121c557600080fd5b505af11580156121d9573d6000803e3d6000fd5b505050506121e6836125c9565b505050565b73da0ab1e0017debcd72be8599041a2aa3ba7e740f73ffffffffffffffffffffffffffffffffffffffff1663788bc78c826040518263ffffffff1660e01b8152600401612238919061578d565b600060405180830381600087803b15801561225257600080fd5b505af1158015612266573d6000803e3d6000fd5b5050505050565b670de0b6b3a7640000811061228157600080fd5b600061228b6138b9565b73ffffffffffffffffffffffffffffffffffffffff1663d9638d36846040518263ffffffff1660e01b81526004016122c3919061552c565b6080604051808303816000875af11580156122e2573d6000803e3d6000fd5b505050506040513d601f19601f8201168201806040525081019061230691906157af565b5092505050722cd76fe086b93ce2f768a00b22a000000000008161232a9190615816565b82111561233657600080fd5b612387612341611dce565b847f6475737400000000000000000000000000000000000000000000000000000000722cd76fe086b93ce2f768a00b22a00000000000866123829190615289565b61294b565b600061239284611e47565b73ffffffffffffffffffffffffffffffffffffffff166040516024016040516020818303038152906040527f0cbb5862000000000000000000000000000000000000000000000000000000007bffffffffffffffffffffffffffffffffffffffffffffffffffffffff19166020820180517bffffffffffffffffffffffffffffffffffffffffffffffffffffffff838183161783525050505060405161243891906154c3565b6000604051808303816000865af19150503d8060008114612475576040519150601f19603f3d011682016040523d82523d6000602084013e61247a565b606091505b5050905050505050565b60006124af7f4d43445f564f5700000000000000000000000000000000000000000000000000612ee3565b905090565b60006124df7f4d43445f50415553455f50524f58590000000000000000000000000000000000612ee3565b905090565b6064806124f19190615289565b600a6124fd9190615289565b811061250857600080fd5b6064806125159190615289565b81101561252157600080fd5b61256961252d83611e47565b7f62756600000000000000000000000000000000000000000000000000000000006125648460648061255f9190615289565b6147b0565b614413565b5050565b60648061257a9190615289565b811061258557600080fd5b6125c5827f62617200000000000000000000000000000000000000000000000000000000006125c0846064806125bb9190615289565b6147b0565b614413565b5050565b6125d1611ccf565b73ffffffffffffffffffffffffffffffffffffffff16631504460f826040518263ffffffff1660e01b8152600401612609919061552c565b600060405180830381600087803b15801561262357600080fd5b505af1158015612637573d6000803e3d6000fd5b5050505050565b8173ffffffffffffffffffffffffffffffffffffffff16639c52a7f1826040518263ffffffff1660e01b815260040161267791906153c1565b600060405180830381600087803b15801561269157600080fd5b505af11580156126a5573d6000803e3d6000fd5b505050505050565b60006126b7612737565b73ffffffffffffffffffffffffffffffffffffffff1663247c803f836040518263ffffffff1660e01b81526004016126ef919061552c565b602060405180830381865afa15801561270c573d6000803e3d6000fd5b505050506040513d601f19601f820116820180604052508101906127309190615394565b9050919050565b60006127627f494c4b5f52454749535452590000000000000000000000000000000000000000612ee3565b905090565b670de0b6b3a7640000811061277b57600080fd5b6127cb612786612484565b7f73756d7000000000000000000000000000000000000000000000000000000000722cd76fe086b93ce2f768a00b22a00000000000846127c69190615289565b614413565b50565b670de0b6b3a764000081106127e257600080fd5b6128326127ed612484565b7f62756d7000000000000000000000000000000000000000000000000000000000722cd76fe086b93ce2f768a00b22a000000000008461282d9190615289565b614413565b50565b670de0b6b3a7640000811061284957600080fd5b6000612853611dce565b9050612917817f4c696e6500000000000000000000000000000000000000000000000000000000722cd76fe086b93ce2f768a00b22a00000000000856128999190615289565b8473ffffffffffffffffffffffffffffffffffffffff1663babe8a3f6040518163ffffffff1660e01b8152600401602060405180830381865afa1580156128e4573d6000803e3d6000fd5b505050506040513d601f19601f8201168201806040525081019061290891906153f1565b612912919061541e565b614413565b5050565b60006129467f4d43445f474f5600000000000000000000000000000000000000000000000000612ee3565b905090565b8373ffffffffffffffffffffffffffffffffffffffff16631a0b287e8484846040518463ffffffff1660e01b815260040161298893929190615847565b600060405180830381600087803b1580156129a257600080fd5b505af11580156129b6573d6000803e3d6000fd5b5050505050505050565b670de0b6b3a764000081106129d457600080fd5b60006129de611dce565b9050612aa2817f4c696e6500000000000000000000000000000000000000000000000000000000722cd76fe086b93ce2f768a00b22a0000000000085612a249190615289565b8473ffffffffffffffffffffffffffffffffffffffff1663babe8a3f6040518163ffffffff1660e01b8152600401602060405180830381865afa158015612a6f573d6000803e3d6000fd5b505050506040513d601f19601f82011682018060405250810190612a9391906153f1565b612a9d919061587e565b614413565b5050565b606480612ab39190615289565b8110612abe57600080fd5b612b18612ac9613750565b7f7061640000000000000000000000000000000000000000000000000000000000612b0084606480612afb9190615289565b6147f4565b670de0b6b3a7640000612b13919061541e565b614413565b50565b6000612b467f4c4552505f464142000000000000000000000000000000000000000000000000612ee3565b905090565b6000612b767f4d43445f4a554700000000000000000000000000000000000000000000000000612ee3565b905090565b612b836140ba565b73ffffffffffffffffffffffffffffffffffffffff1663c98cdf8682846040518363ffffffff1660e01b8152600401612bbd9291906154da565b600060405180830381600087803b158015612bd757600080fd5b505af1158015612beb573d6000803e3d6000fd5b505050505050565b670de0b6b3a76400008110612c0757600080fd5b612c57612c12611dce565b7f4c696e6500000000000000000000000000000000000000000000000000000000722cd76fe086b93ce2f768a00b22a0000000000084612c529190615289565b614413565b50565b670de0b6b3a76400008110612c6e57600080fd5b612cab612c79611ccf565b7f7061720000000000000000000000000000000000000000000000000000000000612ca6846103e86147b0565b614413565b50565b612cb6611dce565b73ffffffffffffffffffffffffffffffffffffffff1663dc4d20fa826040518263ffffffff1660e01b8152600401612cee91906153c1565b600060405180830381600087803b158015612d0857600080fd5b505af1158015612d1c573d6000803e3d6000fd5b5050505050565b612d2b612b4b565b73ffffffffffffffffffffffffffffffffffffffff166344e2a5a8826040518263ffffffff1660e01b8152600401612d63919061552c565b6020604051808303816000875af1158015612d82573d6000803e3d6000fd5b505050506040513d601f19601f82011682018060405250810190612da691906153f1565b5050565b670de0b6b3a76400008110612dbe57600080fd5b612e0f612dc9611dce565b837f6c696e6500000000000000000000000000000000000000000000000000000000722cd76fe086b93ce2f768a00b22a0000000000085612e0a9190615289565b61294b565b5050565b670de0b6b3a76400008110612e2757600080fd5b612e78612e326138b9565b837f686f6c6500000000000000000000000000000000000000000000000000000000722cd76fe086b93ce2f768a00b22a0000000000085612e739190615289565b61294b565b5050565b670de0b6b3a76400008110612e9057600080fd5b612ee0612e9b612484565b7f68756d7000000000000000000000000000000000000000000000000000000000722cd76fe086b93ce2f768a00b22a0000000000084612edb9190615289565b614413565b50565b600073da0ab1e0017debcd72be8599041a2aa3ba7e740f73ffffffffffffffffffffffffffffffffffffffff166321f8a721836040518263ffffffff1660e01b8152600401612f32919061552c565b602060405180830381865afa158015612f4f573d6000803e3d6000fd5b505050506040513d601f19601f82011682018060405250810190612f739190615394565b9050919050565b612f82612027565b73ffffffffffffffffffffffffffffffffffffffff16639f678cca6040518163ffffffff1660e01b81526004016020604051808303816000875af1158015612fce573d6000803e3d6000fd5b505050506040513d601f19601f82011682018060405250810190612ff291906153f1565b50565b6064806130029190615289565b811061300d57600080fd5b6130676130186117ed565b7f626567000000000000000000000000000000000000000000000000000000000061304f8460648061304a9190615289565b6147f4565b670de0b6b3a7640000613062919061541e565b614413565b50565b61309c6130756117ed565b7f746175000000000000000000000000000000000000000000000000000000000083614413565b50565b670de0b6b3a764000082106130b357600080fd5b60006130bd611dce565b905060008173ffffffffffffffffffffffffffffffffffffffff1663d9638d36866040518263ffffffff1660e01b81526004016130fa919061552c565b60a0604051808303816000875af1158015613119573d6000803e3d6000fd5b505050506040513d601f19601f8201168201806040525081019061313d91906158b2565b50935050505061319882867f6c696e6500000000000000000000000000000000000000000000000000000000722cd76fe086b93ce2f768a00b22a00000000000886131889190615289565b85613193919061587e565b61294b565b82156131a8576131a7846129c0565b5b5050505050565b6b033b2e3c9fd0803ce800000081101580156131d757506b033b2e3dd0d78f60556d65838111155b6131e057600080fd5b6132126131eb612b4b565b7f626173650000000000000000000000000000000000000000000000000000000083614413565b50565b670de0b6b3a7640000811061322957600080fd5b6132796132346138b9565b7f486f6c6500000000000000000000000000000000000000000000000000000000722cd76fe086b93ce2f768a00b22a00000000000846132749190615289565b614413565b50565b60006132a77f4d43445f45534d00000000000000000000000000000000000000000000000000612ee3565b905090565b670de0b6b3a764000083106132c057600080fd5b670de0b6b3a764000082106132d457600080fd5b6132dc614485565b73ffffffffffffffffffffffffffffffffffffffff16632a48322d85722cd76fe086b93ce2f768a00b22a00000000000866133179190615289565b722cd76fe086b93ce2f768a00b22a00000000000866133369190615289565b856040518563ffffffff1660e01b81526004016133569493929190615600565b600060405180830381600087803b15801561337057600080fd5b505af1158015613384573d6000803e3d6000fd5b5050505050505050565b600080613399612b1b565b73ffffffffffffffffffffffffffffffffffffffff1663e02b0a5f8b8b8b8b8b8b8b8b6040518963ffffffff1660e01b81526004016133df98979695949392919061592d565b6020604051808303816000875af11580156133fe573d6000803e3d6000fd5b505050506040513d601f19601f820116820180604052508101906134229190615394565b90508873ffffffffffffffffffffffffffffffffffffffff166365fae35e826040518263ffffffff1660e01b815260040161345d91906153c1565b600060405180830381600087803b15801561347757600080fd5b505af115801561348b573d6000803e3d6000fd5b505050508073ffffffffffffffffffffffffffffffffffffffff16633eaf5d9f6040518163ffffffff1660e01b81526004016020604051808303816000875af11580156134dc573d6000803e3d6000fd5b505050506040513d601f19601f8201168201806040525081019061350091906153f1565b508091505098975050505050505050565b670de0b6b3a7640000811061352557600080fd5b61352d611dce565b73ffffffffffffffffffffffffffffffffffffffff1663f24e23eb613550612484565b30722cd76fe086b93ce2f768a00b22a00000000000856135709190615289565b6040518463ffffffff1660e01b815260040161358e939291906159ab565b600060405180830381600087803b1580156135a857600080fd5b505af11580156135bc573d6000803e3d6000fd5b505050506135c8613809565b73ffffffffffffffffffffffffffffffffffffffff1663ef693bed83670de0b6b3a7640000846135f89190615289565b6040518363ffffffff1660e01b8152600401613615929190615503565b600060405180830381600087803b15801561362f57600080fd5b505af1158015613643573d6000803e3d6000fd5b505050505050565b61367d6136566117ed565b7f74746c000000000000000000000000000000000000000000000000000000000083614413565b50565b670de0b6b3a7640000811061369457600080fd5b6136e56136a083611e47565b7f7469700000000000000000000000000000000000000000000000000000000000722cd76fe086b93ce2f768a00b22a00000000000846136e09190615289565b614413565b5050565b670de0b6b3a764000081106136fd57600080fd5b61374d6137086140ea565b7f626f780000000000000000000000000000000000000000000000000000000000722cd76fe086b93ce2f768a00b22a00000000000846137489190615289565b614413565b50565b600061377b7f4d43445f464c4f50000000000000000000000000000000000000000000000000612ee3565b905090565b60648061378d9190615289565b600a6137999190615289565b81106137a457600080fd5b6064806137b19190615289565b8110156137bd57600080fd5b6138056137c8611ccf565b837f6d61740000000000000000000000000000000000000000000000000000000000613800856064806137fb9190615289565b6147b0565b61294b565b5050565b60006138347f4d43445f4a4f494e5f4441490000000000000000000000000000000000000000612ee3565b905090565b600061384482611e47565b73ffffffffffffffffffffffffffffffffffffffff166396f1b6be6040518163ffffffff1660e01b8152600401602060405180830381865afa15801561388e573d6000803e3d6000fd5b505050506040513d601f19601f820116820180604052508101906138b29190615394565b9050919050565b60006138e47f4d43445f444f4700000000000000000000000000000000000000000000000000612ee3565b905090565b73da0ab1e0017debcd72be8599041a2aa3ba7e740f73ffffffffffffffffffffffffffffffffffffffff1663884a631f826040518263ffffffff1660e01b8152600401613936919061578d565b600060405180830381600087803b15801561395057600080fd5b505af1158015613964573d6000803e3d6000fd5b5050505050565b613973611dce565b73ffffffffffffffffffffffffffffffffffffffff1663a3b22fc4826040518263ffffffff1660e01b81526004016139ab91906153c1565b600060405180830381600087803b1580156139c557600080fd5b505af11580156139d9573d6000803e3d6000fd5b5050505050565b6064806139ed9190615289565b81106139f857600080fd5b613a52613a03613750565b7f6265670000000000000000000000000000000000000000000000000000000000613a3a84606480613a359190615289565b6147f4565b670de0b6b3a7640000613a4d919061541e565b614413565b50565b60008273ffffffffffffffffffffffffffffffffffffffff1682604051602401613a7f91906153c1565b6040516020818303038152906040527f65c4ce7a000000000000000000000000000000000000000000000000000000007bffffffffffffffffffffffffffffffffffffffffffffffffffffffff19166020820180517bffffffffffffffffffffffffffffffffffffffffffffffffffffffff8381831617835250505050604051613b0991906154c3565b6000604051808303816000865af19150503d8060008114613b46576040519150601f19603f3d011682016040523d82523d6000602084013e613b4b565b606091505b50509050505050565b606480613b619190615289565b8110613b6c57600080fd5b613bac837f6375740000000000000000000000000000000000000000000000000000000000613ba784606480613ba29190615289565b6147b0565b614413565b613bd7837f737465700000000000000000000000000000000000000000000000000000000084614413565b505050565b6000808464ffffffffff1603613bf157600080fd5b60008364ffffffffff1603613c0557600080fd5b8364ffffffffff168364ffffffffff1611613c205783613c22565b825b64ffffffffff1690508115613e10576000600760036201518084613c469190615816565b613c50919061541e565b613c5a91906159e2565b905060006018610e1084613c6e9190615816565b613c7891906159e2565b90506000603c8085613c8a9190615816565b613c9491906159e2565b90506000603c85613ca591906159e2565b905060058410613d345762015180846006613cc0919061587e565b613cca9190615289565b85613cd5919061541e565b9450610e10600e846018613ce9919061587e565b613cf3919061541e565b613cfd9190615289565b85613d08919061541e565b945080603c83613d189190615289565b613d22919061541e565b85613d2d919061587e565b9450613e0b565b60158310613db35760048403613d56576202a30085613d53919061541e565b94505b610e10600e846018613d68919061587e565b613d72919061541e565b613d7c9190615289565b85613d87919061541e565b945080603c83613d979190615289565b613da1919061541e565b85613dac919061587e565b9450613e0a565b600e831015613e0957610e1083600e613dcc919061587e565b613dd69190615289565b85613de1919061541e565b945080603c83613df19190615289565b613dfb919061541e565b85613e06919061587e565b94505b5b5b505050505b9392505050565b613e42827f746175000000000000000000000000000000000000000000000000000000000083614413565b5050565b73da0ab1e0017debcd72be8599041a2aa3ba7e740f73ffffffffffffffffffffffffffffffffffffffff1663d19ac77a826040518263ffffffff1660e01b8152600401613e93919061578d565b600060405180830381600087803b158015613ead57600080fd5b505af1158015613ec1573d6000803e3d6000fd5b5050505050565b60008273ffffffffffffffffffffffffffffffffffffffff1682604051602401613ef291906153c1565b6040516020818303038152906040527ff29c29c4000000000000000000000000000000000000000000000000000000007bffffffffffffffffffffffffffffffffffffffffffffffffffffffff19166020820180517bffffffffffffffffffffffffffffffffffffffffffffffffffffffff8381831617835250505050604051613f7c91906154c3565b6000604051808303816000865af19150503d8060008114613fb9576040519150601f19603f3d011682016040523d82523d6000602084013e613fbe565b606091505b50509050505050565b6b033b2e3c9fd0803ce80000008210158015613fef57506b033b2e3dd0d78f60556d65838211155b613ff857600080fd5b6000614002612b4b565b90508115614088578073ffffffffffffffffffffffffffffffffffffffff166344e2a5a8856040518263ffffffff1660e01b8152600401614043919061552c565b6020604051808303816000875af1158015614062573d6000803e3d6000fd5b505050506040513d601f19601f8201168201806040525081019061408691906153f1565b505b6140b481857f64757479000000000000000000000000000000000000000000000000000000008661294b565b50505050565b60006140e57f4f534d5f4d4f4d00000000000000000000000000000000000000000000000000612ee3565b905090565b60006141157f4d43445f43415400000000000000000000000000000000000000000000000000612ee3565b905090565b8373ffffffffffffffffffffffffffffffffffffffff1663ebecb39d8484846040518463ffffffff1660e01b815260040161415793929190615a13565b600060405180830381600087803b15801561417157600080fd5b505af1158015614185573d6000803e3d6000fd5b5050505050505050565b8173ffffffffffffffffffffffffffffffffffffffff16637a9e5e4b826040518263ffffffff1660e01b81526004016141c891906153c1565b600060405180830381600087803b1580156141e257600080fd5b505af11580156141f6573d6000803e3d6000fd5b505050505050565b6000808273ffffffffffffffffffffffffffffffffffffffff166040516024016040516020818303038152906040527f6c2552f9000000000000000000000000000000000000000000000000000000007bffffffffffffffffffffffffffffffffffffffffffffffffffffffff19166020820180517bffffffffffffffffffffffffffffffffffffffffffffffffffffffff83818316178352505050506040516142a891906154c3565b6000604051808303816000865af19150503d80600081146142e5576040519150601f19603f3d011682016040523d82523d6000602084013e6142ea565b606091505b509150915081156143955760008180602001905181019061430b9190615a88565b90506143178185613ec8565b61438f8473ffffffffffffffffffffffffffffffffffffffff1663dca44f6f6040518163ffffffff1660e01b8152600401602060405180830381865afa158015614365573d6000803e3d6000fd5b505050506040513d601f19601f820116820180604052508101906143899190615394565b85613ec8565b5061440e565b61440d8373ffffffffffffffffffffffffffffffffffffffff16632e7dc6af6040518163ffffffff1660e01b8152600401602060405180830381865afa1580156143e3573d6000803e3d6000fd5b505050506040513d601f19601f820116820180604052508101906144079190615394565b84613ec8565b5b505050565b8273ffffffffffffffffffffffffffffffffffffffff166329ae811483836040518363ffffffff1660e01b815260040161444e92919061570f565b600060405180830381600087803b15801561446857600080fd5b505af115801561447c573d6000803e3d6000fd5b50505050505050565b60006144b07f4d43445f49414d5f4155544f5f4c494e45000000000000000000000000000000612ee3565b905090565b6144e76144c06145fa565b7f776169740000000000000000000000000000000000000000000000000000000083614413565b50565b670de0b6b3a764000082106144fe57600080fd5b6000614508611dce565b905060008173ffffffffffffffffffffffffffffffffffffffff1663d9638d36866040518263ffffffff1660e01b8152600401614545919061552c565b60a0604051808303816000875af1158015614564573d6000803e3d6000fd5b505050506040513d601f19601f8201168201806040525081019061458891906158b2565b5093505050506145e382867f6c696e6500000000000000000000000000000000000000000000000000000000722cd76fe086b93ce2f768a00b22a00000000000886145d39190615289565b856145de919061541e565b61294b565b82156145f3576145f284612835565b5b5050505050565b60006146257f4d43445f454e4400000000000000000000000000000000000000000000000000612ee3565b905090565b614632614485565b73ffffffffffffffffffffffffffffffffffffffff1663c465f077826040518263ffffffff1660e01b815260040161466a919061552c565b600060405180830381600087803b15801561468457600080fd5b505af1158015614698573d6000803e3d6000fd5b5050505050565b8273ffffffffffffffffffffffffffffffffffffffff1663d4e8be8383836040518363ffffffff1660e01b81526004016146da9291906154da565b600060405180830381600087803b1580156146f457600080fd5b505af1158015614708573d6000803e3d6000fd5b50505050505050565b600061473c7f4d43445f44414900000000000000000000000000000000000000000000000000612ee3565b905090565b8173ffffffffffffffffffffffffffffffffffffffff1663352d3fba826040518263ffffffff1660e01b815260040161477a9190615ab5565b600060405180830381600087803b15801561479457600080fd5b505af11580156147a8573d6000803e3d6000fd5b505050505050565b6000816002836147c09190615816565b6b033b2e3c9fd0803ce8000000856147d89190615289565b6147e2919061541e565b6147ec9190615816565b905092915050565b6000816002836148049190615816565b670de0b6b3a7640000856148189190615289565b614822919061541e565b61482c9190615816565b905092915050565b6000604051905090565b600080fd5b600080fd5b6000819050919050565b61485b81614848565b811461486657600080fd5b50565b60008135905061487881614852565b92915050565b6000819050919050565b6148918161487e565b811461489c57600080fd5b50565b6000813590506148ae81614888565b92915050565b600080604083850312156148cb576148ca61483e565b5b60006148d985828601614869565b92505060206148ea8582860161489f565b9150509250929050565b600073ffffffffffffffffffffffffffffffffffffffff82169050919050565b600061491f826148f4565b9050919050565b61492f81614914565b811461493a57600080fd5b50565b60008135905061494c81614926565b92915050565b600080600080600080600060e0888a0312156149715761497061483e565b5b600061497f8a828b01614869565b97505060206149908a828b0161493d565b96505060406149a18a828b01614869565b95505060606149b28a828b0161489f565b94505060806149c38a828b0161489f565b93505060a06149d48a828b0161489f565b92505060c06149e58a828b0161489f565b91505092959891949750929550565b6149fd81614914565b82525050565b6000602082019050614a1860008301846149f4565b92915050565b600060208284031215614a3457614a3361483e565b5b6000614a428482850161489f565b91505092915050565b60008060408385031215614a6257614a6161483e565b5b6000614a708582860161493d565b9250506020614a818582860161489f565b9150509250929050565b60008060408385031215614aa257614aa161483e565b5b6000614ab085828601614869565b9250506020614ac18582860161493d565b9150509250929050565b60008060408385031215614ae257614ae161483e565b5b6000614af08582860161493d565b9250506020614b018582860161493d565b9150509250929050565b600064ffffffffff82169050919050565b614b2581614b0b565b8114614b3057600080fd5b50565b600081359050614b4281614b1c565b92915050565b60008115159050919050565b614b5d81614b48565b8114614b6857600080fd5b50565b600081359050614b7a81614b54565b92915050565b60008060408385031215614b9757614b9661483e565b5b6000614ba585828601614b33565b9250506020614bb685828601614b6b565b9150509250929050565b614bc981614b48565b82525050565b6000602082019050614be46000830184614bc0565b92915050565b600060208284031215614c0057614bff61483e565b5b6000614c0e84828501614869565b91505092915050565b60008060408385031215614c2e57614c2d61483e565b5b6000614c3c8582860161489f565b9250506020614c4d85828601614b6b565b9150509250929050565b600080600060608486031215614c7057614c6f61483e565b5b6000614c7e86828701614869565b9350506020614c8f8682870161489f565b9250506040614ca08682870161489f565b9150509250925092565b600080fd5b600080fd5b6000601f19601f8301169050919050565b7f4e487b7100000000000000000000000000000000000000000000000000000000600052604160045260246000fd5b614cfd82614cb4565b810181811067ffffffffffffffff82111715614d1c57614d1b614cc5565b5b80604052505050565b6000614d2f614834565b9050614d3b8282614cf4565b919050565b600067ffffffffffffffff821115614d5b57614d5a614cc5565b5b614d6482614cb4565b9050602081019050919050565b82818337600083830152505050565b6000614d93614d8e84614d40565b614d25565b905082815260208101848484011115614daf57614dae614caf565b5b614dba848285614d71565b509392505050565b600082601f830112614dd757614dd6614caa565b5b8135614de7848260208601614d80565b91505092915050565b600060208284031215614e0657614e0561483e565b5b600082013567ffffffffffffffff811115614e2457614e23614843565b5b614e3084828501614dc2565b91505092915050565b60008060008060808587031215614e5357614e5261483e565b5b6000614e618782880161493d565b9450506020614e7287828801614869565b9350506040614e8387828801614869565b9250506060614e948782880161489f565b91505092959194509250565b60008060408385031215614eb757614eb661483e565b5b6000614ec58582860161493d565b9250506020614ed685828601614869565b9150509250929050565b600060208284031215614ef657614ef561483e565b5b6000614f048482850161493d565b91505092915050565b600080600060608486031215614f2657614f2561483e565b5b6000614f3486828701614869565b9350506020614f458682870161489f565b9250506040614f5686828701614b6b565b9150509250925092565b60008060008060808587031215614f7a57614f7961483e565b5b6000614f8887828801614869565b9450506020614f998782880161489f565b9350506040614faa8782880161489f565b9250506060614fbb8782880161489f565b91505092959194509250565b600080600080600080600080610100898b031215614fe857614fe761483e565b5b6000614ff68b828c01614869565b98505060206150078b828c0161493d565b97505060406150188b828c01614869565b96505060606150298b828c01614869565b955050608061503a8b828c0161489f565b94505060a061504b8b828c0161489f565b93505060c061505c8b828c0161489f565b92505060e061506d8b828c0161489f565b9150509295985092959890939650565b6000806000606084860312156150965761509561483e565b5b60006150a48682870161493d565b93505060206150b58682870161489f565b92505060406150c68682870161489f565b9150509250925092565b6000806000606084860312156150e9576150e861483e565b5b60006150f786828701614b33565b935050602061510886828701614b33565b925050604061511986828701614b6b565b9150509250925092565b61512c8161487e565b82525050565b60006020820190506151476000830184615123565b92915050565b600080600080608085870312156151675761516661483e565b5b60006151758782880161493d565b945050602061518687828801614869565b935050604061519787828801614869565b92505060606151a88782880161493d565b91505092959194509250565b6000806000606084860312156151cd576151cc61483e565b5b60006151db8682870161493d565b93505060206151ec86828701614869565b92505060406151fd8682870161489f565b9150509250925092565b6000806000606084860312156152205761521f61483e565b5b600061522e8682870161493d565b935050602061523f86828701614869565b92505060406152508682870161493d565b9150509250925092565b7f4e487b7100000000000000000000000000000000000000000000000000000000600052601160045260246000fd5b60006152948261487e565b915061529f8361487e565b9250817fffffffffffffffffffffffffffffffffffffffffffffffffffffffffffffffff04831182151516156152d8576152d761525a565b5b828202905092915050565b6152ec81614848565b82525050565b6152fb81614914565b82525050565b61530a8161487e565b82525050565b600060e082019050615325600083018a6152e3565b61533260208301896152f2565b61533f60408301886152e3565b61534c6060830187615301565b6153596080830186615301565b61536660a0830185615301565b61537360c0830184615301565b98975050505050505050565b60008151905061538e81614926565b92915050565b6000602082840312156153aa576153a961483e565b5b60006153b88482850161537f565b91505092915050565b60006020820190506153d660008301846152f2565b92915050565b6000815190506153eb81614888565b92915050565b6000602082840312156154075761540661483e565b5b6000615415848285016153dc565b91505092915050565b60006154298261487e565b91506154348361487e565b925082820190508082111561544c5761544b61525a565b5b92915050565b600081519050919050565b600081905092915050565b60005b8381101561548657808201518184015260208101905061546b565b60008484015250505050565b600061549d82615452565b6154a7818561545d565b93506154b7818560208601615468565b80840191505092915050565b60006154cf8284615492565b915081905092915050565b60006040820190506154ef60008301856152e3565b6154fc60208301846152f2565b9392505050565b600060408201905061551860008301856152f2565b6155256020830184615301565b9392505050565b600060208201905061554160008301846152e3565b92915050565b600065ffffffffffff82169050919050565b61556281615547565b811461556d57600080fd5b50565b60008151905061557f81615559565b92915050565b600080600080600060a086880312156155a1576155a061483e565b5b60006155af888289016153dc565b95505060206155c0888289016153dc565b94505060406155d188828901615570565b93505060606155e288828901615570565b92505060806155f388828901615570565b9150509295509295909350565b600060808201905061561560008301876152e3565b6156226020830186615301565b61562f6040830185615301565b61563c6060830184615301565b95945050505050565b7f4e487b7100000000000000000000000000000000000000000000000000000000600052601260045260246000fd5b600061567f82614b0b565b915061568a83614b0b565b92508261569a57615699615645565b5b828204905092915050565b60006156b082614b0b565b91506156bb83614b0b565b9250828201905064ffffffffff8111156156d8576156d761525a565b5b92915050565b60006156e982614b0b565b91506156f483614b0b565b92508261570457615703615645565b5b828206905092915050565b600060408201905061572460008301856152e3565b6157316020830184615301565b9392505050565b600081519050919050565b600082825260208201905092915050565b600061575f82615738565b6157698185615743565b9350615779818560208601615468565b61578281614cb4565b840191505092915050565b600060208201905081810360008301526157a78184615754565b905092915050565b600080600080608085870312156157c9576157c861483e565b5b60006157d78782880161537f565b94505060206157e8878288016153dc565b93505060406157f9878288016153dc565b925050606061580a878288016153dc565b91505092959194509250565b60006158218261487e565b915061582c8361487e565b92508261583c5761583b615645565b5b828204905092915050565b600060608201905061585c60008301866152e3565b61586960208301856152e3565b6158766040830184615301565b949350505050565b60006158898261487e565b91506158948361487e565b92508282039050818111156158ac576158ab61525a565b5b92915050565b600080600080600060a086880312156158ce576158cd61483e565b5b60006158dc888289016153dc565b95505060206158ed888289016153dc565b94505060406158fe888289016153dc565b935050606061590f888289016153dc565b9250506080615920888289016153dc565b9150509295509295909350565b600061010082019050615943600083018b6152e3565b615950602083018a6152f2565b61595d60408301896152e3565b61596a60608301886152e3565b6159776080830187615301565b61598460a0830186615301565b61599160c0830185615301565b61599e60e0830184615301565b9998505050505050505050565b60006060820190506159c060008301866152f2565b6159cd60208301856152f2565b6159da6040830184615301565b949350505050565b60006159ed8261487e565b91506159f88361487e565b925082615a0857615a07615645565b5b828206905092915050565b6000606082019050615a2860008301866152e3565b615a3560208301856152e3565b615a4260408301846152f2565b949350505050565b6000615a55826148f4565b9050919050565b615a6581615a4a565b8114615a7057600080fd5b50565b600081519050615a8281615a5c565b92915050565b600060208284031215615a9e57615a9d61483e565b5b6000615aac84828501615a73565b91505092915050565b6000602082019050615aca6000830184615301565b9291505056fea26469706673582212201046b5c36457a87153a8363d3278bb90aca3c67b13e6cee0a5fecdc6cdac6b8464736f6c63430008100033","opcodes":"PUSH2 0x5B06 PUSH3 0x54 PUSH1 0xB DUP3 DUP3 DUP3 CODECOPY DUP1 MLOAD PUSH1 0x0 BYTE PUSH1 0x73 EQ PUSH2 0x47 JUMPI PUSH32 0x4E487B7100000000000000000000000000000000000000000000000000000000 PUSH1 0x0 MSTORE PUSH1 0x0 PUSH1 0x4 MSTORE PUSH1 0x24 PUSH1 0x0 REVERT JUMPDEST ADDRESS PUSH1 0x0 MSTORE PUSH1 0x73 DUP2 MSTORE8 DUP3 DUP2 RETURN INVALID PUSH20 0x0 ADDRESS EQ PUSH1 0x80 PUSH1 0x40 MSTORE PUSH1 0x4 CALLDATASIZE LT PUSH2 0x570 JUMPI PUSH1 0x0 CALLDATALOAD PUSH1 0xE0 SHR DUP1 PUSH4 0x91CD0648 GT PUSH2 0x2D4 JUMPI DUP1 PUSH4 0xC3B3AD7F GT PUSH2 0x197 JUMPI DUP1 PUSH4 0xE4881813 GT PUSH2 0xFE JUMPI DUP1 PUSH4 0xEDFC90C4 GT PUSH2 0xB7 JUMPI DUP1 PUSH4 0xF02B0D02 GT PUSH2 0x91 JUMPI DUP1 PUSH4 0xF02B0D02 EQ PUSH2 0x13D1 JUMPI DUP1 PUSH4 0xF36464AA EQ PUSH2 0x13FA JUMPI DUP1 PUSH4 0xF4B9FA75 EQ PUSH2 0x1423 JUMPI DUP1 PUSH4 0xFD549DE2 EQ PUSH2 0x1441 JUMPI PUSH2 0x570 JUMP JUMPDEST DUP1 PUSH4 0xEDFC90C4 EQ PUSH2 0x1361 JUMPI DUP1 PUSH4 0xEF94132E EQ PUSH2 0x138A JUMPI DUP1 PUSH4 0xEFBE1C1C EQ PUSH2 0x13B3 JUMPI PUSH2 0x570 JUMP JUMPDEST DUP1 PUSH4 0xE4881813 EQ PUSH2 0x1281 JUMPI DUP1 PUSH4 0xE5C6EB33 EQ PUSH2 0x129F JUMPI DUP1 PUSH4 0xE7796F33 EQ PUSH2 0x12C8 JUMPI DUP1 PUSH4 0xE9D8CCB8 EQ PUSH2 0x12F1 JUMPI DUP1 PUSH4 0xEB3FFE9E EQ PUSH2 0x131A JUMPI DUP1 PUSH4 0xEBB7920E EQ PUSH2 0x1343 JUMPI PUSH2 0x570 JUMP JUMPDEST DUP1 PUSH4 0xD2557456 GT PUSH2 0x150 JUMPI DUP1 PUSH4 0xD2557456 EQ PUSH2 0x118F JUMPI DUP1 PUSH4 0xD6D55E7D EQ PUSH2 0x11BF JUMPI DUP1 PUSH4 0xDED3A489 EQ PUSH2 0x11E8 JUMPI DUP1 PUSH4 0xDFE425B9 EQ PUSH2 0x1211 JUMPI DUP1 PUSH4 0xE40898E0 EQ PUSH2 0x123A JUMPI DUP1 PUSH4 0xE475AC5D EQ PUSH2 0x1263 JUMPI PUSH2 0x570 JUMP JUMPDEST DUP1 PUSH4 0xC3B3AD7F EQ PUSH2 0x10A4 JUMPI DUP1 PUSH4 0xC3BBCE6A EQ PUSH2 0x10C2 JUMPI DUP1 PUSH4 0xC661C88C EQ PUSH2 0x10EB JUMPI DUP1 PUSH4 0xC7732ADC EQ PUSH2 0x1114 JUMPI DUP1 PUSH4 0xCAA68387 EQ PUSH2 0x113D JUMPI DUP1 PUSH4 0xD0BAB933 EQ PUSH2 0x1166 JUMPI PUSH2 0x570 JUMP JUMPDEST DUP1 PUSH4 0xAEE953C8 GT PUSH2 0x23B JUMPI DUP1 PUSH4 0xB7953078 GT PUSH2 0x1F4 JUMPI DUP1 PUSH4 0xB7953078 EQ PUSH2 0xFBD JUMPI DUP1 PUSH4 0xB90ACA81 EQ PUSH2 0xFE6 JUMPI DUP1 PUSH4 0xBBBB0D7B EQ PUSH2 0x100F JUMPI DUP1 PUSH4 0xBDC56F30 EQ PUSH2 0x102D JUMPI DUP1 PUSH4 0xC11645BC EQ PUSH2 0x1056 JUMPI DUP1 PUSH4 0xC341A890 EQ PUSH2 0x1074 JUMPI PUSH2 0x570 JUMP JUMPDEST DUP1 PUSH4 0xAEE953C8 EQ PUSH2 0xEBE JUMPI DUP1 PUSH4 0xAF41B248 EQ PUSH2 0xEE7 JUMPI DUP1 PUSH4 0xB085F237 EQ PUSH2 0xF05 JUMPI DUP1 PUSH4 0xB0E22363 EQ PUSH2 0xF2E JUMPI DUP1 PUSH4 0xB1698F41 EQ PUSH2 0xF6B JUMPI DUP1 PUSH4 0xB452C131 EQ PUSH2 0xF94 JUMPI PUSH2 0x570 JUMP JUMPDEST DUP1 PUSH4 0xA16ED56F GT PUSH2 0x28D JUMPI DUP1 PUSH4 0xA16ED56F EQ PUSH2 0xDD3 JUMPI DUP1 PUSH4 0xA1D8EB32 EQ PUSH2 0xE03 JUMPI DUP1 PUSH4 0xA1F217C5 EQ PUSH2 0xE1A JUMPI DUP1 PUSH4 0xA497D536 EQ PUSH2 0xE43 JUMPI DUP1 PUSH4 0xA7E08336 EQ PUSH2 0xE6C JUMPI DUP1 PUSH4 0xADD7F43C EQ PUSH2 0xE95 JUMPI PUSH2 0x570 JUMP JUMPDEST DUP1 PUSH4 0x91CD0648 EQ PUSH2 0xCDD JUMPI DUP1 PUSH4 0x92125FA5 EQ PUSH2 0xD06 JUMPI DUP1 PUSH4 0x96856BFE EQ PUSH2 0xD2F JUMPI DUP1 PUSH4 0x9976F02B EQ PUSH2 0xD58 JUMPI DUP1 PUSH4 0x9BD0A56A EQ PUSH2 0xD81 JUMPI DUP1 PUSH4 0x9F476EE1 EQ PUSH2 0xDAA JUMPI PUSH2 0x570 JUMP JUMPDEST DUP1 PUSH4 0x4BA2363A GT PUSH2 0x437 JUMPI DUP1 PUSH4 0x6FFD8001 GT PUSH2 0x39E JUMPI DUP1 PUSH4 0x8050EC60 GT PUSH2 0x357 JUMPI DUP1 PUSH4 0x846A54FE GT PUSH2 0x331 JUMPI DUP1 PUSH4 0x846A54FE EQ PUSH2 0xC4F JUMPI DUP1 PUSH4 0x84718D89 EQ PUSH2 0xC6D JUMPI DUP1 PUSH4 0x89C32076 EQ PUSH2 0xC8B JUMPI DUP1 PUSH4 0x8D196E32 EQ PUSH2 0xCB4 JUMPI PUSH2 0x570 JUMP JUMPDEST DUP1 PUSH4 0x8050EC60 EQ PUSH2 0xBD4 JUMPI DUP1 PUSH4 0x80BCE705 EQ PUSH2 0xBFD JUMPI DUP1 PUSH4 0x81ACDCE9 EQ PUSH2 0xC26 JUMPI PUSH2 0x570 JUMP JUMPDEST DUP1 PUSH4 0x6FFD8001 EQ PUSH2 0xAED JUMPI DUP1 PUSH4 0x738FDD1A EQ PUSH2 0xB1D JUMPI DUP1 PUSH4 0x77DBF55A EQ PUSH2 0xB3B JUMPI DUP1 PUSH4 0x7C4C3BF1 EQ PUSH2 0xB64 JUMPI DUP1 PUSH4 0x7D2A54F4 EQ PUSH2 0xB8D JUMPI DUP1 PUSH4 0x7E992CB8 EQ PUSH2 0xBB6 JUMPI PUSH2 0x570 JUMP JUMPDEST DUP1 PUSH4 0x626CB3C5 GT PUSH2 0x3F0 JUMPI DUP1 PUSH4 0x626CB3C5 EQ PUSH2 0xA0D JUMPI DUP1 PUSH4 0x63A8FD89 EQ PUSH2 0xA2B JUMPI DUP1 PUSH4 0x6604930D EQ PUSH2 0xA49 JUMPI DUP1 PUSH4 0x6CF7A7FA EQ PUSH2 0xA72 JUMPI DUP1 PUSH4 0x6D530FB3 EQ PUSH2 0xA9B JUMPI DUP1 PUSH4 0x6D892F7E EQ PUSH2 0xAC4 JUMPI PUSH2 0x570 JUMP JUMPDEST DUP1 PUSH4 0x4BA2363A EQ PUSH2 0x922 JUMPI DUP1 PUSH4 0x4C940024 EQ PUSH2 0x940 JUMPI DUP1 PUSH4 0x4E39AEE3 EQ PUSH2 0x969 JUMPI DUP1 PUSH4 0x53D9E20E EQ PUSH2 0x992 JUMPI DUP1 PUSH4 0x5F3A7DD7 EQ PUSH2 0x9BB JUMPI DUP1 PUSH4 0x5FC132C1 EQ PUSH2 0x9E4 JUMPI PUSH2 0x570 JUMP JUMPDEST DUP1 PUSH4 0x229039FC GT PUSH2 0x4DB JUMPI DUP1 PUSH4 0x35329D4C GT PUSH2 0x494 JUMPI DUP1 PUSH4 0x35329D4C EQ PUSH2 0x829 JUMPI DUP1 PUSH4 0x36569E77 EQ PUSH2 0x859 JUMPI DUP1 PUSH4 0x402EF076 EQ PUSH2 0x877 JUMPI DUP1 PUSH4 0x40A8D9DE EQ PUSH2 0x8A0 JUMPI DUP1 PUSH4 0x41DACA2E EQ PUSH2 0x8D0 JUMPI DUP1 PUSH4 0x437757B9 EQ PUSH2 0x8F9 JUMPI PUSH2 0x570 JUMP JUMPDEST DUP1 PUSH4 0x229039FC EQ PUSH2 0x749 JUMPI DUP1 PUSH4 0x268E5143 EQ PUSH2 0x772 JUMPI DUP1 PUSH4 0x27EDDD12 EQ PUSH2 0x79B JUMPI DUP1 PUSH4 0x2BEF4595 EQ PUSH2 0x7C4 JUMPI DUP1 PUSH4 0x2E77468D EQ PUSH2 0x7ED JUMPI DUP1 PUSH4 0x31E0B802 EQ PUSH2 0x80B JUMPI PUSH2 0x570 JUMP JUMPDEST DUP1 PUSH4 0x153A8513 GT PUSH2 0x52D JUMPI DUP1 PUSH4 0x153A8513 EQ PUSH2 0x65E JUMPI DUP1 PUSH4 0x161C6510 EQ PUSH2 0x687 JUMPI DUP1 PUSH4 0x1816A5E1 EQ PUSH2 0x6B0 JUMPI DUP1 PUSH4 0x19D900A1 EQ PUSH2 0x6CE JUMPI DUP1 PUSH4 0x1B1AFF63 EQ PUSH2 0x6F7 JUMPI DUP1 PUSH4 0x20488453 EQ PUSH2 0x720 JUMPI PUSH2 0x570 JUMP JUMPDEST DUP1 PUSH4 0x6508431 EQ PUSH2 0x575 JUMPI DUP1 PUSH4 0x67322E0 EQ PUSH2 0x59E JUMPI DUP1 PUSH4 0x905213E EQ PUSH2 0x5DB JUMPI DUP1 PUSH4 0xDAA5EB5 EQ PUSH2 0x5F9 JUMPI DUP1 PUSH4 0xE01198B EQ PUSH2 0x622 JUMPI DUP1 PUSH4 0x1307F3AB EQ PUSH2 0x640 JUMPI JUMPDEST PUSH1 0x0 DUP1 REVERT JUMPDEST DUP2 DUP1 ISZERO PUSH2 0x581 JUMPI PUSH1 0x0 DUP1 REVERT JUMPDEST POP PUSH2 0x59C PUSH1 0x4 DUP1 CALLDATASIZE SUB DUP2 ADD SWAP1 PUSH2 0x597 SWAP2 SWAP1 PUSH2 0x48B4 JUMP JUMPDEST PUSH2 0x146A JUMP JUMPDEST STOP JUMPDEST DUP2 DUP1 ISZERO PUSH2 0x5AA JUMPI PUSH1 0x0 DUP1 REVERT JUMPDEST POP PUSH2 0x5C5 PUSH1 0x4 DUP1 CALLDATASIZE SUB DUP2 ADD SWAP1 PUSH2 0x5C0 SWAP2 SWAP1 PUSH2 0x4952 JUMP JUMPDEST PUSH2 0x14CE JUMP JUMPDEST PUSH1 0x40 MLOAD PUSH2 0x5D2 SWAP2 SWAP1 PUSH2 0x4A03 JUMP JUMPDEST PUSH1 0x40 MLOAD DUP1 SWAP2 SUB SWAP1 RETURN JUMPDEST PUSH2 0x5E3 PUSH2 0x164E JUMP JUMPDEST PUSH1 0x40 MLOAD PUSH2 0x5F0 SWAP2 SWAP1 PUSH2 0x4A03 JUMP JUMPDEST PUSH1 0x40 MLOAD DUP1 SWAP2 SUB SWAP1 RETURN JUMPDEST DUP2 DUP1 ISZERO PUSH2 0x605 JUMPI PUSH1 0x0 DUP1 REVERT JUMPDEST POP PUSH2 0x620 PUSH1 0x4 DUP1 CALLDATASIZE SUB DUP2 ADD SWAP1 PUSH2 0x61B SWAP2 SWAP1 PUSH2 0x48B4 JUMP JUMPDEST PUSH2 0x167E JUMP JUMPDEST STOP JUMPDEST PUSH2 0x62A PUSH2 0x17ED JUMP JUMPDEST PUSH1 0x40 MLOAD PUSH2 0x637 SWAP2 SWAP1 PUSH2 0x4A03 JUMP JUMPDEST PUSH1 0x40 MLOAD DUP1 SWAP2 SUB SWAP1 RETURN JUMPDEST PUSH2 0x648 PUSH2 0x181D JUMP JUMPDEST PUSH1 0x40 MLOAD PUSH2 0x655 SWAP2 SWAP1 PUSH2 0x4A03 JUMP JUMPDEST PUSH1 0x40 MLOAD DUP1 SWAP2 SUB SWAP1 RETURN JUMPDEST DUP2 DUP1 ISZERO PUSH2 0x66A JUMPI PUSH1 0x0 DUP1 REVERT JUMPDEST POP PUSH2 0x685 PUSH1 0x4 DUP1 CALLDATASIZE SUB DUP2 ADD SWAP1 PUSH2 0x680 SWAP2 SWAP1 PUSH2 0x4A1E JUMP JUMPDEST PUSH2 0x184D JUMP JUMPDEST STOP JUMPDEST DUP2 DUP1 ISZERO PUSH2 0x693 JUMPI PUSH1 0x0 DUP1 REVERT JUMPDEST POP PUSH2 0x6AE PUSH1 0x4 DUP1 CALLDATASIZE SUB DUP2 ADD SWAP1 PUSH2 0x6A9 SWAP2 SWAP1 PUSH2 0x4A4B JUMP JUMPDEST PUSH2 0x1896 JUMP JUMPDEST STOP JUMPDEST PUSH2 0x6B8 PUSH2 0x18F2 JUMP JUMPDEST PUSH1 0x40 MLOAD PUSH2 0x6C5 SWAP2 SWAP1 PUSH2 0x4A03 JUMP JUMPDEST PUSH1 0x40 MLOAD DUP1 SWAP2 SUB SWAP1 RETURN JUMPDEST DUP2 DUP1 ISZERO PUSH2 0x6DA JUMPI PUSH1 0x0 DUP1 REVERT JUMPDEST POP PUSH2 0x6F5 PUSH1 0x4 DUP1 CALLDATASIZE SUB DUP2 ADD SWAP1 PUSH2 0x6F0 SWAP2 SWAP1 PUSH2 0x4A8B JUMP JUMPDEST PUSH2 0x190A JUMP JUMPDEST STOP JUMPDEST DUP2 DUP1 ISZERO PUSH2 0x703 JUMPI PUSH1 0x0 DUP1 REVERT JUMPDEST POP PUSH2 0x71E PUSH1 0x4 DUP1 CALLDATASIZE SUB DUP2 ADD SWAP1 PUSH2 0x719 SWAP2 SWAP1 PUSH2 0x4A4B JUMP JUMPDEST PUSH2 0x198F JUMP JUMPDEST STOP JUMPDEST DUP2 DUP1 ISZERO PUSH2 0x72C JUMPI PUSH1 0x0 DUP1 REVERT JUMPDEST POP PUSH2 0x747 PUSH1 0x4 DUP1 CALLDATASIZE SUB DUP2 ADD SWAP1 PUSH2 0x742 SWAP2 SWAP1 PUSH2 0x4A1E JUMP JUMPDEST PUSH2 0x1A34 JUMP JUMPDEST STOP JUMPDEST DUP2 DUP1 ISZERO PUSH2 0x755 JUMPI PUSH1 0x0 DUP1 REVERT JUMPDEST POP PUSH2 0x770 PUSH1 0x4 DUP1 CALLDATASIZE SUB DUP2 ADD SWAP1 PUSH2 0x76B SWAP2 SWAP1 PUSH2 0x48B4 JUMP JUMPDEST PUSH2 0x1A69 JUMP JUMPDEST STOP JUMPDEST DUP2 DUP1 ISZERO PUSH2 0x77E JUMPI PUSH1 0x0 DUP1 REVERT JUMPDEST POP PUSH2 0x799 PUSH1 0x4 DUP1 CALLDATASIZE SUB DUP2 ADD SWAP1 PUSH2 0x794 SWAP2 SWAP1 PUSH2 0x4ACB JUMP JUMPDEST PUSH2 0x1AA0 JUMP JUMPDEST STOP JUMPDEST DUP2 DUP1 ISZERO PUSH2 0x7A7 JUMPI PUSH1 0x0 DUP1 REVERT JUMPDEST POP PUSH2 0x7C2 PUSH1 0x4 DUP1 CALLDATASIZE SUB DUP2 ADD SWAP1 PUSH2 0x7BD SWAP2 SWAP1 PUSH2 0x48B4 JUMP JUMPDEST PUSH2 0x1B0F JUMP JUMPDEST STOP JUMPDEST DUP2 DUP1 ISZERO PUSH2 0x7D0 JUMPI PUSH1 0x0 DUP1 REVERT JUMPDEST POP PUSH2 0x7EB PUSH1 0x4 DUP1 CALLDATASIZE SUB DUP2 ADD SWAP1 PUSH2 0x7E6 SWAP2 SWAP1 PUSH2 0x4ACB JUMP JUMPDEST PUSH2 0x1C60 JUMP JUMPDEST STOP JUMPDEST PUSH2 0x7F5 PUSH2 0x1CCF JUMP JUMPDEST PUSH1 0x40 MLOAD PUSH2 0x802 SWAP2 SWAP1 PUSH2 0x4A03 JUMP JUMPDEST PUSH1 0x40 MLOAD DUP1 SWAP2 SUB SWAP1 RETURN JUMPDEST PUSH2 0x813 PUSH2 0x1CFF JUMP JUMPDEST PUSH1 0x40 MLOAD PUSH2 0x820 SWAP2 SWAP1 PUSH2 0x4A03 JUMP JUMPDEST PUSH1 0x40 MLOAD DUP1 SWAP2 SUB SWAP1 RETURN JUMPDEST PUSH2 0x843 PUSH1 0x4 DUP1 CALLDATASIZE SUB DUP2 ADD SWAP1 PUSH2 0x83E SWAP2 SWAP1 PUSH2 0x4B80 JUMP JUMPDEST PUSH2 0x1D2F JUMP JUMPDEST PUSH1 0x40 MLOAD PUSH2 0x850 SWAP2 SWAP1 PUSH2 0x4BCF JUMP JUMPDEST PUSH1 0x40 MLOAD DUP1 SWAP2 SUB SWAP1 RETURN JUMPDEST PUSH2 0x861 PUSH2 0x1DCE JUMP JUMPDEST PUSH1 0x40 MLOAD PUSH2 0x86E SWAP2 SWAP1 PUSH2 0x4A03 JUMP JUMPDEST PUSH1 0x40 MLOAD DUP1 SWAP2 SUB SWAP1 RETURN JUMPDEST DUP2 DUP1 ISZERO PUSH2 0x883 JUMPI PUSH1 0x0 DUP1 REVERT JUMPDEST POP PUSH2 0x89E PUSH1 0x4 DUP1 CALLDATASIZE SUB DUP2 ADD SWAP1 PUSH2 0x899 SWAP2 SWAP1 PUSH2 0x4A1E JUMP JUMPDEST PUSH2 0x1DFE JUMP JUMPDEST STOP JUMPDEST PUSH2 0x8BA PUSH1 0x4 DUP1 CALLDATASIZE SUB DUP2 ADD SWAP1 PUSH2 0x8B5 SWAP2 SWAP1 PUSH2 0x4BEA JUMP JUMPDEST PUSH2 0x1E47 JUMP JUMPDEST PUSH1 0x40 MLOAD PUSH2 0x8C7 SWAP2 SWAP1 PUSH2 0x4A03 JUMP JUMPDEST PUSH1 0x40 MLOAD DUP1 SWAP2 SUB SWAP1 RETURN JUMPDEST DUP2 DUP1 ISZERO PUSH2 0x8DC JUMPI PUSH1 0x0 DUP1 REVERT JUMPDEST POP PUSH2 0x8F7 PUSH1 0x4 DUP1 CALLDATASIZE SUB DUP2 ADD SWAP1 PUSH2 0x8F2 SWAP2 SWAP1 PUSH2 0x4ACB JUMP JUMPDEST PUSH2 0x1ED1 JUMP JUMPDEST STOP JUMPDEST DUP2 DUP1 ISZERO PUSH2 0x905 JUMPI PUSH1 0x0 DUP1 REVERT JUMPDEST POP PUSH2 0x920 PUSH1 0x4 DUP1 CALLDATASIZE SUB DUP2 ADD SWAP1 PUSH2 0x91B SWAP2 SWAP1 PUSH2 0x4C17 JUMP JUMPDEST PUSH2 0x1F40 JUMP JUMPDEST STOP JUMPDEST PUSH2 0x92A PUSH2 0x2027 JUMP JUMPDEST PUSH1 0x40 MLOAD PUSH2 0x937 SWAP2 SWAP1 PUSH2 0x4A03 JUMP JUMPDEST PUSH1 0x40 MLOAD DUP1 SWAP2 SUB SWAP1 RETURN JUMPDEST DUP2 DUP1 ISZERO PUSH2 0x94C JUMPI PUSH1 0x0 DUP1 REVERT JUMPDEST POP PUSH2 0x967 PUSH1 0x4 DUP1 CALLDATASIZE SUB DUP2 ADD SWAP1 PUSH2 0x962 SWAP2 SWAP1 PUSH2 0x48B4 JUMP JUMPDEST PUSH2 0x2057 JUMP JUMPDEST STOP JUMPDEST DUP2 DUP1 ISZERO PUSH2 0x975 JUMPI PUSH1 0x0 DUP1 REVERT JUMPDEST POP PUSH2 0x990 PUSH1 0x4 DUP1 CALLDATASIZE SUB DUP2 ADD SWAP1 PUSH2 0x98B SWAP2 SWAP1 PUSH2 0x4A1E JUMP JUMPDEST PUSH2 0x20BB JUMP JUMPDEST STOP JUMPDEST DUP2 DUP1 ISZERO PUSH2 0x99E JUMPI PUSH1 0x0 DUP1 REVERT JUMPDEST POP PUSH2 0x9B9 PUSH1 0x4 DUP1 CALLDATASIZE SUB DUP2 ADD SWAP1 PUSH2 0x9B4 SWAP2 SWAP1 PUSH2 0x4C57 JUMP JUMPDEST PUSH2 0x2117 JUMP JUMPDEST STOP JUMPDEST DUP2 DUP1 ISZERO PUSH2 0x9C7 JUMPI PUSH1 0x0 DUP1 REVERT JUMPDEST POP PUSH2 0x9E2 PUSH1 0x4 DUP1 CALLDATASIZE SUB DUP2 ADD SWAP1 PUSH2 0x9DD SWAP2 SWAP1 PUSH2 0x4DF0 JUMP JUMPDEST PUSH2 0x21EB JUMP JUMPDEST STOP JUMPDEST DUP2 DUP1 ISZERO PUSH2 0x9F0 JUMPI PUSH1 0x0 DUP1 REVERT JUMPDEST POP PUSH2 0xA0B PUSH1 0x4 DUP1 CALLDATASIZE SUB DUP2 ADD SWAP1 PUSH2 0xA06 SWAP2 SWAP1 PUSH2 0x48B4 JUMP JUMPDEST PUSH2 0x226D JUMP JUMPDEST STOP JUMPDEST PUSH2 0xA15 PUSH2 0x2484 JUMP JUMPDEST PUSH1 0x40 MLOAD PUSH2 0xA22 SWAP2 SWAP1 PUSH2 0x4A03 JUMP JUMPDEST PUSH1 0x40 MLOAD DUP1 SWAP2 SUB SWAP1 RETURN JUMPDEST PUSH2 0xA33 PUSH2 0x24B4 JUMP JUMPDEST PUSH1 0x40 MLOAD PUSH2 0xA40 SWAP2 SWAP1 PUSH2 0x4A03 JUMP JUMPDEST PUSH1 0x40 MLOAD DUP1 SWAP2 SUB SWAP1 RETURN JUMPDEST DUP2 DUP1 ISZERO PUSH2 0xA55 JUMPI PUSH1 0x0 DUP1 REVERT JUMPDEST POP PUSH2 0xA70 PUSH1 0x4 DUP1 CALLDATASIZE SUB DUP2 ADD SWAP1 PUSH2 0xA6B SWAP2 SWAP1 PUSH2 0x48B4 JUMP JUMPDEST PUSH2 0x24E4 JUMP JUMPDEST STOP JUMPDEST DUP2 DUP1 ISZERO PUSH2 0xA7E JUMPI PUSH1 0x0 DUP1 REVERT JUMPDEST POP PUSH2 0xA99 PUSH1 0x4 DUP1 CALLDATASIZE SUB DUP2 ADD SWAP1 PUSH2 0xA94 SWAP2 SWAP1 PUSH2 0x4A4B JUMP JUMPDEST PUSH2 0x256D JUMP JUMPDEST STOP JUMPDEST DUP2 DUP1 ISZERO PUSH2 0xAA7 JUMPI PUSH1 0x0 DUP1 REVERT JUMPDEST POP PUSH2 0xAC2 PUSH1 0x4 DUP1 CALLDATASIZE SUB DUP2 ADD SWAP1 PUSH2 0xABD SWAP2 SWAP1 PUSH2 0x4BEA JUMP JUMPDEST PUSH2 0x25C9 JUMP JUMPDEST STOP JUMPDEST DUP2 DUP1 ISZERO PUSH2 0xAD0 JUMPI PUSH1 0x0 DUP1 REVERT JUMPDEST POP PUSH2 0xAEB PUSH1 0x4 DUP1 CALLDATASIZE SUB DUP2 ADD SWAP1 PUSH2 0xAE6 SWAP2 SWAP1 PUSH2 0x4ACB JUMP JUMPDEST PUSH2 0x263E JUMP JUMPDEST STOP JUMPDEST PUSH2 0xB07 PUSH1 0x4 DUP1 CALLDATASIZE SUB DUP2 ADD SWAP1 PUSH2 0xB02 SWAP2 SWAP1 PUSH2 0x4BEA JUMP JUMPDEST PUSH2 0x26AD JUMP JUMPDEST PUSH1 0x40 MLOAD PUSH2 0xB14 SWAP2 SWAP1 PUSH2 0x4A03 JUMP JUMPDEST PUSH1 0x40 MLOAD DUP1 SWAP2 SUB SWAP1 RETURN JUMPDEST PUSH2 0xB25 PUSH2 0x2737 JUMP JUMPDEST PUSH1 0x40 MLOAD PUSH2 0xB32 SWAP2 SWAP1 PUSH2 0x4A03 JUMP JUMPDEST PUSH1 0x40 MLOAD DUP1 SWAP2 SUB SWAP1 RETURN JUMPDEST DUP2 DUP1 ISZERO PUSH2 0xB47 JUMPI PUSH1 0x0 DUP1 REVERT JUMPDEST POP PUSH2 0xB62 PUSH1 0x4 DUP1 CALLDATASIZE SUB DUP2 ADD SWAP1 PUSH2 0xB5D SWAP2 SWAP1 PUSH2 0x4A1E JUMP JUMPDEST PUSH2 0x2767 JUMP JUMPDEST STOP JUMPDEST DUP2 DUP1 ISZERO PUSH2 0xB70 JUMPI PUSH1 0x0 DUP1 REVERT JUMPDEST POP PUSH2 0xB8B PUSH1 0x4 DUP1 CALLDATASIZE SUB DUP2 ADD SWAP1 PUSH2 0xB86 SWAP2 SWAP1 PUSH2 0x4A1E JUMP JUMPDEST PUSH2 0x27CE JUMP JUMPDEST STOP JUMPDEST DUP2 DUP1 ISZERO PUSH2 0xB99 JUMPI PUSH1 0x0 DUP1 REVERT JUMPDEST POP PUSH2 0xBB4 PUSH1 0x4 DUP1 CALLDATASIZE SUB DUP2 ADD SWAP1 PUSH2 0xBAF SWAP2 SWAP1 PUSH2 0x4A1E JUMP JUMPDEST PUSH2 0x2835 JUMP JUMPDEST STOP JUMPDEST PUSH2 0xBBE PUSH2 0x291B JUMP JUMPDEST PUSH1 0x40 MLOAD PUSH2 0xBCB SWAP2 SWAP1 PUSH2 0x4A03 JUMP JUMPDEST PUSH1 0x40 MLOAD DUP1 SWAP2 SUB SWAP1 RETURN JUMPDEST DUP2 DUP1 ISZERO PUSH2 0xBE0 JUMPI PUSH1 0x0 DUP1 REVERT JUMPDEST POP PUSH2 0xBFB PUSH1 0x4 DUP1 CALLDATASIZE SUB DUP2 ADD SWAP1 PUSH2 0xBF6 SWAP2 SWAP1 PUSH2 0x4E39 JUMP JUMPDEST PUSH2 0x294B JUMP JUMPDEST STOP JUMPDEST DUP2 DUP1 ISZERO PUSH2 0xC09 JUMPI PUSH1 0x0 DUP1 REVERT JUMPDEST POP PUSH2 0xC24 PUSH1 0x4 DUP1 CALLDATASIZE SUB DUP2 ADD SWAP1 PUSH2 0xC1F SWAP2 SWAP1 PUSH2 0x4A1E JUMP JUMPDEST PUSH2 0x29C0 JUMP JUMPDEST STOP JUMPDEST DUP2 DUP1 ISZERO PUSH2 0xC32 JUMPI PUSH1 0x0 DUP1 REVERT JUMPDEST POP PUSH2 0xC4D PUSH1 0x4 DUP1 CALLDATASIZE SUB DUP2 ADD SWAP1 PUSH2 0xC48 SWAP2 SWAP1 PUSH2 0x4A1E JUMP JUMPDEST PUSH2 0x2AA6 JUMP JUMPDEST STOP JUMPDEST PUSH2 0xC57 PUSH2 0x2B1B JUMP JUMPDEST PUSH1 0x40 MLOAD PUSH2 0xC64 SWAP2 SWAP1 PUSH2 0x4A03 JUMP JUMPDEST PUSH1 0x40 MLOAD DUP1 SWAP2 SUB SWAP1 RETURN JUMPDEST PUSH2 0xC75 PUSH2 0x2B4B JUMP JUMPDEST PUSH1 0x40 MLOAD PUSH2 0xC82 SWAP2 SWAP1 PUSH2 0x4A03 JUMP JUMPDEST PUSH1 0x40 MLOAD DUP1 SWAP2 SUB SWAP1 RETURN JUMPDEST DUP2 DUP1 ISZERO PUSH2 0xC97 JUMPI PUSH1 0x0 DUP1 REVERT JUMPDEST POP PUSH2 0xCB2 PUSH1 0x4 DUP1 CALLDATASIZE SUB DUP2 ADD SWAP1 PUSH2 0xCAD SWAP2 SWAP1 PUSH2 0x4EA0 JUMP JUMPDEST PUSH2 0x2B7B JUMP JUMPDEST STOP JUMPDEST DUP2 DUP1 ISZERO PUSH2 0xCC0 JUMPI PUSH1 0x0 DUP1 REVERT JUMPDEST POP PUSH2 0xCDB PUSH1 0x4 DUP1 CALLDATASIZE SUB DUP2 ADD SWAP1 PUSH2 0xCD6 SWAP2 SWAP1 PUSH2 0x4A1E JUMP JUMPDEST PUSH2 0x2BF3 JUMP JUMPDEST STOP JUMPDEST DUP2 DUP1 ISZERO PUSH2 0xCE9 JUMPI PUSH1 0x0 DUP1 REVERT JUMPDEST POP PUSH2 0xD04 PUSH1 0x4 DUP1 CALLDATASIZE SUB DUP2 ADD SWAP1 PUSH2 0xCFF SWAP2 SWAP1 PUSH2 0x4A1E JUMP JUMPDEST PUSH2 0x2C5A JUMP JUMPDEST STOP JUMPDEST DUP2 DUP1 ISZERO PUSH2 0xD12 JUMPI PUSH1 0x0 DUP1 REVERT JUMPDEST POP PUSH2 0xD2D PUSH1 0x4 DUP1 CALLDATASIZE SUB DUP2 ADD SWAP1 PUSH2 0xD28 SWAP2 SWAP1 PUSH2 0x4EE0 JUMP JUMPDEST PUSH2 0x2CAE JUMP JUMPDEST STOP JUMPDEST DUP2 DUP1 ISZERO PUSH2 0xD3B JUMPI PUSH1 0x0 DUP1 REVERT JUMPDEST POP PUSH2 0xD56 PUSH1 0x4 DUP1 CALLDATASIZE SUB DUP2 ADD SWAP1 PUSH2 0xD51 SWAP2 SWAP1 PUSH2 0x4BEA JUMP JUMPDEST PUSH2 0x2D23 JUMP JUMPDEST STOP JUMPDEST DUP2 DUP1 ISZERO PUSH2 0xD64 JUMPI PUSH1 0x0 DUP1 REVERT JUMPDEST POP PUSH2 0xD7F PUSH1 0x4 DUP1 CALLDATASIZE SUB DUP2 ADD SWAP1 PUSH2 0xD7A SWAP2 SWAP1 PUSH2 0x48B4 JUMP JUMPDEST PUSH2 0x2DAA JUMP JUMPDEST STOP JUMPDEST DUP2 DUP1 ISZERO PUSH2 0xD8D JUMPI PUSH1 0x0 DUP1 REVERT JUMPDEST POP PUSH2 0xDA8 PUSH1 0x4 DUP1 CALLDATASIZE SUB DUP2 ADD SWAP1 PUSH2 0xDA3 SWAP2 SWAP1 PUSH2 0x48B4 JUMP JUMPDEST PUSH2 0x2E13 JUMP JUMPDEST STOP JUMPDEST DUP2 DUP1 ISZERO PUSH2 0xDB6 JUMPI PUSH1 0x0 DUP1 REVERT JUMPDEST POP PUSH2 0xDD1 PUSH1 0x4 DUP1 CALLDATASIZE SUB DUP2 ADD SWAP1 PUSH2 0xDCC SWAP2 SWAP1 PUSH2 0x4A1E JUMP JUMPDEST PUSH2 0x2E7C JUMP JUMPDEST STOP JUMPDEST PUSH2 0xDED PUSH1 0x4 DUP1 CALLDATASIZE SUB DUP2 ADD SWAP1 PUSH2 0xDE8 SWAP2 SWAP1 PUSH2 0x4BEA JUMP JUMPDEST PUSH2 0x2EE3 JUMP JUMPDEST PUSH1 0x40 MLOAD PUSH2 0xDFA SWAP2 SWAP1 PUSH2 0x4A03 JUMP JUMPDEST PUSH1 0x40 MLOAD DUP1 SWAP2 SUB SWAP1 RETURN JUMPDEST DUP2 DUP1 ISZERO PUSH2 0xE0F JUMPI PUSH1 0x0 DUP1 REVERT JUMPDEST POP PUSH2 0xE18 PUSH2 0x2F7A JUMP JUMPDEST STOP JUMPDEST DUP2 DUP1 ISZERO PUSH2 0xE26 JUMPI PUSH1 0x0 DUP1 REVERT JUMPDEST POP PUSH2 0xE41 PUSH1 0x4 DUP1 CALLDATASIZE SUB DUP2 ADD SWAP1 PUSH2 0xE3C SWAP2 SWAP1 PUSH2 0x4A1E JUMP JUMPDEST PUSH2 0x2FF5 JUMP JUMPDEST STOP JUMPDEST DUP2 DUP1 ISZERO PUSH2 0xE4F JUMPI PUSH1 0x0 DUP1 REVERT JUMPDEST POP PUSH2 0xE6A PUSH1 0x4 DUP1 CALLDATASIZE SUB DUP2 ADD SWAP1 PUSH2 0xE65 SWAP2 SWAP1 PUSH2 0x4A1E JUMP JUMPDEST PUSH2 0x306A JUMP JUMPDEST STOP JUMPDEST DUP2 DUP1 ISZERO PUSH2 0xE78 JUMPI PUSH1 0x0 DUP1 REVERT JUMPDEST POP PUSH2 0xE93 PUSH1 0x4 DUP1 CALLDATASIZE SUB DUP2 ADD SWAP1 PUSH2 0xE8E SWAP2 SWAP1 PUSH2 0x4F0D JUMP JUMPDEST PUSH2 0x309F JUMP JUMPDEST STOP JUMPDEST DUP2 DUP1 ISZERO PUSH2 0xEA1 JUMPI PUSH1 0x0 DUP1 REVERT JUMPDEST POP PUSH2 0xEBC PUSH1 0x4 DUP1 CALLDATASIZE SUB DUP2 ADD SWAP1 PUSH2 0xEB7 SWAP2 SWAP1 PUSH2 0x4A1E JUMP JUMPDEST PUSH2 0x31AF JUMP JUMPDEST STOP JUMPDEST DUP2 DUP1 ISZERO PUSH2 0xECA JUMPI PUSH1 0x0 DUP1 REVERT JUMPDEST POP PUSH2 0xEE5 PUSH1 0x4 DUP1 CALLDATASIZE SUB DUP2 ADD SWAP1 PUSH2 0xEE0 SWAP2 SWAP1 PUSH2 0x4A1E JUMP JUMPDEST PUSH2 0x3215 JUMP JUMPDEST STOP JUMPDEST PUSH2 0xEEF PUSH2 0x327C JUMP JUMPDEST PUSH1 0x40 MLOAD PUSH2 0xEFC SWAP2 SWAP1 PUSH2 0x4A03 JUMP JUMPDEST PUSH1 0x40 MLOAD DUP1 SWAP2 SUB SWAP1 RETURN JUMPDEST DUP2 DUP1 ISZERO PUSH2 0xF11 JUMPI PUSH1 0x0 DUP1 REVERT JUMPDEST POP PUSH2 0xF2C PUSH1 0x4 DUP1 CALLDATASIZE SUB DUP2 ADD SWAP1 PUSH2 0xF27 SWAP2 SWAP1 PUSH2 0x4F60 JUMP JUMPDEST PUSH2 0x32AC JUMP JUMPDEST STOP JUMPDEST DUP2 DUP1 ISZERO PUSH2 0xF3A JUMPI PUSH1 0x0 DUP1 REVERT JUMPDEST POP PUSH2 0xF55 PUSH1 0x4 DUP1 CALLDATASIZE SUB DUP2 ADD SWAP1 PUSH2 0xF50 SWAP2 SWAP1 PUSH2 0x4FC7 JUMP JUMPDEST PUSH2 0x338E JUMP JUMPDEST PUSH1 0x40 MLOAD PUSH2 0xF62 SWAP2 SWAP1 PUSH2 0x4A03 JUMP JUMPDEST PUSH1 0x40 MLOAD DUP1 SWAP2 SUB SWAP1 RETURN JUMPDEST DUP2 DUP1 ISZERO PUSH2 0xF77 JUMPI PUSH1 0x0 DUP1 REVERT JUMPDEST POP PUSH2 0xF92 PUSH1 0x4 DUP1 CALLDATASIZE SUB DUP2 ADD SWAP1 PUSH2 0xF8D SWAP2 SWAP1 PUSH2 0x4A4B JUMP JUMPDEST PUSH2 0x3511 JUMP JUMPDEST STOP JUMPDEST DUP2 DUP1 ISZERO PUSH2 0xFA0 JUMPI PUSH1 0x0 DUP1 REVERT JUMPDEST POP PUSH2 0xFBB PUSH1 0x4 DUP1 CALLDATASIZE SUB DUP2 ADD SWAP1 PUSH2 0xFB6 SWAP2 SWAP1 PUSH2 0x4A1E JUMP JUMPDEST PUSH2 0x364B JUMP JUMPDEST STOP JUMPDEST DUP2 DUP1 ISZERO PUSH2 0xFC9 JUMPI PUSH1 0x0 DUP1 REVERT JUMPDEST POP PUSH2 0xFE4 PUSH1 0x4 DUP1 CALLDATASIZE SUB DUP2 ADD SWAP1 PUSH2 0xFDF SWAP2 SWAP1 PUSH2 0x48B4 JUMP JUMPDEST PUSH2 0x3680 JUMP JUMPDEST STOP JUMPDEST DUP2 DUP1 ISZERO PUSH2 0xFF2 JUMPI PUSH1 0x0 DUP1 REVERT JUMPDEST POP PUSH2 0x100D PUSH1 0x4 DUP1 CALLDATASIZE SUB DUP2 ADD SWAP1 PUSH2 0x1008 SWAP2 SWAP1 PUSH2 0x4A1E JUMP JUMPDEST PUSH2 0x36E9 JUMP JUMPDEST STOP JUMPDEST PUSH2 0x1017 PUSH2 0x3750 JUMP JUMPDEST PUSH1 0x40 MLOAD PUSH2 0x1024 SWAP2 SWAP1 PUSH2 0x4A03 JUMP JUMPDEST PUSH1 0x40 MLOAD DUP1 SWAP2 SUB SWAP1 RETURN JUMPDEST DUP2 DUP1 ISZERO PUSH2 0x1039 JUMPI PUSH1 0x0 DUP1 REVERT JUMPDEST POP PUSH2 0x1054 PUSH1 0x4 DUP1 CALLDATASIZE SUB DUP2 ADD SWAP1 PUSH2 0x104F SWAP2 SWAP1 PUSH2 0x48B4 JUMP JUMPDEST PUSH2 0x3780 JUMP JUMPDEST STOP JUMPDEST PUSH2 0x105E PUSH2 0x3809 JUMP JUMPDEST PUSH1 0x40 MLOAD PUSH2 0x106B SWAP2 SWAP1 PUSH2 0x4A03 JUMP JUMPDEST PUSH1 0x40 MLOAD DUP1 SWAP2 SUB SWAP1 RETURN JUMPDEST PUSH2 0x108E PUSH1 0x4 DUP1 CALLDATASIZE SUB DUP2 ADD SWAP1 PUSH2 0x1089 SWAP2 SWAP1 PUSH2 0x4BEA JUMP JUMPDEST PUSH2 0x3839 JUMP JUMPDEST PUSH1 0x40 MLOAD PUSH2 0x109B SWAP2 SWAP1 PUSH2 0x4A03 JUMP JUMPDEST PUSH1 0x40 MLOAD DUP1 SWAP2 SUB SWAP1 RETURN JUMPDEST PUSH2 0x10AC PUSH2 0x38B9 JUMP JUMPDEST PUSH1 0x40 MLOAD PUSH2 0x10B9 SWAP2 SWAP1 PUSH2 0x4A03 JUMP JUMPDEST PUSH1 0x40 MLOAD DUP1 SWAP2 SUB SWAP1 RETURN JUMPDEST DUP2 DUP1 ISZERO PUSH2 0x10CE JUMPI PUSH1 0x0 DUP1 REVERT JUMPDEST POP PUSH2 0x10E9 PUSH1 0x4 DUP1 CALLDATASIZE SUB DUP2 ADD SWAP1 PUSH2 0x10E4 SWAP2 SWAP1 PUSH2 0x4DF0 JUMP JUMPDEST PUSH2 0x38E9 JUMP JUMPDEST STOP JUMPDEST DUP2 DUP1 ISZERO PUSH2 0x10F7 JUMPI PUSH1 0x0 DUP1 REVERT JUMPDEST POP PUSH2 0x1112 PUSH1 0x4 DUP1 CALLDATASIZE SUB DUP2 ADD SWAP1 PUSH2 0x110D SWAP2 SWAP1 PUSH2 0x4EE0 JUMP JUMPDEST PUSH2 0x396B JUMP JUMPDEST STOP JUMPDEST DUP2 DUP1 ISZERO PUSH2 0x1120 JUMPI PUSH1 0x0 DUP1 REVERT JUMPDEST POP PUSH2 0x113B PUSH1 0x4 DUP1 CALLDATASIZE SUB DUP2 ADD SWAP1 PUSH2 0x1136 SWAP2 SWAP1 PUSH2 0x4A1E JUMP JUMPDEST PUSH2 0x39E0 JUMP JUMPDEST STOP JUMPDEST DUP2 DUP1 ISZERO PUSH2 0x1149 JUMPI PUSH1 0x0 DUP1 REVERT JUMPDEST POP PUSH2 0x1164 PUSH1 0x4 DUP1 CALLDATASIZE SUB DUP2 ADD SWAP1 PUSH2 0x115F SWAP2 SWAP1 PUSH2 0x4ACB JUMP JUMPDEST PUSH2 0x3A55 JUMP JUMPDEST STOP JUMPDEST DUP2 DUP1 ISZERO PUSH2 0x1172 JUMPI PUSH1 0x0 DUP1 REVERT JUMPDEST POP PUSH2 0x118D PUSH1 0x4 DUP1 CALLDATASIZE SUB DUP2 ADD SWAP1 PUSH2 0x1188 SWAP2 SWAP1 PUSH2 0x507D JUMP JUMPDEST PUSH2 0x3B54 JUMP JUMPDEST STOP JUMPDEST PUSH2 0x11A9 PUSH1 0x4 DUP1 CALLDATASIZE SUB DUP2 ADD SWAP1 PUSH2 0x11A4 SWAP2 SWAP1 PUSH2 0x50D0 JUMP JUMPDEST PUSH2 0x3BDC JUMP JUMPDEST PUSH1 0x40 MLOAD PUSH2 0x11B6 SWAP2 SWAP1 PUSH2 0x5132 JUMP JUMPDEST PUSH1 0x40 MLOAD DUP1 SWAP2 SUB SWAP1 RETURN JUMPDEST DUP2 DUP1 ISZERO PUSH2 0x11CB JUMPI PUSH1 0x0 DUP1 REVERT JUMPDEST POP PUSH2 0x11E6 PUSH1 0x4 DUP1 CALLDATASIZE SUB DUP2 ADD SWAP1 PUSH2 0x11E1 SWAP2 SWAP1 PUSH2 0x4A4B JUMP JUMPDEST PUSH2 0x3E17 JUMP JUMPDEST STOP JUMPDEST DUP2 DUP1 ISZERO PUSH2 0x11F4 JUMPI PUSH1 0x0 DUP1 REVERT JUMPDEST POP PUSH2 0x120F PUSH1 0x4 DUP1 CALLDATASIZE SUB DUP2 ADD SWAP1 PUSH2 0x120A SWAP2 SWAP1 PUSH2 0x4DF0 JUMP JUMPDEST PUSH2 0x3E46 JUMP JUMPDEST STOP JUMPDEST DUP2 DUP1 ISZERO PUSH2 0x121D JUMPI PUSH1 0x0 DUP1 REVERT JUMPDEST POP PUSH2 0x1238 PUSH1 0x4 DUP1 CALLDATASIZE SUB DUP2 ADD SWAP1 PUSH2 0x1233 SWAP2 SWAP1 PUSH2 0x4ACB JUMP JUMPDEST PUSH2 0x3EC8 JUMP JUMPDEST STOP JUMPDEST DUP2 DUP1 ISZERO PUSH2 0x1246 JUMPI PUSH1 0x0 DUP1 REVERT JUMPDEST POP PUSH2 0x1261 PUSH1 0x4 DUP1 CALLDATASIZE SUB DUP2 ADD SWAP1 PUSH2 0x125C SWAP2 SWAP1 PUSH2 0x4F0D JUMP JUMPDEST PUSH2 0x3FC7 JUMP JUMPDEST STOP JUMPDEST PUSH2 0x126B PUSH2 0x40BA JUMP JUMPDEST PUSH1 0x40 MLOAD PUSH2 0x1278 SWAP2 SWAP1 PUSH2 0x4A03 JUMP JUMPDEST PUSH1 0x40 MLOAD DUP1 SWAP2 SUB SWAP1 RETURN JUMPDEST PUSH2 0x1289 PUSH2 0x40EA JUMP JUMPDEST PUSH1 0x40 MLOAD PUSH2 0x1296 SWAP2 SWAP1 PUSH2 0x4A03 JUMP JUMPDEST PUSH1 0x40 MLOAD DUP1 SWAP2 SUB SWAP1 RETURN JUMPDEST DUP2 DUP1 ISZERO PUSH2 0x12AB JUMPI PUSH1 0x0 DUP1 REVERT JUMPDEST POP PUSH2 0x12C6 PUSH1 0x4 DUP1 CALLDATASIZE SUB DUP2 ADD SWAP1 PUSH2 0x12C1 SWAP2 SWAP1 PUSH2 0x514D JUMP JUMPDEST PUSH2 0x411A JUMP JUMPDEST STOP JUMPDEST DUP2 DUP1 ISZERO PUSH2 0x12D4 JUMPI PUSH1 0x0 DUP1 REVERT JUMPDEST POP PUSH2 0x12EF PUSH1 0x4 DUP1 CALLDATASIZE SUB DUP2 ADD SWAP1 PUSH2 0x12EA SWAP2 SWAP1 PUSH2 0x4ACB JUMP JUMPDEST PUSH2 0x418F JUMP JUMPDEST STOP JUMPDEST DUP2 DUP1 ISZERO PUSH2 0x12FD JUMPI PUSH1 0x0 DUP1 REVERT JUMPDEST POP PUSH2 0x1318 PUSH1 0x4 DUP1 CALLDATASIZE SUB DUP2 ADD SWAP1 PUSH2 0x1313 SWAP2 SWAP1 PUSH2 0x4EE0 JUMP JUMPDEST PUSH2 0x41FE JUMP JUMPDEST STOP JUMPDEST DUP2 DUP1 ISZERO PUSH2 0x1326 JUMPI PUSH1 0x0 DUP1 REVERT JUMPDEST POP PUSH2 0x1341 PUSH1 0x4 DUP1 CALLDATASIZE SUB DUP2 ADD SWAP1 PUSH2 0x133C SWAP2 SWAP1 PUSH2 0x51B4 JUMP JUMPDEST PUSH2 0x4413 JUMP JUMPDEST STOP JUMPDEST PUSH2 0x134B PUSH2 0x4485 JUMP JUMPDEST PUSH1 0x40 MLOAD PUSH2 0x1358 SWAP2 SWAP1 PUSH2 0x4A03 JUMP JUMPDEST PUSH1 0x40 MLOAD DUP1 SWAP2 SUB SWAP1 RETURN JUMPDEST DUP2 DUP1 ISZERO PUSH2 0x136D JUMPI PUSH1 0x0 DUP1 REVERT JUMPDEST POP PUSH2 0x1388 PUSH1 0x4 DUP1 CALLDATASIZE SUB DUP2 ADD SWAP1 PUSH2 0x1383 SWAP2 SWAP1 PUSH2 0x4A1E JUMP JUMPDEST PUSH2 0x44B5 JUMP JUMPDEST STOP JUMPDEST DUP2 DUP1 ISZERO PUSH2 0x1396 JUMPI PUSH1 0x0 DUP1 REVERT JUMPDEST POP PUSH2 0x13B1 PUSH1 0x4 DUP1 CALLDATASIZE SUB DUP2 ADD SWAP1 PUSH2 0x13AC SWAP2 SWAP1 PUSH2 0x4F0D JUMP JUMPDEST PUSH2 0x44EA JUMP JUMPDEST STOP JUMPDEST PUSH2 0x13BB PUSH2 0x45FA JUMP JUMPDEST PUSH1 0x40 MLOAD PUSH2 0x13C8 SWAP2 SWAP1 PUSH2 0x4A03 JUMP JUMPDEST PUSH1 0x40 MLOAD DUP1 SWAP2 SUB SWAP1 RETURN JUMPDEST DUP2 DUP1 ISZERO PUSH2 0x13DD JUMPI PUSH1 0x0 DUP1 REVERT JUMPDEST POP PUSH2 0x13F8 PUSH1 0x4 DUP1 CALLDATASIZE SUB DUP2 ADD SWAP1 PUSH2 0x13F3 SWAP2 SWAP1 PUSH2 0x4BEA JUMP JUMPDEST PUSH2 0x462A JUMP JUMPDEST STOP JUMPDEST DUP2 DUP1 ISZERO PUSH2 0x1406 JUMPI PUSH1 0x0 DUP1 REVERT JUMPDEST POP PUSH2 0x1421 PUSH1 0x4 DUP1 CALLDATASIZE SUB DUP2 ADD SWAP1 PUSH2 0x141C SWAP2 SWAP1 PUSH2 0x5207 JUMP JUMPDEST PUSH2 0x469F JUMP JUMPDEST STOP JUMPDEST PUSH2 0x142B PUSH2 0x4711 JUMP JUMPDEST PUSH1 0x40 MLOAD PUSH2 0x1438 SWAP2 SWAP1 PUSH2 0x4A03 JUMP JUMPDEST PUSH1 0x40 MLOAD DUP1 SWAP2 SUB SWAP1 RETURN JUMPDEST DUP2 DUP1 ISZERO PUSH2 0x144D JUMPI PUSH1 0x0 DUP1 REVERT JUMPDEST POP PUSH2 0x1468 PUSH1 0x4 DUP1 CALLDATASIZE SUB DUP2 ADD SWAP1 PUSH2 0x1463 SWAP2 SWAP1 PUSH2 0x4A4B JUMP JUMPDEST PUSH2 0x4741 JUMP JUMPDEST STOP JUMPDEST PUSH1 0x64 DUP1 PUSH2 0x1477 SWAP2 SWAP1 PUSH2 0x5289 JUMP JUMPDEST DUP2 LT PUSH2 0x1482 JUMPI PUSH1 0x0 DUP1 REVERT JUMPDEST PUSH2 0x14CA PUSH2 0x148E DUP4 PUSH2 0x1E47 JUMP JUMPDEST PUSH32 0x6375737000000000000000000000000000000000000000000000000000000000 PUSH2 0x14C5 DUP5 PUSH1 0x64 DUP1 PUSH2 0x14C0 SWAP2 SWAP1 PUSH2 0x5289 JUMP JUMPDEST PUSH2 0x47B0 JUMP JUMPDEST PUSH2 0x4413 JUMP JUMPDEST POP POP JUMP JUMPDEST PUSH1 0x0 DUP1 PUSH2 0x14D9 PUSH2 0x2B1B JUMP JUMPDEST PUSH20 0xFFFFFFFFFFFFFFFFFFFFFFFFFFFFFFFFFFFFFFFF AND PUSH4 0x3F10119D DUP11 DUP11 DUP11 DUP11 DUP11 DUP11 DUP11 PUSH1 0x40 MLOAD DUP9 PUSH4 0xFFFFFFFF AND PUSH1 0xE0 SHL DUP2 MSTORE PUSH1 0x4 ADD PUSH2 0x151D SWAP8 SWAP7 SWAP6 SWAP5 SWAP4 SWAP3 SWAP2 SWAP1 PUSH2 0x5310 JUMP JUMPDEST PUSH1 0x20 PUSH1 0x40 MLOAD DUP1 DUP4 SUB DUP2 PUSH1 0x0 DUP8 GAS CALL ISZERO DUP1 ISZERO PUSH2 0x153C JUMPI RETURNDATASIZE PUSH1 0x0 DUP1 RETURNDATACOPY RETURNDATASIZE PUSH1 0x0 REVERT JUMPDEST POP POP POP POP PUSH1 0x40 MLOAD RETURNDATASIZE PUSH1 0x1F NOT PUSH1 0x1F DUP3 ADD AND DUP3 ADD DUP1 PUSH1 0x40 MSTORE POP DUP2 ADD SWAP1 PUSH2 0x1560 SWAP2 SWAP1 PUSH2 0x5394 JUMP JUMPDEST SWAP1 POP DUP8 PUSH20 0xFFFFFFFFFFFFFFFFFFFFFFFFFFFFFFFFFFFFFFFF AND PUSH4 0x65FAE35E DUP3 PUSH1 0x40 MLOAD DUP3 PUSH4 0xFFFFFFFF AND PUSH1 0xE0 SHL DUP2 MSTORE PUSH1 0x4 ADD PUSH2 0x159B SWAP2 SWAP1 PUSH2 0x53C1 JUMP JUMPDEST PUSH1 0x0 PUSH1 0x40 MLOAD DUP1 DUP4 SUB DUP2 PUSH1 0x0 DUP8 DUP1 EXTCODESIZE ISZERO DUP1 ISZERO PUSH2 0x15B5 JUMPI PUSH1 0x0 DUP1 REVERT JUMPDEST POP GAS CALL ISZERO DUP1 ISZERO PUSH2 0x15C9 JUMPI RETURNDATASIZE PUSH1 0x0 DUP1 RETURNDATACOPY RETURNDATASIZE PUSH1 0x0 REVERT JUMPDEST POP POP POP POP DUP1 PUSH20 0xFFFFFFFFFFFFFFFFFFFFFFFFFFFFFFFFFFFFFFFF AND PUSH4 0x3EAF5D9F PUSH1 0x40 MLOAD DUP2 PUSH4 0xFFFFFFFF AND PUSH1 0xE0 SHL DUP2 MSTORE PUSH1 0x4 ADD PUSH1 0x20 PUSH1 0x40 MLOAD DUP1 DUP4 SUB DUP2 PUSH1 0x0 DUP8 GAS CALL ISZERO DUP1 ISZERO PUSH2 0x161A JUMPI RETURNDATASIZE PUSH1 0x0 DUP1 RETURNDATACOPY RETURNDATASIZE PUSH1 0x0 REVERT JUMPDEST POP POP POP POP PUSH1 0x40 MLOAD RETURNDATASIZE PUSH1 0x1F NOT PUSH1 0x1F DUP3 ADD AND DUP3 ADD DUP1 PUSH1 0x40 MSTORE POP DUP2 ADD SWAP1 PUSH2 0x163E SWAP2 SWAP1 PUSH2 0x53F1 JUMP JUMPDEST POP DUP1 SWAP2 POP POP SWAP8 SWAP7 POP POP POP POP POP POP POP JUMP JUMPDEST PUSH1 0x0 PUSH2 0x1679 PUSH32 0x474F565F47554152440000000000000000000000000000000000000000000000 PUSH2 0x2EE3 JUMP JUMPDEST SWAP1 POP SWAP1 JUMP JUMPDEST PUSH1 0x64 DUP1 PUSH2 0x168B SWAP2 SWAP1 PUSH2 0x5289 JUMP JUMPDEST DUP2 LT PUSH2 0x1696 JUMPI PUSH1 0x0 DUP1 REVERT JUMPDEST PUSH2 0x16F1 PUSH2 0x16A1 PUSH2 0x38B9 JUMP JUMPDEST DUP4 PUSH32 0x63686F7000000000000000000000000000000000000000000000000000000000 PUSH2 0x16D9 DUP6 PUSH1 0x64 DUP1 PUSH2 0x16D4 SWAP2 SWAP1 PUSH2 0x5289 JUMP JUMPDEST PUSH2 0x47F4 JUMP JUMPDEST PUSH8 0xDE0B6B3A7640000 PUSH2 0x16EC SWAP2 SWAP1 PUSH2 0x541E JUMP JUMPDEST PUSH2 0x294B JUMP JUMPDEST PUSH1 0x0 PUSH2 0x16FC DUP4 PUSH2 0x1E47 JUMP JUMPDEST PUSH20 0xFFFFFFFFFFFFFFFFFFFFFFFFFFFFFFFFFFFFFFFF AND PUSH1 0x40 MLOAD PUSH1 0x24 ADD PUSH1 0x40 MLOAD PUSH1 0x20 DUP2 DUP4 SUB SUB DUP2 MSTORE SWAP1 PUSH1 0x40 MSTORE PUSH32 0xCBB586200000000000000000000000000000000000000000000000000000000 PUSH28 0xFFFFFFFFFFFFFFFFFFFFFFFFFFFFFFFFFFFFFFFFFFFFFFFFFFFFFFFF NOT AND PUSH1 0x20 DUP3 ADD DUP1 MLOAD PUSH28 0xFFFFFFFFFFFFFFFFFFFFFFFFFFFFFFFFFFFFFFFFFFFFFFFFFFFFFFFF DUP4 DUP2 DUP4 AND OR DUP4 MSTORE POP POP POP POP PUSH1 0x40 MLOAD PUSH2 0x17A2 SWAP2 SWAP1 PUSH2 0x54C3 JUMP JUMPDEST PUSH1 0x0 PUSH1 0x40 MLOAD DUP1 DUP4 SUB DUP2 PUSH1 0x0 DUP7 GAS CALL SWAP2 POP POP RETURNDATASIZE DUP1 PUSH1 0x0 DUP2 EQ PUSH2 0x17DF JUMPI PUSH1 0x40 MLOAD SWAP2 POP PUSH1 0x1F NOT PUSH1 0x3F RETURNDATASIZE ADD AND DUP3 ADD PUSH1 0x40 MSTORE RETURNDATASIZE DUP3 MSTORE RETURNDATASIZE PUSH1 0x0 PUSH1 0x20 DUP5 ADD RETURNDATACOPY PUSH2 0x17E4 JUMP JUMPDEST PUSH1 0x60 SWAP2 POP JUMPDEST POP POP SWAP1 POP POP POP POP JUMP JUMPDEST PUSH1 0x0 PUSH2 0x1818 PUSH32 0x4D43445F464C4150000000000000000000000000000000000000000000000000 PUSH2 0x2EE3 JUMP JUMPDEST SWAP1 POP SWAP1 JUMP JUMPDEST PUSH1 0x0 PUSH2 0x1848 PUSH32 0x464C49505045525F4D4F4D000000000000000000000000000000000000000000 PUSH2 0x2EE3 JUMP JUMPDEST SWAP1 POP SWAP1 JUMP JUMPDEST PUSH6 0xFFFFFFFFFFFF DUP1 AND DUP2 LT PUSH2 0x1861 JUMPI PUSH1 0x0 DUP1 REVERT JUMPDEST PUSH2 0x1893 PUSH2 0x186C PUSH2 0x3750 JUMP JUMPDEST PUSH32 0x7461750000000000000000000000000000000000000000000000000000000000 DUP4 PUSH2 0x4413 JUMP JUMPDEST POP JUMP JUMPDEST PUSH1 0x64 DUP1 PUSH2 0x18A3 SWAP2 SWAP1 PUSH2 0x5289 JUMP JUMPDEST DUP2 LT PUSH2 0x18AE JUMPI PUSH1 0x0 DUP1 REVERT JUMPDEST PUSH2 0x18EE DUP3 PUSH32 0x6375740000000000000000000000000000000000000000000000000000000000 PUSH2 0x18E9 DUP5 PUSH1 0x64 DUP1 PUSH2 0x18E4 SWAP2 SWAP1 PUSH2 0x5289 JUMP JUMPDEST PUSH2 0x47B0 JUMP JUMPDEST PUSH2 0x4413 JUMP JUMPDEST POP POP JUMP JUMPDEST PUSH20 0xDA0AB1E0017DEBCD72BE8599041A2AA3BA7E740F DUP2 JUMP JUMPDEST PUSH20 0xDA0AB1E0017DEBCD72BE8599041A2AA3BA7E740F PUSH20 0xFFFFFFFFFFFFFFFFFFFFFFFFFFFFFFFFFFFFFFFF AND PUSH4 0xCA446DD9 DUP4 DUP4 PUSH1 0x40 MLOAD DUP4 PUSH4 0xFFFFFFFF AND PUSH1 0xE0 SHL DUP2 MSTORE PUSH1 0x4 ADD PUSH2 0x1959 SWAP3 SWAP2 SWAP1 PUSH2 0x54DA JUMP JUMPDEST PUSH1 0x0 PUSH1 0x40 MLOAD DUP1 DUP4 SUB DUP2 PUSH1 0x0 DUP8 DUP1 EXTCODESIZE ISZERO DUP1 ISZERO PUSH2 0x1973 JUMPI PUSH1 0x0 DUP1 REVERT JUMPDEST POP GAS CALL ISZERO DUP1 ISZERO PUSH2 0x1987 JUMPI RETURNDATASIZE PUSH1 0x0 DUP1 RETURNDATACOPY RETURNDATASIZE PUSH1 0x0 REVERT JUMPDEST POP POP POP POP POP POP JUMP JUMPDEST PUSH1 0x64 DUP1 PUSH2 0x199C SWAP2 SWAP1 PUSH2 0x5289 JUMP JUMPDEST DUP2 LT PUSH2 0x19A7 JUMPI PUSH1 0x0 DUP1 REVERT JUMPDEST PUSH2 0x19AF PUSH2 0x1CFF JUMP JUMPDEST PUSH20 0xFFFFFFFFFFFFFFFFFFFFFFFFFFFFFFFFFFFFFFFF AND PUSH4 0xBF90F418 DUP4 PUSH2 0x19E1 DUP5 PUSH1 0x64 DUP1 PUSH2 0x19DC SWAP2 SWAP1 PUSH2 0x5289 JUMP JUMPDEST PUSH2 0x47B0 JUMP JUMPDEST PUSH1 0x40 MLOAD DUP4 PUSH4 0xFFFFFFFF AND PUSH1 0xE0 SHL DUP2 MSTORE PUSH1 0x4 ADD PUSH2 0x19FE SWAP3 SWAP2 SWAP1 PUSH2 0x5503 JUMP JUMPDEST PUSH1 0x0 PUSH1 0x40 MLOAD DUP1 DUP4 SUB DUP2 PUSH1 0x0 DUP8 DUP1 EXTCODESIZE ISZERO DUP1 ISZERO PUSH2 0x1A18 JUMPI PUSH1 0x0 DUP1 REVERT JUMPDEST POP GAS CALL ISZERO DUP1 ISZERO PUSH2 0x1A2C JUMPI RETURNDATASIZE PUSH1 0x0 DUP1 RETURNDATACOPY RETURNDATASIZE PUSH1 0x0 REVERT JUMPDEST POP POP POP POP POP POP JUMP JUMPDEST PUSH2 0x1A66 PUSH2 0x1A3F PUSH2 0x2484 JUMP JUMPDEST PUSH32 0x7761697400000000000000000000000000000000000000000000000000000000 DUP4 PUSH2 0x4413 JUMP JUMPDEST POP JUMP JUMPDEST PUSH2 0x1A9C PUSH2 0x1A75 DUP4 PUSH2 0x1E47 JUMP JUMPDEST PUSH32 0x7461696C00000000000000000000000000000000000000000000000000000000 DUP4 PUSH2 0x4413 JUMP JUMPDEST POP POP JUMP JUMPDEST DUP2 PUSH20 0xFFFFFFFFFFFFFFFFFFFFFFFFFFFFFFFFFFFFFFFF AND PUSH4 0xF29C29C4 DUP3 PUSH1 0x40 MLOAD DUP3 PUSH4 0xFFFFFFFF AND PUSH1 0xE0 SHL DUP2 MSTORE PUSH1 0x4 ADD PUSH2 0x1AD9 SWAP2 SWAP1 PUSH2 0x53C1 JUMP JUMPDEST PUSH1 0x0 PUSH1 0x40 MLOAD DUP1 DUP4 SUB DUP2 PUSH1 0x0 DUP8 DUP1 EXTCODESIZE ISZERO DUP1 ISZERO PUSH2 0x1AF3 JUMPI PUSH1 0x0 DUP1 REVERT JUMPDEST POP GAS CALL ISZERO DUP1 ISZERO PUSH2 0x1B07 JUMPI RETURNDATASIZE PUSH1 0x0 DUP1 RETURNDATACOPY RETURNDATASIZE PUSH1 0x0 REVERT JUMPDEST POP POP POP POP POP POP JUMP JUMPDEST PUSH1 0x0 PUSH2 0x1B19 PUSH2 0x4485 JUMP JUMPDEST SWAP1 POP PUSH1 0x0 DUP1 DUP3 PUSH20 0xFFFFFFFFFFFFFFFFFFFFFFFFFFFFFFFFFFFFFFFF AND PUSH4 0xD9638D36 DUP7 PUSH1 0x40 MLOAD DUP3 PUSH4 0xFFFFFFFF AND PUSH1 0xE0 SHL DUP2 MSTORE PUSH1 0x4 ADD PUSH2 0x1B57 SWAP2 SWAP1 PUSH2 0x552C JUMP JUMPDEST PUSH1 0xA0 PUSH1 0x40 MLOAD DUP1 DUP4 SUB DUP2 DUP7 GAS STATICCALL ISZERO DUP1 ISZERO PUSH2 0x1B74 JUMPI RETURNDATASIZE PUSH1 0x0 DUP1 RETURNDATACOPY RETURNDATASIZE PUSH1 0x0 REVERT JUMPDEST POP POP POP POP PUSH1 0x40 MLOAD RETURNDATASIZE PUSH1 0x1F NOT PUSH1 0x1F DUP3 ADD AND DUP3 ADD DUP1 PUSH1 0x40 MSTORE POP DUP2 ADD SWAP1 PUSH2 0x1B98 SWAP2 SWAP1 PUSH2 0x5585 JUMP JUMPDEST POP POP SWAP3 POP SWAP3 POP POP PUSH1 0x0 DUP3 EQ ISZERO DUP1 ISZERO PUSH2 0x1BB9 JUMPI POP PUSH1 0x0 DUP2 PUSH6 0xFFFFFFFFFFFF AND EQ ISZERO JUMPDEST PUSH2 0x1BC2 JUMPI PUSH1 0x0 DUP1 REVERT JUMPDEST DUP3 PUSH20 0xFFFFFFFFFFFFFFFFFFFFFFFFFFFFFFFFFFFFFFFF AND PUSH4 0x2A48322D DUP7 PUSH19 0x2CD76FE086B93CE2F768A00B22A00000000000 DUP8 PUSH2 0x1BFE SWAP2 SWAP1 PUSH2 0x5289 JUMP JUMPDEST DUP6 DUP6 PUSH6 0xFFFFFFFFFFFF AND PUSH1 0x40 MLOAD DUP6 PUSH4 0xFFFFFFFF AND PUSH1 0xE0 SHL DUP2 MSTORE PUSH1 0x4 ADD PUSH2 0x1C27 SWAP5 SWAP4 SWAP3 SWAP2 SWAP1 PUSH2 0x5600 JUMP JUMPDEST PUSH1 0x0 PUSH1 0x40 MLOAD DUP1 DUP4 SUB DUP2 PUSH1 0x0 DUP8 DUP1 EXTCODESIZE ISZERO DUP1 ISZERO PUSH2 0x1C41 JUMPI PUSH1 0x0 DUP1 REVERT JUMPDEST POP GAS CALL ISZERO DUP1 ISZERO PUSH2 0x1C55 JUMPI RETURNDATASIZE PUSH1 0x0 DUP1 RETURNDATACOPY RETURNDATASIZE PUSH1 0x0 REVERT JUMPDEST POP POP POP POP POP POP POP POP POP JUMP JUMPDEST DUP2 PUSH20 0xFFFFFFFFFFFFFFFFFFFFFFFFFFFFFFFFFFFFFFFF AND PUSH4 0x65FAE35E DUP3 PUSH1 0x40 MLOAD DUP3 PUSH4 0xFFFFFFFF AND PUSH1 0xE0 SHL DUP2 MSTORE PUSH1 0x4 ADD PUSH2 0x1C99 SWAP2 SWAP1 PUSH2 0x53C1 JUMP JUMPDEST PUSH1 0x0 PUSH1 0x40 MLOAD DUP1 DUP4 SUB DUP2 PUSH1 0x0 DUP8 DUP1 EXTCODESIZE ISZERO DUP1 ISZERO PUSH2 0x1CB3 JUMPI PUSH1 0x0 DUP1 REVERT JUMPDEST POP GAS CALL ISZERO DUP1 ISZERO PUSH2 0x1CC7 JUMPI RETURNDATASIZE PUSH1 0x0 DUP1 RETURNDATACOPY RETURNDATASIZE PUSH1 0x0 REVERT JUMPDEST POP POP POP POP POP POP JUMP JUMPDEST PUSH1 0x0 PUSH2 0x1CFA PUSH32 0x4D43445F53504F54000000000000000000000000000000000000000000000000 PUSH2 0x2EE3 JUMP JUMPDEST SWAP1 POP SWAP1 JUMP JUMPDEST PUSH1 0x0 PUSH2 0x1D2A PUSH32 0x434C49505045525F4D4F4D000000000000000000000000000000000000000000 PUSH2 0x2EE3 JUMP JUMPDEST SWAP1 POP SWAP1 JUMP JUMPDEST PUSH1 0x0 DUP2 ISZERO PUSH2 0x1DC3 JUMPI PUSH1 0x0 PUSH1 0x7 PUSH1 0x3 PUSH3 0x15180 DUP7 PUSH2 0x1D4C SWAP2 SWAP1 PUSH2 0x5674 JUMP JUMPDEST PUSH2 0x1D56 SWAP2 SWAP1 PUSH2 0x56A5 JUMP JUMPDEST PUSH2 0x1D60 SWAP2 SWAP1 PUSH2 0x56DE JUMP JUMPDEST PUSH5 0xFFFFFFFFFF AND SWAP1 POP PUSH1 0x5 DUP2 LT PUSH2 0x1D7B JUMPI PUSH1 0x0 SWAP2 POP POP PUSH2 0x1DC8 JUMP JUMPDEST PUSH1 0x0 PUSH1 0x18 PUSH2 0xE10 DUP7 PUSH2 0x1D8D SWAP2 SWAP1 PUSH2 0x5674 JUMP JUMPDEST PUSH2 0x1D97 SWAP2 SWAP1 PUSH2 0x56DE JUMP JUMPDEST PUSH5 0xFFFFFFFFFF AND SWAP1 POP PUSH1 0xE DUP2 LT DUP1 PUSH2 0x1DB0 JUMPI POP PUSH1 0x15 DUP2 LT ISZERO JUMPDEST ISZERO PUSH2 0x1DC0 JUMPI PUSH1 0x0 SWAP3 POP POP POP PUSH2 0x1DC8 JUMP JUMPDEST POP POP JUMPDEST PUSH1 0x1 SWAP1 POP JUMPDEST SWAP3 SWAP2 POP POP JUMP JUMPDEST PUSH1 0x0 PUSH2 0x1DF9 PUSH32 0x4D43445F56415400000000000000000000000000000000000000000000000000 PUSH2 0x2EE3 JUMP JUMPDEST SWAP1 POP SWAP1 JUMP JUMPDEST PUSH6 0xFFFFFFFFFFFF DUP1 AND DUP2 LT PUSH2 0x1E12 JUMPI PUSH1 0x0 DUP1 REVERT JUMPDEST PUSH2 0x1E44 PUSH2 0x1E1D PUSH2 0x3750 JUMP JUMPDEST PUSH32 0x74746C0000000000000000000000000000000000000000000000000000000000 DUP4 PUSH2 0x4413 JUMP JUMPDEST POP JUMP JUMPDEST PUSH1 0x0 PUSH2 0x1E51 PUSH2 0x2737 JUMP JUMPDEST PUSH20 0xFFFFFFFFFFFFFFFFFFFFFFFFFFFFFFFFFFFFFFFF AND PUSH4 0x247C803F DUP4 PUSH1 0x40 MLOAD DUP3 PUSH4 0xFFFFFFFF AND PUSH1 0xE0 SHL DUP2 MSTORE PUSH1 0x4 ADD PUSH2 0x1E89 SWAP2 SWAP1 PUSH2 0x552C JUMP JUMPDEST PUSH1 0x20 PUSH1 0x40 MLOAD DUP1 DUP4 SUB DUP2 DUP7 GAS STATICCALL ISZERO DUP1 ISZERO PUSH2 0x1EA6 JUMPI RETURNDATASIZE PUSH1 0x0 DUP1 RETURNDATACOPY RETURNDATASIZE PUSH1 0x0 REVERT JUMPDEST POP POP POP POP PUSH1 0x40 MLOAD RETURNDATASIZE PUSH1 0x1F NOT PUSH1 0x1F DUP3 ADD AND DUP3 ADD DUP1 PUSH1 0x40 MSTORE POP DUP2 ADD SWAP1 PUSH2 0x1ECA SWAP2 SWAP1 PUSH2 0x5394 JUMP JUMPDEST SWAP1 POP SWAP2 SWAP1 POP JUMP JUMPDEST DUP2 PUSH20 0xFFFFFFFFFFFFFFFFFFFFFFFFFFFFFFFFFFFFFFFF AND PUSH4 0x65C4CE7A DUP3 PUSH1 0x40 MLOAD DUP3 PUSH4 0xFFFFFFFF AND PUSH1 0xE0 SHL DUP2 MSTORE PUSH1 0x4 ADD PUSH2 0x1F0A SWAP2 SWAP1 PUSH2 0x53C1 JUMP JUMPDEST PUSH1 0x0 PUSH1 0x40 MLOAD DUP1 DUP4 SUB DUP2 PUSH1 0x0 DUP8 DUP1 EXTCODESIZE ISZERO DUP1 ISZERO PUSH2 0x1F24 JUMPI PUSH1 0x0 DUP1 REVERT JUMPDEST POP GAS CALL ISZERO DUP1 ISZERO PUSH2 0x1F38 JUMPI RETURNDATASIZE PUSH1 0x0 DUP1 RETURNDATACOPY RETURNDATASIZE PUSH1 0x0 REVERT JUMPDEST POP POP POP POP POP POP JUMP JUMPDEST PUSH12 0x33B2E3C9FD0803CE8000000 DUP3 LT ISZERO DUP1 ISZERO PUSH2 0x1F68 JUMPI POP PUSH12 0x33B2E3DD0D78F60556D6583 DUP3 GT ISZERO JUMPDEST PUSH2 0x1F71 JUMPI PUSH1 0x0 DUP1 REVERT JUMPDEST DUP1 ISZERO PUSH2 0x1FF1 JUMPI PUSH2 0x1F7F PUSH2 0x2027 JUMP JUMPDEST PUSH20 0xFFFFFFFFFFFFFFFFFFFFFFFFFFFFFFFFFFFFFFFF AND PUSH4 0x9F678CCA PUSH1 0x40 MLOAD DUP2 PUSH4 0xFFFFFFFF AND PUSH1 0xE0 SHL DUP2 MSTORE PUSH1 0x4 ADD PUSH1 0x20 PUSH1 0x40 MLOAD DUP1 DUP4 SUB DUP2 PUSH1 0x0 DUP8 GAS CALL ISZERO DUP1 ISZERO PUSH2 0x1FCB JUMPI RETURNDATASIZE PUSH1 0x0 DUP1 RETURNDATACOPY RETURNDATASIZE PUSH1 0x0 REVERT JUMPDEST POP POP POP POP PUSH1 0x40 MLOAD RETURNDATASIZE PUSH1 0x1F NOT PUSH1 0x1F DUP3 ADD AND DUP3 ADD DUP1 PUSH1 0x40 MSTORE POP DUP2 ADD SWAP1 PUSH2 0x1FEF SWAP2 SWAP1 PUSH2 0x53F1 JUMP JUMPDEST POP JUMPDEST PUSH2 0x2023 PUSH2 0x1FFC PUSH2 0x2027 JUMP JUMPDEST PUSH32 0x6473720000000000000000000000000000000000000000000000000000000000 DUP5 PUSH2 0x4413 JUMP JUMPDEST POP POP JUMP JUMPDEST PUSH1 0x0 PUSH2 0x2052 PUSH32 0x4D43445F504F5400000000000000000000000000000000000000000000000000 PUSH2 0x2EE3 JUMP JUMPDEST SWAP1 POP SWAP1 JUMP JUMPDEST PUSH1 0x64 DUP1 PUSH2 0x2064 SWAP2 SWAP1 PUSH2 0x5289 JUMP JUMPDEST DUP2 LT PUSH2 0x206F JUMPI PUSH1 0x0 DUP1 REVERT JUMPDEST PUSH2 0x20B7 PUSH2 0x207B DUP4 PUSH2 0x1E47 JUMP JUMPDEST PUSH32 0x6368697000000000000000000000000000000000000000000000000000000000 PUSH2 0x20B2 DUP5 PUSH1 0x64 DUP1 PUSH2 0x20AD SWAP2 SWAP1 PUSH2 0x5289 JUMP JUMPDEST PUSH2 0x47F4 JUMP JUMPDEST PUSH2 0x4413 JUMP JUMPDEST POP POP JUMP JUMPDEST PUSH8 0xDE0B6B3A7640000 DUP2 LT PUSH2 0x20CF JUMPI PUSH1 0x0 DUP1 REVERT JUMPDEST PUSH2 0x2114 PUSH2 0x20DA PUSH2 0x2484 JUMP JUMPDEST PUSH32 0x64756D7000000000000000000000000000000000000000000000000000000000 PUSH8 0xDE0B6B3A7640000 DUP5 PUSH2 0x210F SWAP2 SWAP1 PUSH2 0x5289 JUMP JUMPDEST PUSH2 0x4413 JUMP JUMPDEST POP JUMP JUMPDEST PUSH8 0xDE0B6B3A7640000 DUP2 LT PUSH2 0x212B JUMPI PUSH1 0x0 DUP1 REVERT JUMPDEST PUSH2 0x2135 DUP4 DUP4 PUSH2 0x2DAA JUMP JUMPDEST PUSH2 0x215E PUSH32 0x4D495032315F4C49515549444154494F4E5F4F5241434C450000000000000000 PUSH2 0x2EE3 JUMP JUMPDEST PUSH20 0xFFFFFFFFFFFFFFFFFFFFFFFFFFFFFFFFFFFFFFFF AND PUSH4 0xE9EB09F6 DUP5 PUSH8 0xDE0B6B3A7640000 DUP5 PUSH2 0x218E SWAP2 SWAP1 PUSH2 0x5289 JUMP JUMPDEST PUSH1 0x40 MLOAD DUP4 PUSH4 0xFFFFFFFF AND PUSH1 0xE0 SHL DUP2 MSTORE PUSH1 0x4 ADD PUSH2 0x21AB SWAP3 SWAP2 SWAP1 PUSH2 0x570F JUMP JUMPDEST PUSH1 0x0 PUSH1 0x40 MLOAD DUP1 DUP4 SUB DUP2 PUSH1 0x0 DUP8 DUP1 EXTCODESIZE ISZERO DUP1 ISZERO PUSH2 0x21C5 JUMPI PUSH1 0x0 DUP1 REVERT JUMPDEST POP GAS CALL ISZERO DUP1 ISZERO PUSH2 0x21D9 JUMPI RETURNDATASIZE PUSH1 0x0 DUP1 RETURNDATACOPY RETURNDATASIZE PUSH1 0x0 REVERT JUMPDEST POP POP POP POP PUSH2 0x21E6 DUP4 PUSH2 0x25C9 JUMP JUMPDEST POP POP POP JUMP JUMPDEST PUSH20 0xDA0AB1E0017DEBCD72BE8599041A2AA3BA7E740F PUSH20 0xFFFFFFFFFFFFFFFFFFFFFFFFFFFFFFFFFFFFFFFF AND PUSH4 0x788BC78C DUP3 PUSH1 0x40 MLOAD DUP3 PUSH4 0xFFFFFFFF AND PUSH1 0xE0 SHL DUP2 MSTORE PUSH1 0x4 ADD PUSH2 0x2238 SWAP2 SWAP1 PUSH2 0x578D JUMP JUMPDEST PUSH1 0x0 PUSH1 0x40 MLOAD DUP1 DUP4 SUB DUP2 PUSH1 0x0 DUP8 DUP1 EXTCODESIZE ISZERO DUP1 ISZERO PUSH2 0x2252 JUMPI PUSH1 0x0 DUP1 REVERT JUMPDEST POP GAS CALL ISZERO DUP1 ISZERO PUSH2 0x2266 JUMPI RETURNDATASIZE PUSH1 0x0 DUP1 RETURNDATACOPY RETURNDATASIZE PUSH1 0x0 REVERT JUMPDEST POP POP POP POP POP JUMP JUMPDEST PUSH8 0xDE0B6B3A7640000 DUP2 LT PUSH2 0x2281 JUMPI PUSH1 0x0 DUP1 REVERT JUMPDEST PUSH1 0x0 PUSH2 0x228B PUSH2 0x38B9 JUMP JUMPDEST PUSH20 0xFFFFFFFFFFFFFFFFFFFFFFFFFFFFFFFFFFFFFFFF AND PUSH4 0xD9638D36 DUP5 PUSH1 0x40 MLOAD DUP3 PUSH4 0xFFFFFFFF AND PUSH1 0xE0 SHL DUP2 MSTORE PUSH1 0x4 ADD PUSH2 0x22C3 SWAP2 SWAP1 PUSH2 0x552C JUMP JUMPDEST PUSH1 0x80 PUSH1 0x40 MLOAD DUP1 DUP4 SUB DUP2 PUSH1 0x0 DUP8 GAS CALL ISZERO DUP1 ISZERO PUSH2 0x22E2 JUMPI RETURNDATASIZE PUSH1 0x0 DUP1 RETURNDATACOPY RETURNDATASIZE PUSH1 0x0 REVERT JUMPDEST POP POP POP POP PUSH1 0x40 MLOAD RETURNDATASIZE PUSH1 0x1F NOT PUSH1 0x1F DUP3 ADD AND DUP3 ADD DUP1 PUSH1 0x40 MSTORE POP DUP2 ADD SWAP1 PUSH2 0x2306 SWAP2 SWAP1 PUSH2 0x57AF JUMP JUMPDEST POP SWAP3 POP POP POP PUSH19 0x2CD76FE086B93CE2F768A00B22A00000000000 DUP2 PUSH2 0x232A SWAP2 SWAP1 PUSH2 0x5816 JUMP JUMPDEST DUP3 GT ISZERO PUSH2 0x2336 JUMPI PUSH1 0x0 DUP1 REVERT JUMPDEST PUSH2 0x2387 PUSH2 0x2341 PUSH2 0x1DCE JUMP JUMPDEST DUP5 PUSH32 0x6475737400000000000000000000000000000000000000000000000000000000 PUSH19 0x2CD76FE086B93CE2F768A00B22A00000000000 DUP7 PUSH2 0x2382 SWAP2 SWAP1 PUSH2 0x5289 JUMP JUMPDEST PUSH2 0x294B JUMP JUMPDEST PUSH1 0x0 PUSH2 0x2392 DUP5 PUSH2 0x1E47 JUMP JUMPDEST PUSH20 0xFFFFFFFFFFFFFFFFFFFFFFFFFFFFFFFFFFFFFFFF AND PUSH1 0x40 MLOAD PUSH1 0x24 ADD PUSH1 0x40 MLOAD PUSH1 0x20 DUP2 DUP4 SUB SUB DUP2 MSTORE SWAP1 PUSH1 0x40 MSTORE PUSH32 0xCBB586200000000000000000000000000000000000000000000000000000000 PUSH28 0xFFFFFFFFFFFFFFFFFFFFFFFFFFFFFFFFFFFFFFFFFFFFFFFFFFFFFFFF NOT AND PUSH1 0x20 DUP3 ADD DUP1 MLOAD PUSH28 0xFFFFFFFFFFFFFFFFFFFFFFFFFFFFFFFFFFFFFFFFFFFFFFFFFFFFFFFF DUP4 DUP2 DUP4 AND OR DUP4 MSTORE POP POP POP POP PUSH1 0x40 MLOAD PUSH2 0x2438 SWAP2 SWAP1 PUSH2 0x54C3 JUMP JUMPDEST PUSH1 0x0 PUSH1 0x40 MLOAD DUP1 DUP4 SUB DUP2 PUSH1 0x0 DUP7 GAS CALL SWAP2 POP POP RETURNDATASIZE DUP1 PUSH1 0x0 DUP2 EQ PUSH2 0x2475 JUMPI PUSH1 0x40 MLOAD SWAP2 POP PUSH1 0x1F NOT PUSH1 0x3F RETURNDATASIZE ADD AND DUP3 ADD PUSH1 0x40 MSTORE RETURNDATASIZE DUP3 MSTORE RETURNDATASIZE PUSH1 0x0 PUSH1 0x20 DUP5 ADD RETURNDATACOPY PUSH2 0x247A JUMP JUMPDEST PUSH1 0x60 SWAP2 POP JUMPDEST POP POP SWAP1 POP POP POP POP POP JUMP JUMPDEST PUSH1 0x0 PUSH2 0x24AF PUSH32 0x4D43445F564F5700000000000000000000000000000000000000000000000000 PUSH2 0x2EE3 JUMP JUMPDEST SWAP1 POP SWAP1 JUMP JUMPDEST PUSH1 0x0 PUSH2 0x24DF PUSH32 0x4D43445F50415553455F50524F58590000000000000000000000000000000000 PUSH2 0x2EE3 JUMP JUMPDEST SWAP1 POP SWAP1 JUMP JUMPDEST PUSH1 0x64 DUP1 PUSH2 0x24F1 SWAP2 SWAP1 PUSH2 0x5289 JUMP JUMPDEST PUSH1 0xA PUSH2 0x24FD SWAP2 SWAP1 PUSH2 0x5289 JUMP JUMPDEST DUP2 LT PUSH2 0x2508 JUMPI PUSH1 0x0 DUP1 REVERT JUMPDEST PUSH1 0x64 DUP1 PUSH2 0x2515 SWAP2 SWAP1 PUSH2 0x5289 JUMP JUMPDEST DUP2 LT ISZERO PUSH2 0x2521 JUMPI PUSH1 0x0 DUP1 REVERT JUMPDEST PUSH2 0x2569 PUSH2 0x252D DUP4 PUSH2 0x1E47 JUMP JUMPDEST PUSH32 0x6275660000000000000000000000000000000000000000000000000000000000 PUSH2 0x2564 DUP5 PUSH1 0x64 DUP1 PUSH2 0x255F SWAP2 SWAP1 PUSH2 0x5289 JUMP JUMPDEST PUSH2 0x47B0 JUMP JUMPDEST PUSH2 0x4413 JUMP JUMPDEST POP POP JUMP JUMPDEST PUSH1 0x64 DUP1 PUSH2 0x257A SWAP2 SWAP1 PUSH2 0x5289 JUMP JUMPDEST DUP2 LT PUSH2 0x2585 JUMPI PUSH1 0x0 DUP1 REVERT JUMPDEST PUSH2 0x25C5 DUP3 PUSH32 0x6261720000000000000000000000000000000000000000000000000000000000 PUSH2 0x25C0 DUP5 PUSH1 0x64 DUP1 PUSH2 0x25BB SWAP2 SWAP1 PUSH2 0x5289 JUMP JUMPDEST PUSH2 0x47B0 JUMP JUMPDEST PUSH2 0x4413 JUMP JUMPDEST POP POP JUMP JUMPDEST PUSH2 0x25D1 PUSH2 0x1CCF JUMP JUMPDEST PUSH20 0xFFFFFFFFFFFFFFFFFFFFFFFFFFFFFFFFFFFFFFFF AND PUSH4 0x1504460F DUP3 PUSH1 0x40 MLOAD DUP3 PUSH4 0xFFFFFFFF AND PUSH1 0xE0 SHL DUP2 MSTORE PUSH1 0x4 ADD PUSH2 0x2609 SWAP2 SWAP1 PUSH2 0x552C JUMP JUMPDEST PUSH1 0x0 PUSH1 0x40 MLOAD DUP1 DUP4 SUB DUP2 PUSH1 0x0 DUP8 DUP1 EXTCODESIZE ISZERO DUP1 ISZERO PUSH2 0x2623 JUMPI PUSH1 0x0 DUP1 REVERT JUMPDEST POP GAS CALL ISZERO DUP1 ISZERO PUSH2 0x2637 JUMPI RETURNDATASIZE PUSH1 0x0 DUP1 RETURNDATACOPY RETURNDATASIZE PUSH1 0x0 REVERT JUMPDEST POP POP POP POP POP JUMP JUMPDEST DUP2 PUSH20 0xFFFFFFFFFFFFFFFFFFFFFFFFFFFFFFFFFFFFFFFF AND PUSH4 0x9C52A7F1 DUP3 PUSH1 0x40 MLOAD DUP3 PUSH4 0xFFFFFFFF AND PUSH1 0xE0 SHL DUP2 MSTORE PUSH1 0x4 ADD PUSH2 0x2677 SWAP2 SWAP1 PUSH2 0x53C1 JUMP JUMPDEST PUSH1 0x0 PUSH1 0x40 MLOAD DUP1 DUP4 SUB DUP2 PUSH1 0x0 DUP8 DUP1 EXTCODESIZE ISZERO DUP1 ISZERO PUSH2 0x2691 JUMPI PUSH1 0x0 DUP1 REVERT JUMPDEST POP GAS CALL ISZERO DUP1 ISZERO PUSH2 0x26A5 JUMPI RETURNDATASIZE PUSH1 0x0 DUP1 RETURNDATACOPY RETURNDATASIZE PUSH1 0x0 REVERT JUMPDEST POP POP POP POP POP POP JUMP JUMPDEST PUSH1 0x0 PUSH2 0x26B7 PUSH2 0x2737 JUMP JUMPDEST PUSH20 0xFFFFFFFFFFFFFFFFFFFFFFFFFFFFFFFFFFFFFFFF AND PUSH4 0x247C803F DUP4 PUSH1 0x40 MLOAD DUP3 PUSH4 0xFFFFFFFF AND PUSH1 0xE0 SHL DUP2 MSTORE PUSH1 0x4 ADD PUSH2 0x26EF SWAP2 SWAP1 PUSH2 0x552C JUMP JUMPDEST PUSH1 0x20 PUSH1 0x40 MLOAD DUP1 DUP4 SUB DUP2 DUP7 GAS STATICCALL ISZERO DUP1 ISZERO PUSH2 0x270C JUMPI RETURNDATASIZE PUSH1 0x0 DUP1 RETURNDATACOPY RETURNDATASIZE PUSH1 0x0 REVERT JUMPDEST POP POP POP POP PUSH1 0x40 MLOAD RETURNDATASIZE PUSH1 0x1F NOT PUSH1 0x1F DUP3 ADD AND DUP3 ADD DUP1 PUSH1 0x40 MSTORE POP DUP2 ADD SWAP1 PUSH2 0x2730 SWAP2 SWAP1 PUSH2 0x5394 JUMP JUMPDEST SWAP1 POP SWAP2 SWAP1 POP JUMP JUMPDEST PUSH1 0x0 PUSH2 0x2762 PUSH32 0x494C4B5F52454749535452590000000000000000000000000000000000000000 PUSH2 0x2EE3 JUMP JUMPDEST SWAP1 POP SWAP1 JUMP JUMPDEST PUSH8 0xDE0B6B3A7640000 DUP2 LT PUSH2 0x277B JUMPI PUSH1 0x0 DUP1 REVERT JUMPDEST PUSH2 0x27CB PUSH2 0x2786 PUSH2 0x2484 JUMP JUMPDEST PUSH32 0x73756D7000000000000000000000000000000000000000000000000000000000 PUSH19 0x2CD76FE086B93CE2F768A00B22A00000000000 DUP5 PUSH2 0x27C6 SWAP2 SWAP1 PUSH2 0x5289 JUMP JUMPDEST PUSH2 0x4413 JUMP JUMPDEST POP JUMP JUMPDEST PUSH8 0xDE0B6B3A7640000 DUP2 LT PUSH2 0x27E2 JUMPI PUSH1 0x0 DUP1 REVERT JUMPDEST PUSH2 0x2832 PUSH2 0x27ED PUSH2 0x2484 JUMP JUMPDEST PUSH32 0x62756D7000000000000000000000000000000000000000000000000000000000 PUSH19 0x2CD76FE086B93CE2F768A00B22A00000000000 DUP5 PUSH2 0x282D SWAP2 SWAP1 PUSH2 0x5289 JUMP JUMPDEST PUSH2 0x4413 JUMP JUMPDEST POP JUMP JUMPDEST PUSH8 0xDE0B6B3A7640000 DUP2 LT PUSH2 0x2849 JUMPI PUSH1 0x0 DUP1 REVERT JUMPDEST PUSH1 0x0 PUSH2 0x2853 PUSH2 0x1DCE JUMP JUMPDEST SWAP1 POP PUSH2 0x2917 DUP2 PUSH32 0x4C696E6500000000000000000000000000000000000000000000000000000000 PUSH19 0x2CD76FE086B93CE2F768A00B22A00000000000 DUP6 PUSH2 0x2899 SWAP2 SWAP1 PUSH2 0x5289 JUMP JUMPDEST DUP5 PUSH20 0xFFFFFFFFFFFFFFFFFFFFFFFFFFFFFFFFFFFFFFFF AND PUSH4 0xBABE8A3F PUSH1 0x40 MLOAD DUP2 PUSH4 0xFFFFFFFF AND PUSH1 0xE0 SHL DUP2 MSTORE PUSH1 0x4 ADD PUSH1 0x20 PUSH1 0x40 MLOAD DUP1 DUP4 SUB DUP2 DUP7 GAS STATICCALL ISZERO DUP1 ISZERO PUSH2 0x28E4 JUMPI RETURNDATASIZE PUSH1 0x0 DUP1 RETURNDATACOPY RETURNDATASIZE PUSH1 0x0 REVERT JUMPDEST POP POP POP POP PUSH1 0x40 MLOAD RETURNDATASIZE PUSH1 0x1F NOT PUSH1 0x1F DUP3 ADD AND DUP3 ADD DUP1 PUSH1 0x40 MSTORE POP DUP2 ADD SWAP1 PUSH2 0x2908 SWAP2 SWAP1 PUSH2 0x53F1 JUMP JUMPDEST PUSH2 0x2912 SWAP2 SWAP1 PUSH2 0x541E JUMP JUMPDEST PUSH2 0x4413 JUMP JUMPDEST POP POP JUMP JUMPDEST PUSH1 0x0 PUSH2 0x2946 PUSH32 0x4D43445F474F5600000000000000000000000000000000000000000000000000 PUSH2 0x2EE3 JUMP JUMPDEST SWAP1 POP SWAP1 JUMP JUMPDEST DUP4 PUSH20 0xFFFFFFFFFFFFFFFFFFFFFFFFFFFFFFFFFFFFFFFF AND PUSH4 0x1A0B287E DUP5 DUP5 DUP5 PUSH1 0x40 MLOAD DUP5 PUSH4 0xFFFFFFFF AND PUSH1 0xE0 SHL DUP2 MSTORE PUSH1 0x4 ADD PUSH2 0x2988 SWAP4 SWAP3 SWAP2 SWAP1 PUSH2 0x5847 JUMP JUMPDEST PUSH1 0x0 PUSH1 0x40 MLOAD DUP1 DUP4 SUB DUP2 PUSH1 0x0 DUP8 DUP1 EXTCODESIZE ISZERO DUP1 ISZERO PUSH2 0x29A2 JUMPI PUSH1 0x0 DUP1 REVERT JUMPDEST POP GAS CALL ISZERO DUP1 ISZERO PUSH2 0x29B6 JUMPI RETURNDATASIZE PUSH1 0x0 DUP1 RETURNDATACOPY RETURNDATASIZE PUSH1 0x0 REVERT JUMPDEST POP POP POP POP POP POP POP POP JUMP JUMPDEST PUSH8 0xDE0B6B3A7640000 DUP2 LT PUSH2 0x29D4 JUMPI PUSH1 0x0 DUP1 REVERT JUMPDEST PUSH1 0x0 PUSH2 0x29DE PUSH2 0x1DCE JUMP JUMPDEST SWAP1 POP PUSH2 0x2AA2 DUP2 PUSH32 0x4C696E6500000000000000000000000000000000000000000000000000000000 PUSH19 0x2CD76FE086B93CE2F768A00B22A00000000000 DUP6 PUSH2 0x2A24 SWAP2 SWAP1 PUSH2 0x5289 JUMP JUMPDEST DUP5 PUSH20 0xFFFFFFFFFFFFFFFFFFFFFFFFFFFFFFFFFFFFFFFF AND PUSH4 0xBABE8A3F PUSH1 0x40 MLOAD DUP2 PUSH4 0xFFFFFFFF AND PUSH1 0xE0 SHL DUP2 MSTORE PUSH1 0x4 ADD PUSH1 0x20 PUSH1 0x40 MLOAD DUP1 DUP4 SUB DUP2 DUP7 GAS STATICCALL ISZERO DUP1 ISZERO PUSH2 0x2A6F JUMPI RETURNDATASIZE PUSH1 0x0 DUP1 RETURNDATACOPY RETURNDATASIZE PUSH1 0x0 REVERT JUMPDEST POP POP POP POP PUSH1 0x40 MLOAD RETURNDATASIZE PUSH1 0x1F NOT PUSH1 0x1F DUP3 ADD AND DUP3 ADD DUP1 PUSH1 0x40 MSTORE POP DUP2 ADD SWAP1 PUSH2 0x2A93 SWAP2 SWAP1 PUSH2 0x53F1 JUMP JUMPDEST PUSH2 0x2A9D SWAP2 SWAP1 PUSH2 0x587E JUMP JUMPDEST PUSH2 0x4413 JUMP JUMPDEST POP POP JUMP JUMPDEST PUSH1 0x64 DUP1 PUSH2 0x2AB3 SWAP2 SWAP1 PUSH2 0x5289 JUMP JUMPDEST DUP2 LT PUSH2 0x2ABE JUMPI PUSH1 0x0 DUP1 REVERT JUMPDEST PUSH2 0x2B18 PUSH2 0x2AC9 PUSH2 0x3750 JUMP JUMPDEST PUSH32 0x7061640000000000000000000000000000000000000000000000000000000000 PUSH2 0x2B00 DUP5 PUSH1 0x64 DUP1 PUSH2 0x2AFB SWAP2 SWAP1 PUSH2 0x5289 JUMP JUMPDEST PUSH2 0x47F4 JUMP JUMPDEST PUSH8 0xDE0B6B3A7640000 PUSH2 0x2B13 SWAP2 SWAP1 PUSH2 0x541E JUMP JUMPDEST PUSH2 0x4413 JUMP JUMPDEST POP JUMP JUMPDEST PUSH1 0x0 PUSH2 0x2B46 PUSH32 0x4C4552505F464142000000000000000000000000000000000000000000000000 PUSH2 0x2EE3 JUMP JUMPDEST SWAP1 POP SWAP1 JUMP JUMPDEST PUSH1 0x0 PUSH2 0x2B76 PUSH32 0x4D43445F4A554700000000000000000000000000000000000000000000000000 PUSH2 0x2EE3 JUMP JUMPDEST SWAP1 POP SWAP1 JUMP JUMPDEST PUSH2 0x2B83 PUSH2 0x40BA JUMP JUMPDEST PUSH20 0xFFFFFFFFFFFFFFFFFFFFFFFFFFFFFFFFFFFFFFFF AND PUSH4 0xC98CDF86 DUP3 DUP5 PUSH1 0x40 MLOAD DUP4 PUSH4 0xFFFFFFFF AND PUSH1 0xE0 SHL DUP2 MSTORE PUSH1 0x4 ADD PUSH2 0x2BBD SWAP3 SWAP2 SWAP1 PUSH2 0x54DA JUMP JUMPDEST PUSH1 0x0 PUSH1 0x40 MLOAD DUP1 DUP4 SUB DUP2 PUSH1 0x0 DUP8 DUP1 EXTCODESIZE ISZERO DUP1 ISZERO PUSH2 0x2BD7 JUMPI PUSH1 0x0 DUP1 REVERT JUMPDEST POP GAS CALL ISZERO DUP1 ISZERO PUSH2 0x2BEB JUMPI RETURNDATASIZE PUSH1 0x0 DUP1 RETURNDATACOPY RETURNDATASIZE PUSH1 0x0 REVERT JUMPDEST POP POP POP POP POP POP JUMP JUMPDEST PUSH8 0xDE0B6B3A7640000 DUP2 LT PUSH2 0x2C07 JUMPI PUSH1 0x0 DUP1 REVERT JUMPDEST PUSH2 0x2C57 PUSH2 0x2C12 PUSH2 0x1DCE JUMP JUMPDEST PUSH32 0x4C696E6500000000000000000000000000000000000000000000000000000000 PUSH19 0x2CD76FE086B93CE2F768A00B22A00000000000 DUP5 PUSH2 0x2C52 SWAP2 SWAP1 PUSH2 0x5289 JUMP JUMPDEST PUSH2 0x4413 JUMP JUMPDEST POP JUMP JUMPDEST PUSH8 0xDE0B6B3A7640000 DUP2 LT PUSH2 0x2C6E JUMPI PUSH1 0x0 DUP1 REVERT JUMPDEST PUSH2 0x2CAB PUSH2 0x2C79 PUSH2 0x1CCF JUMP JUMPDEST PUSH32 0x7061720000000000000000000000000000000000000000000000000000000000 PUSH2 0x2CA6 DUP5 PUSH2 0x3E8 PUSH2 0x47B0 JUMP JUMPDEST PUSH2 0x4413 JUMP JUMPDEST POP JUMP JUMPDEST PUSH2 0x2CB6 PUSH2 0x1DCE JUMP JUMPDEST PUSH20 0xFFFFFFFFFFFFFFFFFFFFFFFFFFFFFFFFFFFFFFFF AND PUSH4 0xDC4D20FA DUP3 PUSH1 0x40 MLOAD DUP3 PUSH4 0xFFFFFFFF AND PUSH1 0xE0 SHL DUP2 MSTORE PUSH1 0x4 ADD PUSH2 0x2CEE SWAP2 SWAP1 PUSH2 0x53C1 JUMP JUMPDEST PUSH1 0x0 PUSH1 0x40 MLOAD DUP1 DUP4 SUB DUP2 PUSH1 0x0 DUP8 DUP1 EXTCODESIZE ISZERO DUP1 ISZERO PUSH2 0x2D08 JUMPI PUSH1 0x0 DUP1 REVERT JUMPDEST POP GAS CALL ISZERO DUP1 ISZERO PUSH2 0x2D1C JUMPI RETURNDATASIZE PUSH1 0x0 DUP1 RETURNDATACOPY RETURNDATASIZE PUSH1 0x0 REVERT JUMPDEST POP POP POP POP POP JUMP JUMPDEST PUSH2 0x2D2B PUSH2 0x2B4B JUMP JUMPDEST PUSH20 0xFFFFFFFFFFFFFFFFFFFFFFFFFFFFFFFFFFFFFFFF AND PUSH4 0x44E2A5A8 DUP3 PUSH1 0x40 MLOAD DUP3 PUSH4 0xFFFFFFFF AND PUSH1 0xE0 SHL DUP2 MSTORE PUSH1 0x4 ADD PUSH2 0x2D63 SWAP2 SWAP1 PUSH2 0x552C JUMP JUMPDEST PUSH1 0x20 PUSH1 0x40 MLOAD DUP1 DUP4 SUB DUP2 PUSH1 0x0 DUP8 GAS CALL ISZERO DUP1 ISZERO PUSH2 0x2D82 JUMPI RETURNDATASIZE PUSH1 0x0 DUP1 RETURNDATACOPY RETURNDATASIZE PUSH1 0x0 REVERT JUMPDEST POP POP POP POP PUSH1 0x40 MLOAD RETURNDATASIZE PUSH1 0x1F NOT PUSH1 0x1F DUP3 ADD AND DUP3 ADD DUP1 PUSH1 0x40 MSTORE POP DUP2 ADD SWAP1 PUSH2 0x2DA6 SWAP2 SWAP1 PUSH2 0x53F1 JUMP JUMPDEST POP POP JUMP JUMPDEST PUSH8 0xDE0B6B3A7640000 DUP2 LT PUSH2 0x2DBE JUMPI PUSH1 0x0 DUP1 REVERT JUMPDEST PUSH2 0x2E0F PUSH2 0x2DC9 PUSH2 0x1DCE JUMP JUMPDEST DUP4 PUSH32 0x6C696E6500000000000000000000000000000000000000000000000000000000 PUSH19 0x2CD76FE086B93CE2F768A00B22A00000000000 DUP6 PUSH2 0x2E0A SWAP2 SWAP1 PUSH2 0x5289 JUMP JUMPDEST PUSH2 0x294B JUMP JUMPDEST POP POP JUMP JUMPDEST PUSH8 0xDE0B6B3A7640000 DUP2 LT PUSH2 0x2E27 JUMPI PUSH1 0x0 DUP1 REVERT JUMPDEST PUSH2 0x2E78 PUSH2 0x2E32 PUSH2 0x38B9 JUMP JUMPDEST DUP4 PUSH32 0x686F6C6500000000000000000000000000000000000000000000000000000000 PUSH19 0x2CD76FE086B93CE2F768A00B22A00000000000 DUP6 PUSH2 0x2E73 SWAP2 SWAP1 PUSH2 0x5289 JUMP JUMPDEST PUSH2 0x294B JUMP JUMPDEST POP POP JUMP JUMPDEST PUSH8 0xDE0B6B3A7640000 DUP2 LT PUSH2 0x2E90 JUMPI PUSH1 0x0 DUP1 REVERT JUMPDEST PUSH2 0x2EE0 PUSH2 0x2E9B PUSH2 0x2484 JUMP JUMPDEST PUSH32 0x68756D7000000000000000000000000000000000000000000000000000000000 PUSH19 0x2CD76FE086B93CE2F768A00B22A00000000000 DUP5 PUSH2 0x2EDB SWAP2 SWAP1 PUSH2 0x5289 JUMP JUMPDEST PUSH2 0x4413 JUMP JUMPDEST POP JUMP JUMPDEST PUSH1 0x0 PUSH20 0xDA0AB1E0017DEBCD72BE8599041A2AA3BA7E740F PUSH20 0xFFFFFFFFFFFFFFFFFFFFFFFFFFFFFFFFFFFFFFFF AND PUSH4 0x21F8A721 DUP4 PUSH1 0x40 MLOAD DUP3 PUSH4 0xFFFFFFFF AND PUSH1 0xE0 SHL DUP2 MSTORE PUSH1 0x4 ADD PUSH2 0x2F32 SWAP2 SWAP1 PUSH2 0x552C JUMP JUMPDEST PUSH1 0x20 PUSH1 0x40 MLOAD DUP1 DUP4 SUB DUP2 DUP7 GAS STATICCALL ISZERO DUP1 ISZERO PUSH2 0x2F4F JUMPI RETURNDATASIZE PUSH1 0x0 DUP1 RETURNDATACOPY RETURNDATASIZE PUSH1 0x0 REVERT JUMPDEST POP POP POP POP PUSH1 0x40 MLOAD RETURNDATASIZE PUSH1 0x1F NOT PUSH1 0x1F DUP3 ADD AND DUP3 ADD DUP1 PUSH1 0x40 MSTORE POP DUP2 ADD SWAP1 PUSH2 0x2F73 SWAP2 SWAP1 PUSH2 0x5394 JUMP JUMPDEST SWAP1 POP SWAP2 SWAP1 POP JUMP JUMPDEST PUSH2 0x2F82 PUSH2 0x2027 JUMP JUMPDEST PUSH20 0xFFFFFFFFFFFFFFFFFFFFFFFFFFFFFFFFFFFFFFFF AND PUSH4 0x9F678CCA PUSH1 0x40 MLOAD DUP2 PUSH4 0xFFFFFFFF AND PUSH1 0xE0 SHL DUP2 MSTORE PUSH1 0x4 ADD PUSH1 0x20 PUSH1 0x40 MLOAD DUP1 DUP4 SUB DUP2 PUSH1 0x0 DUP8 GAS CALL ISZERO DUP1 ISZERO PUSH2 0x2FCE JUMPI RETURNDATASIZE PUSH1 0x0 DUP1 RETURNDATACOPY RETURNDATASIZE PUSH1 0x0 REVERT JUMPDEST POP POP POP POP PUSH1 0x40 MLOAD RETURNDATASIZE PUSH1 0x1F NOT PUSH1 0x1F DUP3 ADD AND DUP3 ADD DUP1 PUSH1 0x40 MSTORE POP DUP2 ADD SWAP1 PUSH2 0x2FF2 SWAP2 SWAP1 PUSH2 0x53F1 JUMP JUMPDEST POP JUMP JUMPDEST PUSH1 0x64 DUP1 PUSH2 0x3002 SWAP2 SWAP1 PUSH2 0x5289 JUMP JUMPDEST DUP2 LT PUSH2 0x300D JUMPI PUSH1 0x0 DUP1 REVERT JUMPDEST PUSH2 0x3067 PUSH2 0x3018 PUSH2 0x17ED JUMP JUMPDEST PUSH32 0x6265670000000000000000000000000000000000000000000000000000000000 PUSH2 0x304F DUP5 PUSH1 0x64 DUP1 PUSH2 0x304A SWAP2 SWAP1 PUSH2 0x5289 JUMP JUMPDEST PUSH2 0x47F4 JUMP JUMPDEST PUSH8 0xDE0B6B3A7640000 PUSH2 0x3062 SWAP2 SWAP1 PUSH2 0x541E JUMP JUMPDEST PUSH2 0x4413 JUMP JUMPDEST POP JUMP JUMPDEST PUSH2 0x309C PUSH2 0x3075 PUSH2 0x17ED JUMP JUMPDEST PUSH32 0x7461750000000000000000000000000000000000000000000000000000000000 DUP4 PUSH2 0x4413 JUMP JUMPDEST POP JUMP JUMPDEST PUSH8 0xDE0B6B3A7640000 DUP3 LT PUSH2 0x30B3 JUMPI PUSH1 0x0 DUP1 REVERT JUMPDEST PUSH1 0x0 PUSH2 0x30BD PUSH2 0x1DCE JUMP JUMPDEST SWAP1 POP PUSH1 0x0 DUP2 PUSH20 0xFFFFFFFFFFFFFFFFFFFFFFFFFFFFFFFFFFFFFFFF AND PUSH4 0xD9638D36 DUP7 PUSH1 0x40 MLOAD DUP3 PUSH4 0xFFFFFFFF AND PUSH1 0xE0 SHL DUP2 MSTORE PUSH1 0x4 ADD PUSH2 0x30FA SWAP2 SWAP1 PUSH2 0x552C JUMP JUMPDEST PUSH1 0xA0 PUSH1 0x40 MLOAD DUP1 DUP4 SUB DUP2 PUSH1 0x0 DUP8 GAS CALL ISZERO DUP1 ISZERO PUSH2 0x3119 JUMPI RETURNDATASIZE PUSH1 0x0 DUP1 RETURNDATACOPY RETURNDATASIZE PUSH1 0x0 REVERT JUMPDEST POP POP POP POP PUSH1 0x40 MLOAD RETURNDATASIZE PUSH1 0x1F NOT PUSH1 0x1F DUP3 ADD AND DUP3 ADD DUP1 PUSH1 0x40 MSTORE POP DUP2 ADD SWAP1 PUSH2 0x313D SWAP2 SWAP1 PUSH2 0x58B2 JUMP JUMPDEST POP SWAP4 POP POP POP POP PUSH2 0x3198 DUP3 DUP7 PUSH32 0x6C696E6500000000000000000000000000000000000000000000000000000000 PUSH19 0x2CD76FE086B93CE2F768A00B22A00000000000 DUP9 PUSH2 0x3188 SWAP2 SWAP1 PUSH2 0x5289 JUMP JUMPDEST DUP6 PUSH2 0x3193 SWAP2 SWAP1 PUSH2 0x587E JUMP JUMPDEST PUSH2 0x294B JUMP JUMPDEST DUP3 ISZERO PUSH2 0x31A8 JUMPI PUSH2 0x31A7 DUP5 PUSH2 0x29C0 JUMP JUMPDEST JUMPDEST POP POP POP POP POP JUMP JUMPDEST PUSH12 0x33B2E3C9FD0803CE8000000 DUP2 LT ISZERO DUP1 ISZERO PUSH2 0x31D7 JUMPI POP PUSH12 0x33B2E3DD0D78F60556D6583 DUP2 GT ISZERO JUMPDEST PUSH2 0x31E0 JUMPI PUSH1 0x0 DUP1 REVERT JUMPDEST PUSH2 0x3212 PUSH2 0x31EB PUSH2 0x2B4B JUMP JUMPDEST PUSH32 0x6261736500000000000000000000000000000000000000000000000000000000 DUP4 PUSH2 0x4413 JUMP JUMPDEST POP JUMP JUMPDEST PUSH8 0xDE0B6B3A7640000 DUP2 LT PUSH2 0x3229 JUMPI PUSH1 0x0 DUP1 REVERT JUMPDEST PUSH2 0x3279 PUSH2 0x3234 PUSH2 0x38B9 JUMP JUMPDEST PUSH32 0x486F6C6500000000000000000000000000000000000000000000000000000000 PUSH19 0x2CD76FE086B93CE2F768A00B22A00000000000 DUP5 PUSH2 0x3274 SWAP2 SWAP1 PUSH2 0x5289 JUMP JUMPDEST PUSH2 0x4413 JUMP JUMPDEST POP JUMP JUMPDEST PUSH1 0x0 PUSH2 0x32A7 PUSH32 0x4D43445F45534D00000000000000000000000000000000000000000000000000 PUSH2 0x2EE3 JUMP JUMPDEST SWAP1 POP SWAP1 JUMP JUMPDEST PUSH8 0xDE0B6B3A7640000 DUP4 LT PUSH2 0x32C0 JUMPI PUSH1 0x0 DUP1 REVERT JUMPDEST PUSH8 0xDE0B6B3A7640000 DUP3 LT PUSH2 0x32D4 JUMPI PUSH1 0x0 DUP1 REVERT JUMPDEST PUSH2 0x32DC PUSH2 0x4485 JUMP JUMPDEST PUSH20 0xFFFFFFFFFFFFFFFFFFFFFFFFFFFFFFFFFFFFFFFF AND PUSH4 0x2A48322D DUP6 PUSH19 0x2CD76FE086B93CE2F768A00B22A00000000000 DUP7 PUSH2 0x3317 SWAP2 SWAP1 PUSH2 0x5289 JUMP JUMPDEST PUSH19 0x2CD76FE086B93CE2F768A00B22A00000000000 DUP7 PUSH2 0x3336 SWAP2 SWAP1 PUSH2 0x5289 JUMP JUMPDEST DUP6 PUSH1 0x40 MLOAD DUP6 PUSH4 0xFFFFFFFF AND PUSH1 0xE0 SHL DUP2 MSTORE PUSH1 0x4 ADD PUSH2 0x3356 SWAP5 SWAP4 SWAP3 SWAP2 SWAP1 PUSH2 0x5600 JUMP JUMPDEST PUSH1 0x0 PUSH1 0x40 MLOAD DUP1 DUP4 SUB DUP2 PUSH1 0x0 DUP8 DUP1 EXTCODESIZE ISZERO DUP1 ISZERO PUSH2 0x3370 JUMPI PUSH1 0x0 DUP1 REVERT JUMPDEST POP GAS CALL ISZERO DUP1 ISZERO PUSH2 0x3384 JUMPI RETURNDATASIZE PUSH1 0x0 DUP1 RETURNDATACOPY RETURNDATASIZE PUSH1 0x0 REVERT JUMPDEST POP POP POP POP POP POP POP POP JUMP JUMPDEST PUSH1 0x0 DUP1 PUSH2 0x3399 PUSH2 0x2B1B JUMP JUMPDEST PUSH20 0xFFFFFFFFFFFFFFFFFFFFFFFFFFFFFFFFFFFFFFFF AND PUSH4 0xE02B0A5F DUP12 DUP12 DUP12 DUP12 DUP12 DUP12 DUP12 DUP12 PUSH1 0x40 MLOAD DUP10 PUSH4 0xFFFFFFFF AND PUSH1 0xE0 SHL DUP2 MSTORE PUSH1 0x4 ADD PUSH2 0x33DF SWAP9 SWAP8 SWAP7 SWAP6 SWAP5 SWAP4 SWAP3 SWAP2 SWAP1 PUSH2 0x592D JUMP JUMPDEST PUSH1 0x20 PUSH1 0x40 MLOAD DUP1 DUP4 SUB DUP2 PUSH1 0x0 DUP8 GAS CALL ISZERO DUP1 ISZERO PUSH2 0x33FE JUMPI RETURNDATASIZE PUSH1 0x0 DUP1 RETURNDATACOPY RETURNDATASIZE PUSH1 0x0 REVERT JUMPDEST POP POP POP POP PUSH1 0x40 MLOAD RETURNDATASIZE PUSH1 0x1F NOT PUSH1 0x1F DUP3 ADD AND DUP3 ADD DUP1 PUSH1 0x40 MSTORE POP DUP2 ADD SWAP1 PUSH2 0x3422 SWAP2 SWAP1 PUSH2 0x5394 JUMP JUMPDEST SWAP1 POP DUP9 PUSH20 0xFFFFFFFFFFFFFFFFFFFFFFFFFFFFFFFFFFFFFFFF AND PUSH4 0x65FAE35E DUP3 PUSH1 0x40 MLOAD DUP3 PUSH4 0xFFFFFFFF AND PUSH1 0xE0 SHL DUP2 MSTORE PUSH1 0x4 ADD PUSH2 0x345D SWAP2 SWAP1 PUSH2 0x53C1 JUMP JUMPDEST PUSH1 0x0 PUSH1 0x40 MLOAD DUP1 DUP4 SUB DUP2 PUSH1 0x0 DUP8 DUP1 EXTCODESIZE ISZERO DUP1 ISZERO PUSH2 0x3477 JUMPI PUSH1 0x0 DUP1 REVERT JUMPDEST POP GAS CALL ISZERO DUP1 ISZERO PUSH2 0x348B JUMPI RETURNDATASIZE PUSH1 0x0 DUP1 RETURNDATACOPY RETURNDATASIZE PUSH1 0x0 REVERT JUMPDEST POP POP POP POP DUP1 PUSH20 0xFFFFFFFFFFFFFFFFFFFFFFFFFFFFFFFFFFFFFFFF AND PUSH4 0x3EAF5D9F PUSH1 0x40 MLOAD DUP2 PUSH4 0xFFFFFFFF AND PUSH1 0xE0 SHL DUP2 MSTORE PUSH1 0x4 ADD PUSH1 0x20 PUSH1 0x40 MLOAD DUP1 DUP4 SUB DUP2 PUSH1 0x0 DUP8 GAS CALL ISZERO DUP1 ISZERO PUSH2 0x34DC JUMPI RETURNDATASIZE PUSH1 0x0 DUP1 RETURNDATACOPY RETURNDATASIZE PUSH1 0x0 REVERT JUMPDEST POP POP POP POP PUSH1 0x40 MLOAD RETURNDATASIZE PUSH1 0x1F NOT PUSH1 0x1F DUP3 ADD AND DUP3 ADD DUP1 PUSH1 0x40 MSTORE POP DUP2 ADD SWAP1 PUSH2 0x3500 SWAP2 SWAP1 PUSH2 0x53F1 JUMP JUMPDEST POP DUP1 SWAP2 POP POP SWAP9 SWAP8 POP POP POP POP POP POP POP POP JUMP JUMPDEST PUSH8 0xDE0B6B3A7640000 DUP2 LT PUSH2 0x3525 JUMPI PUSH1 0x0 DUP1 REVERT JUMPDEST PUSH2 0x352D PUSH2 0x1DCE JUMP JUMPDEST PUSH20 0xFFFFFFFFFFFFFFFFFFFFFFFFFFFFFFFFFFFFFFFF AND PUSH4 0xF24E23EB PUSH2 0x3550 PUSH2 0x2484 JUMP JUMPDEST ADDRESS PUSH19 0x2CD76FE086B93CE2F768A00B22A00000000000 DUP6 PUSH2 0x3570 SWAP2 SWAP1 PUSH2 0x5289 JUMP JUMPDEST PUSH1 0x40 MLOAD DUP5 PUSH4 0xFFFFFFFF AND PUSH1 0xE0 SHL DUP2 MSTORE PUSH1 0x4 ADD PUSH2 0x358E SWAP4 SWAP3 SWAP2 SWAP1 PUSH2 0x59AB JUMP JUMPDEST PUSH1 0x0 PUSH1 0x40 MLOAD DUP1 DUP4 SUB DUP2 PUSH1 0x0 DUP8 DUP1 EXTCODESIZE ISZERO DUP1 ISZERO PUSH2 0x35A8 JUMPI PUSH1 0x0 DUP1 REVERT JUMPDEST POP GAS CALL ISZERO DUP1 ISZERO PUSH2 0x35BC JUMPI RETURNDATASIZE PUSH1 0x0 DUP1 RETURNDATACOPY RETURNDATASIZE PUSH1 0x0 REVERT JUMPDEST POP POP POP POP PUSH2 0x35C8 PUSH2 0x3809 JUMP JUMPDEST PUSH20 0xFFFFFFFFFFFFFFFFFFFFFFFFFFFFFFFFFFFFFFFF AND PUSH4 0xEF693BED DUP4 PUSH8 0xDE0B6B3A7640000 DUP5 PUSH2 0x35F8 SWAP2 SWAP1 PUSH2 0x5289 JUMP JUMPDEST PUSH1 0x40 MLOAD DUP4 PUSH4 0xFFFFFFFF AND PUSH1 0xE0 SHL DUP2 MSTORE PUSH1 0x4 ADD PUSH2 0x3615 SWAP3 SWAP2 SWAP1 PUSH2 0x5503 JUMP JUMPDEST PUSH1 0x0 PUSH1 0x40 MLOAD DUP1 DUP4 SUB DUP2 PUSH1 0x0 DUP8 DUP1 EXTCODESIZE ISZERO DUP1 ISZERO PUSH2 0x362F JUMPI PUSH1 0x0 DUP1 REVERT JUMPDEST POP GAS CALL ISZERO DUP1 ISZERO PUSH2 0x3643 JUMPI RETURNDATASIZE PUSH1 0x0 DUP1 RETURNDATACOPY RETURNDATASIZE PUSH1 0x0 REVERT JUMPDEST POP POP POP POP POP POP JUMP JUMPDEST PUSH2 0x367D PUSH2 0x3656 PUSH2 0x17ED JUMP JUMPDEST PUSH32 0x74746C0000000000000000000000000000000000000000000000000000000000 DUP4 PUSH2 0x4413 JUMP JUMPDEST POP JUMP JUMPDEST PUSH8 0xDE0B6B3A7640000 DUP2 LT PUSH2 0x3694 JUMPI PUSH1 0x0 DUP1 REVERT JUMPDEST PUSH2 0x36E5 PUSH2 0x36A0 DUP4 PUSH2 0x1E47 JUMP JUMPDEST PUSH32 0x7469700000000000000000000000000000000000000000000000000000000000 PUSH19 0x2CD76FE086B93CE2F768A00B22A00000000000 DUP5 PUSH2 0x36E0 SWAP2 SWAP1 PUSH2 0x5289 JUMP JUMPDEST PUSH2 0x4413 JUMP JUMPDEST POP POP JUMP JUMPDEST PUSH8 0xDE0B6B3A7640000 DUP2 LT PUSH2 0x36FD JUMPI PUSH1 0x0 DUP1 REVERT JUMPDEST PUSH2 0x374D PUSH2 0x3708 PUSH2 0x40EA JUMP JUMPDEST PUSH32 0x626F780000000000000000000000000000000000000000000000000000000000 PUSH19 0x2CD76FE086B93CE2F768A00B22A00000000000 DUP5 PUSH2 0x3748 SWAP2 SWAP1 PUSH2 0x5289 JUMP JUMPDEST PUSH2 0x4413 JUMP JUMPDEST POP JUMP JUMPDEST PUSH1 0x0 PUSH2 0x377B PUSH32 0x4D43445F464C4F50000000000000000000000000000000000000000000000000 PUSH2 0x2EE3 JUMP JUMPDEST SWAP1 POP SWAP1 JUMP JUMPDEST PUSH1 0x64 DUP1 PUSH2 0x378D SWAP2 SWAP1 PUSH2 0x5289 JUMP JUMPDEST PUSH1 0xA PUSH2 0x3799 SWAP2 SWAP1 PUSH2 0x5289 JUMP JUMPDEST DUP2 LT PUSH2 0x37A4 JUMPI PUSH1 0x0 DUP1 REVERT JUMPDEST PUSH1 0x64 DUP1 PUSH2 0x37B1 SWAP2 SWAP1 PUSH2 0x5289 JUMP JUMPDEST DUP2 LT ISZERO PUSH2 0x37BD JUMPI PUSH1 0x0 DUP1 REVERT JUMPDEST PUSH2 0x3805 PUSH2 0x37C8 PUSH2 0x1CCF JUMP JUMPDEST DUP4 PUSH32 0x6D61740000000000000000000000000000000000000000000000000000000000 PUSH2 0x3800 DUP6 PUSH1 0x64 DUP1 PUSH2 0x37FB SWAP2 SWAP1 PUSH2 0x5289 JUMP JUMPDEST PUSH2 0x47B0 JUMP JUMPDEST PUSH2 0x294B JUMP JUMPDEST POP POP JUMP JUMPDEST PUSH1 0x0 PUSH2 0x3834 PUSH32 0x4D43445F4A4F494E5F4441490000000000000000000000000000000000000000 PUSH2 0x2EE3 JUMP JUMPDEST SWAP1 POP SWAP1 JUMP JUMPDEST PUSH1 0x0 PUSH2 0x3844 DUP3 PUSH2 0x1E47 JUMP JUMPDEST PUSH20 0xFFFFFFFFFFFFFFFFFFFFFFFFFFFFFFFFFFFFFFFF AND PUSH4 0x96F1B6BE PUSH1 0x40 MLOAD DUP2 PUSH4 0xFFFFFFFF AND PUSH1 0xE0 SHL DUP2 MSTORE PUSH1 0x4 ADD PUSH1 0x20 PUSH1 0x40 MLOAD DUP1 DUP4 SUB DUP2 DUP7 GAS STATICCALL ISZERO DUP1 ISZERO PUSH2 0x388E JUMPI RETURNDATASIZE PUSH1 0x0 DUP1 RETURNDATACOPY RETURNDATASIZE PUSH1 0x0 REVERT JUMPDEST POP POP POP POP PUSH1 0x40 MLOAD RETURNDATASIZE PUSH1 0x1F NOT PUSH1 0x1F DUP3 ADD AND DUP3 ADD DUP1 PUSH1 0x40 MSTORE POP DUP2 ADD SWAP1 PUSH2 0x38B2 SWAP2 SWAP1 PUSH2 0x5394 JUMP JUMPDEST SWAP1 POP SWAP2 SWAP1 POP JUMP JUMPDEST PUSH1 0x0 PUSH2 0x38E4 PUSH32 0x4D43445F444F4700000000000000000000000000000000000000000000000000 PUSH2 0x2EE3 JUMP JUMPDEST SWAP1 POP SWAP1 JUMP JUMPDEST PUSH20 0xDA0AB1E0017DEBCD72BE8599041A2AA3BA7E740F PUSH20 0xFFFFFFFFFFFFFFFFFFFFFFFFFFFFFFFFFFFFFFFF AND PUSH4 0x884A631F DUP3 PUSH1 0x40 MLOAD DUP3 PUSH4 0xFFFFFFFF AND PUSH1 0xE0 SHL DUP2 MSTORE PUSH1 0x4 ADD PUSH2 0x3936 SWAP2 SWAP1 PUSH2 0x578D JUMP JUMPDEST PUSH1 0x0 PUSH1 0x40 MLOAD DUP1 DUP4 SUB DUP2 PUSH1 0x0 DUP8 DUP1 EXTCODESIZE ISZERO DUP1 ISZERO PUSH2 0x3950 JUMPI PUSH1 0x0 DUP1 REVERT JUMPDEST POP GAS CALL ISZERO DUP1 ISZERO PUSH2 0x3964 JUMPI RETURNDATASIZE PUSH1 0x0 DUP1 RETURNDATACOPY RETURNDATASIZE PUSH1 0x0 REVERT JUMPDEST POP POP POP POP POP JUMP JUMPDEST PUSH2 0x3973 PUSH2 0x1DCE JUMP JUMPDEST PUSH20 0xFFFFFFFFFFFFFFFFFFFFFFFFFFFFFFFFFFFFFFFF AND PUSH4 0xA3B22FC4 DUP3 PUSH1 0x40 MLOAD DUP3 PUSH4 0xFFFFFFFF AND PUSH1 0xE0 SHL DUP2 MSTORE PUSH1 0x4 ADD PUSH2 0x39AB SWAP2 SWAP1 PUSH2 0x53C1 JUMP JUMPDEST PUSH1 0x0 PUSH1 0x40 MLOAD DUP1 DUP4 SUB DUP2 PUSH1 0x0 DUP8 DUP1 EXTCODESIZE ISZERO DUP1 ISZERO PUSH2 0x39C5 JUMPI PUSH1 0x0 DUP1 REVERT JUMPDEST POP GAS CALL ISZERO DUP1 ISZERO PUSH2 0x39D9 JUMPI RETURNDATASIZE PUSH1 0x0 DUP1 RETURNDATACOPY RETURNDATASIZE PUSH1 0x0 REVERT JUMPDEST POP POP POP POP POP JUMP JUMPDEST PUSH1 0x64 DUP1 PUSH2 0x39ED SWAP2 SWAP1 PUSH2 0x5289 JUMP JUMPDEST DUP2 LT PUSH2 0x39F8 JUMPI PUSH1 0x0 DUP1 REVERT JUMPDEST PUSH2 0x3A52 PUSH2 0x3A03 PUSH2 0x3750 JUMP JUMPDEST PUSH32 0x6265670000000000000000000000000000000000000000000000000000000000 PUSH2 0x3A3A DUP5 PUSH1 0x64 DUP1 PUSH2 0x3A35 SWAP2 SWAP1 PUSH2 0x5289 JUMP JUMPDEST PUSH2 0x47F4 JUMP JUMPDEST PUSH8 0xDE0B6B3A7640000 PUSH2 0x3A4D SWAP2 SWAP1 PUSH2 0x541E JUMP JUMPDEST PUSH2 0x4413 JUMP JUMPDEST POP JUMP JUMPDEST PUSH1 0x0 DUP3 PUSH20 0xFFFFFFFFFFFFFFFFFFFFFFFFFFFFFFFFFFFFFFFF AND DUP3 PUSH1 0x40 MLOAD PUSH1 0x24 ADD PUSH2 0x3A7F SWAP2 SWAP1 PUSH2 0x53C1 JUMP JUMPDEST PUSH1 0x40 MLOAD PUSH1 0x20 DUP2 DUP4 SUB SUB DUP2 MSTORE SWAP1 PUSH1 0x40 MSTORE PUSH32 0x65C4CE7A00000000000000000000000000000000000000000000000000000000 PUSH28 0xFFFFFFFFFFFFFFFFFFFFFFFFFFFFFFFFFFFFFFFFFFFFFFFFFFFFFFFF NOT AND PUSH1 0x20 DUP3 ADD DUP1 MLOAD PUSH28 0xFFFFFFFFFFFFFFFFFFFFFFFFFFFFFFFFFFFFFFFFFFFFFFFFFFFFFFFF DUP4 DUP2 DUP4 AND OR DUP4 MSTORE POP POP POP POP PUSH1 0x40 MLOAD PUSH2 0x3B09 SWAP2 SWAP1 PUSH2 0x54C3 JUMP JUMPDEST PUSH1 0x0 PUSH1 0x40 MLOAD DUP1 DUP4 SUB DUP2 PUSH1 0x0 DUP7 GAS CALL SWAP2 POP POP RETURNDATASIZE DUP1 PUSH1 0x0 DUP2 EQ PUSH2 0x3B46 JUMPI PUSH1 0x40 MLOAD SWAP2 POP PUSH1 0x1F NOT PUSH1 0x3F RETURNDATASIZE ADD AND DUP3 ADD PUSH1 0x40 MSTORE RETURNDATASIZE DUP3 MSTORE RETURNDATASIZE PUSH1 0x0 PUSH1 0x20 DUP5 ADD RETURNDATACOPY PUSH2 0x3B4B JUMP JUMPDEST PUSH1 0x60 SWAP2 POP JUMPDEST POP POP SWAP1 POP POP POP POP JUMP JUMPDEST PUSH1 0x64 DUP1 PUSH2 0x3B61 SWAP2 SWAP1 PUSH2 0x5289 JUMP JUMPDEST DUP2 LT PUSH2 0x3B6C JUMPI PUSH1 0x0 DUP1 REVERT JUMPDEST PUSH2 0x3BAC DUP4 PUSH32 0x6375740000000000000000000000000000000000000000000000000000000000 PUSH2 0x3BA7 DUP5 PUSH1 0x64 DUP1 PUSH2 0x3BA2 SWAP2 SWAP1 PUSH2 0x5289 JUMP JUMPDEST PUSH2 0x47B0 JUMP JUMPDEST PUSH2 0x4413 JUMP JUMPDEST PUSH2 0x3BD7 DUP4 PUSH32 0x7374657000000000000000000000000000000000000000000000000000000000 DUP5 PUSH2 0x4413 JUMP JUMPDEST POP POP POP JUMP JUMPDEST PUSH1 0x0 DUP1 DUP5 PUSH5 0xFFFFFFFFFF AND SUB PUSH2 0x3BF1 JUMPI PUSH1 0x0 DUP1 REVERT JUMPDEST PUSH1 0x0 DUP4 PUSH5 0xFFFFFFFFFF AND SUB PUSH2 0x3C05 JUMPI PUSH1 0x0 DUP1 REVERT JUMPDEST DUP4 PUSH5 0xFFFFFFFFFF AND DUP4 PUSH5 0xFFFFFFFFFF AND GT PUSH2 0x3C20 JUMPI DUP4 PUSH2 0x3C22 JUMP JUMPDEST DUP3 JUMPDEST PUSH5 0xFFFFFFFFFF AND SWAP1 POP DUP2 ISZERO PUSH2 0x3E10 JUMPI PUSH1 0x0 PUSH1 0x7 PUSH1 0x3 PUSH3 0x15180 DUP5 PUSH2 0x3C46 SWAP2 SWAP1 PUSH2 0x5816 JUMP JUMPDEST PUSH2 0x3C50 SWAP2 SWAP1 PUSH2 0x541E JUMP JUMPDEST PUSH2 0x3C5A SWAP2 SWAP1 PUSH2 0x59E2 JUMP JUMPDEST SWAP1 POP PUSH1 0x0 PUSH1 0x18 PUSH2 0xE10 DUP5 PUSH2 0x3C6E SWAP2 SWAP1 PUSH2 0x5816 JUMP JUMPDEST PUSH2 0x3C78 SWAP2 SWAP1 PUSH2 0x59E2 JUMP JUMPDEST SWAP1 POP PUSH1 0x0 PUSH1 0x3C DUP1 DUP6 PUSH2 0x3C8A SWAP2 SWAP1 PUSH2 0x5816 JUMP JUMPDEST PUSH2 0x3C94 SWAP2 SWAP1 PUSH2 0x59E2 JUMP JUMPDEST SWAP1 POP PUSH1 0x0 PUSH1 0x3C DUP6 PUSH2 0x3CA5 SWAP2 SWAP1 PUSH2 0x59E2 JUMP JUMPDEST SWAP1 POP PUSH1 0x5 DUP5 LT PUSH2 0x3D34 JUMPI PUSH3 0x15180 DUP5 PUSH1 0x6 PUSH2 0x3CC0 SWAP2 SWAP1 PUSH2 0x587E JUMP JUMPDEST PUSH2 0x3CCA SWAP2 SWAP1 PUSH2 0x5289 JUMP JUMPDEST DUP6 PUSH2 0x3CD5 SWAP2 SWAP1 PUSH2 0x541E JUMP JUMPDEST SWAP5 POP PUSH2 0xE10 PUSH1 0xE DUP5 PUSH1 0x18 PUSH2 0x3CE9 SWAP2 SWAP1 PUSH2 0x587E JUMP JUMPDEST PUSH2 0x3CF3 SWAP2 SWAP1 PUSH2 0x541E JUMP JUMPDEST PUSH2 0x3CFD SWAP2 SWAP1 PUSH2 0x5289 JUMP JUMPDEST DUP6 PUSH2 0x3D08 SWAP2 SWAP1 PUSH2 0x541E JUMP JUMPDEST SWAP5 POP DUP1 PUSH1 0x3C DUP4 PUSH2 0x3D18 SWAP2 SWAP1 PUSH2 0x5289 JUMP JUMPDEST PUSH2 0x3D22 SWAP2 SWAP1 PUSH2 0x541E JUMP JUMPDEST DUP6 PUSH2 0x3D2D SWAP2 SWAP1 PUSH2 0x587E JUMP JUMPDEST SWAP5 POP PUSH2 0x3E0B JUMP JUMPDEST PUSH1 0x15 DUP4 LT PUSH2 0x3DB3 JUMPI PUSH1 0x4 DUP5 SUB PUSH2 0x3D56 JUMPI PUSH3 0x2A300 DUP6 PUSH2 0x3D53 SWAP2 SWAP1 PUSH2 0x541E JUMP JUMPDEST SWAP5 POP JUMPDEST PUSH2 0xE10 PUSH1 0xE DUP5 PUSH1 0x18 PUSH2 0x3D68 SWAP2 SWAP1 PUSH2 0x587E JUMP JUMPDEST PUSH2 0x3D72 SWAP2 SWAP1 PUSH2 0x541E JUMP JUMPDEST PUSH2 0x3D7C SWAP2 SWAP1 PUSH2 0x5289 JUMP JUMPDEST DUP6 PUSH2 0x3D87 SWAP2 SWAP1 PUSH2 0x541E JUMP JUMPDEST SWAP5 POP DUP1 PUSH1 0x3C DUP4 PUSH2 0x3D97 SWAP2 SWAP1 PUSH2 0x5289 JUMP JUMPDEST PUSH2 0x3DA1 SWAP2 SWAP1 PUSH2 0x541E JUMP JUMPDEST DUP6 PUSH2 0x3DAC SWAP2 SWAP1 PUSH2 0x587E JUMP JUMPDEST SWAP5 POP PUSH2 0x3E0A JUMP JUMPDEST PUSH1 0xE DUP4 LT ISZERO PUSH2 0x3E09 JUMPI PUSH2 0xE10 DUP4 PUSH1 0xE PUSH2 0x3DCC SWAP2 SWAP1 PUSH2 0x587E JUMP JUMPDEST PUSH2 0x3DD6 SWAP2 SWAP1 PUSH2 0x5289 JUMP JUMPDEST DUP6 PUSH2 0x3DE1 SWAP2 SWAP1 PUSH2 0x541E JUMP JUMPDEST SWAP5 POP DUP1 PUSH1 0x3C DUP4 PUSH2 0x3DF1 SWAP2 SWAP1 PUSH2 0x5289 JUMP JUMPDEST PUSH2 0x3DFB SWAP2 SWAP1 PUSH2 0x541E JUMP JUMPDEST DUP6 PUSH2 0x3E06 SWAP2 SWAP1 PUSH2 0x587E JUMP JUMPDEST SWAP5 POP JUMPDEST JUMPDEST JUMPDEST POP POP POP POP JUMPDEST SWAP4 SWAP3 POP POP POP JUMP JUMPDEST PUSH2 0x3E42 DUP3 PUSH32 0x7461750000000000000000000000000000000000000000000000000000000000 DUP4 PUSH2 0x4413 JUMP JUMPDEST POP POP JUMP JUMPDEST PUSH20 0xDA0AB1E0017DEBCD72BE8599041A2AA3BA7E740F PUSH20 0xFFFFFFFFFFFFFFFFFFFFFFFFFFFFFFFFFFFFFFFF AND PUSH4 0xD19AC77A DUP3 PUSH1 0x40 MLOAD DUP3 PUSH4 0xFFFFFFFF AND PUSH1 0xE0 SHL DUP2 MSTORE PUSH1 0x4 ADD PUSH2 0x3E93 SWAP2 SWAP1 PUSH2 0x578D JUMP JUMPDEST PUSH1 0x0 PUSH1 0x40 MLOAD DUP1 DUP4 SUB DUP2 PUSH1 0x0 DUP8 DUP1 EXTCODESIZE ISZERO DUP1 ISZERO PUSH2 0x3EAD JUMPI PUSH1 0x0 DUP1 REVERT JUMPDEST POP GAS CALL ISZERO DUP1 ISZERO PUSH2 0x3EC1 JUMPI RETURNDATASIZE PUSH1 0x0 DUP1 RETURNDATACOPY RETURNDATASIZE PUSH1 0x0 REVERT JUMPDEST POP POP POP POP POP JUMP JUMPDEST PUSH1 0x0 DUP3 PUSH20 0xFFFFFFFFFFFFFFFFFFFFFFFFFFFFFFFFFFFFFFFF AND DUP3 PUSH1 0x40 MLOAD PUSH1 0x24 ADD PUSH2 0x3EF2 SWAP2 SWAP1 PUSH2 0x53C1 JUMP JUMPDEST PUSH1 0x40 MLOAD PUSH1 0x20 DUP2 DUP4 SUB SUB DUP2 MSTORE SWAP1 PUSH1 0x40 MSTORE PUSH32 0xF29C29C400000000000000000000000000000000000000000000000000000000 PUSH28 0xFFFFFFFFFFFFFFFFFFFFFFFFFFFFFFFFFFFFFFFFFFFFFFFFFFFFFFFF NOT AND PUSH1 0x20 DUP3 ADD DUP1 MLOAD PUSH28 0xFFFFFFFFFFFFFFFFFFFFFFFFFFFFFFFFFFFFFFFFFFFFFFFFFFFFFFFF DUP4 DUP2 DUP4 AND OR DUP4 MSTORE POP POP POP POP PUSH1 0x40 MLOAD PUSH2 0x3F7C SWAP2 SWAP1 PUSH2 0x54C3 JUMP JUMPDEST PUSH1 0x0 PUSH1 0x40 MLOAD DUP1 DUP4 SUB DUP2 PUSH1 0x0 DUP7 GAS CALL SWAP2 POP POP RETURNDATASIZE DUP1 PUSH1 0x0 DUP2 EQ PUSH2 0x3FB9 JUMPI PUSH1 0x40 MLOAD SWAP2 POP PUSH1 0x1F NOT PUSH1 0x3F RETURNDATASIZE ADD AND DUP3 ADD PUSH1 0x40 MSTORE RETURNDATASIZE DUP3 MSTORE RETURNDATASIZE PUSH1 0x0 PUSH1 0x20 DUP5 ADD RETURNDATACOPY PUSH2 0x3FBE JUMP JUMPDEST PUSH1 0x60 SWAP2 POP JUMPDEST POP POP SWAP1 POP POP POP POP JUMP JUMPDEST PUSH12 0x33B2E3C9FD0803CE8000000 DUP3 LT ISZERO DUP1 ISZERO PUSH2 0x3FEF JUMPI POP PUSH12 0x33B2E3DD0D78F60556D6583 DUP3 GT ISZERO JUMPDEST PUSH2 0x3FF8 JUMPI PUSH1 0x0 DUP1 REVERT JUMPDEST PUSH1 0x0 PUSH2 0x4002 PUSH2 0x2B4B JUMP JUMPDEST SWAP1 POP DUP2 ISZERO PUSH2 0x4088 JUMPI DUP1 PUSH20 0xFFFFFFFFFFFFFFFFFFFFFFFFFFFFFFFFFFFFFFFF AND PUSH4 0x44E2A5A8 DUP6 PUSH1 0x40 MLOAD DUP3 PUSH4 0xFFFFFFFF AND PUSH1 0xE0 SHL DUP2 MSTORE PUSH1 0x4 ADD PUSH2 0x4043 SWAP2 SWAP1 PUSH2 0x552C JUMP JUMPDEST PUSH1 0x20 PUSH1 0x40 MLOAD DUP1 DUP4 SUB DUP2 PUSH1 0x0 DUP8 GAS CALL ISZERO DUP1 ISZERO PUSH2 0x4062 JUMPI RETURNDATASIZE PUSH1 0x0 DUP1 RETURNDATACOPY RETURNDATASIZE PUSH1 0x0 REVERT JUMPDEST POP POP POP POP PUSH1 0x40 MLOAD RETURNDATASIZE PUSH1 0x1F NOT PUSH1 0x1F DUP3 ADD AND DUP3 ADD DUP1 PUSH1 0x40 MSTORE POP DUP2 ADD SWAP1 PUSH2 0x4086 SWAP2 SWAP1 PUSH2 0x53F1 JUMP JUMPDEST POP JUMPDEST PUSH2 0x40B4 DUP2 DUP6 PUSH32 0x6475747900000000000000000000000000000000000000000000000000000000 DUP7 PUSH2 0x294B JUMP JUMPDEST POP POP POP POP JUMP JUMPDEST PUSH1 0x0 PUSH2 0x40E5 PUSH32 0x4F534D5F4D4F4D00000000000000000000000000000000000000000000000000 PUSH2 0x2EE3 JUMP JUMPDEST SWAP1 POP SWAP1 JUMP JUMPDEST PUSH1 0x0 PUSH2 0x4115 PUSH32 0x4D43445F43415400000000000000000000000000000000000000000000000000 PUSH2 0x2EE3 JUMP JUMPDEST SWAP1 POP SWAP1 JUMP JUMPDEST DUP4 PUSH20 0xFFFFFFFFFFFFFFFFFFFFFFFFFFFFFFFFFFFFFFFF AND PUSH4 0xEBECB39D DUP5 DUP5 DUP5 PUSH1 0x40 MLOAD DUP5 PUSH4 0xFFFFFFFF AND PUSH1 0xE0 SHL DUP2 MSTORE PUSH1 0x4 ADD PUSH2 0x4157 SWAP4 SWAP3 SWAP2 SWAP1 PUSH2 0x5A13 JUMP JUMPDEST PUSH1 0x0 PUSH1 0x40 MLOAD DUP1 DUP4 SUB DUP2 PUSH1 0x0 DUP8 DUP1 EXTCODESIZE ISZERO DUP1 ISZERO PUSH2 0x4171 JUMPI PUSH1 0x0 DUP1 REVERT JUMPDEST POP GAS CALL ISZERO DUP1 ISZERO PUSH2 0x4185 JUMPI RETURNDATASIZE PUSH1 0x0 DUP1 RETURNDATACOPY RETURNDATASIZE PUSH1 0x0 REVERT JUMPDEST POP POP POP POP POP POP POP POP JUMP JUMPDEST DUP2 PUSH20 0xFFFFFFFFFFFFFFFFFFFFFFFFFFFFFFFFFFFFFFFF AND PUSH4 0x7A9E5E4B DUP3 PUSH1 0x40 MLOAD DUP3 PUSH4 0xFFFFFFFF AND PUSH1 0xE0 SHL DUP2 MSTORE PUSH1 0x4 ADD PUSH2 0x41C8 SWAP2 SWAP1 PUSH2 0x53C1 JUMP JUMPDEST PUSH1 0x0 PUSH1 0x40 MLOAD DUP1 DUP4 SUB DUP2 PUSH1 0x0 DUP8 DUP1 EXTCODESIZE ISZERO DUP1 ISZERO PUSH2 0x41E2 JUMPI PUSH1 0x0 DUP1 REVERT JUMPDEST POP GAS CALL ISZERO DUP1 ISZERO PUSH2 0x41F6 JUMPI RETURNDATASIZE PUSH1 0x0 DUP1 RETURNDATACOPY RETURNDATASIZE PUSH1 0x0 REVERT JUMPDEST POP POP POP POP POP POP JUMP JUMPDEST PUSH1 0x0 DUP1 DUP3 PUSH20 0xFFFFFFFFFFFFFFFFFFFFFFFFFFFFFFFFFFFFFFFF AND PUSH1 0x40 MLOAD PUSH1 0x24 ADD PUSH1 0x40 MLOAD PUSH1 0x20 DUP2 DUP4 SUB SUB DUP2 MSTORE SWAP1 PUSH1 0x40 MSTORE PUSH32 0x6C2552F900000000000000000000000000000000000000000000000000000000 PUSH28 0xFFFFFFFFFFFFFFFFFFFFFFFFFFFFFFFFFFFFFFFFFFFFFFFFFFFFFFFF NOT AND PUSH1 0x20 DUP3 ADD DUP1 MLOAD PUSH28 0xFFFFFFFFFFFFFFFFFFFFFFFFFFFFFFFFFFFFFFFFFFFFFFFFFFFFFFFF DUP4 DUP2 DUP4 AND OR DUP4 MSTORE POP POP POP POP PUSH1 0x40 MLOAD PUSH2 0x42A8 SWAP2 SWAP1 PUSH2 0x54C3 JUMP JUMPDEST PUSH1 0x0 PUSH1 0x40 MLOAD DUP1 DUP4 SUB DUP2 PUSH1 0x0 DUP7 GAS CALL SWAP2 POP POP RETURNDATASIZE DUP1 PUSH1 0x0 DUP2 EQ PUSH2 0x42E5 JUMPI PUSH1 0x40 MLOAD SWAP2 POP PUSH1 0x1F NOT PUSH1 0x3F RETURNDATASIZE ADD AND DUP3 ADD PUSH1 0x40 MSTORE RETURNDATASIZE DUP3 MSTORE RETURNDATASIZE PUSH1 0x0 PUSH1 0x20 DUP5 ADD RETURNDATACOPY PUSH2 0x42EA JUMP JUMPDEST PUSH1 0x60 SWAP2 POP JUMPDEST POP SWAP2 POP SWAP2 POP DUP2 ISZERO PUSH2 0x4395 JUMPI PUSH1 0x0 DUP2 DUP1 PUSH1 0x20 ADD SWAP1 MLOAD DUP2 ADD SWAP1 PUSH2 0x430B SWAP2 SWAP1 PUSH2 0x5A88 JUMP JUMPDEST SWAP1 POP PUSH2 0x4317 DUP2 DUP6 PUSH2 0x3EC8 JUMP JUMPDEST PUSH2 0x438F DUP5 PUSH20 0xFFFFFFFFFFFFFFFFFFFFFFFFFFFFFFFFFFFFFFFF AND PUSH4 0xDCA44F6F PUSH1 0x40 MLOAD DUP2 PUSH4 0xFFFFFFFF AND PUSH1 0xE0 SHL DUP2 MSTORE PUSH1 0x4 ADD PUSH1 0x20 PUSH1 0x40 MLOAD DUP1 DUP4 SUB DUP2 DUP7 GAS STATICCALL ISZERO DUP1 ISZERO PUSH2 0x4365 JUMPI RETURNDATASIZE PUSH1 0x0 DUP1 RETURNDATACOPY RETURNDATASIZE PUSH1 0x0 REVERT JUMPDEST POP POP POP POP PUSH1 0x40 MLOAD RETURNDATASIZE PUSH1 0x1F NOT PUSH1 0x1F DUP3 ADD AND DUP3 ADD DUP1 PUSH1 0x40 MSTORE POP DUP2 ADD SWAP1 PUSH2 0x4389 SWAP2 SWAP1 PUSH2 0x5394 JUMP JUMPDEST DUP6 PUSH2 0x3EC8 JUMP JUMPDEST POP PUSH2 0x440E JUMP JUMPDEST PUSH2 0x440D DUP4 PUSH20 0xFFFFFFFFFFFFFFFFFFFFFFFFFFFFFFFFFFFFFFFF AND PUSH4 0x2E7DC6AF PUSH1 0x40 MLOAD DUP2 PUSH4 0xFFFFFFFF AND PUSH1 0xE0 SHL DUP2 MSTORE PUSH1 0x4 ADD PUSH1 0x20 PUSH1 0x40 MLOAD DUP1 DUP4 SUB DUP2 DUP7 GAS STATICCALL ISZERO DUP1 ISZERO PUSH2 0x43E3 JUMPI RETURNDATASIZE PUSH1 0x0 DUP1 RETURNDATACOPY RETURNDATASIZE PUSH1 0x0 REVERT JUMPDEST POP POP POP POP PUSH1 0x40 MLOAD RETURNDATASIZE PUSH1 0x1F NOT PUSH1 0x1F DUP3 ADD AND DUP3 ADD DUP1 PUSH1 0x40 MSTORE POP DUP2 ADD SWAP1 PUSH2 0x4407 SWAP2 SWAP1 PUSH2 0x5394 JUMP JUMPDEST DUP5 PUSH2 0x3EC8 JUMP JUMPDEST JUMPDEST POP POP POP JUMP JUMPDEST DUP3 PUSH20 0xFFFFFFFFFFFFFFFFFFFFFFFFFFFFFFFFFFFFFFFF AND PUSH4 0x29AE8114 DUP4 DUP4 PUSH1 0x40 MLOAD DUP4 PUSH4 0xFFFFFFFF AND PUSH1 0xE0 SHL DUP2 MSTORE PUSH1 0x4 ADD PUSH2 0x444E SWAP3 SWAP2 SWAP1 PUSH2 0x570F JUMP JUMPDEST PUSH1 0x0 PUSH1 0x40 MLOAD DUP1 DUP4 SUB DUP2 PUSH1 0x0 DUP8 DUP1 EXTCODESIZE ISZERO DUP1 ISZERO PUSH2 0x4468 JUMPI PUSH1 0x0 DUP1 REVERT JUMPDEST POP GAS CALL ISZERO DUP1 ISZERO PUSH2 0x447C JUMPI RETURNDATASIZE PUSH1 0x0 DUP1 RETURNDATACOPY RETURNDATASIZE PUSH1 0x0 REVERT JUMPDEST POP POP POP POP POP POP POP JUMP JUMPDEST PUSH1 0x0 PUSH2 0x44B0 PUSH32 0x4D43445F49414D5F4155544F5F4C494E45000000000000000000000000000000 PUSH2 0x2EE3 JUMP JUMPDEST SWAP1 POP SWAP1 JUMP JUMPDEST PUSH2 0x44E7 PUSH2 0x44C0 PUSH2 0x45FA JUMP JUMPDEST PUSH32 0x7761697400000000000000000000000000000000000000000000000000000000 DUP4 PUSH2 0x4413 JUMP JUMPDEST POP JUMP JUMPDEST PUSH8 0xDE0B6B3A7640000 DUP3 LT PUSH2 0x44FE JUMPI PUSH1 0x0 DUP1 REVERT JUMPDEST PUSH1 0x0 PUSH2 0x4508 PUSH2 0x1DCE JUMP JUMPDEST SWAP1 POP PUSH1 0x0 DUP2 PUSH20 0xFFFFFFFFFFFFFFFFFFFFFFFFFFFFFFFFFFFFFFFF AND PUSH4 0xD9638D36 DUP7 PUSH1 0x40 MLOAD DUP3 PUSH4 0xFFFFFFFF AND PUSH1 0xE0 SHL DUP2 MSTORE PUSH1 0x4 ADD PUSH2 0x4545 SWAP2 SWAP1 PUSH2 0x552C JUMP JUMPDEST PUSH1 0xA0 PUSH1 0x40 MLOAD DUP1 DUP4 SUB DUP2 PUSH1 0x0 DUP8 GAS CALL ISZERO DUP1 ISZERO PUSH2 0x4564 JUMPI RETURNDATASIZE PUSH1 0x0 DUP1 RETURNDATACOPY RETURNDATASIZE PUSH1 0x0 REVERT JUMPDEST POP POP POP POP PUSH1 0x40 MLOAD RETURNDATASIZE PUSH1 0x1F NOT PUSH1 0x1F DUP3 ADD AND DUP3 ADD DUP1 PUSH1 0x40 MSTORE POP DUP2 ADD SWAP1 PUSH2 0x4588 SWAP2 SWAP1 PUSH2 0x58B2 JUMP JUMPDEST POP SWAP4 POP POP POP POP PUSH2 0x45E3 DUP3 DUP7 PUSH32 0x6C696E6500000000000000000000000000000000000000000000000000000000 PUSH19 0x2CD76FE086B93CE2F768A00B22A00000000000 DUP9 PUSH2 0x45D3 SWAP2 SWAP1 PUSH2 0x5289 JUMP JUMPDEST DUP6 PUSH2 0x45DE SWAP2 SWAP1 PUSH2 0x541E JUMP JUMPDEST PUSH2 0x294B JUMP JUMPDEST DUP3 ISZERO PUSH2 0x45F3 JUMPI PUSH2 0x45F2 DUP5 PUSH2 0x2835 JUMP JUMPDEST JUMPDEST POP POP POP POP POP JUMP JUMPDEST PUSH1 0x0 PUSH2 0x4625 PUSH32 0x4D43445F454E4400000000000000000000000000000000000000000000000000 PUSH2 0x2EE3 JUMP JUMPDEST SWAP1 POP SWAP1 JUMP JUMPDEST PUSH2 0x4632 PUSH2 0x4485 JUMP JUMPDEST PUSH20 0xFFFFFFFFFFFFFFFFFFFFFFFFFFFFFFFFFFFFFFFF AND PUSH4 0xC465F077 DUP3 PUSH1 0x40 MLOAD DUP3 PUSH4 0xFFFFFFFF AND PUSH1 0xE0 SHL DUP2 MSTORE PUSH1 0x4 ADD PUSH2 0x466A SWAP2 SWAP1 PUSH2 0x552C JUMP JUMPDEST PUSH1 0x0 PUSH1 0x40 MLOAD DUP1 DUP4 SUB DUP2 PUSH1 0x0 DUP8 DUP1 EXTCODESIZE ISZERO DUP1 ISZERO PUSH2 0x4684 JUMPI PUSH1 0x0 DUP1 REVERT JUMPDEST POP GAS CALL ISZERO DUP1 ISZERO PUSH2 0x4698 JUMPI RETURNDATASIZE PUSH1 0x0 DUP1 RETURNDATACOPY RETURNDATASIZE PUSH1 0x0 REVERT JUMPDEST POP POP POP POP POP JUMP JUMPDEST DUP3 PUSH20 0xFFFFFFFFFFFFFFFFFFFFFFFFFFFFFFFFFFFFFFFF AND PUSH4 0xD4E8BE83 DUP4 DUP4 PUSH1 0x40 MLOAD DUP4 PUSH4 0xFFFFFFFF AND PUSH1 0xE0 SHL DUP2 MSTORE PUSH1 0x4 ADD PUSH2 0x46DA SWAP3 SWAP2 SWAP1 PUSH2 0x54DA JUMP JUMPDEST PUSH1 0x0 PUSH1 0x40 MLOAD DUP1 DUP4 SUB DUP2 PUSH1 0x0 DUP8 DUP1 EXTCODESIZE ISZERO DUP1 ISZERO PUSH2 0x46F4 JUMPI PUSH1 0x0 DUP1 REVERT JUMPDEST POP GAS CALL ISZERO DUP1 ISZERO PUSH2 0x4708 JUMPI RETURNDATASIZE PUSH1 0x0 DUP1 RETURNDATACOPY RETURNDATASIZE PUSH1 0x0 REVERT JUMPDEST POP POP POP POP POP POP POP JUMP JUMPDEST PUSH1 0x0 PUSH2 0x473C PUSH32 0x4D43445F44414900000000000000000000000000000000000000000000000000 PUSH2 0x2EE3 JUMP JUMPDEST SWAP1 POP SWAP1 JUMP JUMPDEST DUP2 PUSH20 0xFFFFFFFFFFFFFFFFFFFFFFFFFFFFFFFFFFFFFFFF AND PUSH4 0x352D3FBA DUP3 PUSH1 0x40 MLOAD DUP3 PUSH4 0xFFFFFFFF AND PUSH1 0xE0 SHL DUP2 MSTORE PUSH1 0x4 ADD PUSH2 0x477A SWAP2 SWAP1 PUSH2 0x5AB5 JUMP JUMPDEST PUSH1 0x0 PUSH1 0x40 MLOAD DUP1 DUP4 SUB DUP2 PUSH1 0x0 DUP8 DUP1 EXTCODESIZE ISZERO DUP1 ISZERO PUSH2 0x4794 JUMPI PUSH1 0x0 DUP1 REVERT JUMPDEST POP GAS CALL ISZERO DUP1 ISZERO PUSH2 0x47A8 JUMPI RETURNDATASIZE PUSH1 0x0 DUP1 RETURNDATACOPY RETURNDATASIZE PUSH1 0x0 REVERT JUMPDEST POP POP POP POP POP POP JUMP JUMPDEST PUSH1 0x0 DUP2 PUSH1 0x2 DUP4 PUSH2 0x47C0 SWAP2 SWAP1 PUSH2 0x5816 JUMP JUMPDEST PUSH12 0x33B2E3C9FD0803CE8000000 DUP6 PUSH2 0x47D8 SWAP2 SWAP1 PUSH2 0x5289 JUMP JUMPDEST PUSH2 0x47E2 SWAP2 SWAP1 PUSH2 0x541E JUMP JUMPDEST PUSH2 0x47EC SWAP2 SWAP1 PUSH2 0x5816 JUMP JUMPDEST SWAP1 POP SWAP3 SWAP2 POP POP JUMP JUMPDEST PUSH1 0x0 DUP2 PUSH1 0x2 DUP4 PUSH2 0x4804 SWAP2 SWAP1 PUSH2 0x5816 JUMP JUMPDEST PUSH8 0xDE0B6B3A7640000 DUP6 PUSH2 0x4818 SWAP2 SWAP1 PUSH2 0x5289 JUMP JUMPDEST PUSH2 0x4822 SWAP2 SWAP1 PUSH2 0x541E JUMP JUMPDEST PUSH2 0x482C SWAP2 SWAP1 PUSH2 0x5816 JUMP JUMPDEST SWAP1 POP SWAP3 SWAP2 POP POP JUMP JUMPDEST PUSH1 0x0 PUSH1 0x40 MLOAD SWAP1 POP SWAP1 JUMP JUMPDEST PUSH1 0x0 DUP1 REVERT JUMPDEST PUSH1 0x0 DUP1 REVERT JUMPDEST PUSH1 0x0 DUP2 SWAP1 POP SWAP2 SWAP1 POP JUMP JUMPDEST PUSH2 0x485B DUP2 PUSH2 0x4848 JUMP JUMPDEST DUP2 EQ PUSH2 0x4866 JUMPI PUSH1 0x0 DUP1 REVERT JUMPDEST POP JUMP JUMPDEST PUSH1 0x0 DUP2 CALLDATALOAD SWAP1 POP PUSH2 0x4878 DUP2 PUSH2 0x4852 JUMP JUMPDEST SWAP3 SWAP2 POP POP JUMP JUMPDEST PUSH1 0x0 DUP2 SWAP1 POP SWAP2 SWAP1 POP JUMP JUMPDEST PUSH2 0x4891 DUP2 PUSH2 0x487E JUMP JUMPDEST DUP2 EQ PUSH2 0x489C JUMPI PUSH1 0x0 DUP1 REVERT JUMPDEST POP JUMP JUMPDEST PUSH1 0x0 DUP2 CALLDATALOAD SWAP1 POP PUSH2 0x48AE DUP2 PUSH2 0x4888 JUMP JUMPDEST SWAP3 SWAP2 POP POP JUMP JUMPDEST PUSH1 0x0 DUP1 PUSH1 0x40 DUP4 DUP6 SUB SLT ISZERO PUSH2 0x48CB JUMPI PUSH2 0x48CA PUSH2 0x483E JUMP JUMPDEST JUMPDEST PUSH1 0x0 PUSH2 0x48D9 DUP6 DUP3 DUP7 ADD PUSH2 0x4869 JUMP JUMPDEST SWAP3 POP POP PUSH1 0x20 PUSH2 0x48EA DUP6 DUP3 DUP7 ADD PUSH2 0x489F JUMP JUMPDEST SWAP2 POP POP SWAP3 POP SWAP3 SWAP1 POP JUMP JUMPDEST PUSH1 0x0 PUSH20 0xFFFFFFFFFFFFFFFFFFFFFFFFFFFFFFFFFFFFFFFF DUP3 AND SWAP1 POP SWAP2 SWAP1 POP JUMP JUMPDEST PUSH1 0x0 PUSH2 0x491F DUP3 PUSH2 0x48F4 JUMP JUMPDEST SWAP1 POP SWAP2 SWAP1 POP JUMP JUMPDEST PUSH2 0x492F DUP2 PUSH2 0x4914 JUMP JUMPDEST DUP2 EQ PUSH2 0x493A JUMPI PUSH1 0x0 DUP1 REVERT JUMPDEST POP JUMP JUMPDEST PUSH1 0x0 DUP2 CALLDATALOAD SWAP1 POP PUSH2 0x494C DUP2 PUSH2 0x4926 JUMP JUMPDEST SWAP3 SWAP2 POP POP JUMP JUMPDEST PUSH1 0x0 DUP1 PUSH1 0x0 DUP1 PUSH1 0x0 DUP1 PUSH1 0x0 PUSH1 0xE0 DUP9 DUP11 SUB SLT ISZERO PUSH2 0x4971 JUMPI PUSH2 0x4970 PUSH2 0x483E JUMP JUMPDEST JUMPDEST PUSH1 0x0 PUSH2 0x497F DUP11 DUP3 DUP12 ADD PUSH2 0x4869 JUMP JUMPDEST SWAP8 POP POP PUSH1 0x20 PUSH2 0x4990 DUP11 DUP3 DUP12 ADD PUSH2 0x493D JUMP JUMPDEST SWAP7 POP POP PUSH1 0x40 PUSH2 0x49A1 DUP11 DUP3 DUP12 ADD PUSH2 0x4869 JUMP JUMPDEST SWAP6 POP POP PUSH1 0x60 PUSH2 0x49B2 DUP11 DUP3 DUP12 ADD PUSH2 0x489F JUMP JUMPDEST SWAP5 POP POP PUSH1 0x80 PUSH2 0x49C3 DUP11 DUP3 DUP12 ADD PUSH2 0x489F JUMP JUMPDEST SWAP4 POP POP PUSH1 0xA0 PUSH2 0x49D4 DUP11 DUP3 DUP12 ADD PUSH2 0x489F JUMP JUMPDEST SWAP3 POP POP PUSH1 0xC0 PUSH2 0x49E5 DUP11 DUP3 DUP12 ADD PUSH2 0x489F JUMP JUMPDEST SWAP2 POP POP SWAP3 SWAP6 SWAP9 SWAP2 SWAP5 SWAP8 POP SWAP3 SWAP6 POP JUMP JUMPDEST PUSH2 0x49FD DUP2 PUSH2 0x4914 JUMP JUMPDEST DUP3 MSTORE POP POP JUMP JUMPDEST PUSH1 0x0 PUSH1 0x20 DUP3 ADD SWAP1 POP PUSH2 0x4A18 PUSH1 0x0 DUP4 ADD DUP5 PUSH2 0x49F4 JUMP JUMPDEST SWAP3 SWAP2 POP POP JUMP JUMPDEST PUSH1 0x0 PUSH1 0x20 DUP3 DUP5 SUB SLT ISZERO PUSH2 0x4A34 JUMPI PUSH2 0x4A33 PUSH2 0x483E JUMP JUMPDEST JUMPDEST PUSH1 0x0 PUSH2 0x4A42 DUP5 DUP3 DUP6 ADD PUSH2 0x489F JUMP JUMPDEST SWAP2 POP POP SWAP3 SWAP2 POP POP JUMP JUMPDEST PUSH1 0x0 DUP1 PUSH1 0x40 DUP4 DUP6 SUB SLT ISZERO PUSH2 0x4A62 JUMPI PUSH2 0x4A61 PUSH2 0x483E JUMP JUMPDEST JUMPDEST PUSH1 0x0 PUSH2 0x4A70 DUP6 DUP3 DUP7 ADD PUSH2 0x493D JUMP JUMPDEST SWAP3 POP POP PUSH1 0x20 PUSH2 0x4A81 DUP6 DUP3 DUP7 ADD PUSH2 0x489F JUMP JUMPDEST SWAP2 POP POP SWAP3 POP SWAP3 SWAP1 POP JUMP JUMPDEST PUSH1 0x0 DUP1 PUSH1 0x40 DUP4 DUP6 SUB SLT ISZERO PUSH2 0x4AA2 JUMPI PUSH2 0x4AA1 PUSH2 0x483E JUMP JUMPDEST JUMPDEST PUSH1 0x0 PUSH2 0x4AB0 DUP6 DUP3 DUP7 ADD PUSH2 0x4869 JUMP JUMPDEST SWAP3 POP POP PUSH1 0x20 PUSH2 0x4AC1 DUP6 DUP3 DUP7 ADD PUSH2 0x493D JUMP JUMPDEST SWAP2 POP POP SWAP3 POP SWAP3 SWAP1 POP JUMP JUMPDEST PUSH1 0x0 DUP1 PUSH1 0x40 DUP4 DUP6 SUB SLT ISZERO PUSH2 0x4AE2 JUMPI PUSH2 0x4AE1 PUSH2 0x483E JUMP JUMPDEST JUMPDEST PUSH1 0x0 PUSH2 0x4AF0 DUP6 DUP3 DUP7 ADD PUSH2 0x493D JUMP JUMPDEST SWAP3 POP POP PUSH1 0x20 PUSH2 0x4B01 DUP6 DUP3 DUP7 ADD PUSH2 0x493D JUMP JUMPDEST SWAP2 POP POP SWAP3 POP SWAP3 SWAP1 POP JUMP JUMPDEST PUSH1 0x0 PUSH5 0xFFFFFFFFFF DUP3 AND SWAP1 POP SWAP2 SWAP1 POP JUMP JUMPDEST PUSH2 0x4B25 DUP2 PUSH2 0x4B0B JUMP JUMPDEST DUP2 EQ PUSH2 0x4B30 JUMPI PUSH1 0x0 DUP1 REVERT JUMPDEST POP JUMP JUMPDEST PUSH1 0x0 DUP2 CALLDATALOAD SWAP1 POP PUSH2 0x4B42 DUP2 PUSH2 0x4B1C JUMP JUMPDEST SWAP3 SWAP2 POP POP JUMP JUMPDEST PUSH1 0x0 DUP2 ISZERO ISZERO SWAP1 POP SWAP2 SWAP1 POP JUMP JUMPDEST PUSH2 0x4B5D DUP2 PUSH2 0x4B48 JUMP JUMPDEST DUP2 EQ PUSH2 0x4B68 JUMPI PUSH1 0x0 DUP1 REVERT JUMPDEST POP JUMP JUMPDEST PUSH1 0x0 DUP2 CALLDATALOAD SWAP1 POP PUSH2 0x4B7A DUP2 PUSH2 0x4B54 JUMP JUMPDEST SWAP3 SWAP2 POP POP JUMP JUMPDEST PUSH1 0x0 DUP1 PUSH1 0x40 DUP4 DUP6 SUB SLT ISZERO PUSH2 0x4B97 JUMPI PUSH2 0x4B96 PUSH2 0x483E JUMP JUMPDEST JUMPDEST PUSH1 0x0 PUSH2 0x4BA5 DUP6 DUP3 DUP7 ADD PUSH2 0x4B33 JUMP JUMPDEST SWAP3 POP POP PUSH1 0x20 PUSH2 0x4BB6 DUP6 DUP3 DUP7 ADD PUSH2 0x4B6B JUMP JUMPDEST SWAP2 POP POP SWAP3 POP SWAP3 SWAP1 POP JUMP JUMPDEST PUSH2 0x4BC9 DUP2 PUSH2 0x4B48 JUMP JUMPDEST DUP3 MSTORE POP POP JUMP JUMPDEST PUSH1 0x0 PUSH1 0x20 DUP3 ADD SWAP1 POP PUSH2 0x4BE4 PUSH1 0x0 DUP4 ADD DUP5 PUSH2 0x4BC0 JUMP JUMPDEST SWAP3 SWAP2 POP POP JUMP JUMPDEST PUSH1 0x0 PUSH1 0x20 DUP3 DUP5 SUB SLT ISZERO PUSH2 0x4C00 JUMPI PUSH2 0x4BFF PUSH2 0x483E JUMP JUMPDEST JUMPDEST PUSH1 0x0 PUSH2 0x4C0E DUP5 DUP3 DUP6 ADD PUSH2 0x4869 JUMP JUMPDEST SWAP2 POP POP SWAP3 SWAP2 POP POP JUMP JUMPDEST PUSH1 0x0 DUP1 PUSH1 0x40 DUP4 DUP6 SUB SLT ISZERO PUSH2 0x4C2E JUMPI PUSH2 0x4C2D PUSH2 0x483E JUMP JUMPDEST JUMPDEST PUSH1 0x0 PUSH2 0x4C3C DUP6 DUP3 DUP7 ADD PUSH2 0x489F JUMP JUMPDEST SWAP3 POP POP PUSH1 0x20 PUSH2 0x4C4D DUP6 DUP3 DUP7 ADD PUSH2 0x4B6B JUMP JUMPDEST SWAP2 POP POP SWAP3 POP SWAP3 SWAP1 POP JUMP JUMPDEST PUSH1 0x0 DUP1 PUSH1 0x0 PUSH1 0x60 DUP5 DUP7 SUB SLT ISZERO PUSH2 0x4C70 JUMPI PUSH2 0x4C6F PUSH2 0x483E JUMP JUMPDEST JUMPDEST PUSH1 0x0 PUSH2 0x4C7E DUP7 DUP3 DUP8 ADD PUSH2 0x4869 JUMP JUMPDEST SWAP4 POP POP PUSH1 0x20 PUSH2 0x4C8F DUP7 DUP3 DUP8 ADD PUSH2 0x489F JUMP JUMPDEST SWAP3 POP POP PUSH1 0x40 PUSH2 0x4CA0 DUP7 DUP3 DUP8 ADD PUSH2 0x489F JUMP JUMPDEST SWAP2 POP POP SWAP3 POP SWAP3 POP SWAP3 JUMP JUMPDEST PUSH1 0x0 DUP1 REVERT JUMPDEST PUSH1 0x0 DUP1 REVERT JUMPDEST PUSH1 0x0 PUSH1 0x1F NOT PUSH1 0x1F DUP4 ADD AND SWAP1 POP SWAP2 SWAP1 POP JUMP JUMPDEST PUSH32 0x4E487B7100000000000000000000000000000000000000000000000000000000 PUSH1 0x0 MSTORE PUSH1 0x41 PUSH1 0x4 MSTORE PUSH1 0x24 PUSH1 0x0 REVERT JUMPDEST PUSH2 0x4CFD DUP3 PUSH2 0x4CB4 JUMP JUMPDEST DUP2 ADD DUP2 DUP2 LT PUSH8 0xFFFFFFFFFFFFFFFF DUP3 GT OR ISZERO PUSH2 0x4D1C JUMPI PUSH2 0x4D1B PUSH2 0x4CC5 JUMP JUMPDEST JUMPDEST DUP1 PUSH1 0x40 MSTORE POP POP POP JUMP JUMPDEST PUSH1 0x0 PUSH2 0x4D2F PUSH2 0x4834 JUMP JUMPDEST SWAP1 POP PUSH2 0x4D3B DUP3 DUP3 PUSH2 0x4CF4 JUMP JUMPDEST SWAP2 SWAP1 POP JUMP JUMPDEST PUSH1 0x0 PUSH8 0xFFFFFFFFFFFFFFFF DUP3 GT ISZERO PUSH2 0x4D5B JUMPI PUSH2 0x4D5A PUSH2 0x4CC5 JUMP JUMPDEST JUMPDEST PUSH2 0x4D64 DUP3 PUSH2 0x4CB4 JUMP JUMPDEST SWAP1 POP PUSH1 0x20 DUP2 ADD SWAP1 POP SWAP2 SWAP1 POP JUMP JUMPDEST DUP3 DUP2 DUP4 CALLDATACOPY PUSH1 0x0 DUP4 DUP4 ADD MSTORE POP POP POP JUMP JUMPDEST PUSH1 0x0 PUSH2 0x4D93 PUSH2 0x4D8E DUP5 PUSH2 0x4D40 JUMP JUMPDEST PUSH2 0x4D25 JUMP JUMPDEST SWAP1 POP DUP3 DUP2 MSTORE PUSH1 0x20 DUP2 ADD DUP5 DUP5 DUP5 ADD GT ISZERO PUSH2 0x4DAF JUMPI PUSH2 0x4DAE PUSH2 0x4CAF JUMP JUMPDEST JUMPDEST PUSH2 0x4DBA DUP5 DUP3 DUP6 PUSH2 0x4D71 JUMP JUMPDEST POP SWAP4 SWAP3 POP POP POP JUMP JUMPDEST PUSH1 0x0 DUP3 PUSH1 0x1F DUP4 ADD SLT PUSH2 0x4DD7 JUMPI PUSH2 0x4DD6 PUSH2 0x4CAA JUMP JUMPDEST JUMPDEST DUP2 CALLDATALOAD PUSH2 0x4DE7 DUP5 DUP3 PUSH1 0x20 DUP7 ADD PUSH2 0x4D80 JUMP JUMPDEST SWAP2 POP POP SWAP3 SWAP2 POP POP JUMP JUMPDEST PUSH1 0x0 PUSH1 0x20 DUP3 DUP5 SUB SLT ISZERO PUSH2 0x4E06 JUMPI PUSH2 0x4E05 PUSH2 0x483E JUMP JUMPDEST JUMPDEST PUSH1 0x0 DUP3 ADD CALLDATALOAD PUSH8 0xFFFFFFFFFFFFFFFF DUP2 GT ISZERO PUSH2 0x4E24 JUMPI PUSH2 0x4E23 PUSH2 0x4843 JUMP JUMPDEST JUMPDEST PUSH2 0x4E30 DUP5 DUP3 DUP6 ADD PUSH2 0x4DC2 JUMP JUMPDEST SWAP2 POP POP SWAP3 SWAP2 POP POP JUMP JUMPDEST PUSH1 0x0 DUP1 PUSH1 0x0 DUP1 PUSH1 0x80 DUP6 DUP8 SUB SLT ISZERO PUSH2 0x4E53 JUMPI PUSH2 0x4E52 PUSH2 0x483E JUMP JUMPDEST JUMPDEST PUSH1 0x0 PUSH2 0x4E61 DUP8 DUP3 DUP9 ADD PUSH2 0x493D JUMP JUMPDEST SWAP5 POP POP PUSH1 0x20 PUSH2 0x4E72 DUP8 DUP3 DUP9 ADD PUSH2 0x4869 JUMP JUMPDEST SWAP4 POP POP PUSH1 0x40 PUSH2 0x4E83 DUP8 DUP3 DUP9 ADD PUSH2 0x4869 JUMP JUMPDEST SWAP3 POP POP PUSH1 0x60 PUSH2 0x4E94 DUP8 DUP3 DUP9 ADD PUSH2 0x489F JUMP JUMPDEST SWAP2 POP POP SWAP3 SWAP6 SWAP2 SWAP5 POP SWAP3 POP JUMP JUMPDEST PUSH1 0x0 DUP1 PUSH1 0x40 DUP4 DUP6 SUB SLT ISZERO PUSH2 0x4EB7 JUMPI PUSH2 0x4EB6 PUSH2 0x483E JUMP JUMPDEST JUMPDEST PUSH1 0x0 PUSH2 0x4EC5 DUP6 DUP3 DUP7 ADD PUSH2 0x493D JUMP JUMPDEST SWAP3 POP POP PUSH1 0x20 PUSH2 0x4ED6 DUP6 DUP3 DUP7 ADD PUSH2 0x4869 JUMP JUMPDEST SWAP2 POP POP SWAP3 POP SWAP3 SWAP1 POP JUMP JUMPDEST PUSH1 0x0 PUSH1 0x20 DUP3 DUP5 SUB SLT ISZERO PUSH2 0x4EF6 JUMPI PUSH2 0x4EF5 PUSH2 0x483E JUMP JUMPDEST JUMPDEST PUSH1 0x0 PUSH2 0x4F04 DUP5 DUP3 DUP6 ADD PUSH2 0x493D JUMP JUMPDEST SWAP2 POP POP SWAP3 SWAP2 POP POP JUMP JUMPDEST PUSH1 0x0 DUP1 PUSH1 0x0 PUSH1 0x60 DUP5 DUP7 SUB SLT ISZERO PUSH2 0x4F26 JUMPI PUSH2 0x4F25 PUSH2 0x483E JUMP JUMPDEST JUMPDEST PUSH1 0x0 PUSH2 0x4F34 DUP7 DUP3 DUP8 ADD PUSH2 0x4869 JUMP JUMPDEST SWAP4 POP POP PUSH1 0x20 PUSH2 0x4F45 DUP7 DUP3 DUP8 ADD PUSH2 0x489F JUMP JUMPDEST SWAP3 POP POP PUSH1 0x40 PUSH2 0x4F56 DUP7 DUP3 DUP8 ADD PUSH2 0x4B6B JUMP JUMPDEST SWAP2 POP POP SWAP3 POP SWAP3 POP SWAP3 JUMP JUMPDEST PUSH1 0x0 DUP1 PUSH1 0x0 DUP1 PUSH1 0x80 DUP6 DUP8 SUB SLT ISZERO PUSH2 0x4F7A JUMPI PUSH2 0x4F79 PUSH2 0x483E JUMP JUMPDEST JUMPDEST PUSH1 0x0 PUSH2 0x4F88 DUP8 DUP3 DUP9 ADD PUSH2 0x4869 JUMP JUMPDEST SWAP5 POP POP PUSH1 0x20 PUSH2 0x4F99 DUP8 DUP3 DUP9 ADD PUSH2 0x489F JUMP JUMPDEST SWAP4 POP POP PUSH1 0x40 PUSH2 0x4FAA DUP8 DUP3 DUP9 ADD PUSH2 0x489F JUMP JUMPDEST SWAP3 POP POP PUSH1 0x60 PUSH2 0x4FBB DUP8 DUP3 DUP9 ADD PUSH2 0x489F JUMP JUMPDEST SWAP2 POP POP SWAP3 SWAP6 SWAP2 SWAP5 POP SWAP3 POP JUMP JUMPDEST PUSH1 0x0 DUP1 PUSH1 0x0 DUP1 PUSH1 0x0 DUP1 PUSH1 0x0 DUP1 PUSH2 0x100 DUP10 DUP12 SUB SLT ISZERO PUSH2 0x4FE8 JUMPI PUSH2 0x4FE7 PUSH2 0x483E JUMP JUMPDEST JUMPDEST PUSH1 0x0 PUSH2 0x4FF6 DUP12 DUP3 DUP13 ADD PUSH2 0x4869 JUMP JUMPDEST SWAP9 POP POP PUSH1 0x20 PUSH2 0x5007 DUP12 DUP3 DUP13 ADD PUSH2 0x493D JUMP JUMPDEST SWAP8 POP POP PUSH1 0x40 PUSH2 0x5018 DUP12 DUP3 DUP13 ADD PUSH2 0x4869 JUMP JUMPDEST SWAP7 POP POP PUSH1 0x60 PUSH2 0x5029 DUP12 DUP3 DUP13 ADD PUSH2 0x4869 JUMP JUMPDEST SWAP6 POP POP PUSH1 0x80 PUSH2 0x503A DUP12 DUP3 DUP13 ADD PUSH2 0x489F JUMP JUMPDEST SWAP5 POP POP PUSH1 0xA0 PUSH2 0x504B DUP12 DUP3 DUP13 ADD PUSH2 0x489F JUMP JUMPDEST SWAP4 POP POP PUSH1 0xC0 PUSH2 0x505C DUP12 DUP3 DUP13 ADD PUSH2 0x489F JUMP JUMPDEST SWAP3 POP POP PUSH1 0xE0 PUSH2 0x506D DUP12 DUP3 DUP13 ADD PUSH2 0x489F JUMP JUMPDEST SWAP2 POP POP SWAP3 SWAP6 SWAP9 POP SWAP3 SWAP6 SWAP9 SWAP1 SWAP4 SWAP7 POP JUMP JUMPDEST PUSH1 0x0 DUP1 PUSH1 0x0 PUSH1 0x60 DUP5 DUP7 SUB SLT ISZERO PUSH2 0x5096 JUMPI PUSH2 0x5095 PUSH2 0x483E JUMP JUMPDEST JUMPDEST PUSH1 0x0 PUSH2 0x50A4 DUP7 DUP3 DUP8 ADD PUSH2 0x493D JUMP JUMPDEST SWAP4 POP POP PUSH1 0x20 PUSH2 0x50B5 DUP7 DUP3 DUP8 ADD PUSH2 0x489F JUMP JUMPDEST SWAP3 POP POP PUSH1 0x40 PUSH2 0x50C6 DUP7 DUP3 DUP8 ADD PUSH2 0x489F JUMP JUMPDEST SWAP2 POP POP SWAP3 POP SWAP3 POP SWAP3 JUMP JUMPDEST PUSH1 0x0 DUP1 PUSH1 0x0 PUSH1 0x60 DUP5 DUP7 SUB SLT ISZERO PUSH2 0x50E9 JUMPI PUSH2 0x50E8 PUSH2 0x483E JUMP JUMPDEST JUMPDEST PUSH1 0x0 PUSH2 0x50F7 DUP7 DUP3 DUP8 ADD PUSH2 0x4B33 JUMP JUMPDEST SWAP4 POP POP PUSH1 0x20 PUSH2 0x5108 DUP7 DUP3 DUP8 ADD PUSH2 0x4B33 JUMP JUMPDEST SWAP3 POP POP PUSH1 0x40 PUSH2 0x5119 DUP7 DUP3 DUP8 ADD PUSH2 0x4B6B JUMP JUMPDEST SWAP2 POP POP SWAP3 POP SWAP3 POP SWAP3 JUMP JUMPDEST PUSH2 0x512C DUP2 PUSH2 0x487E JUMP JUMPDEST DUP3 MSTORE POP POP JUMP JUMPDEST PUSH1 0x0 PUSH1 0x20 DUP3 ADD SWAP1 POP PUSH2 0x5147 PUSH1 0x0 DUP4 ADD DUP5 PUSH2 0x5123 JUMP JUMPDEST SWAP3 SWAP2 POP POP JUMP JUMPDEST PUSH1 0x0 DUP1 PUSH1 0x0 DUP1 PUSH1 0x80 DUP6 DUP8 SUB SLT ISZERO PUSH2 0x5167 JUMPI PUSH2 0x5166 PUSH2 0x483E JUMP JUMPDEST JUMPDEST PUSH1 0x0 PUSH2 0x5175 DUP8 DUP3 DUP9 ADD PUSH2 0x493D JUMP JUMPDEST SWAP5 POP POP PUSH1 0x20 PUSH2 0x5186 DUP8 DUP3 DUP9 ADD PUSH2 0x4869 JUMP JUMPDEST SWAP4 POP POP PUSH1 0x40 PUSH2 0x5197 DUP8 DUP3 DUP9 ADD PUSH2 0x4869 JUMP JUMPDEST SWAP3 POP POP PUSH1 0x60 PUSH2 0x51A8 DUP8 DUP3 DUP9 ADD PUSH2 0x493D JUMP JUMPDEST SWAP2 POP POP SWAP3 SWAP6 SWAP2 SWAP5 POP SWAP3 POP JUMP JUMPDEST PUSH1 0x0 DUP1 PUSH1 0x0 PUSH1 0x60 DUP5 DUP7 SUB SLT ISZERO PUSH2 0x51CD JUMPI PUSH2 0x51CC PUSH2 0x483E JUMP JUMPDEST JUMPDEST PUSH1 0x0 PUSH2 0x51DB DUP7 DUP3 DUP8 ADD PUSH2 0x493D JUMP JUMPDEST SWAP4 POP POP PUSH1 0x20 PUSH2 0x51EC DUP7 DUP3 DUP8 ADD PUSH2 0x4869 JUMP JUMPDEST SWAP3 POP POP PUSH1 0x40 PUSH2 0x51FD DUP7 DUP3 DUP8 ADD PUSH2 0x489F JUMP JUMPDEST SWAP2 POP POP SWAP3 POP SWAP3 POP SWAP3 JUMP JUMPDEST PUSH1 0x0 DUP1 PUSH1 0x0 PUSH1 0x60 DUP5 DUP7 SUB SLT ISZERO PUSH2 0x5220 JUMPI PUSH2 0x521F PUSH2 0x483E JUMP JUMPDEST JUMPDEST PUSH1 0x0 PUSH2 0x522E DUP7 DUP3 DUP8 ADD PUSH2 0x493D JUMP JUMPDEST SWAP4 POP POP PUSH1 0x20 PUSH2 0x523F DUP7 DUP3 DUP8 ADD PUSH2 0x4869 JUMP JUMPDEST SWAP3 POP POP PUSH1 0x40 PUSH2 0x5250 DUP7 DUP3 DUP8 ADD PUSH2 0x493D JUMP JUMPDEST SWAP2 POP POP SWAP3 POP SWAP3 POP SWAP3 JUMP JUMPDEST PUSH32 0x4E487B7100000000000000000000000000000000000000000000000000000000 PUSH1 0x0 MSTORE PUSH1 0x11 PUSH1 0x4 MSTORE PUSH1 0x24 PUSH1 0x0 REVERT JUMPDEST PUSH1 0x0 PUSH2 0x5294 DUP3 PUSH2 0x487E JUMP JUMPDEST SWAP2 POP PUSH2 0x529F DUP4 PUSH2 0x487E JUMP JUMPDEST SWAP3 POP DUP2 PUSH32 0xFFFFFFFFFFFFFFFFFFFFFFFFFFFFFFFFFFFFFFFFFFFFFFFFFFFFFFFFFFFFFFFF DIV DUP4 GT DUP3 ISZERO ISZERO AND ISZERO PUSH2 0x52D8 JUMPI PUSH2 0x52D7 PUSH2 0x525A JUMP JUMPDEST JUMPDEST DUP3 DUP3 MUL SWAP1 POP SWAP3 SWAP2 POP POP JUMP JUMPDEST PUSH2 0x52EC DUP2 PUSH2 0x4848 JUMP JUMPDEST DUP3 MSTORE POP POP JUMP JUMPDEST PUSH2 0x52FB DUP2 PUSH2 0x4914 JUMP JUMPDEST DUP3 MSTORE POP POP JUMP JUMPDEST PUSH2 0x530A DUP2 PUSH2 0x487E JUMP JUMPDEST DUP3 MSTORE POP POP JUMP JUMPDEST PUSH1 0x0 PUSH1 0xE0 DUP3 ADD SWAP1 POP PUSH2 0x5325 PUSH1 0x0 DUP4 ADD DUP11 PUSH2 0x52E3 JUMP JUMPDEST PUSH2 0x5332 PUSH1 0x20 DUP4 ADD DUP10 PUSH2 0x52F2 JUMP JUMPDEST PUSH2 0x533F PUSH1 0x40 DUP4 ADD DUP9 PUSH2 0x52E3 JUMP JUMPDEST PUSH2 0x534C PUSH1 0x60 DUP4 ADD DUP8 PUSH2 0x5301 JUMP JUMPDEST PUSH2 0x5359 PUSH1 0x80 DUP4 ADD DUP7 PUSH2 0x5301 JUMP JUMPDEST PUSH2 0x5366 PUSH1 0xA0 DUP4 ADD DUP6 PUSH2 0x5301 JUMP JUMPDEST PUSH2 0x5373 PUSH1 0xC0 DUP4 ADD DUP5 PUSH2 0x5301 JUMP JUMPDEST SWAP9 SWAP8 POP POP POP POP POP POP POP POP JUMP JUMPDEST PUSH1 0x0 DUP2 MLOAD SWAP1 POP PUSH2 0x538E DUP2 PUSH2 0x4926 JUMP JUMPDEST SWAP3 SWAP2 POP POP JUMP JUMPDEST PUSH1 0x0 PUSH1 0x20 DUP3 DUP5 SUB SLT ISZERO PUSH2 0x53AA JUMPI PUSH2 0x53A9 PUSH2 0x483E JUMP JUMPDEST JUMPDEST PUSH1 0x0 PUSH2 0x53B8 DUP5 DUP3 DUP6 ADD PUSH2 0x537F JUMP JUMPDEST SWAP2 POP POP SWAP3 SWAP2 POP POP JUMP JUMPDEST PUSH1 0x0 PUSH1 0x20 DUP3 ADD SWAP1 POP PUSH2 0x53D6 PUSH1 0x0 DUP4 ADD DUP5 PUSH2 0x52F2 JUMP JUMPDEST SWAP3 SWAP2 POP POP JUMP JUMPDEST PUSH1 0x0 DUP2 MLOAD SWAP1 POP PUSH2 0x53EB DUP2 PUSH2 0x4888 JUMP JUMPDEST SWAP3 SWAP2 POP POP JUMP JUMPDEST PUSH1 0x0 PUSH1 0x20 DUP3 DUP5 SUB SLT ISZERO PUSH2 0x5407 JUMPI PUSH2 0x5406 PUSH2 0x483E JUMP JUMPDEST JUMPDEST PUSH1 0x0 PUSH2 0x5415 DUP5 DUP3 DUP6 ADD PUSH2 0x53DC JUMP JUMPDEST SWAP2 POP POP SWAP3 SWAP2 POP POP JUMP JUMPDEST PUSH1 0x0 PUSH2 0x5429 DUP3 PUSH2 0x487E JUMP JUMPDEST SWAP2 POP PUSH2 0x5434 DUP4 PUSH2 0x487E JUMP JUMPDEST SWAP3 POP DUP3 DUP3 ADD SWAP1 POP DUP1 DUP3 GT ISZERO PUSH2 0x544C JUMPI PUSH2 0x544B PUSH2 0x525A JUMP JUMPDEST JUMPDEST SWAP3 SWAP2 POP POP JUMP JUMPDEST PUSH1 0x0 DUP2 MLOAD SWAP1 POP SWAP2 SWAP1 POP JUMP JUMPDEST PUSH1 0x0 DUP2 SWAP1 POP SWAP3 SWAP2 POP POP JUMP JUMPDEST PUSH1 0x0 JUMPDEST DUP4 DUP2 LT ISZERO PUSH2 0x5486 JUMPI DUP1 DUP3 ADD MLOAD DUP2 DUP5 ADD MSTORE PUSH1 0x20 DUP2 ADD SWAP1 POP PUSH2 0x546B JUMP JUMPDEST PUSH1 0x0 DUP5 DUP5 ADD MSTORE POP POP POP POP JUMP JUMPDEST PUSH1 0x0 PUSH2 0x549D DUP3 PUSH2 0x5452 JUMP JUMPDEST PUSH2 0x54A7 DUP2 DUP6 PUSH2 0x545D JUMP JUMPDEST SWAP4 POP PUSH2 0x54B7 DUP2 DUP6 PUSH1 0x20 DUP7 ADD PUSH2 0x5468 JUMP JUMPDEST DUP1 DUP5 ADD SWAP2 POP POP SWAP3 SWAP2 POP POP JUMP JUMPDEST PUSH1 0x0 PUSH2 0x54CF DUP3 DUP5 PUSH2 0x5492 JUMP JUMPDEST SWAP2 POP DUP2 SWAP1 POP SWAP3 SWAP2 POP POP JUMP JUMPDEST PUSH1 0x0 PUSH1 0x40 DUP3 ADD SWAP1 POP PUSH2 0x54EF PUSH1 0x0 DUP4 ADD DUP6 PUSH2 0x52E3 JUMP JUMPDEST PUSH2 0x54FC PUSH1 0x20 DUP4 ADD DUP5 PUSH2 0x52F2 JUMP JUMPDEST SWAP4 SWAP3 POP POP POP JUMP JUMPDEST PUSH1 0x0 PUSH1 0x40 DUP3 ADD SWAP1 POP PUSH2 0x5518 PUSH1 0x0 DUP4 ADD DUP6 PUSH2 0x52F2 JUMP JUMPDEST PUSH2 0x5525 PUSH1 0x20 DUP4 ADD DUP5 PUSH2 0x5301 JUMP JUMPDEST SWAP4 SWAP3 POP POP POP JUMP JUMPDEST PUSH1 0x0 PUSH1 0x20 DUP3 ADD SWAP1 POP PUSH2 0x5541 PUSH1 0x0 DUP4 ADD DUP5 PUSH2 0x52E3 JUMP JUMPDEST SWAP3 SWAP2 POP POP JUMP JUMPDEST PUSH1 0x0 PUSH6 0xFFFFFFFFFFFF DUP3 AND SWAP1 POP SWAP2 SWAP1 POP JUMP JUMPDEST PUSH2 0x5562 DUP2 PUSH2 0x5547 JUMP JUMPDEST DUP2 EQ PUSH2 0x556D JUMPI PUSH1 0x0 DUP1 REVERT JUMPDEST POP JUMP JUMPDEST PUSH1 0x0 DUP2 MLOAD SWAP1 POP PUSH2 0x557F DUP2 PUSH2 0x5559 JUMP JUMPDEST SWAP3 SWAP2 POP POP JUMP JUMPDEST PUSH1 0x0 DUP1 PUSH1 0x0 DUP1 PUSH1 0x0 PUSH1 0xA0 DUP7 DUP9 SUB SLT ISZERO PUSH2 0x55A1 JUMPI PUSH2 0x55A0 PUSH2 0x483E JUMP JUMPDEST JUMPDEST PUSH1 0x0 PUSH2 0x55AF DUP9 DUP3 DUP10 ADD PUSH2 0x53DC JUMP JUMPDEST SWAP6 POP POP PUSH1 0x20 PUSH2 0x55C0 DUP9 DUP3 DUP10 ADD PUSH2 0x53DC JUMP JUMPDEST SWAP5 POP POP PUSH1 0x40 PUSH2 0x55D1 DUP9 DUP3 DUP10 ADD PUSH2 0x5570 JUMP JUMPDEST SWAP4 POP POP PUSH1 0x60 PUSH2 0x55E2 DUP9 DUP3 DUP10 ADD PUSH2 0x5570 JUMP JUMPDEST SWAP3 POP POP PUSH1 0x80 PUSH2 0x55F3 DUP9 DUP3 DUP10 ADD PUSH2 0x5570 JUMP JUMPDEST SWAP2 POP POP SWAP3 SWAP6 POP SWAP3 SWAP6 SWAP1 SWAP4 POP JUMP JUMPDEST PUSH1 0x0 PUSH1 0x80 DUP3 ADD SWAP1 POP PUSH2 0x5615 PUSH1 0x0 DUP4 ADD DUP8 PUSH2 0x52E3 JUMP JUMPDEST PUSH2 0x5622 PUSH1 0x20 DUP4 ADD DUP7 PUSH2 0x5301 JUMP JUMPDEST PUSH2 0x562F PUSH1 0x40 DUP4 ADD DUP6 PUSH2 0x5301 JUMP JUMPDEST PUSH2 0x563C PUSH1 0x60 DUP4 ADD DUP5 PUSH2 0x5301 JUMP JUMPDEST SWAP6 SWAP5 POP POP POP POP POP JUMP JUMPDEST PUSH32 0x4E487B7100000000000000000000000000000000000000000000000000000000 PUSH1 0x0 MSTORE PUSH1 0x12 PUSH1 0x4 MSTORE PUSH1 0x24 PUSH1 0x0 REVERT JUMPDEST PUSH1 0x0 PUSH2 0x567F DUP3 PUSH2 0x4B0B JUMP JUMPDEST SWAP2 POP PUSH2 0x568A DUP4 PUSH2 0x4B0B JUMP JUMPDEST SWAP3 POP DUP3 PUSH2 0x569A JUMPI PUSH2 0x5699 PUSH2 0x5645 JUMP JUMPDEST JUMPDEST DUP3 DUP3 DIV SWAP1 POP SWAP3 SWAP2 POP POP JUMP JUMPDEST PUSH1 0x0 PUSH2 0x56B0 DUP3 PUSH2 0x4B0B JUMP JUMPDEST SWAP2 POP PUSH2 0x56BB DUP4 PUSH2 0x4B0B JUMP JUMPDEST SWAP3 POP DUP3 DUP3 ADD SWAP1 POP PUSH5 0xFFFFFFFFFF DUP2 GT ISZERO PUSH2 0x56D8 JUMPI PUSH2 0x56D7 PUSH2 0x525A JUMP JUMPDEST JUMPDEST SWAP3 SWAP2 POP POP JUMP JUMPDEST PUSH1 0x0 PUSH2 0x56E9 DUP3 PUSH2 0x4B0B JUMP JUMPDEST SWAP2 POP PUSH2 0x56F4 DUP4 PUSH2 0x4B0B JUMP JUMPDEST SWAP3 POP DUP3 PUSH2 0x5704 JUMPI PUSH2 0x5703 PUSH2 0x5645 JUMP JUMPDEST JUMPDEST DUP3 DUP3 MOD SWAP1 POP SWAP3 SWAP2 POP POP JUMP JUMPDEST PUSH1 0x0 PUSH1 0x40 DUP3 ADD SWAP1 POP PUSH2 0x5724 PUSH1 0x0 DUP4 ADD DUP6 PUSH2 0x52E3 JUMP JUMPDEST PUSH2 0x5731 PUSH1 0x20 DUP4 ADD DUP5 PUSH2 0x5301 JUMP JUMPDEST SWAP4 SWAP3 POP POP POP JUMP JUMPDEST PUSH1 0x0 DUP2 MLOAD SWAP1 POP SWAP2 SWAP1 POP JUMP JUMPDEST PUSH1 0x0 DUP3 DUP3 MSTORE PUSH1 0x20 DUP3 ADD SWAP1 POP SWAP3 SWAP2 POP POP JUMP JUMPDEST PUSH1 0x0 PUSH2 0x575F DUP3 PUSH2 0x5738 JUMP JUMPDEST PUSH2 0x5769 DUP2 DUP6 PUSH2 0x5743 JUMP JUMPDEST SWAP4 POP PUSH2 0x5779 DUP2 DUP6 PUSH1 0x20 DUP7 ADD PUSH2 0x5468 JUMP JUMPDEST PUSH2 0x5782 DUP2 PUSH2 0x4CB4 JUMP JUMPDEST DUP5 ADD SWAP2 POP POP SWAP3 SWAP2 POP POP JUMP JUMPDEST PUSH1 0x0 PUSH1 0x20 DUP3 ADD SWAP1 POP DUP2 DUP2 SUB PUSH1 0x0 DUP4 ADD MSTORE PUSH2 0x57A7 DUP2 DUP5 PUSH2 0x5754 JUMP JUMPDEST SWAP1 POP SWAP3 SWAP2 POP POP JUMP JUMPDEST PUSH1 0x0 DUP1 PUSH1 0x0 DUP1 PUSH1 0x80 DUP6 DUP8 SUB SLT ISZERO PUSH2 0x57C9 JUMPI PUSH2 0x57C8 PUSH2 0x483E JUMP JUMPDEST JUMPDEST PUSH1 0x0 PUSH2 0x57D7 DUP8 DUP3 DUP9 ADD PUSH2 0x537F JUMP JUMPDEST SWAP5 POP POP PUSH1 0x20 PUSH2 0x57E8 DUP8 DUP3 DUP9 ADD PUSH2 0x53DC JUMP JUMPDEST SWAP4 POP POP PUSH1 0x40 PUSH2 0x57F9 DUP8 DUP3 DUP9 ADD PUSH2 0x53DC JUMP JUMPDEST SWAP3 POP POP PUSH1 0x60 PUSH2 0x580A DUP8 DUP3 DUP9 ADD PUSH2 0x53DC JUMP JUMPDEST SWAP2 POP POP SWAP3 SWAP6 SWAP2 SWAP5 POP SWAP3 POP JUMP JUMPDEST PUSH1 0x0 PUSH2 0x5821 DUP3 PUSH2 0x487E JUMP JUMPDEST SWAP2 POP PUSH2 0x582C DUP4 PUSH2 0x487E JUMP JUMPDEST SWAP3 POP DUP3 PUSH2 0x583C JUMPI PUSH2 0x583B PUSH2 0x5645 JUMP JUMPDEST JUMPDEST DUP3 DUP3 DIV SWAP1 POP SWAP3 SWAP2 POP POP JUMP JUMPDEST PUSH1 0x0 PUSH1 0x60 DUP3 ADD SWAP1 POP PUSH2 0x585C PUSH1 0x0 DUP4 ADD DUP7 PUSH2 0x52E3 JUMP JUMPDEST PUSH2 0x5869 PUSH1 0x20 DUP4 ADD DUP6 PUSH2 0x52E3 JUMP JUMPDEST PUSH2 0x5876 PUSH1 0x40 DUP4 ADD DUP5 PUSH2 0x5301 JUMP JUMPDEST SWAP5 SWAP4 POP POP POP POP JUMP JUMPDEST PUSH1 0x0 PUSH2 0x5889 DUP3 PUSH2 0x487E JUMP JUMPDEST SWAP2 POP PUSH2 0x5894 DUP4 PUSH2 0x487E JUMP JUMPDEST SWAP3 POP DUP3 DUP3 SUB SWAP1 POP DUP2 DUP2 GT ISZERO PUSH2 0x58AC JUMPI PUSH2 0x58AB PUSH2 0x525A JUMP JUMPDEST JUMPDEST SWAP3 SWAP2 POP POP JUMP JUMPDEST PUSH1 0x0 DUP1 PUSH1 0x0 DUP1 PUSH1 0x0 PUSH1 0xA0 DUP7 DUP9 SUB SLT ISZERO PUSH2 0x58CE JUMPI PUSH2 0x58CD PUSH2 0x483E JUMP JUMPDEST JUMPDEST PUSH1 0x0 PUSH2 0x58DC DUP9 DUP3 DUP10 ADD PUSH2 0x53DC JUMP JUMPDEST SWAP6 POP POP PUSH1 0x20 PUSH2 0x58ED DUP9 DUP3 DUP10 ADD PUSH2 0x53DC JUMP JUMPDEST SWAP5 POP POP PUSH1 0x40 PUSH2 0x58FE DUP9 DUP3 DUP10 ADD PUSH2 0x53DC JUMP JUMPDEST SWAP4 POP POP PUSH1 0x60 PUSH2 0x590F DUP9 DUP3 DUP10 ADD PUSH2 0x53DC JUMP JUMPDEST SWAP3 POP POP PUSH1 0x80 PUSH2 0x5920 DUP9 DUP3 DUP10 ADD PUSH2 0x53DC JUMP JUMPDEST SWAP2 POP POP SWAP3 SWAP6 POP SWAP3 SWAP6 SWAP1 SWAP4 POP JUMP JUMPDEST PUSH1 0x0 PUSH2 0x100 DUP3 ADD SWAP1 POP PUSH2 0x5943 PUSH1 0x0 DUP4 ADD DUP12 PUSH2 0x52E3 JUMP JUMPDEST PUSH2 0x5950 PUSH1 0x20 DUP4 ADD DUP11 PUSH2 0x52F2 JUMP JUMPDEST PUSH2 0x595D PUSH1 0x40 DUP4 ADD DUP10 PUSH2 0x52E3 JUMP JUMPDEST PUSH2 0x596A PUSH1 0x60 DUP4 ADD DUP9 PUSH2 0x52E3 JUMP JUMPDEST PUSH2 0x5977 PUSH1 0x80 DUP4 ADD DUP8 PUSH2 0x5301 JUMP JUMPDEST PUSH2 0x5984 PUSH1 0xA0 DUP4 ADD DUP7 PUSH2 0x5301 JUMP JUMPDEST PUSH2 0x5991 PUSH1 0xC0 DUP4 ADD DUP6 PUSH2 0x5301 JUMP JUMPDEST PUSH2 0x599E PUSH1 0xE0 DUP4 ADD DUP5 PUSH2 0x5301 JUMP JUMPDEST SWAP10 SWAP9 POP POP POP POP POP POP POP POP POP JUMP JUMPDEST PUSH1 0x0 PUSH1 0x60 DUP3 ADD SWAP1 POP PUSH2 0x59C0 PUSH1 0x0 DUP4 ADD DUP7 PUSH2 0x52F2 JUMP JUMPDEST PUSH2 0x59CD PUSH1 0x20 DUP4 ADD DUP6 PUSH2 0x52F2 JUMP JUMPDEST PUSH2 0x59DA PUSH1 0x40 DUP4 ADD DUP5 PUSH2 0x5301 JUMP JUMPDEST SWAP5 SWAP4 POP POP POP POP JUMP JUMPDEST PUSH1 0x0 PUSH2 0x59ED DUP3 PUSH2 0x487E JUMP JUMPDEST SWAP2 POP PUSH2 0x59F8 DUP4 PUSH2 0x487E JUMP JUMPDEST SWAP3 POP DUP3 PUSH2 0x5A08 JUMPI PUSH2 0x5A07 PUSH2 0x5645 JUMP JUMPDEST JUMPDEST DUP3 DUP3 MOD SWAP1 POP SWAP3 SWAP2 POP POP JUMP JUMPDEST PUSH1 0x0 PUSH1 0x60 DUP3 ADD SWAP1 POP PUSH2 0x5A28 PUSH1 0x0 DUP4 ADD DUP7 PUSH2 0x52E3 JUMP JUMPDEST PUSH2 0x5A35 PUSH1 0x20 DUP4 ADD DUP6 PUSH2 0x52E3 JUMP JUMPDEST PUSH2 0x5A42 PUSH1 0x40 DUP4 ADD DUP5 PUSH2 0x52F2 JUMP JUMPDEST SWAP5 SWAP4 POP POP POP POP JUMP JUMPDEST PUSH1 0x0 PUSH2 0x5A55 DUP3 PUSH2 0x48F4 JUMP JUMPDEST SWAP1 POP SWAP2 SWAP1 POP JUMP JUMPDEST PUSH2 0x5A65 DUP2 PUSH2 0x5A4A JUMP JUMPDEST DUP2 EQ PUSH2 0x5A70 JUMPI PUSH1 0x0 DUP1 REVERT JUMPDEST POP JUMP JUMPDEST PUSH1 0x0 DUP2 MLOAD SWAP1 POP PUSH2 0x5A82 DUP2 PUSH2 0x5A5C JUMP JUMPDEST SWAP3 SWAP2 POP POP JUMP JUMPDEST PUSH1 0x0 PUSH1 0x20 DUP3 DUP5 SUB SLT ISZERO PUSH2 0x5A9E JUMPI PUSH2 0x5A9D PUSH2 0x483E JUMP JUMPDEST JUMPDEST PUSH1 0x0 PUSH2 0x5AAC DUP5 DUP3 DUP6 ADD PUSH2 0x5A73 JUMP JUMPDEST SWAP2 POP POP SWAP3 SWAP2 POP POP JUMP JUMPDEST PUSH1 0x0 PUSH1 0x20 DUP3 ADD SWAP1 POP PUSH2 0x5ACA PUSH1 0x0 DUP4 ADD DUP5 PUSH2 0x5301 JUMP JUMPDEST SWAP3 SWAP2 POP POP JUMP INVALID LOG2 PUSH5 0x6970667358 0x22 SLT KECCAK256 LT CHAINID 0xB5 0xC3 PUSH5 0x57A87153A8 CALLDATASIZE RETURNDATASIZE ORIGIN PUSH25 0xBB90ACA3C67B13E6CEE0A5FECDC6CDAC6B8464736F6C634300 ADDMOD LT STOP CALLER "},"methodIdentifiers":{"LOG()":"1816a5e1","accumulateCollateralStabilityFees(bytes32)":"96856bfe","accumulateDSR()":"a1d8eb32","addReaderToWhitelist(address,address)":"268e5143","addReaderToWhitelistCall(address,address)":"dfe425b9","allowOSMFreeze(address,bytes32)":"89c32076","authorize(address,address)":"2bef4595","autoLine()":"ebb7920e","calc(bytes32)":"c341a890","canCast(uint40,bool)":"35329d4c","cat()":"e4881813","clip(bytes32)":"40a8d9de","clipperMom()":"31e0b802","dai()":"f4b9fa75","daiJoin()":"c11645bc","deauthorize(address,address)":"6d892f7e","decreaseGlobalDebtCeiling(uint256)":"80bce705","decreaseIlkDebtCeiling(bytes32,uint256,bool)":"a7e08336","delegateVat(address)":"c661c88c","dog()":"c3b3ad7f","end()":"efbe1c1c","esm()":"af41b248","flap()":"0e01198b","flip(bytes32)":"6ffd8001","flipperMom()":"1307f3ab","flop()":"bbbb0d7b","getChangelogAddress(bytes32)":"a16ed56f","govGuard()":"0905213e","increaseGlobalDebtCeiling(uint256)":"7d2a54f4","increaseIlkDebtCeiling(bytes32,uint256,bool)":"ef94132e","jug()":"84718d89","lerpFab()":"846a54fe","linearInterpolation(bytes32,address,bytes32,bytes32,uint256,uint256,uint256,uint256)":"b0e22363","linearInterpolation(bytes32,address,bytes32,uint256,uint256,uint256,uint256)":"067322e0","mkr()":"7e992cb8","nextCastTime(uint40,uint40,bool)":"d2557456","osmMom()":"e475ac5d","pauseProxy()":"63a8fd89","pot()":"4ba2363a","reg()":"738fdd1a","removeIlkFromAutoLine(bytes32)":"f02b0d02","removeReaderFromWhitelist(address,address)":"41daca2e","removeReaderFromWhitelistCall(address,address)":"caa68387","sendPaymentFromSurplusBuffer(address,uint256)":"b1698f41","setAuctionPermittedDrop(bytes32,uint256)":"06508431","setAuctionTimeBeforeReset(bytes32,uint256)":"229039fc","setAuthority(address,address)":"e7796f33","setChangelogAddress(bytes32,address)":"19d900a1","setChangelogIPFS(string)":"ded3a489","setChangelogSHA256(string)":"c3bbce6a","setChangelogVersion(string)":"5f3a7dd7","setContract(address,bytes32,address)":"f36464aa","setContract(address,bytes32,bytes32,address)":"e5c6eb33","setD3MTargetInterestRate(address,uint256)":"6cf7a7fa","setDAIReferenceValue(uint256)":"91cd0648","setDSR(uint256,bool)":"437757b9","setDebtAuctionBidDuration(uint256)":"402ef076","setDebtAuctionDAIAmount(uint256)":"77dbf55a","setDebtAuctionDelay(uint256)":"20488453","setDebtAuctionDuration(uint256)":"153a8513","setDebtAuctionMKRAmount(uint256)":"4e39aee3","setDebtAuctionMKRIncreaseRate(uint256)":"81acdce9","setEmergencyShutdownProcessingTime(uint256)":"edfc90c4","setExponentialDecrease(address,uint256)":"161c6510","setGlobalDebtCeiling(uint256)":"8d196e32","setGlobalStabilityFee(uint256)":"add7f43c","setIlkAutoLineDebtCeiling(bytes32,uint256)":"27eddd12","setIlkAutoLineParameters(bytes32,uint256,uint256,uint256)":"b085f237","setIlkDebtCeiling(bytes32,uint256)":"9976f02b","setIlkLiquidationPenalty(bytes32,uint256)":"0daa5eb5","setIlkLiquidationRatio(bytes32,uint256)":"bdc56f30","setIlkMaxLiquidationAmount(bytes32,uint256)":"9bd0a56a","setIlkMinVaultAmount(bytes32,uint256)":"5fc132c1","setIlkStabilityFee(bytes32,uint256,bool)":"e40898e0","setKeeperIncentiveFlatRate(bytes32,uint256)":"b7953078","setKeeperIncentivePercent(bytes32,uint256)":"4c940024","setLinearDecrease(address,uint256)":"d6d55e7d","setLiquidationBreakerPriceTolerance(address,uint256)":"1b1aff63","setMaxTotalDAILiquidationAmount(uint256)":"aee953c8","setMaxTotalDAILiquidationAmountLEGACY(uint256)":"b90aca81","setMedianWritersQuorum(address,uint256)":"fd549de2","setMinDebtAuctionBidIncrease(uint256)":"c7732adc","setMinSurplusAuctionBidIncrease(uint256)":"a1f217c5","setRWAIlkDebtCeiling(bytes32,uint256,uint256)":"53d9e20e","setStairstepExponentialDecrease(address,uint256,uint256)":"d0bab933","setStartingPriceMultiplicativeFactor(bytes32,uint256)":"6604930d","setSurplusAuctionAmount(uint256)":"7c4c3bf1","setSurplusAuctionBidDuration(uint256)":"b452c131","setSurplusAuctionDuration(uint256)":"a497d536","setSurplusBuffer(uint256)":"9f476ee1","setValue(address,bytes32,bytes32,uint256)":"8050ec60","setValue(address,bytes32,uint256)":"eb3ffe9e","spotter()":"2e77468d","undelegateVat(address)":"92125fa5","updateCollateralPrice(bytes32)":"6d530fb3","vat()":"36569e77","vow()":"626cb3c5","whitelistOracleMedians(address)":"e9d8ccb8"}}}}}