{"contracts/DssSpell.sol":{"DssSpellAction":{"abi":[{"inputs":[],"name":"actions","outputs":[],"stateMutability":"nonpayable","type":"function"},{"inputs":[],"name":"description","outputs":[{"internalType":"string","name":"","type":"string"}],"stateMutability":"view","type":"function"},{"inputs":[],"name":"execute","outputs":[],"stateMutability":"nonpayable","type":"function"},{"inputs":[{"internalType":"uint256","name":"eta","type":"uint256"}],"name":"nextCastTime","outputs":[{"internalType":"uint256","name":"castTime","type":"uint256"}],"stateMutability":"view","type":"function"},{"inputs":[],"name":"officeHours","outputs":[{"internalType":"bool","name":"","type":"bool"}],"stateMutability":"pure","type":"function"}],"evm":{"bytecode":{"linkReferences":{"contracts/src/DssExecLib.sol":{"DssExecLib":[{"length":20,"start":254},{"length":20,"start":511},{"length":20,"start":649},{"length":20,"start":753},{"length":20,"start":859},{"length":20,"start":964},{"length":20,"start":1069},{"length":20,"start":1177},{"length":20,"start":1203},{"length":20,"start":1685},{"length":20,"start":2087},{"length":20,"start":2342},{"length":20,"start":2368},{"length":20,"start":2609},{"length":20,"start":2635},{"length":20,"start":2876},{"length":20,"start":2923},{"length":20,"start":3109},{"length":20,"start":3232},{"length":20,"start":3279},{"length":20,"start":3465},{"length":20,"start":3610},{"length":20,"start":3657},{"length":20,"start":3843},{"length":20,"start":3890},{"length":20,"start":4076},{"length":20,"start":4233},{"length":20,"start":4390},{"length":20,"start":4792},{"length":20,"start":5047},{"length":20,"start":5073},{"length":20,"start":5314},{"length":20,"start":5361},{"length":20,"start":5547},{"length":20,"start":5670},{"length":20,"start":5717},{"length":20,"start":5903},{"length":20,"start":6048},{"length":20,"start":6095},{"length":20,"start":6281},{"length":20,"start":6328},{"length":20,"start":6514},{"length":20,"start":6671},{"length":20,"start":7073},{"length":20,"start":7475},{"length":20,"start":7877},{"length":20,"start":8279},{"length":20,"start":8534},{"length":20,"start":8560},{"length":20,"start":8801},{"length":20,"start":8848},{"length":20,"start":9034},{"length":20,"start":9060},{"length":20,"start":9301},{"length":20,"start":9424},{"length":20,"start":9471},{"length":20,"start":9657},{"length":20,"start":9802},{"length":20,"start":9849},{"length":20,"start":10035},{"length":20,"start":10082},{"length":20,"start":10268},{"length":20,"start":10425},{"length":20,"start":10582},{"length":20,"start":10984},{"length":20,"start":11386},{"length":20,"start":11788},{"length":20,"start":12190},{"length":20,"start":12592},{"length":20,"start":12847},{"length":20,"start":12873},{"length":20,"start":13114},{"length":20,"start":13161},{"length":20,"start":13347},{"length":20,"start":13492},{"length":20,"start":13649},{"length":20,"start":13675},{"length":20,"start":13916},{"length":20,"start":13963},{"length":20,"start":14149},{"length":20,"start":14272},{"length":20,"start":14319},{"length":20,"start":14505},{"length":20,"start":14650},{"length":20,"start":14697},{"length":20,"start":14883},{"length":20,"start":14930},{"length":20,"start":15116},{"length":20,"start":15273},{"length":20,"start":15675},{"length":20,"start":16077},{"length":20,"start":16479},{"length":20,"start":16881},{"length":20,"start":17283},{"length":20,"start":17685},{"length":20,"start":17940}]}},"object":"608060405234801561001057600080fd5b50615217806100206000396000f3fe608060405234801561001057600080fd5b50600436106100575760003560e01c8063614619541461005c5780636e832f07146100665780637284e41614610084578063bf0fbcec146100a2578063f99e36bc146100d2575b600080fd5b6100646100dc565b005b61006e6101a6565b60405161007b9190614674565b60405180910390f35b61008c6101ab565b604051610099919061471f565b60405180910390f35b6100bc60048036038101906100b7919061477c565b6101c7565b6040516100c991906147b8565b60405180910390f35b6100da610267565b005b73__$3460f78de88eac5d504038ca885511d774$__6335329d4c426100ff6101a6565b6040518363ffffffff1660e01b815260040161011c929190614802565b602060405180830381865af4158015610139573d6000803e3d6000fd5b505050506040513d601f19601f8201168201806040525081019061015d9190614857565b61019c576040517f08c379a0000000000000000000000000000000000000000000000000000000008152600401610193906148d0565b60405180910390fd5b6101a4610267565b565b600090565b6040518060a00160405280606d8152602001615175606d913981565b600064ffffffffff80168211156101dd57600080fd5b73__$3460f78de88eac5d504038ca885511d774$__63d255745683426102016101a6565b6040518463ffffffff1660e01b815260040161021f939291906148f0565b602060405180830381865af415801561023c573d6000803e3d6000fd5b505050506040513d601f19601f82011682018060405250810190610260919061493c565b9050919050565b73__$3460f78de88eac5d504038ca885511d774$__634e39aee3600a6040518263ffffffff1660e01b815260040161029f91906149ae565b60006040518083038186803b1580156102b757600080fd5b505af41580156102cb573d6000803e3d6000fd5b5050505073__$3460f78de88eac5d504038ca885511d774$__6377dbf55a62061a806040518263ffffffff1660e01b81526004016103099190614a04565b60006040518083038186803b15801561032157600080fd5b505af4158015610335573d6000803e3d6000fd5b5050505073__$3460f78de88eac5d504038ca885511d774$__63153a8513610e106040518263ffffffff1660e01b81526004016103729190614a5a565b60006040518083038186803b15801561038a57600080fd5b505af415801561039e573d6000803e3d6000fd5b5050505073__$3460f78de88eac5d504038ca885511d774$__63402ef0766107086040518263ffffffff1660e01b81526004016103db9190614ab0565b60006040518083038186803b1580156103f357600080fd5b505af4158015610407573d6000803e3d6000fd5b5050505073__$3460f78de88eac5d504038ca885511d774$__638d196e32640218711a006040518263ffffffff1660e01b81526004016104479190614b06565b60006040518083038186803b15801561045f57600080fd5b505af4158015610473573d6000803e3d6000fd5b5050505073__$3460f78de88eac5d504038ca885511d774$__632bef459573__$3460f78de88eac5d504038ca885511d774$__632e77468d6040518163ffffffff1660e01b8152600401602060405180830381865af41580156104da573d6000803e3d6000fd5b505050506040513d601f19601f820116820180604052508101906104fe9190614b7f565b7372550b5e1c3904faeea48f0149c168386e4c4d656040518363ffffffff1660e01b8152600401610530929190614bbb565b60006040518083038186803b15801561054857600080fd5b505af415801561055c573d6000803e3d6000fd5b5050505073be286431454714f511008713973d3b053a2d38f373ffffffffffffffffffffffffffffffffffffffff166313af403560006040518263ffffffff1660e01b81526004016105ae9190614bf3565b600060405180830381600087803b1580156105c857600080fd5b505af11580156105dc573d6000803e3d6000fd5b505050507381fe72b5a8d1a857d176c3e7d5bd2679a9b8576373ffffffffffffffffffffffffffffffffffffffff16631e77933e73613433ae2b8d3ae6371ca6ec26bce0a73c005ba26040518263ffffffff1660e01b81526004016106419190614bf3565b600060405180830381600087803b15801561065b57600080fd5b505af115801561066f573d6000803e3d6000fd5b5050505073__$3460f78de88eac5d504038ca885511d774$__63dfe425b97381fe72b5a8d1a857d176c3e7d5bd2679a9b8576373ffffffffffffffffffffffffffffffffffffffff16632e7dc6af6040518163ffffffff1660e01b8152600401602060405180830381865afa1580156106ec573d6000803e3d6000fd5b505050506040513d601f19601f820116820180604052508101906107109190614b7f565b7381fe72b5a8d1a857d176c3e7d5bd2679a9b857636040518363ffffffff1660e01b8152600401610742929190614bbb565b60006040518083038186803b15801561075a57600080fd5b505af415801561076e573d6000803e3d6000fd5b5050505073b4eb54af9cc7882df0121d26c5b97e802915abe673ffffffffffffffffffffffffffffffffffffffff16631e77933e7382e5e259ed1569586fcca571ce50a7d1d6786bad6040518263ffffffff1660e01b81526004016107d39190614bf3565b600060405180830381600087803b1580156107ed57600080fd5b505af1158015610801573d6000803e3d6000fd5b5050505073__$3460f78de88eac5d504038ca885511d774$__63dfe425b973b4eb54af9cc7882df0121d26c5b97e802915abe673ffffffffffffffffffffffffffffffffffffffff16632e7dc6af6040518163ffffffff1660e01b8152600401602060405180830381865afa15801561087e573d6000803e3d6000fd5b505050506040513d601f19601f820116820180604052508101906108a29190614b7f565b73b4eb54af9cc7882df0121d26c5b97e802915abe66040518363ffffffff1660e01b81526004016108d4929190614bbb565b60006040518083038186803b1580156108ec57600080fd5b505af4158015610900573d6000803e3d6000fd5b5050505073__$3460f78de88eac5d504038ca885511d774$__63e5c6eb3373__$3460f78de88eac5d504038ca885511d774$__632e77468d6040518163ffffffff1660e01b8152600401602060405180830381865af4158015610967573d6000803e3d6000fd5b505050506040513d601f19601f8201168201806040525081019061098b9190614b7f565b7f555344432d4100000000000000000000000000000000000000000000000000007364ee82fc3af7785fbd78a2be24b0b31cd7bfd2e06040518463ffffffff1660e01b81526004016109df93929190614c86565b60006040518083038186803b1580156109f757600080fd5b505af4158015610a0b573d6000803e3d6000fd5b5050505073__$3460f78de88eac5d504038ca885511d774$__63e5c6eb3373__$3460f78de88eac5d504038ca885511d774$__632e77468d6040518163ffffffff1660e01b8152600401602060405180830381865af4158015610a72573d6000803e3d6000fd5b505050506040513d601f19601f82011682018060405250810190610a969190614b7f565b7f50534d2d555344432d41000000000000000000000000000000000000000000007364ee82fc3af7785fbd78a2be24b0b31cd7bfd2e06040518463ffffffff1660e01b8152600401610aea93929190614d04565b60006040518083038186803b158015610b0257600080fd5b505af4158015610b16573d6000803e3d6000fd5b5050505073__$3460f78de88eac5d504038ca885511d774$__632bef45957364ee82fc3af7785fbd78a2be24b0b31cd7bfd2e073__$3460f78de88eac5d504038ca885511d774$__63e475ac5d6040518163ffffffff1660e01b8152600401602060405180830381865af4158015610b92573d6000803e3d6000fd5b505050506040513d601f19601f82011682018060405250810190610bb69190614b7f565b6040518363ffffffff1660e01b8152600401610bd3929190614bbb565b60006040518083038186803b158015610beb57600080fd5b505af4158015610bff573d6000803e3d6000fd5b5050505073__$3460f78de88eac5d504038ca885511d774$__63e9d8ccb87364ee82fc3af7785fbd78a2be24b0b31cd7bfd2e06040518263ffffffff1660e01b8152600401610c4e9190614d47565b60006040518083038186803b158015610c6657600080fd5b505af4158015610c7a573d6000803e3d6000fd5b5050505073__$3460f78de88eac5d504038ca885511d774$__63268e51437364ee82fc3af7785fbd78a2be24b0b31cd7bfd2e073__$3460f78de88eac5d504038ca885511d774$__632e77468d6040518163ffffffff1660e01b8152600401602060405180830381865af4158015610cf6573d6000803e3d6000fd5b505050506040513d601f19601f82011682018060405250810190610d1a9190614b7f565b6040518363ffffffff1660e01b8152600401610d37929190614bbb565b60006040518083038186803b158015610d4f57600080fd5b505af4158015610d63573d6000803e3d6000fd5b5050505073__$3460f78de88eac5d504038ca885511d774$__63268e51437364ee82fc3af7785fbd78a2be24b0b31cd7bfd2e073046b1a5718da6a226d912cfd306ba199807729086040518363ffffffff1660e01b8152600401610dc8929190614bbb565b60006040518083038186803b158015610de057600080fd5b505af4158015610df4573d6000803e3d6000fd5b5050505073__$3460f78de88eac5d504038ca885511d774$__63268e51437364ee82fc3af7785fbd78a2be24b0b31cd7bfd2e073__$3460f78de88eac5d504038ca885511d774$__6331e0b8026040518163ffffffff1660e01b8152600401602060405180830381865af4158015610e70573d6000803e3d6000fd5b505050506040513d601f19601f82011682018060405250810190610e949190614b7f565b6040518363ffffffff1660e01b8152600401610eb1929190614bbb565b60006040518083038186803b158015610ec957600080fd5b505af4158015610edd573d6000803e3d6000fd5b5050505073__$3460f78de88eac5d504038ca885511d774$__63268e51437364ee82fc3af7785fbd78a2be24b0b31cd7bfd2e073__$3460f78de88eac5d504038ca885511d774$__63efbe1c1c6040518163ffffffff1660e01b8152600401602060405180830381865af4158015610f59573d6000803e3d6000fd5b505050506040513d601f19601f82011682018060405250810190610f7d9190614b7f565b6040518363ffffffff1660e01b8152600401610f9a929190614bbb565b60006040518083038186803b158015610fb257600080fd5b505af4158015610fc6573d6000803e3d6000fd5b5050505073__$3460f78de88eac5d504038ca885511d774$__6389c320767364ee82fc3af7785fbd78a2be24b0b31cd7bfd2e07f555344432d4100000000000000000000000000000000000000000000000000006040518363ffffffff1660e01b8152600401611037929190614d62565b60006040518083038186803b15801561104f57600080fd5b505af4158015611063573d6000803e3d6000fd5b5050505073__$3460f78de88eac5d504038ca885511d774$__6389c320767364ee82fc3af7785fbd78a2be24b0b31cd7bfd2e07f50534d2d555344432d41000000000000000000000000000000000000000000006040518363ffffffff1660e01b81526004016110d4929190614d8b565b60006040518083038186803b1580156110ec57600080fd5b505af4158015611100573d6000803e3d6000fd5b5050505073__$3460f78de88eac5d504038ca885511d774$__63dfe425b97364ee82fc3af7785fbd78a2be24b0b31cd7bfd2e073ffffffffffffffffffffffffffffffffffffffff16632e7dc6af6040518163ffffffff1660e01b8152600401602060405180830381865afa15801561117d573d6000803e3d6000fd5b505050506040513d601f19601f820116820180604052508101906111a19190614b7f565b7364ee82fc3af7785fbd78a2be24b0b31cd7bfd2e06040518363ffffffff1660e01b81526004016111d3929190614bbb565b60006040518083038186803b1580156111eb57600080fd5b505af41580156111ff573d6000803e3d6000fd5b5050505073f185d0682d50819263941e5f4eacc763cc5c6c4273ffffffffffffffffffffffffffffffffffffffff16631e77933e736e088b573694f1958c2fadb2d4e926fd8fff4f2c6040518263ffffffff1660e01b81526004016112649190614bf3565b600060405180830381600087803b15801561127e57600080fd5b505af1158015611292573d6000803e3d6000fd5b5050505073__$3460f78de88eac5d504038ca885511d774$__63dfe425b973f185d0682d50819263941e5f4eacc763cc5c6c4273ffffffffffffffffffffffffffffffffffffffff16632e7dc6af6040518163ffffffff1660e01b8152600401602060405180830381865afa15801561130f573d6000803e3d6000fd5b505050506040513d601f19601f820116820180604052508101906113339190614b7f565b73f185d0682d50819263941e5f4eacc763cc5c6c426040518363ffffffff1660e01b8152600401611365929190614bbb565b60006040518083038186803b15801561137d57600080fd5b505af4158015611391573d6000803e3d6000fd5b5050505073__$3460f78de88eac5d504038ca885511d774$__63e5c6eb3373__$3460f78de88eac5d504038ca885511d774$__632e77468d6040518163ffffffff1660e01b8152600401602060405180830381865af41580156113f8573d6000803e3d6000fd5b505050506040513d601f19601f8201168201806040525081019061141c9190614b7f565b7f545553442d410000000000000000000000000000000000000000000000000000733a2d8adb238f47b4d258545701439e05db2015746040518463ffffffff1660e01b815260040161147093929190614def565b60006040518083038186803b15801561148857600080fd5b505af415801561149c573d6000803e3d6000fd5b5050505073__$3460f78de88eac5d504038ca885511d774$__632bef4595733a2d8adb238f47b4d258545701439e05db20157473__$3460f78de88eac5d504038ca885511d774$__63e475ac5d6040518163ffffffff1660e01b8152600401602060405180830381865af4158015611518573d6000803e3d6000fd5b505050506040513d601f19601f8201168201806040525081019061153c9190614b7f565b6040518363ffffffff1660e01b8152600401611559929190614bbb565b60006040518083038186803b15801561157157600080fd5b505af4158015611585573d6000803e3d6000fd5b5050505073__$3460f78de88eac5d504038ca885511d774$__63e9d8ccb8733a2d8adb238f47b4d258545701439e05db2015746040518263ffffffff1660e01b81526004016115d49190614d47565b60006040518083038186803b1580156115ec57600080fd5b505af4158015611600573d6000803e3d6000fd5b5050505073__$3460f78de88eac5d504038ca885511d774$__63268e5143733a2d8adb238f47b4d258545701439e05db20157473__$3460f78de88eac5d504038ca885511d774$__632e77468d6040518163ffffffff1660e01b8152600401602060405180830381865af415801561167c573d6000803e3d6000fd5b505050506040513d601f19601f820116820180604052508101906116a09190614b7f565b6040518363ffffffff1660e01b81526004016116bd929190614bbb565b60006040518083038186803b1580156116d557600080fd5b505af41580156116e9573d6000803e3d6000fd5b5050505073__$3460f78de88eac5d504038ca885511d774$__63268e5143733a2d8adb238f47b4d258545701439e05db201574730f6f88f8a4b918584e3539182793a0c276097f446040518363ffffffff1660e01b815260040161174e929190614bbb565b60006040518083038186803b15801561176657600080fd5b505af415801561177a573d6000803e3d6000fd5b5050505073__$3460f78de88eac5d504038ca885511d774$__63268e5143733a2d8adb238f47b4d258545701439e05db20157473__$3460f78de88eac5d504038ca885511d774$__6331e0b8026040518163ffffffff1660e01b8152600401602060405180830381865af41580156117f6573d6000803e3d6000fd5b505050506040513d601f19601f8201168201806040525081019061181a9190614b7f565b6040518363ffffffff1660e01b8152600401611837929190614bbb565b60006040518083038186803b15801561184f57600080fd5b505af4158015611863573d6000803e3d6000fd5b5050505073__$3460f78de88eac5d504038ca885511d774$__63268e5143733a2d8adb238f47b4d258545701439e05db20157473__$3460f78de88eac5d504038ca885511d774$__63efbe1c1c6040518163ffffffff1660e01b8152600401602060405180830381865af41580156118df573d6000803e3d6000fd5b505050506040513d601f19601f820116820180604052508101906119039190614b7f565b6040518363ffffffff1660e01b8152600401611920929190614bbb565b60006040518083038186803b15801561193857600080fd5b505af415801561194c573d6000803e3d6000fd5b5050505073__$3460f78de88eac5d504038ca885511d774$__6389c32076733a2d8adb238f47b4d258545701439e05db2015747f545553442d4100000000000000000000000000000000000000000000000000006040518363ffffffff1660e01b81526004016119bd929190614e32565b60006040518083038186803b1580156119d557600080fd5b505af41580156119e9573d6000803e3d6000fd5b5050505073__$3460f78de88eac5d504038ca885511d774$__63dfe425b9733a2d8adb238f47b4d258545701439e05db20157473ffffffffffffffffffffffffffffffffffffffff16632e7dc6af6040518163ffffffff1660e01b8152600401602060405180830381865afa158015611a66573d6000803e3d6000fd5b505050506040513d601f19601f82011682018060405250810190611a8a9190614b7f565b733a2d8adb238f47b4d258545701439e05db2015746040518363ffffffff1660e01b8152600401611abc929190614bbb565b60006040518083038186803b158015611ad457600080fd5b505af4158015611ae8573d6000803e3d6000fd5b50505050737382c066801e7acb2299ac8562847b9883f5cd3c73ffffffffffffffffffffffffffffffffffffffff16631e77933e73623fe3720c94ab42ce31cb255780e4d0e1d04a1b6040518263ffffffff1660e01b8152600401611b4d9190614bf3565b600060405180830381600087803b158015611b6757600080fd5b505af1158015611b7b573d6000803e3d6000fd5b5050505073__$3460f78de88eac5d504038ca885511d774$__63dfe425b9737382c066801e7acb2299ac8562847b9883f5cd3c73ffffffffffffffffffffffffffffffffffffffff16632e7dc6af6040518163ffffffff1660e01b8152600401602060405180830381865afa158015611bf8573d6000803e3d6000fd5b505050506040513d601f19601f82011682018060405250810190611c1c9190614b7f565b737382c066801e7acb2299ac8562847b9883f5cd3c6040518363ffffffff1660e01b8152600401611c4e929190614bbb565b60006040518083038186803b158015611c6657600080fd5b505af4158015611c7a573d6000803e3d6000fd5b5050505073f36b79bd4c0904a5f350f1e4f776b81208c1306973ffffffffffffffffffffffffffffffffffffffff16631e77933e734b9ad4401cbde1ada6add90ac40f326fb88ddf4e6040518263ffffffff1660e01b8152600401611cdf9190614bf3565b600060405180830381600087803b158015611cf957600080fd5b505af1158015611d0d573d6000803e3d6000fd5b5050505073__$3460f78de88eac5d504038ca885511d774$__63dfe425b973f36b79bd4c0904a5f350f1e4f776b81208c1306973ffffffffffffffffffffffffffffffffffffffff16632e7dc6af6040518163ffffffff1660e01b8152600401602060405180830381865afa158015611d8a573d6000803e3d6000fd5b505050506040513d601f19601f82011682018060405250810190611dae9190614b7f565b73f36b79bd4c0904a5f350f1e4f776b81208c130696040518363ffffffff1660e01b8152600401611de0929190614bbb565b60006040518083038186803b158015611df857600080fd5b505af4158015611e0c573d6000803e3d6000fd5b50505050738067259ea630601f319fcce477977e55c6078c1373ffffffffffffffffffffffffffffffffffffffff16631e77933e7331df188997e1fe0c7fb29b43c0d8148d83e1c5846040518263ffffffff1660e01b8152600401611e719190614bf3565b600060405180830381600087803b158015611e8b57600080fd5b505af1158015611e9f573d6000803e3d6000fd5b5050505073__$3460f78de88eac5d504038ca885511d774$__63dfe425b9738067259ea630601f319fcce477977e55c6078c1373ffffffffffffffffffffffffffffffffffffffff16632e7dc6af6040518163ffffffff1660e01b8152600401602060405180830381865afa158015611f1c573d6000803e3d6000fd5b505050506040513d601f19601f82011682018060405250810190611f409190614b7f565b738067259ea630601f319fcce477977e55c6078c136040518363ffffffff1660e01b8152600401611f72929190614bbb565b60006040518083038186803b158015611f8a57600080fd5b505af4158015611f9e573d6000803e3d6000fd5b50505050737a5918670b0c390ad25f7bee908c1acc2d314a3c73ffffffffffffffffffffffffffffffffffffffff16631e77933e735cf7b83c17b70d2a06c592b91ad4f5c3cca7c0dd6040518263ffffffff1660e01b81526004016120039190614bf3565b600060405180830381600087803b15801561201d57600080fd5b505af1158015612031573d6000803e3d6000fd5b5050505073__$3460f78de88eac5d504038ca885511d774$__63dfe425b9737a5918670b0c390ad25f7bee908c1acc2d314a3c73ffffffffffffffffffffffffffffffffffffffff16632e7dc6af6040518163ffffffff1660e01b8152600401602060405180830381865afa1580156120ae573d6000803e3d6000fd5b505050506040513d601f19601f820116820180604052508101906120d29190614b7f565b737a5918670b0c390ad25f7bee908c1acc2d314a3c6040518363ffffffff1660e01b8152600401612104929190614bbb565b60006040518083038186803b15801561211c57600080fd5b505af4158015612130573d6000803e3d6000fd5b5050505073__$3460f78de88eac5d504038ca885511d774$__63e5c6eb3373__$3460f78de88eac5d504038ca885511d774$__632e77468d6040518163ffffffff1660e01b8152600401602060405180830381865af4158015612197573d6000803e3d6000fd5b505050506040513d601f19601f820116820180604052508101906121bb9190614b7f565b7f5041585553442d4100000000000000000000000000000000000000000000000073348fc3ef33373828e09270e9b2dc672eb5e5fdf86040518463ffffffff1660e01b815260040161220f93929190614e96565b60006040518083038186803b15801561222757600080fd5b505af415801561223b573d6000803e3d6000fd5b5050505073__$3460f78de88eac5d504038ca885511d774$__632bef459573348fc3ef33373828e09270e9b2dc672eb5e5fdf873__$3460f78de88eac5d504038ca885511d774$__63e475ac5d6040518163ffffffff1660e01b8152600401602060405180830381865af41580156122b7573d6000803e3d6000fd5b505050506040513d601f19601f820116820180604052508101906122db9190614b7f565b6040518363ffffffff1660e01b81526004016122f8929190614bbb565b60006040518083038186803b15801561231057600080fd5b505af4158015612324573d6000803e3d6000fd5b5050505073__$3460f78de88eac5d504038ca885511d774$__63e5c6eb3373__$3460f78de88eac5d504038ca885511d774$__632e77468d6040518163ffffffff1660e01b8152600401602060405180830381865af415801561238b573d6000803e3d6000fd5b505050506040513d601f19601f820116820180604052508101906123af9190614b7f565b7f50534d2d5041582d41000000000000000000000000000000000000000000000073348fc3ef33373828e09270e9b2dc672eb5e5fdf86040518463ffffffff1660e01b815260040161240393929190614f14565b60006040518083038186803b15801561241b57600080fd5b505af415801561242f573d6000803e3d6000fd5b5050505073__$3460f78de88eac5d504038ca885511d774$__63e9d8ccb873348fc3ef33373828e09270e9b2dc672eb5e5fdf86040518263ffffffff1660e01b815260040161247e9190614d47565b60006040518083038186803b15801561249657600080fd5b505af41580156124aa573d6000803e3d6000fd5b5050505073__$3460f78de88eac5d504038ca885511d774$__63268e514373348fc3ef33373828e09270e9b2dc672eb5e5fdf873__$3460f78de88eac5d504038ca885511d774$__632e77468d6040518163ffffffff1660e01b8152600401602060405180830381865af4158015612526573d6000803e3d6000fd5b505050506040513d601f19601f8201168201806040525081019061254a9190614b7f565b6040518363ffffffff1660e01b8152600401612567929190614bbb565b60006040518083038186803b15801561257f57600080fd5b505af4158015612593573d6000803e3d6000fd5b5050505073__$3460f78de88eac5d504038ca885511d774$__63268e514373348fc3ef33373828e09270e9b2dc672eb5e5fdf873bcb396cd139d1116bd89562b49b9d1d6c25378b06040518363ffffffff1660e01b81526004016125f8929190614bbb565b60006040518083038186803b15801561261057600080fd5b505af4158015612624573d6000803e3d6000fd5b5050505073__$3460f78de88eac5d504038ca885511d774$__63268e514373348fc3ef33373828e09270e9b2dc672eb5e5fdf873__$3460f78de88eac5d504038ca885511d774$__6331e0b8026040518163ffffffff1660e01b8152600401602060405180830381865af41580156126a0573d6000803e3d6000fd5b505050506040513d601f19601f820116820180604052508101906126c49190614b7f565b6040518363ffffffff1660e01b81526004016126e1929190614bbb565b60006040518083038186803b1580156126f957600080fd5b505af415801561270d573d6000803e3d6000fd5b5050505073__$3460f78de88eac5d504038ca885511d774$__63268e514373348fc3ef33373828e09270e9b2dc672eb5e5fdf873__$3460f78de88eac5d504038ca885511d774$__63efbe1c1c6040518163ffffffff1660e01b8152600401602060405180830381865af4158015612789573d6000803e3d6000fd5b505050506040513d601f19601f820116820180604052508101906127ad9190614b7f565b6040518363ffffffff1660e01b81526004016127ca929190614bbb565b60006040518083038186803b1580156127e257600080fd5b505af41580156127f6573d6000803e3d6000fd5b5050505073__$3460f78de88eac5d504038ca885511d774$__6389c3207673348fc3ef33373828e09270e9b2dc672eb5e5fdf87f5041585553442d410000000000000000000000000000000000000000000000006040518363ffffffff1660e01b8152600401612867929190614f57565b60006040518083038186803b15801561287f57600080fd5b505af4158015612893573d6000803e3d6000fd5b5050505073__$3460f78de88eac5d504038ca885511d774$__6389c3207673348fc3ef33373828e09270e9b2dc672eb5e5fdf87f50534d2d5041582d4100000000000000000000000000000000000000000000006040518363ffffffff1660e01b8152600401612904929190614f80565b60006040518083038186803b15801561291c57600080fd5b505af4158015612930573d6000803e3d6000fd5b5050505073__$3460f78de88eac5d504038ca885511d774$__63dfe425b973348fc3ef33373828e09270e9b2dc672eb5e5fdf873ffffffffffffffffffffffffffffffffffffffff16632e7dc6af6040518163ffffffff1660e01b8152600401602060405180830381865afa1580156129ad573d6000803e3d6000fd5b505050506040513d601f19601f820116820180604052508101906129d19190614b7f565b73348fc3ef33373828e09270e9b2dc672eb5e5fdf86040518363ffffffff1660e01b8152600401612a03929190614bbb565b60006040518083038186803b158015612a1b57600080fd5b505af4158015612a2f573d6000803e3d6000fd5b5050505073bed0879953e633135a48a157718aa791ac0108e473ffffffffffffffffffffffffffffffffffffffff16631e77933e731694676aa992d3c6ab859d6d9d2e7bc448f4332b6040518263ffffffff1660e01b8152600401612a949190614bf3565b600060405180830381600087803b158015612aae57600080fd5b505af1158015612ac2573d6000803e3d6000fd5b5050505073__$3460f78de88eac5d504038ca885511d774$__63dfe425b973bed0879953e633135a48a157718aa791ac0108e473ffffffffffffffffffffffffffffffffffffffff16632e7dc6af6040518163ffffffff1660e01b8152600401602060405180830381865afa158015612b3f573d6000803e3d6000fd5b505050506040513d601f19601f82011682018060405250810190612b639190614b7f565b73bed0879953e633135a48a157718aa791ac0108e46040518363ffffffff1660e01b8152600401612b95929190614bbb565b60006040518083038186803b158015612bad57600080fd5b505af4158015612bc1573d6000803e3d6000fd5b50505050739eb923339c24c40bef2f4af4961742aa7c23ef3a73ffffffffffffffffffffffffffffffffffffffff16631e77933e738f8cdd12d5f0ec99b1314c37446ebc50481a16c56040518263ffffffff1660e01b8152600401612c269190614bf3565b600060405180830381600087803b158015612c4057600080fd5b505af1158015612c54573d6000803e3d6000fd5b5050505073__$3460f78de88eac5d504038ca885511d774$__63dfe425b9739eb923339c24c40bef2f4af4961742aa7c23ef3a73ffffffffffffffffffffffffffffffffffffffff16632e7dc6af6040518163ffffffff1660e01b8152600401602060405180830381865afa158015612cd1573d6000803e3d6000fd5b505050506040513d601f19601f82011682018060405250810190612cf59190614b7f565b739eb923339c24c40bef2f4af4961742aa7c23ef3a6040518363ffffffff1660e01b8152600401612d27929190614bbb565b60006040518083038186803b158015612d3f57600080fd5b505af4158015612d53573d6000803e3d6000fd5b50505050739b0c694c6939b5ea9584e9b61c7815e8d97d9cc773ffffffffffffffffffffffffffffffffffffffff16631e77933e73b11edc36668f5509efe8a563cfa9e7a5a302003e6040518263ffffffff1660e01b8152600401612db89190614bf3565b600060405180830381600087803b158015612dd257600080fd5b505af1158015612de6573d6000803e3d6000fd5b5050505073__$3460f78de88eac5d504038ca885511d774$__63dfe425b9739b0c694c6939b5ea9584e9b61c7815e8d97d9cc773ffffffffffffffffffffffffffffffffffffffff16632e7dc6af6040518163ffffffff1660e01b8152600401602060405180830381865afa158015612e63573d6000803e3d6000fd5b505050506040513d601f19601f82011682018060405250810190612e879190614b7f565b739b0c694c6939b5ea9584e9b61c7815e8d97d9cc76040518363ffffffff1660e01b8152600401612eb9929190614bbb565b60006040518083038186803b158015612ed157600080fd5b505af4158015612ee5573d6000803e3d6000fd5b50505050733ff860c0f28d69f392543a16a397d0dae85d16de73ffffffffffffffffffffffffffffffffffffffff16631e77933e733882c9a2d251a972312e411bcb7e0d9c79788e8a6040518263ffffffff1660e01b8152600401612f4a9190614bf3565b600060405180830381600087803b158015612f6457600080fd5b505af1158015612f78573d6000803e3d6000fd5b5050505073__$3460f78de88eac5d504038ca885511d774$__63dfe425b9733ff860c0f28d69f392543a16a397d0dae85d16de73ffffffffffffffffffffffffffffffffffffffff16632e7dc6af6040518163ffffffff1660e01b8152600401602060405180830381865afa158015612ff5573d6000803e3d6000fd5b505050506040513d601f19601f820116820180604052508101906130199190614b7f565b733ff860c0f28d69f392543a16a397d0dae85d16de6040518363ffffffff1660e01b815260040161304b929190614bbb565b60006040518083038186803b15801561306357600080fd5b505af4158015613077573d6000803e3d6000fd5b50505050735f122465bcf86f45922036970be6dd7f5882021473ffffffffffffffffffffffffffffffffffffffff16631e77933e735bdf3b8fb8476f8250420b95e09c5c900a67ebe86040518263ffffffff1660e01b81526004016130dc9190614bf3565b600060405180830381600087803b1580156130f657600080fd5b505af115801561310a573d6000803e3d6000fd5b5050505073__$3460f78de88eac5d504038ca885511d774$__63dfe425b9735f122465bcf86f45922036970be6dd7f5882021473ffffffffffffffffffffffffffffffffffffffff16632e7dc6af6040518163ffffffff1660e01b8152600401602060405180830381865afa158015613187573d6000803e3d6000fd5b505050506040513d601f19601f820116820180604052508101906131ab9190614b7f565b735f122465bcf86f45922036970be6dd7f588202146040518363ffffffff1660e01b81526004016131dd929190614bbb565b60006040518083038186803b1580156131f557600080fd5b505af4158015613209573d6000803e3d6000fd5b5050505073__$3460f78de88eac5d504038ca885511d774$__63e5c6eb3373__$3460f78de88eac5d504038ca885511d774$__632e77468d6040518163ffffffff1660e01b8152600401602060405180830381865af4158015613270573d6000803e3d6000fd5b505050506040513d601f19601f820116820180604052508101906132949190614b7f565b7f475553442d41000000000000000000000000000000000000000000000000000073828169221293cb90d747b17341b7b7b20e58e0396040518463ffffffff1660e01b81526004016132e893929190614fe4565b60006040518083038186803b15801561330057600080fd5b505af4158015613314573d6000803e3d6000fd5b5050505073__$3460f78de88eac5d504038ca885511d774$__632bef459573828169221293cb90d747b17341b7b7b20e58e03973__$3460f78de88eac5d504038ca885511d774$__63e475ac5d6040518163ffffffff1660e01b8152600401602060405180830381865af4158015613390573d6000803e3d6000fd5b505050506040513d601f19601f820116820180604052508101906133b49190614b7f565b6040518363ffffffff1660e01b81526004016133d1929190614bbb565b60006040518083038186803b1580156133e957600080fd5b505af41580156133fd573d6000803e3d6000fd5b5050505073__$3460f78de88eac5d504038ca885511d774$__63268e514373828169221293cb90d747b17341b7b7b20e58e03973a47d68b9db0a0361284fa04ba40623fcbd1a263e6040518363ffffffff1660e01b8152600401613462929190614bbb565b60006040518083038186803b15801561347a57600080fd5b505af415801561348e573d6000803e3d6000fd5b5050505073__$3460f78de88eac5d504038ca885511d774$__6389c3207673828169221293cb90d747b17341b7b7b20e58e0397f475553442d4100000000000000000000000000000000000000000000000000006040518363ffffffff1660e01b81526004016134ff929190615027565b60006040518083038186803b15801561351757600080fd5b505af415801561352b573d6000803e3d6000fd5b5050505073__$3460f78de88eac5d504038ca885511d774$__63e5c6eb3373__$3460f78de88eac5d504038ca885511d774$__632e77468d6040518163ffffffff1660e01b8152600401602060405180830381865af4158015613592573d6000803e3d6000fd5b505050506040513d601f19601f820116820180604052508101906135b69190614b7f565b7f50534d2d475553442d410000000000000000000000000000000000000000000073828169221293cb90d747b17341b7b7b20e58e0396040518463ffffffff1660e01b815260040161360a9392919061508b565b60006040518083038186803b15801561362257600080fd5b505af4158015613636573d6000803e3d6000fd5b5050505073__$3460f78de88eac5d504038ca885511d774$__632bef459573828169221293cb90d747b17341b7b7b20e58e03973__$3460f78de88eac5d504038ca885511d774$__63e475ac5d6040518163ffffffff1660e01b8152600401602060405180830381865af41580156136b2573d6000803e3d6000fd5b505050506040513d601f19601f820116820180604052508101906136d69190614b7f565b6040518363ffffffff1660e01b81526004016136f3929190614bbb565b60006040518083038186803b15801561370b57600080fd5b505af415801561371f573d6000803e3d6000fd5b5050505073__$3460f78de88eac5d504038ca885511d774$__63e9d8ccb873828169221293cb90d747b17341b7b7b20e58e0396040518263ffffffff1660e01b815260040161376e9190614d47565b60006040518083038186803b15801561378657600080fd5b505af415801561379a573d6000803e3d6000fd5b5050505073__$3460f78de88eac5d504038ca885511d774$__63268e514373828169221293cb90d747b17341b7b7b20e58e03973__$3460f78de88eac5d504038ca885511d774$__632e77468d6040518163ffffffff1660e01b8152600401602060405180830381865af4158015613816573d6000803e3d6000fd5b505050506040513d601f19601f8201168201806040525081019061383a9190614b7f565b6040518363ffffffff1660e01b8152600401613857929190614bbb565b60006040518083038186803b15801561386f57600080fd5b505af4158015613883573d6000803e3d6000fd5b5050505073__$3460f78de88eac5d504038ca885511d774$__63268e514373828169221293cb90d747b17341b7b7b20e58e03973f93cc3a50f450ed245e003bfecc8a6ec1732b0b26040518363ffffffff1660e01b81526004016138e8929190614bbb565b60006040518083038186803b15801561390057600080fd5b505af4158015613914573d6000803e3d6000fd5b5050505073__$3460f78de88eac5d504038ca885511d774$__63268e514373828169221293cb90d747b17341b7b7b20e58e03973__$3460f78de88eac5d504038ca885511d774$__6331e0b8026040518163ffffffff1660e01b8152600401602060405180830381865af4158015613990573d6000803e3d6000fd5b505050506040513d601f19601f820116820180604052508101906139b49190614b7f565b6040518363ffffffff1660e01b81526004016139d1929190614bbb565b60006040518083038186803b1580156139e957600080fd5b505af41580156139fd573d6000803e3d6000fd5b5050505073__$3460f78de88eac5d504038ca885511d774$__63268e514373828169221293cb90d747b17341b7b7b20e58e03973__$3460f78de88eac5d504038ca885511d774$__63efbe1c1c6040518163ffffffff1660e01b8152600401602060405180830381865af4158015613a79573d6000803e3d6000fd5b505050506040513d601f19601f82011682018060405250810190613a9d9190614b7f565b6040518363ffffffff1660e01b8152600401613aba929190614bbb565b60006040518083038186803b158015613ad257600080fd5b505af4158015613ae6573d6000803e3d6000fd5b5050505073__$3460f78de88eac5d504038ca885511d774$__6389c3207673828169221293cb90d747b17341b7b7b20e58e0397f50534d2d475553442d41000000000000000000000000000000000000000000006040518363ffffffff1660e01b8152600401613b579291906150ce565b60006040518083038186803b158015613b6f57600080fd5b505af4158015613b83573d6000803e3d6000fd5b5050505073__$3460f78de88eac5d504038ca885511d774$__63dfe425b973828169221293cb90d747b17341b7b7b20e58e03973ffffffffffffffffffffffffffffffffffffffff16632e7dc6af6040518163ffffffff1660e01b8152600401602060405180830381865afa158015613c00573d6000803e3d6000fd5b505050506040513d601f19601f82011682018060405250810190613c249190614b7f565b73828169221293cb90d747b17341b7b7b20e58e0396040518363ffffffff1660e01b8152600401613c56929190614bbb565b60006040518083038186803b158015613c6e57600080fd5b505af4158015613c82573d6000803e3d6000fd5b5050505073f363c7e351c96b910b92b45d34190650df4ae8e773ffffffffffffffffffffffffffffffffffffffff16631e77933e737b64f61f9c30c1a2979ae78ff00d3d1f6d8e51fc6040518263ffffffff1660e01b8152600401613ce79190614bf3565b600060405180830381600087803b158015613d0157600080fd5b505af1158015613d15573d6000803e3d6000fd5b5050505073__$3460f78de88eac5d504038ca885511d774$__63dfe425b973f363c7e351c96b910b92b45d34190650df4ae8e773ffffffffffffffffffffffffffffffffffffffff16632e7dc6af6040518163ffffffff1660e01b8152600401602060405180830381865afa158015613d92573d6000803e3d6000fd5b505050506040513d601f19601f82011682018060405250810190613db69190614b7f565b73f363c7e351c96b910b92b45d34190650df4ae8e76040518363ffffffff1660e01b8152600401613de8929190614bbb565b60006040518083038186803b158015613e0057600080fd5b505af4158015613e14573d6000803e3d6000fd5b50505050738df8f06dc2de0434db40dcbb32a82a104218754c73ffffffffffffffffffffffffffffffffffffffff16631e77933e731662712eb3c4bf961d58a0e118c567343ac218fc6040518263ffffffff1660e01b8152600401613e799190614bf3565b600060405180830381600087803b158015613e9357600080fd5b505af1158015613ea7573d6000803e3d6000fd5b5050505073__$3460f78de88eac5d504038ca885511d774$__63dfe425b9738df8f06dc2de0434db40dcbb32a82a104218754c73ffffffffffffffffffffffffffffffffffffffff16632e7dc6af6040518163ffffffff1660e01b8152600401602060405180830381865afa158015613f24573d6000803e3d6000fd5b505050506040513d601f19601f82011682018060405250810190613f489190614b7f565b738df8f06dc2de0434db40dcbb32a82a104218754c6040518363ffffffff1660e01b8152600401613f7a929190614bbb565b60006040518083038186803b158015613f9257600080fd5b505af4158015613fa6573d6000803e3d6000fd5b50505050738874964279302e6d4e523fb1789981c39a1034ba73ffffffffffffffffffffffffffffffffffffffff16631e77933e7375aeb7a72200241e66d843926b5d584928e890116040518263ffffffff1660e01b815260040161400b9190614bf3565b600060405180830381600087803b15801561402557600080fd5b505af1158015614039573d6000803e3d6000fd5b5050505073__$3460f78de88eac5d504038ca885511d774$__63dfe425b9738874964279302e6d4e523fb1789981c39a1034ba73ffffffffffffffffffffffffffffffffffffffff16632e7dc6af6040518163ffffffff1660e01b8152600401602060405180830381865afa1580156140b6573d6000803e3d6000fd5b505050506040513d601f19601f820116820180604052508101906140da9190614b7f565b738874964279302e6d4e523fb1789981c39a1034ba6040518363ffffffff1660e01b815260040161410c929190614bbb565b60006040518083038186803b15801561412457600080fd5b505af4158015614138573d6000803e3d6000fd5b5050505073fe7a2ac0b945f12089aeeb6ecebf4f384d9f043f73ffffffffffffffffffffffffffffffffffffffff16631e77933e735e08f4239847792dc6f65d0e178f7e544c119e776040518263ffffffff1660e01b815260040161419d9190614bf3565b600060405180830381600087803b1580156141b757600080fd5b505af11580156141cb573d6000803e3d6000fd5b5050505073__$3460f78de88eac5d504038ca885511d774$__63dfe425b973fe7a2ac0b945f12089aeeb6ecebf4f384d9f043f73ffffffffffffffffffffffffffffffffffffffff16632e7dc6af6040518163ffffffff1660e01b8152600401602060405180830381865afa158015614248573d6000803e3d6000fd5b505050506040513d601f19601f8201168201806040525081019061426c9190614b7f565b73fe7a2ac0b945f12089aeeb6ecebf4f384d9f043f6040518363ffffffff1660e01b815260040161429e929190614bbb565b60006040518083038186803b1580156142b657600080fd5b505af41580156142ca573d6000803e3d6000fd5b5050505073ee7f0b350aa119b3d05dc733a4621a81972f7d4773ffffffffffffffffffffffffffffffffffffffff16631e77933e739b2722be6488ee2d2c6862ee316286522afb9d5b6040518263ffffffff1660e01b815260040161432f9190614bf3565b600060405180830381600087803b15801561434957600080fd5b505af115801561435d573d6000803e3d6000fd5b5050505073__$3460f78de88eac5d504038ca885511d774$__63dfe425b973ee7f0b350aa119b3d05dc733a4621a81972f7d4773ffffffffffffffffffffffffffffffffffffffff16632e7dc6af6040518163ffffffff1660e01b8152600401602060405180830381865afa1580156143da573d6000803e3d6000fd5b505050506040513d601f19601f820116820180604052508101906143fe9190614b7f565b73ee7f0b350aa119b3d05dc733a4621a81972f7d476040518363ffffffff1660e01b8152600401614430929190614bbb565b60006040518083038186803b15801561444857600080fd5b505af415801561445c573d6000803e3d6000fd5b5050505073d800ca44ffabecd159c7889c3bf64a217361aec873ffffffffffffffffffffffffffffffffffffffff16631e77933e73c6111bfce7a59d3f86d8227dbecb5255318dd2ad6040518263ffffffff1660e01b81526004016144c19190614bf3565b600060405180830381600087803b1580156144db57600080fd5b505af11580156144ef573d6000803e3d6000fd5b5050505073__$3460f78de88eac5d504038ca885511d774$__63dfe425b973d800ca44ffabecd159c7889c3bf64a217361aec873ffffffffffffffffffffffffffffffffffffffff16632e7dc6af6040518163ffffffff1660e01b8152600401602060405180830381865afa15801561456c573d6000803e3d6000fd5b505050506040513d601f19601f820116820180604052508101906145909190614b7f565b73d800ca44ffabecd159c7889c3bf64a217361aec86040518363ffffffff1660e01b81526004016145c2929190614bbb565b60006040518083038186803b1580156145da57600080fd5b505af41580156145ee573d6000803e3d6000fd5b5050505073__$3460f78de88eac5d504038ca885511d774$__635f3a7dd76040518163ffffffff1660e01b815260040161462790615154565b60006040518083038186803b15801561463f57600080fd5b505af4158015614653573d6000803e3d6000fd5b50505050565b60008115159050919050565b61466e81614659565b82525050565b60006020820190506146896000830184614665565b92915050565b600081519050919050565b600082825260208201905092915050565b60005b838110156146c95780820151818401526020810190506146ae565b60008484015250505050565b6000601f19601f8301169050919050565b60006146f18261468f565b6146fb818561469a565b935061470b8185602086016146ab565b614714816146d5565b840191505092915050565b6000602082019050818103600083015261473981846146e6565b905092915050565b600080fd5b6000819050919050565b61475981614746565b811461476457600080fd5b50565b60008135905061477681614750565b92915050565b60006020828403121561479257614791614741565b5b60006147a084828501614767565b91505092915050565b6147b281614746565b82525050565b60006020820190506147cd60008301846147a9565b92915050565b600064ffffffffff82169050919050565b6147ed816147d3565b82525050565b6147fc81614659565b82525050565b600060408201905061481760008301856147e4565b61482460208301846147f3565b9392505050565b61483481614659565b811461483f57600080fd5b50565b6000815190506148518161482b565b92915050565b60006020828403121561486d5761486c614741565b5b600061487b84828501614842565b91505092915050565b7f4f757473696465206f666669636520686f757273000000000000000000000000600082015250565b60006148ba60148361469a565b91506148c582614884565b602082019050919050565b600060208201905081810360008301526148e9816148ad565b9050919050565b600060608201905061490560008301866147e4565b61491260208301856147e4565b61491f60408301846147f3565b949350505050565b60008151905061493681614750565b92915050565b60006020828403121561495257614951614741565b5b600061496084828501614927565b91505092915050565b6000819050919050565b6000819050919050565b600061499861499361498e84614969565b614973565b614746565b9050919050565b6149a88161497d565b82525050565b60006020820190506149c3600083018461499f565b92915050565b6000819050919050565b60006149ee6149e96149e4846149c9565b614973565b614746565b9050919050565b6149fe816149d3565b82525050565b6000602082019050614a1960008301846149f5565b92915050565b6000819050919050565b6000614a44614a3f614a3a84614a1f565b614973565b614746565b9050919050565b614a5481614a29565b82525050565b6000602082019050614a6f6000830184614a4b565b92915050565b6000819050919050565b6000614a9a614a95614a9084614a75565b614973565b614746565b9050919050565b614aaa81614a7f565b82525050565b6000602082019050614ac56000830184614aa1565b92915050565b6000819050919050565b6000614af0614aeb614ae684614acb565b614973565b614746565b9050919050565b614b0081614ad5565b82525050565b6000602082019050614b1b6000830184614af7565b92915050565b600073ffffffffffffffffffffffffffffffffffffffff82169050919050565b6000614b4c82614b21565b9050919050565b614b5c81614b41565b8114614b6757600080fd5b50565b600081519050614b7981614b53565b92915050565b600060208284031215614b9557614b94614741565b5b6000614ba384828501614b6a565b91505092915050565b614bb581614b41565b82525050565b6000604082019050614bd06000830185614bac565b614bdd6020830184614bac565b9392505050565b614bed81614b41565b82525050565b6000602082019050614c086000830184614be4565b92915050565b6000819050919050565b6000819050919050565b60008160001b9050919050565b6000614c4a614c45614c4084614c0e565b614c22565b614c18565b9050919050565b614c5a81614c2f565b82525050565b7f7069700000000000000000000000000000000000000000000000000000000000815250565b6000608082019050614c9b6000830186614bac565b614ca86020830185614c51565b614cb460408301614c60565b614cc16060830184614bac565b949350505050565b6000819050919050565b6000614cee614ce9614ce484614cc9565b614c22565b614c18565b9050919050565b614cfe81614cd3565b82525050565b6000608082019050614d196000830186614bac565b614d266020830185614cf5565b614d3260408301614c60565b614d3f6060830184614bac565b949350505050565b6000602082019050614d5c6000830184614bac565b92915050565b6000604082019050614d776000830185614bac565b614d846020830184614c51565b9392505050565b6000604082019050614da06000830185614bac565b614dad6020830184614cf5565b9392505050565b6000819050919050565b6000614dd9614dd4614dcf84614db4565b614c22565b614c18565b9050919050565b614de981614dbe565b82525050565b6000608082019050614e046000830186614bac565b614e116020830185614de0565b614e1d60408301614c60565b614e2a6060830184614bac565b949350505050565b6000604082019050614e476000830185614bac565b614e546020830184614de0565b9392505050565b6000819050919050565b6000614e80614e7b614e7684614e5b565b614c22565b614c18565b9050919050565b614e9081614e65565b82525050565b6000608082019050614eab6000830186614bac565b614eb86020830185614e87565b614ec460408301614c60565b614ed16060830184614bac565b949350505050565b6000819050919050565b6000614efe614ef9614ef484614ed9565b614c22565b614c18565b9050919050565b614f0e81614ee3565b82525050565b6000608082019050614f296000830186614bac565b614f366020830185614f05565b614f4260408301614c60565b614f4f6060830184614bac565b949350505050565b6000604082019050614f6c6000830185614bac565b614f796020830184614e87565b9392505050565b6000604082019050614f956000830185614bac565b614fa26020830184614f05565b9392505050565b6000819050919050565b6000614fce614fc9614fc484614fa9565b614c22565b614c18565b9050919050565b614fde81614fb3565b82525050565b6000608082019050614ff96000830186614bac565b6150066020830185614fd5565b61501260408301614c60565b61501f6060830184614bac565b949350505050565b600060408201905061503c6000830185614bac565b6150496020830184614fd5565b9392505050565b6000819050919050565b600061507561507061506b84615050565b614c22565b614c18565b9050919050565b6150858161505a565b82525050565b60006080820190506150a06000830186614bac565b6150ad602083018561507c565b6150b960408301614c60565b6150c66060830184614bac565b949350505050565b60006040820190506150e36000830185614bac565b6150f0602083018461507c565b9392505050565b600082825260208201905092915050565b7f312e31352e300000000000000000000000000000000000000000000000000000600082015250565b600061513e6006836150f7565b915061514982615108565b602082019050919050565b6000602082019050818103600083015261516d81615131565b905091905056fe323032352d342d3032204d616b657244414f20457865637574697665205370656c6c207c20486173683a20307835623464313433303262623965656131373238646663616130353364333865383233653137633530333033343639396236356361663262396665343436326530a2646970667358221220efd0ef37764bc3583a556c3ea1a826348bc754db72f3ecc58c5811238e31466164736f6c63430008100033","opcodes":"PUSH1 0x80 PUSH1 0x40 MSTORE CALLVALUE DUP1 ISZERO PUSH2 0x10 JUMPI PUSH1 0x0 DUP1 REVERT JUMPDEST POP PUSH2 0x5217 DUP1 PUSH2 0x20 PUSH1 0x0 CODECOPY PUSH1 0x0 RETURN INVALID PUSH1 0x80 PUSH1 0x40 MSTORE CALLVALUE DUP1 ISZERO PUSH2 0x10 JUMPI PUSH1 0x0 DUP1 REVERT JUMPDEST POP PUSH1 0x4 CALLDATASIZE LT PUSH2 0x57 JUMPI PUSH1 0x0 CALLDATALOAD PUSH1 0xE0 SHR DUP1 PUSH4 0x61461954 EQ PUSH2 0x5C JUMPI DUP1 PUSH4 0x6E832F07 EQ PUSH2 0x66 JUMPI DUP1 PUSH4 0x7284E416 EQ PUSH2 0x84 JUMPI DUP1 PUSH4 0xBF0FBCEC EQ PUSH2 0xA2 JUMPI DUP1 PUSH4 0xF99E36BC EQ PUSH2 0xD2 JUMPI JUMPDEST PUSH1 0x0 DUP1 REVERT JUMPDEST PUSH2 0x64 PUSH2 0xDC JUMP JUMPDEST STOP JUMPDEST PUSH2 0x6E PUSH2 0x1A6 JUMP JUMPDEST PUSH1 0x40 MLOAD PUSH2 0x7B SWAP2 SWAP1 PUSH2 0x4674 JUMP JUMPDEST PUSH1 0x40 MLOAD DUP1 SWAP2 SUB SWAP1 RETURN JUMPDEST PUSH2 0x8C PUSH2 0x1AB JUMP JUMPDEST PUSH1 0x40 MLOAD PUSH2 0x99 SWAP2 SWAP1 PUSH2 0x471F JUMP JUMPDEST PUSH1 0x40 MLOAD DUP1 SWAP2 SUB SWAP1 RETURN JUMPDEST PUSH2 0xBC PUSH1 0x4 DUP1 CALLDATASIZE SUB DUP2 ADD SWAP1 PUSH2 0xB7 SWAP2 SWAP1 PUSH2 0x477C JUMP JUMPDEST PUSH2 0x1C7 JUMP JUMPDEST PUSH1 0x40 MLOAD PUSH2 0xC9 SWAP2 SWAP1 PUSH2 0x47B8 JUMP JUMPDEST PUSH1 0x40 MLOAD DUP1 SWAP2 SUB SWAP1 RETURN JUMPDEST PUSH2 0xDA PUSH2 0x267 JUMP JUMPDEST STOP JUMPDEST PUSH20 0x0 PUSH4 0x35329D4C TIMESTAMP PUSH2 0xFF PUSH2 0x1A6 JUMP JUMPDEST PUSH1 0x40 MLOAD DUP4 PUSH4 0xFFFFFFFF AND PUSH1 0xE0 SHL DUP2 MSTORE PUSH1 0x4 ADD PUSH2 0x11C SWAP3 SWAP2 SWAP1 PUSH2 0x4802 JUMP JUMPDEST PUSH1 0x20 PUSH1 0x40 MLOAD DUP1 DUP4 SUB DUP2 DUP7 GAS DELEGATECALL ISZERO DUP1 ISZERO PUSH2 0x139 JUMPI RETURNDATASIZE PUSH1 0x0 DUP1 RETURNDATACOPY RETURNDATASIZE PUSH1 0x0 REVERT JUMPDEST POP POP POP POP PUSH1 0x40 MLOAD RETURNDATASIZE PUSH1 0x1F NOT PUSH1 0x1F DUP3 ADD AND DUP3 ADD DUP1 PUSH1 0x40 MSTORE POP DUP2 ADD SWAP1 PUSH2 0x15D SWAP2 SWAP1 PUSH2 0x4857 JUMP JUMPDEST PUSH2 0x19C JUMPI PUSH1 0x40 MLOAD PUSH32 0x8C379A000000000000000000000000000000000000000000000000000000000 DUP2 MSTORE PUSH1 0x4 ADD PUSH2 0x193 SWAP1 PUSH2 0x48D0 JUMP JUMPDEST PUSH1 0x40 MLOAD DUP1 SWAP2 SUB SWAP1 REVERT JUMPDEST PUSH2 0x1A4 PUSH2 0x267 JUMP JUMPDEST JUMP JUMPDEST PUSH1 0x0 SWAP1 JUMP JUMPDEST PUSH1 0x40 MLOAD DUP1 PUSH1 0xA0 ADD PUSH1 0x40 MSTORE DUP1 PUSH1 0x6D DUP2 MSTORE PUSH1 0x20 ADD PUSH2 0x5175 PUSH1 0x6D SWAP2 CODECOPY DUP2 JUMP JUMPDEST PUSH1 0x0 PUSH5 0xFFFFFFFFFF DUP1 AND DUP3 GT ISZERO PUSH2 0x1DD JUMPI PUSH1 0x0 DUP1 REVERT JUMPDEST PUSH20 0x0 PUSH4 0xD2557456 DUP4 TIMESTAMP PUSH2 0x201 PUSH2 0x1A6 JUMP JUMPDEST PUSH1 0x40 MLOAD DUP5 PUSH4 0xFFFFFFFF AND PUSH1 0xE0 SHL DUP2 MSTORE PUSH1 0x4 ADD PUSH2 0x21F SWAP4 SWAP3 SWAP2 SWAP1 PUSH2 0x48F0 JUMP JUMPDEST PUSH1 0x20 PUSH1 0x40 MLOAD DUP1 DUP4 SUB DUP2 DUP7 GAS DELEGATECALL ISZERO DUP1 ISZERO PUSH2 0x23C JUMPI RETURNDATASIZE PUSH1 0x0 DUP1 RETURNDATACOPY RETURNDATASIZE PUSH1 0x0 REVERT JUMPDEST POP POP POP POP PUSH1 0x40 MLOAD RETURNDATASIZE PUSH1 0x1F NOT PUSH1 0x1F DUP3 ADD AND DUP3 ADD DUP1 PUSH1 0x40 MSTORE POP DUP2 ADD SWAP1 PUSH2 0x260 SWAP2 SWAP1 PUSH2 0x493C JUMP JUMPDEST SWAP1 POP SWAP2 SWAP1 POP JUMP JUMPDEST PUSH20 0x0 PUSH4 0x4E39AEE3 PUSH1 0xA PUSH1 0x40 MLOAD DUP3 PUSH4 0xFFFFFFFF AND PUSH1 0xE0 SHL DUP2 MSTORE PUSH1 0x4 ADD PUSH2 0x29F SWAP2 SWAP1 PUSH2 0x49AE JUMP JUMPDEST PUSH1 0x0 PUSH1 0x40 MLOAD DUP1 DUP4 SUB DUP2 DUP7 DUP1 EXTCODESIZE ISZERO DUP1 ISZERO PUSH2 0x2B7 JUMPI PUSH1 0x0 DUP1 REVERT JUMPDEST POP GAS DELEGATECALL ISZERO DUP1 ISZERO PUSH2 0x2CB JUMPI RETURNDATASIZE PUSH1 0x0 DUP1 RETURNDATACOPY RETURNDATASIZE PUSH1 0x0 REVERT JUMPDEST POP POP POP POP PUSH20 0x0 PUSH4 0x77DBF55A PUSH3 0x61A80 PUSH1 0x40 MLOAD DUP3 PUSH4 0xFFFFFFFF AND PUSH1 0xE0 SHL DUP2 MSTORE PUSH1 0x4 ADD PUSH2 0x309 SWAP2 SWAP1 PUSH2 0x4A04 JUMP JUMPDEST PUSH1 0x0 PUSH1 0x40 MLOAD DUP1 DUP4 SUB DUP2 DUP7 DUP1 EXTCODESIZE ISZERO DUP1 ISZERO PUSH2 0x321 JUMPI PUSH1 0x0 DUP1 REVERT JUMPDEST POP GAS DELEGATECALL ISZERO DUP1 ISZERO PUSH2 0x335 JUMPI RETURNDATASIZE PUSH1 0x0 DUP1 RETURNDATACOPY RETURNDATASIZE PUSH1 0x0 REVERT JUMPDEST POP POP POP POP PUSH20 0x0 PUSH4 0x153A8513 PUSH2 0xE10 PUSH1 0x40 MLOAD DUP3 PUSH4 0xFFFFFFFF AND PUSH1 0xE0 SHL DUP2 MSTORE PUSH1 0x4 ADD PUSH2 0x372 SWAP2 SWAP1 PUSH2 0x4A5A JUMP JUMPDEST PUSH1 0x0 PUSH1 0x40 MLOAD DUP1 DUP4 SUB DUP2 DUP7 DUP1 EXTCODESIZE ISZERO DUP1 ISZERO PUSH2 0x38A JUMPI PUSH1 0x0 DUP1 REVERT JUMPDEST POP GAS DELEGATECALL ISZERO DUP1 ISZERO PUSH2 0x39E JUMPI RETURNDATASIZE PUSH1 0x0 DUP1 RETURNDATACOPY RETURNDATASIZE PUSH1 0x0 REVERT JUMPDEST POP POP POP POP PUSH20 0x0 PUSH4 0x402EF076 PUSH2 0x708 PUSH1 0x40 MLOAD DUP3 PUSH4 0xFFFFFFFF AND PUSH1 0xE0 SHL DUP2 MSTORE PUSH1 0x4 ADD PUSH2 0x3DB SWAP2 SWAP1 PUSH2 0x4AB0 JUMP JUMPDEST PUSH1 0x0 PUSH1 0x40 MLOAD DUP1 DUP4 SUB DUP2 DUP7 DUP1 EXTCODESIZE ISZERO DUP1 ISZERO PUSH2 0x3F3 JUMPI PUSH1 0x0 DUP1 REVERT JUMPDEST POP GAS DELEGATECALL ISZERO DUP1 ISZERO PUSH2 0x407 JUMPI RETURNDATASIZE PUSH1 0x0 DUP1 RETURNDATACOPY RETURNDATASIZE PUSH1 0x0 REVERT JUMPDEST POP POP POP POP PUSH20 0x0 PUSH4 0x8D196E32 PUSH5 0x218711A00 PUSH1 0x40 MLOAD DUP3 PUSH4 0xFFFFFFFF AND PUSH1 0xE0 SHL DUP2 MSTORE PUSH1 0x4 ADD PUSH2 0x447 SWAP2 SWAP1 PUSH2 0x4B06 JUMP JUMPDEST PUSH1 0x0 PUSH1 0x40 MLOAD DUP1 DUP4 SUB DUP2 DUP7 DUP1 EXTCODESIZE ISZERO DUP1 ISZERO PUSH2 0x45F JUMPI PUSH1 0x0 DUP1 REVERT JUMPDEST POP GAS DELEGATECALL ISZERO DUP1 ISZERO PUSH2 0x473 JUMPI RETURNDATASIZE PUSH1 0x0 DUP1 RETURNDATACOPY RETURNDATASIZE PUSH1 0x0 REVERT JUMPDEST POP POP POP POP PUSH20 0x0 PUSH4 0x2BEF4595 PUSH20 0x0 PUSH4 0x2E77468D PUSH1 0x40 MLOAD DUP2 PUSH4 0xFFFFFFFF AND PUSH1 0xE0 SHL DUP2 MSTORE PUSH1 0x4 ADD PUSH1 0x20 PUSH1 0x40 MLOAD DUP1 DUP4 SUB DUP2 DUP7 GAS DELEGATECALL ISZERO DUP1 ISZERO PUSH2 0x4DA JUMPI RETURNDATASIZE PUSH1 0x0 DUP1 RETURNDATACOPY RETURNDATASIZE PUSH1 0x0 REVERT JUMPDEST POP POP POP POP PUSH1 0x40 MLOAD RETURNDATASIZE PUSH1 0x1F NOT PUSH1 0x1F DUP3 ADD AND DUP3 ADD DUP1 PUSH1 0x40 MSTORE POP DUP2 ADD SWAP1 PUSH2 0x4FE SWAP2 SWAP1 PUSH2 0x4B7F JUMP JUMPDEST PUSH20 0x72550B5E1C3904FAEEA48F0149C168386E4C4D65 PUSH1 0x40 MLOAD DUP4 PUSH4 0xFFFFFFFF AND PUSH1 0xE0 SHL DUP2 MSTORE PUSH1 0x4 ADD PUSH2 0x530 SWAP3 SWAP2 SWAP1 PUSH2 0x4BBB JUMP JUMPDEST PUSH1 0x0 PUSH1 0x40 MLOAD DUP1 DUP4 SUB DUP2 DUP7 DUP1 EXTCODESIZE ISZERO DUP1 ISZERO PUSH2 0x548 JUMPI PUSH1 0x0 DUP1 REVERT JUMPDEST POP GAS DELEGATECALL ISZERO DUP1 ISZERO PUSH2 0x55C JUMPI RETURNDATASIZE PUSH1 0x0 DUP1 RETURNDATACOPY RETURNDATASIZE PUSH1 0x0 REVERT JUMPDEST POP POP POP POP PUSH20 0xBE286431454714F511008713973D3B053A2D38F3 PUSH20 0xFFFFFFFFFFFFFFFFFFFFFFFFFFFFFFFFFFFFFFFF AND PUSH4 0x13AF4035 PUSH1 0x0 PUSH1 0x40 MLOAD DUP3 PUSH4 0xFFFFFFFF AND PUSH1 0xE0 SHL DUP2 MSTORE PUSH1 0x4 ADD PUSH2 0x5AE SWAP2 SWAP1 PUSH2 0x4BF3 JUMP JUMPDEST PUSH1 0x0 PUSH1 0x40 MLOAD DUP1 DUP4 SUB DUP2 PUSH1 0x0 DUP8 DUP1 EXTCODESIZE ISZERO DUP1 ISZERO PUSH2 0x5C8 JUMPI PUSH1 0x0 DUP1 REVERT JUMPDEST POP GAS CALL ISZERO DUP1 ISZERO PUSH2 0x5DC JUMPI RETURNDATASIZE PUSH1 0x0 DUP1 RETURNDATACOPY RETURNDATASIZE PUSH1 0x0 REVERT JUMPDEST POP POP POP POP PUSH20 0x81FE72B5A8D1A857D176C3E7D5BD2679A9B85763 PUSH20 0xFFFFFFFFFFFFFFFFFFFFFFFFFFFFFFFFFFFFFFFF AND PUSH4 0x1E77933E PUSH20 0x613433AE2B8D3AE6371CA6EC26BCE0A73C005BA2 PUSH1 0x40 MLOAD DUP3 PUSH4 0xFFFFFFFF AND PUSH1 0xE0 SHL DUP2 MSTORE PUSH1 0x4 ADD PUSH2 0x641 SWAP2 SWAP1 PUSH2 0x4BF3 JUMP JUMPDEST PUSH1 0x0 PUSH1 0x40 MLOAD DUP1 DUP4 SUB DUP2 PUSH1 0x0 DUP8 DUP1 EXTCODESIZE ISZERO DUP1 ISZERO PUSH2 0x65B JUMPI PUSH1 0x0 DUP1 REVERT JUMPDEST POP GAS CALL ISZERO DUP1 ISZERO PUSH2 0x66F JUMPI RETURNDATASIZE PUSH1 0x0 DUP1 RETURNDATACOPY RETURNDATASIZE PUSH1 0x0 REVERT JUMPDEST POP POP POP POP PUSH20 0x0 PUSH4 0xDFE425B9 PUSH20 0x81FE72B5A8D1A857D176C3E7D5BD2679A9B85763 PUSH20 0xFFFFFFFFFFFFFFFFFFFFFFFFFFFFFFFFFFFFFFFF AND PUSH4 0x2E7DC6AF PUSH1 0x40 MLOAD DUP2 PUSH4 0xFFFFFFFF AND PUSH1 0xE0 SHL DUP2 MSTORE PUSH1 0x4 ADD PUSH1 0x20 PUSH1 0x40 MLOAD DUP1 DUP4 SUB DUP2 DUP7 GAS STATICCALL ISZERO DUP1 ISZERO PUSH2 0x6EC JUMPI RETURNDATASIZE PUSH1 0x0 DUP1 RETURNDATACOPY RETURNDATASIZE PUSH1 0x0 REVERT JUMPDEST POP POP POP POP PUSH1 0x40 MLOAD RETURNDATASIZE PUSH1 0x1F NOT PUSH1 0x1F DUP3 ADD AND DUP3 ADD DUP1 PUSH1 0x40 MSTORE POP DUP2 ADD SWAP1 PUSH2 0x710 SWAP2 SWAP1 PUSH2 0x4B7F JUMP JUMPDEST PUSH20 0x81FE72B5A8D1A857D176C3E7D5BD2679A9B85763 PUSH1 0x40 MLOAD DUP4 PUSH4 0xFFFFFFFF AND PUSH1 0xE0 SHL DUP2 MSTORE PUSH1 0x4 ADD PUSH2 0x742 SWAP3 SWAP2 SWAP1 PUSH2 0x4BBB JUMP JUMPDEST PUSH1 0x0 PUSH1 0x40 MLOAD DUP1 DUP4 SUB DUP2 DUP7 DUP1 EXTCODESIZE ISZERO DUP1 ISZERO PUSH2 0x75A JUMPI PUSH1 0x0 DUP1 REVERT JUMPDEST POP GAS DELEGATECALL ISZERO DUP1 ISZERO PUSH2 0x76E JUMPI RETURNDATASIZE PUSH1 0x0 DUP1 RETURNDATACOPY RETURNDATASIZE PUSH1 0x0 REVERT JUMPDEST POP POP POP POP PUSH20 0xB4EB54AF9CC7882DF0121D26C5B97E802915ABE6 PUSH20 0xFFFFFFFFFFFFFFFFFFFFFFFFFFFFFFFFFFFFFFFF AND PUSH4 0x1E77933E PUSH20 0x82E5E259ED1569586FCCA571CE50A7D1D6786BAD PUSH1 0x40 MLOAD DUP3 PUSH4 0xFFFFFFFF AND PUSH1 0xE0 SHL DUP2 MSTORE PUSH1 0x4 ADD PUSH2 0x7D3 SWAP2 SWAP1 PUSH2 0x4BF3 JUMP JUMPDEST PUSH1 0x0 PUSH1 0x40 MLOAD DUP1 DUP4 SUB DUP2 PUSH1 0x0 DUP8 DUP1 EXTCODESIZE ISZERO DUP1 ISZERO PUSH2 0x7ED JUMPI PUSH1 0x0 DUP1 REVERT JUMPDEST POP GAS CALL ISZERO DUP1 ISZERO PUSH2 0x801 JUMPI RETURNDATASIZE PUSH1 0x0 DUP1 RETURNDATACOPY RETURNDATASIZE PUSH1 0x0 REVERT JUMPDEST POP POP POP POP PUSH20 0x0 PUSH4 0xDFE425B9 PUSH20 0xB4EB54AF9CC7882DF0121D26C5B97E802915ABE6 PUSH20 0xFFFFFFFFFFFFFFFFFFFFFFFFFFFFFFFFFFFFFFFF AND PUSH4 0x2E7DC6AF PUSH1 0x40 MLOAD DUP2 PUSH4 0xFFFFFFFF AND PUSH1 0xE0 SHL DUP2 MSTORE PUSH1 0x4 ADD PUSH1 0x20 PUSH1 0x40 MLOAD DUP1 DUP4 SUB DUP2 DUP7 GAS STATICCALL ISZERO DUP1 ISZERO PUSH2 0x87E JUMPI RETURNDATASIZE PUSH1 0x0 DUP1 RETURNDATACOPY RETURNDATASIZE PUSH1 0x0 REVERT JUMPDEST POP POP POP POP PUSH1 0x40 MLOAD RETURNDATASIZE PUSH1 0x1F NOT PUSH1 0x1F DUP3 ADD AND DUP3 ADD DUP1 PUSH1 0x40 MSTORE POP DUP2 ADD SWAP1 PUSH2 0x8A2 SWAP2 SWAP1 PUSH2 0x4B7F JUMP JUMPDEST PUSH20 0xB4EB54AF9CC7882DF0121D26C5B97E802915ABE6 PUSH1 0x40 MLOAD DUP4 PUSH4 0xFFFFFFFF AND PUSH1 0xE0 SHL DUP2 MSTORE PUSH1 0x4 ADD PUSH2 0x8D4 SWAP3 SWAP2 SWAP1 PUSH2 0x4BBB JUMP JUMPDEST PUSH1 0x0 PUSH1 0x40 MLOAD DUP1 DUP4 SUB DUP2 DUP7 DUP1 EXTCODESIZE ISZERO DUP1 ISZERO PUSH2 0x8EC JUMPI PUSH1 0x0 DUP1 REVERT JUMPDEST POP GAS DELEGATECALL ISZERO DUP1 ISZERO PUSH2 0x900 JUMPI RETURNDATASIZE PUSH1 0x0 DUP1 RETURNDATACOPY RETURNDATASIZE PUSH1 0x0 REVERT JUMPDEST POP POP POP POP PUSH20 0x0 PUSH4 0xE5C6EB33 PUSH20 0x0 PUSH4 0x2E77468D PUSH1 0x40 MLOAD DUP2 PUSH4 0xFFFFFFFF AND PUSH1 0xE0 SHL DUP2 MSTORE PUSH1 0x4 ADD PUSH1 0x20 PUSH1 0x40 MLOAD DUP1 DUP4 SUB DUP2 DUP7 GAS DELEGATECALL ISZERO DUP1 ISZERO PUSH2 0x967 JUMPI RETURNDATASIZE PUSH1 0x0 DUP1 RETURNDATACOPY RETURNDATASIZE PUSH1 0x0 REVERT JUMPDEST POP POP POP POP PUSH1 0x40 MLOAD RETURNDATASIZE PUSH1 0x1F NOT PUSH1 0x1F DUP3 ADD AND DUP3 ADD DUP1 PUSH1 0x40 MSTORE POP DUP2 ADD SWAP1 PUSH2 0x98B SWAP2 SWAP1 PUSH2 0x4B7F JUMP JUMPDEST PUSH32 0x555344432D410000000000000000000000000000000000000000000000000000 PUSH20 0x64EE82FC3AF7785FBD78A2BE24B0B31CD7BFD2E0 PUSH1 0x40 MLOAD DUP5 PUSH4 0xFFFFFFFF AND PUSH1 0xE0 SHL DUP2 MSTORE PUSH1 0x4 ADD PUSH2 0x9DF SWAP4 SWAP3 SWAP2 SWAP1 PUSH2 0x4C86 JUMP JUMPDEST PUSH1 0x0 PUSH1 0x40 MLOAD DUP1 DUP4 SUB DUP2 DUP7 DUP1 EXTCODESIZE ISZERO DUP1 ISZERO PUSH2 0x9F7 JUMPI PUSH1 0x0 DUP1 REVERT JUMPDEST POP GAS DELEGATECALL ISZERO DUP1 ISZERO PUSH2 0xA0B JUMPI RETURNDATASIZE PUSH1 0x0 DUP1 RETURNDATACOPY RETURNDATASIZE PUSH1 0x0 REVERT JUMPDEST POP POP POP POP PUSH20 0x0 PUSH4 0xE5C6EB33 PUSH20 0x0 PUSH4 0x2E77468D PUSH1 0x40 MLOAD DUP2 PUSH4 0xFFFFFFFF AND PUSH1 0xE0 SHL DUP2 MSTORE PUSH1 0x4 ADD PUSH1 0x20 PUSH1 0x40 MLOAD DUP1 DUP4 SUB DUP2 DUP7 GAS DELEGATECALL ISZERO DUP1 ISZERO PUSH2 0xA72 JUMPI RETURNDATASIZE PUSH1 0x0 DUP1 RETURNDATACOPY RETURNDATASIZE PUSH1 0x0 REVERT JUMPDEST POP POP POP POP PUSH1 0x40 MLOAD RETURNDATASIZE PUSH1 0x1F NOT PUSH1 0x1F DUP3 ADD AND DUP3 ADD DUP1 PUSH1 0x40 MSTORE POP DUP2 ADD SWAP1 PUSH2 0xA96 SWAP2 SWAP1 PUSH2 0x4B7F JUMP JUMPDEST PUSH32 0x50534D2D555344432D4100000000000000000000000000000000000000000000 PUSH20 0x64EE82FC3AF7785FBD78A2BE24B0B31CD7BFD2E0 PUSH1 0x40 MLOAD DUP5 PUSH4 0xFFFFFFFF AND PUSH1 0xE0 SHL DUP2 MSTORE PUSH1 0x4 ADD PUSH2 0xAEA SWAP4 SWAP3 SWAP2 SWAP1 PUSH2 0x4D04 JUMP JUMPDEST PUSH1 0x0 PUSH1 0x40 MLOAD DUP1 DUP4 SUB DUP2 DUP7 DUP1 EXTCODESIZE ISZERO DUP1 ISZERO PUSH2 0xB02 JUMPI PUSH1 0x0 DUP1 REVERT JUMPDEST POP GAS DELEGATECALL ISZERO DUP1 ISZERO PUSH2 0xB16 JUMPI RETURNDATASIZE PUSH1 0x0 DUP1 RETURNDATACOPY RETURNDATASIZE PUSH1 0x0 REVERT JUMPDEST POP POP POP POP PUSH20 0x0 PUSH4 0x2BEF4595 PUSH20 0x64EE82FC3AF7785FBD78A2BE24B0B31CD7BFD2E0 PUSH20 0x0 PUSH4 0xE475AC5D PUSH1 0x40 MLOAD DUP2 PUSH4 0xFFFFFFFF AND PUSH1 0xE0 SHL DUP2 MSTORE PUSH1 0x4 ADD PUSH1 0x20 PUSH1 0x40 MLOAD DUP1 DUP4 SUB DUP2 DUP7 GAS DELEGATECALL ISZERO DUP1 ISZERO PUSH2 0xB92 JUMPI RETURNDATASIZE PUSH1 0x0 DUP1 RETURNDATACOPY RETURNDATASIZE PUSH1 0x0 REVERT JUMPDEST POP POP POP POP PUSH1 0x40 MLOAD RETURNDATASIZE PUSH1 0x1F NOT PUSH1 0x1F DUP3 ADD AND DUP3 ADD DUP1 PUSH1 0x40 MSTORE POP DUP2 ADD SWAP1 PUSH2 0xBB6 SWAP2 SWAP1 PUSH2 0x4B7F JUMP JUMPDEST PUSH1 0x40 MLOAD DUP4 PUSH4 0xFFFFFFFF AND PUSH1 0xE0 SHL DUP2 MSTORE PUSH1 0x4 ADD PUSH2 0xBD3 SWAP3 SWAP2 SWAP1 PUSH2 0x4BBB JUMP JUMPDEST PUSH1 0x0 PUSH1 0x40 MLOAD DUP1 DUP4 SUB DUP2 DUP7 DUP1 EXTCODESIZE ISZERO DUP1 ISZERO PUSH2 0xBEB JUMPI PUSH1 0x0 DUP1 REVERT JUMPDEST POP GAS DELEGATECALL ISZERO DUP1 ISZERO PUSH2 0xBFF JUMPI RETURNDATASIZE PUSH1 0x0 DUP1 RETURNDATACOPY RETURNDATASIZE PUSH1 0x0 REVERT JUMPDEST POP POP POP POP PUSH20 0x0 PUSH4 0xE9D8CCB8 PUSH20 0x64EE82FC3AF7785FBD78A2BE24B0B31CD7BFD2E0 PUSH1 0x40 MLOAD DUP3 PUSH4 0xFFFFFFFF AND PUSH1 0xE0 SHL DUP2 MSTORE PUSH1 0x4 ADD PUSH2 0xC4E SWAP2 SWAP1 PUSH2 0x4D47 JUMP JUMPDEST PUSH1 0x0 PUSH1 0x40 MLOAD DUP1 DUP4 SUB DUP2 DUP7 DUP1 EXTCODESIZE ISZERO DUP1 ISZERO PUSH2 0xC66 JUMPI PUSH1 0x0 DUP1 REVERT JUMPDEST POP GAS DELEGATECALL ISZERO DUP1 ISZERO PUSH2 0xC7A JUMPI RETURNDATASIZE PUSH1 0x0 DUP1 RETURNDATACOPY RETURNDATASIZE PUSH1 0x0 REVERT JUMPDEST POP POP POP POP PUSH20 0x0 PUSH4 0x268E5143 PUSH20 0x64EE82FC3AF7785FBD78A2BE24B0B31CD7BFD2E0 PUSH20 0x0 PUSH4 0x2E77468D PUSH1 0x40 MLOAD DUP2 PUSH4 0xFFFFFFFF AND PUSH1 0xE0 SHL DUP2 MSTORE PUSH1 0x4 ADD PUSH1 0x20 PUSH1 0x40 MLOAD DUP1 DUP4 SUB DUP2 DUP7 GAS DELEGATECALL ISZERO DUP1 ISZERO PUSH2 0xCF6 JUMPI RETURNDATASIZE PUSH1 0x0 DUP1 RETURNDATACOPY RETURNDATASIZE PUSH1 0x0 REVERT JUMPDEST POP POP POP POP PUSH1 0x40 MLOAD RETURNDATASIZE PUSH1 0x1F NOT PUSH1 0x1F DUP3 ADD AND DUP3 ADD DUP1 PUSH1 0x40 MSTORE POP DUP2 ADD SWAP1 PUSH2 0xD1A SWAP2 SWAP1 PUSH2 0x4B7F JUMP JUMPDEST PUSH1 0x40 MLOAD DUP4 PUSH4 0xFFFFFFFF AND PUSH1 0xE0 SHL DUP2 MSTORE PUSH1 0x4 ADD PUSH2 0xD37 SWAP3 SWAP2 SWAP1 PUSH2 0x4BBB JUMP JUMPDEST PUSH1 0x0 PUSH1 0x40 MLOAD DUP1 DUP4 SUB DUP2 DUP7 DUP1 EXTCODESIZE ISZERO DUP1 ISZERO PUSH2 0xD4F JUMPI PUSH1 0x0 DUP1 REVERT JUMPDEST POP GAS DELEGATECALL ISZERO DUP1 ISZERO PUSH2 0xD63 JUMPI RETURNDATASIZE PUSH1 0x0 DUP1 RETURNDATACOPY RETURNDATASIZE PUSH1 0x0 REVERT JUMPDEST POP POP POP POP PUSH20 0x0 PUSH4 0x268E5143 PUSH20 0x64EE82FC3AF7785FBD78A2BE24B0B31CD7BFD2E0 PUSH20 0x46B1A5718DA6A226D912CFD306BA19980772908 PUSH1 0x40 MLOAD DUP4 PUSH4 0xFFFFFFFF AND PUSH1 0xE0 SHL DUP2 MSTORE PUSH1 0x4 ADD PUSH2 0xDC8 SWAP3 SWAP2 SWAP1 PUSH2 0x4BBB JUMP JUMPDEST PUSH1 0x0 PUSH1 0x40 MLOAD DUP1 DUP4 SUB DUP2 DUP7 DUP1 EXTCODESIZE ISZERO DUP1 ISZERO PUSH2 0xDE0 JUMPI PUSH1 0x0 DUP1 REVERT JUMPDEST POP GAS DELEGATECALL ISZERO DUP1 ISZERO PUSH2 0xDF4 JUMPI RETURNDATASIZE PUSH1 0x0 DUP1 RETURNDATACOPY RETURNDATASIZE PUSH1 0x0 REVERT JUMPDEST POP POP POP POP PUSH20 0x0 PUSH4 0x268E5143 PUSH20 0x64EE82FC3AF7785FBD78A2BE24B0B31CD7BFD2E0 PUSH20 0x0 PUSH4 0x31E0B802 PUSH1 0x40 MLOAD DUP2 PUSH4 0xFFFFFFFF AND PUSH1 0xE0 SHL DUP2 MSTORE PUSH1 0x4 ADD PUSH1 0x20 PUSH1 0x40 MLOAD DUP1 DUP4 SUB DUP2 DUP7 GAS DELEGATECALL ISZERO DUP1 ISZERO PUSH2 0xE70 JUMPI RETURNDATASIZE PUSH1 0x0 DUP1 RETURNDATACOPY RETURNDATASIZE PUSH1 0x0 REVERT JUMPDEST POP POP POP POP PUSH1 0x40 MLOAD RETURNDATASIZE PUSH1 0x1F NOT PUSH1 0x1F DUP3 ADD AND DUP3 ADD DUP1 PUSH1 0x40 MSTORE POP DUP2 ADD SWAP1 PUSH2 0xE94 SWAP2 SWAP1 PUSH2 0x4B7F JUMP JUMPDEST PUSH1 0x40 MLOAD DUP4 PUSH4 0xFFFFFFFF AND PUSH1 0xE0 SHL DUP2 MSTORE PUSH1 0x4 ADD PUSH2 0xEB1 SWAP3 SWAP2 SWAP1 PUSH2 0x4BBB JUMP JUMPDEST PUSH1 0x0 PUSH1 0x40 MLOAD DUP1 DUP4 SUB DUP2 DUP7 DUP1 EXTCODESIZE ISZERO DUP1 ISZERO PUSH2 0xEC9 JUMPI PUSH1 0x0 DUP1 REVERT JUMPDEST POP GAS DELEGATECALL ISZERO DUP1 ISZERO PUSH2 0xEDD JUMPI RETURNDATASIZE PUSH1 0x0 DUP1 RETURNDATACOPY RETURNDATASIZE PUSH1 0x0 REVERT JUMPDEST POP POP POP POP PUSH20 0x0 PUSH4 0x268E5143 PUSH20 0x64EE82FC3AF7785FBD78A2BE24B0B31CD7BFD2E0 PUSH20 0x0 PUSH4 0xEFBE1C1C PUSH1 0x40 MLOAD DUP2 PUSH4 0xFFFFFFFF AND PUSH1 0xE0 SHL DUP2 MSTORE PUSH1 0x4 ADD PUSH1 0x20 PUSH1 0x40 MLOAD DUP1 DUP4 SUB DUP2 DUP7 GAS DELEGATECALL ISZERO DUP1 ISZERO PUSH2 0xF59 JUMPI RETURNDATASIZE PUSH1 0x0 DUP1 RETURNDATACOPY RETURNDATASIZE PUSH1 0x0 REVERT JUMPDEST POP POP POP POP PUSH1 0x40 MLOAD RETURNDATASIZE PUSH1 0x1F NOT PUSH1 0x1F DUP3 ADD AND DUP3 ADD DUP1 PUSH1 0x40 MSTORE POP DUP2 ADD SWAP1 PUSH2 0xF7D SWAP2 SWAP1 PUSH2 0x4B7F JUMP JUMPDEST PUSH1 0x40 MLOAD DUP4 PUSH4 0xFFFFFFFF AND PUSH1 0xE0 SHL DUP2 MSTORE PUSH1 0x4 ADD PUSH2 0xF9A SWAP3 SWAP2 SWAP1 PUSH2 0x4BBB JUMP JUMPDEST PUSH1 0x0 PUSH1 0x40 MLOAD DUP1 DUP4 SUB DUP2 DUP7 DUP1 EXTCODESIZE ISZERO DUP1 ISZERO PUSH2 0xFB2 JUMPI PUSH1 0x0 DUP1 REVERT JUMPDEST POP GAS DELEGATECALL ISZERO DUP1 ISZERO PUSH2 0xFC6 JUMPI RETURNDATASIZE PUSH1 0x0 DUP1 RETURNDATACOPY RETURNDATASIZE PUSH1 0x0 REVERT JUMPDEST POP POP POP POP PUSH20 0x0 PUSH4 0x89C32076 PUSH20 0x64EE82FC3AF7785FBD78A2BE24B0B31CD7BFD2E0 PUSH32 0x555344432D410000000000000000000000000000000000000000000000000000 PUSH1 0x40 MLOAD DUP4 PUSH4 0xFFFFFFFF AND PUSH1 0xE0 SHL DUP2 MSTORE PUSH1 0x4 ADD PUSH2 0x1037 SWAP3 SWAP2 SWAP1 PUSH2 0x4D62 JUMP JUMPDEST PUSH1 0x0 PUSH1 0x40 MLOAD DUP1 DUP4 SUB DUP2 DUP7 DUP1 EXTCODESIZE ISZERO DUP1 ISZERO PUSH2 0x104F JUMPI PUSH1 0x0 DUP1 REVERT JUMPDEST POP GAS DELEGATECALL ISZERO DUP1 ISZERO PUSH2 0x1063 JUMPI RETURNDATASIZE PUSH1 0x0 DUP1 RETURNDATACOPY RETURNDATASIZE PUSH1 0x0 REVERT JUMPDEST POP POP POP POP PUSH20 0x0 PUSH4 0x89C32076 PUSH20 0x64EE82FC3AF7785FBD78A2BE24B0B31CD7BFD2E0 PUSH32 0x50534D2D555344432D4100000000000000000000000000000000000000000000 PUSH1 0x40 MLOAD DUP4 PUSH4 0xFFFFFFFF AND PUSH1 0xE0 SHL DUP2 MSTORE PUSH1 0x4 ADD PUSH2 0x10D4 SWAP3 SWAP2 SWAP1 PUSH2 0x4D8B JUMP JUMPDEST PUSH1 0x0 PUSH1 0x40 MLOAD DUP1 DUP4 SUB DUP2 DUP7 DUP1 EXTCODESIZE ISZERO DUP1 ISZERO PUSH2 0x10EC JUMPI PUSH1 0x0 DUP1 REVERT JUMPDEST POP GAS DELEGATECALL ISZERO DUP1 ISZERO PUSH2 0x1100 JUMPI RETURNDATASIZE PUSH1 0x0 DUP1 RETURNDATACOPY RETURNDATASIZE PUSH1 0x0 REVERT JUMPDEST POP POP POP POP PUSH20 0x0 PUSH4 0xDFE425B9 PUSH20 0x64EE82FC3AF7785FBD78A2BE24B0B31CD7BFD2E0 PUSH20 0xFFFFFFFFFFFFFFFFFFFFFFFFFFFFFFFFFFFFFFFF AND PUSH4 0x2E7DC6AF PUSH1 0x40 MLOAD DUP2 PUSH4 0xFFFFFFFF AND PUSH1 0xE0 SHL DUP2 MSTORE PUSH1 0x4 ADD PUSH1 0x20 PUSH1 0x40 MLOAD DUP1 DUP4 SUB DUP2 DUP7 GAS STATICCALL ISZERO DUP1 ISZERO PUSH2 0x117D JUMPI RETURNDATASIZE PUSH1 0x0 DUP1 RETURNDATACOPY RETURNDATASIZE PUSH1 0x0 REVERT JUMPDEST POP POP POP POP PUSH1 0x40 MLOAD RETURNDATASIZE PUSH1 0x1F NOT PUSH1 0x1F DUP3 ADD AND DUP3 ADD DUP1 PUSH1 0x40 MSTORE POP DUP2 ADD SWAP1 PUSH2 0x11A1 SWAP2 SWAP1 PUSH2 0x4B7F JUMP JUMPDEST PUSH20 0x64EE82FC3AF7785FBD78A2BE24B0B31CD7BFD2E0 PUSH1 0x40 MLOAD DUP4 PUSH4 0xFFFFFFFF AND PUSH1 0xE0 SHL DUP2 MSTORE PUSH1 0x4 ADD PUSH2 0x11D3 SWAP3 SWAP2 SWAP1 PUSH2 0x4BBB JUMP JUMPDEST PUSH1 0x0 PUSH1 0x40 MLOAD DUP1 DUP4 SUB DUP2 DUP7 DUP1 EXTCODESIZE ISZERO DUP1 ISZERO PUSH2 0x11EB JUMPI PUSH1 0x0 DUP1 REVERT JUMPDEST POP GAS DELEGATECALL ISZERO DUP1 ISZERO PUSH2 0x11FF JUMPI RETURNDATASIZE PUSH1 0x0 DUP1 RETURNDATACOPY RETURNDATASIZE PUSH1 0x0 REVERT JUMPDEST POP POP POP POP PUSH20 0xF185D0682D50819263941E5F4EACC763CC5C6C42 PUSH20 0xFFFFFFFFFFFFFFFFFFFFFFFFFFFFFFFFFFFFFFFF AND PUSH4 0x1E77933E PUSH20 0x6E088B573694F1958C2FADB2D4E926FD8FFF4F2C PUSH1 0x40 MLOAD DUP3 PUSH4 0xFFFFFFFF AND PUSH1 0xE0 SHL DUP2 MSTORE PUSH1 0x4 ADD PUSH2 0x1264 SWAP2 SWAP1 PUSH2 0x4BF3 JUMP JUMPDEST PUSH1 0x0 PUSH1 0x40 MLOAD DUP1 DUP4 SUB DUP2 PUSH1 0x0 DUP8 DUP1 EXTCODESIZE ISZERO DUP1 ISZERO PUSH2 0x127E JUMPI PUSH1 0x0 DUP1 REVERT JUMPDEST POP GAS CALL ISZERO DUP1 ISZERO PUSH2 0x1292 JUMPI RETURNDATASIZE PUSH1 0x0 DUP1 RETURNDATACOPY RETURNDATASIZE PUSH1 0x0 REVERT JUMPDEST POP POP POP POP PUSH20 0x0 PUSH4 0xDFE425B9 PUSH20 0xF185D0682D50819263941E5F4EACC763CC5C6C42 PUSH20 0xFFFFFFFFFFFFFFFFFFFFFFFFFFFFFFFFFFFFFFFF AND PUSH4 0x2E7DC6AF PUSH1 0x40 MLOAD DUP2 PUSH4 0xFFFFFFFF AND PUSH1 0xE0 SHL DUP2 MSTORE PUSH1 0x4 ADD PUSH1 0x20 PUSH1 0x40 MLOAD DUP1 DUP4 SUB DUP2 DUP7 GAS STATICCALL ISZERO DUP1 ISZERO PUSH2 0x130F JUMPI RETURNDATASIZE PUSH1 0x0 DUP1 RETURNDATACOPY RETURNDATASIZE PUSH1 0x0 REVERT JUMPDEST POP POP POP POP PUSH1 0x40 MLOAD RETURNDATASIZE PUSH1 0x1F NOT PUSH1 0x1F DUP3 ADD AND DUP3 ADD DUP1 PUSH1 0x40 MSTORE POP DUP2 ADD SWAP1 PUSH2 0x1333 SWAP2 SWAP1 PUSH2 0x4B7F JUMP JUMPDEST PUSH20 0xF185D0682D50819263941E5F4EACC763CC5C6C42 PUSH1 0x40 MLOAD DUP4 PUSH4 0xFFFFFFFF AND PUSH1 0xE0 SHL DUP2 MSTORE PUSH1 0x4 ADD PUSH2 0x1365 SWAP3 SWAP2 SWAP1 PUSH2 0x4BBB JUMP JUMPDEST PUSH1 0x0 PUSH1 0x40 MLOAD DUP1 DUP4 SUB DUP2 DUP7 DUP1 EXTCODESIZE ISZERO DUP1 ISZERO PUSH2 0x137D JUMPI PUSH1 0x0 DUP1 REVERT JUMPDEST POP GAS DELEGATECALL ISZERO DUP1 ISZERO PUSH2 0x1391 JUMPI RETURNDATASIZE PUSH1 0x0 DUP1 RETURNDATACOPY RETURNDATASIZE PUSH1 0x0 REVERT JUMPDEST POP POP POP POP PUSH20 0x0 PUSH4 0xE5C6EB33 PUSH20 0x0 PUSH4 0x2E77468D PUSH1 0x40 MLOAD DUP2 PUSH4 0xFFFFFFFF AND PUSH1 0xE0 SHL DUP2 MSTORE PUSH1 0x4 ADD PUSH1 0x20 PUSH1 0x40 MLOAD DUP1 DUP4 SUB DUP2 DUP7 GAS DELEGATECALL ISZERO DUP1 ISZERO PUSH2 0x13F8 JUMPI RETURNDATASIZE PUSH1 0x0 DUP1 RETURNDATACOPY RETURNDATASIZE PUSH1 0x0 REVERT JUMPDEST POP POP POP POP PUSH1 0x40 MLOAD RETURNDATASIZE PUSH1 0x1F NOT PUSH1 0x1F DUP3 ADD AND DUP3 ADD DUP1 PUSH1 0x40 MSTORE POP DUP2 ADD SWAP1 PUSH2 0x141C SWAP2 SWAP1 PUSH2 0x4B7F JUMP JUMPDEST PUSH32 0x545553442D410000000000000000000000000000000000000000000000000000 PUSH20 0x3A2D8ADB238F47B4D258545701439E05DB201574 PUSH1 0x40 MLOAD DUP5 PUSH4 0xFFFFFFFF AND PUSH1 0xE0 SHL DUP2 MSTORE PUSH1 0x4 ADD PUSH2 0x1470 SWAP4 SWAP3 SWAP2 SWAP1 PUSH2 0x4DEF JUMP JUMPDEST PUSH1 0x0 PUSH1 0x40 MLOAD DUP1 DUP4 SUB DUP2 DUP7 DUP1 EXTCODESIZE ISZERO DUP1 ISZERO PUSH2 0x1488 JUMPI PUSH1 0x0 DUP1 REVERT JUMPDEST POP GAS DELEGATECALL ISZERO DUP1 ISZERO PUSH2 0x149C JUMPI RETURNDATASIZE PUSH1 0x0 DUP1 RETURNDATACOPY RETURNDATASIZE PUSH1 0x0 REVERT JUMPDEST POP POP POP POP PUSH20 0x0 PUSH4 0x2BEF4595 PUSH20 0x3A2D8ADB238F47B4D258545701439E05DB201574 PUSH20 0x0 PUSH4 0xE475AC5D PUSH1 0x40 MLOAD DUP2 PUSH4 0xFFFFFFFF AND PUSH1 0xE0 SHL DUP2 MSTORE PUSH1 0x4 ADD PUSH1 0x20 PUSH1 0x40 MLOAD DUP1 DUP4 SUB DUP2 DUP7 GAS DELEGATECALL ISZERO DUP1 ISZERO PUSH2 0x1518 JUMPI RETURNDATASIZE PUSH1 0x0 DUP1 RETURNDATACOPY RETURNDATASIZE PUSH1 0x0 REVERT JUMPDEST POP POP POP POP PUSH1 0x40 MLOAD RETURNDATASIZE PUSH1 0x1F NOT PUSH1 0x1F DUP3 ADD AND DUP3 ADD DUP1 PUSH1 0x40 MSTORE POP DUP2 ADD SWAP1 PUSH2 0x153C SWAP2 SWAP1 PUSH2 0x4B7F JUMP JUMPDEST PUSH1 0x40 MLOAD DUP4 PUSH4 0xFFFFFFFF AND PUSH1 0xE0 SHL DUP2 MSTORE PUSH1 0x4 ADD PUSH2 0x1559 SWAP3 SWAP2 SWAP1 PUSH2 0x4BBB JUMP JUMPDEST PUSH1 0x0 PUSH1 0x40 MLOAD DUP1 DUP4 SUB DUP2 DUP7 DUP1 EXTCODESIZE ISZERO DUP1 ISZERO PUSH2 0x1571 JUMPI PUSH1 0x0 DUP1 REVERT JUMPDEST POP GAS DELEGATECALL ISZERO DUP1 ISZERO PUSH2 0x1585 JUMPI RETURNDATASIZE PUSH1 0x0 DUP1 RETURNDATACOPY RETURNDATASIZE PUSH1 0x0 REVERT JUMPDEST POP POP POP POP PUSH20 0x0 PUSH4 0xE9D8CCB8 PUSH20 0x3A2D8ADB238F47B4D258545701439E05DB201574 PUSH1 0x40 MLOAD DUP3 PUSH4 0xFFFFFFFF AND PUSH1 0xE0 SHL DUP2 MSTORE PUSH1 0x4 ADD PUSH2 0x15D4 SWAP2 SWAP1 PUSH2 0x4D47 JUMP JUMPDEST PUSH1 0x0 PUSH1 0x40 MLOAD DUP1 DUP4 SUB DUP2 DUP7 DUP1 EXTCODESIZE ISZERO DUP1 ISZERO PUSH2 0x15EC JUMPI PUSH1 0x0 DUP1 REVERT JUMPDEST POP GAS DELEGATECALL ISZERO DUP1 ISZERO PUSH2 0x1600 JUMPI RETURNDATASIZE PUSH1 0x0 DUP1 RETURNDATACOPY RETURNDATASIZE PUSH1 0x0 REVERT JUMPDEST POP POP POP POP PUSH20 0x0 PUSH4 0x268E5143 PUSH20 0x3A2D8ADB238F47B4D258545701439E05DB201574 PUSH20 0x0 PUSH4 0x2E77468D PUSH1 0x40 MLOAD DUP2 PUSH4 0xFFFFFFFF AND PUSH1 0xE0 SHL DUP2 MSTORE PUSH1 0x4 ADD PUSH1 0x20 PUSH1 0x40 MLOAD DUP1 DUP4 SUB DUP2 DUP7 GAS DELEGATECALL ISZERO DUP1 ISZERO PUSH2 0x167C JUMPI RETURNDATASIZE PUSH1 0x0 DUP1 RETURNDATACOPY RETURNDATASIZE PUSH1 0x0 REVERT JUMPDEST POP POP POP POP PUSH1 0x40 MLOAD RETURNDATASIZE PUSH1 0x1F NOT PUSH1 0x1F DUP3 ADD AND DUP3 ADD DUP1 PUSH1 0x40 MSTORE POP DUP2 ADD SWAP1 PUSH2 0x16A0 SWAP2 SWAP1 PUSH2 0x4B7F JUMP JUMPDEST PUSH1 0x40 MLOAD DUP4 PUSH4 0xFFFFFFFF AND PUSH1 0xE0 SHL DUP2 MSTORE PUSH1 0x4 ADD PUSH2 0x16BD SWAP3 SWAP2 SWAP1 PUSH2 0x4BBB JUMP JUMPDEST PUSH1 0x0 PUSH1 0x40 MLOAD DUP1 DUP4 SUB DUP2 DUP7 DUP1 EXTCODESIZE ISZERO DUP1 ISZERO PUSH2 0x16D5 JUMPI PUSH1 0x0 DUP1 REVERT JUMPDEST POP GAS DELEGATECALL ISZERO DUP1 ISZERO PUSH2 0x16E9 JUMPI RETURNDATASIZE PUSH1 0x0 DUP1 RETURNDATACOPY RETURNDATASIZE PUSH1 0x0 REVERT JUMPDEST POP POP POP POP PUSH20 0x0 PUSH4 0x268E5143 PUSH20 0x3A2D8ADB238F47B4D258545701439E05DB201574 PUSH20 0xF6F88F8A4B918584E3539182793A0C276097F44 PUSH1 0x40 MLOAD DUP4 PUSH4 0xFFFFFFFF AND PUSH1 0xE0 SHL DUP2 MSTORE PUSH1 0x4 ADD PUSH2 0x174E SWAP3 SWAP2 SWAP1 PUSH2 0x4BBB JUMP JUMPDEST PUSH1 0x0 PUSH1 0x40 MLOAD DUP1 DUP4 SUB DUP2 DUP7 DUP1 EXTCODESIZE ISZERO DUP1 ISZERO PUSH2 0x1766 JUMPI PUSH1 0x0 DUP1 REVERT JUMPDEST POP GAS DELEGATECALL ISZERO DUP1 ISZERO PUSH2 0x177A JUMPI RETURNDATASIZE PUSH1 0x0 DUP1 RETURNDATACOPY RETURNDATASIZE PUSH1 0x0 REVERT JUMPDEST POP POP POP POP PUSH20 0x0 PUSH4 0x268E5143 PUSH20 0x3A2D8ADB238F47B4D258545701439E05DB201574 PUSH20 0x0 PUSH4 0x31E0B802 PUSH1 0x40 MLOAD DUP2 PUSH4 0xFFFFFFFF AND PUSH1 0xE0 SHL DUP2 MSTORE PUSH1 0x4 ADD PUSH1 0x20 PUSH1 0x40 MLOAD DUP1 DUP4 SUB DUP2 DUP7 GAS DELEGATECALL ISZERO DUP1 ISZERO PUSH2 0x17F6 JUMPI RETURNDATASIZE PUSH1 0x0 DUP1 RETURNDATACOPY RETURNDATASIZE PUSH1 0x0 REVERT JUMPDEST POP POP POP POP PUSH1 0x40 MLOAD RETURNDATASIZE PUSH1 0x1F NOT PUSH1 0x1F DUP3 ADD AND DUP3 ADD DUP1 PUSH1 0x40 MSTORE POP DUP2 ADD SWAP1 PUSH2 0x181A SWAP2 SWAP1 PUSH2 0x4B7F JUMP JUMPDEST PUSH1 0x40 MLOAD DUP4 PUSH4 0xFFFFFFFF AND PUSH1 0xE0 SHL DUP2 MSTORE PUSH1 0x4 ADD PUSH2 0x1837 SWAP3 SWAP2 SWAP1 PUSH2 0x4BBB JUMP JUMPDEST PUSH1 0x0 PUSH1 0x40 MLOAD DUP1 DUP4 SUB DUP2 DUP7 DUP1 EXTCODESIZE ISZERO DUP1 ISZERO PUSH2 0x184F JUMPI PUSH1 0x0 DUP1 REVERT JUMPDEST POP GAS DELEGATECALL ISZERO DUP1 ISZERO PUSH2 0x1863 JUMPI RETURNDATASIZE PUSH1 0x0 DUP1 RETURNDATACOPY RETURNDATASIZE PUSH1 0x0 REVERT JUMPDEST POP POP POP POP PUSH20 0x0 PUSH4 0x268E5143 PUSH20 0x3A2D8ADB238F47B4D258545701439E05DB201574 PUSH20 0x0 PUSH4 0xEFBE1C1C PUSH1 0x40 MLOAD DUP2 PUSH4 0xFFFFFFFF AND PUSH1 0xE0 SHL DUP2 MSTORE PUSH1 0x4 ADD PUSH1 0x20 PUSH1 0x40 MLOAD DUP1 DUP4 SUB DUP2 DUP7 GAS DELEGATECALL ISZERO DUP1 ISZERO PUSH2 0x18DF JUMPI RETURNDATASIZE PUSH1 0x0 DUP1 RETURNDATACOPY RETURNDATASIZE PUSH1 0x0 REVERT JUMPDEST POP POP POP POP PUSH1 0x40 MLOAD RETURNDATASIZE PUSH1 0x1F NOT PUSH1 0x1F DUP3 ADD AND DUP3 ADD DUP1 PUSH1 0x40 MSTORE POP DUP2 ADD SWAP1 PUSH2 0x1903 SWAP2 SWAP1 PUSH2 0x4B7F JUMP JUMPDEST PUSH1 0x40 MLOAD DUP4 PUSH4 0xFFFFFFFF AND PUSH1 0xE0 SHL DUP2 MSTORE PUSH1 0x4 ADD PUSH2 0x1920 SWAP3 SWAP2 SWAP1 PUSH2 0x4BBB JUMP JUMPDEST PUSH1 0x0 PUSH1 0x40 MLOAD DUP1 DUP4 SUB DUP2 DUP7 DUP1 EXTCODESIZE ISZERO DUP1 ISZERO PUSH2 0x1938 JUMPI PUSH1 0x0 DUP1 REVERT JUMPDEST POP GAS DELEGATECALL ISZERO DUP1 ISZERO PUSH2 0x194C JUMPI RETURNDATASIZE PUSH1 0x0 DUP1 RETURNDATACOPY RETURNDATASIZE PUSH1 0x0 REVERT JUMPDEST POP POP POP POP PUSH20 0x0 PUSH4 0x89C32076 PUSH20 0x3A2D8ADB238F47B4D258545701439E05DB201574 PUSH32 0x545553442D410000000000000000000000000000000000000000000000000000 PUSH1 0x40 MLOAD DUP4 PUSH4 0xFFFFFFFF AND PUSH1 0xE0 SHL DUP2 MSTORE PUSH1 0x4 ADD PUSH2 0x19BD SWAP3 SWAP2 SWAP1 PUSH2 0x4E32 JUMP JUMPDEST PUSH1 0x0 PUSH1 0x40 MLOAD DUP1 DUP4 SUB DUP2 DUP7 DUP1 EXTCODESIZE ISZERO DUP1 ISZERO PUSH2 0x19D5 JUMPI PUSH1 0x0 DUP1 REVERT JUMPDEST POP GAS DELEGATECALL ISZERO DUP1 ISZERO PUSH2 0x19E9 JUMPI RETURNDATASIZE PUSH1 0x0 DUP1 RETURNDATACOPY RETURNDATASIZE PUSH1 0x0 REVERT JUMPDEST POP POP POP POP PUSH20 0x0 PUSH4 0xDFE425B9 PUSH20 0x3A2D8ADB238F47B4D258545701439E05DB201574 PUSH20 0xFFFFFFFFFFFFFFFFFFFFFFFFFFFFFFFFFFFFFFFF AND PUSH4 0x2E7DC6AF PUSH1 0x40 MLOAD DUP2 PUSH4 0xFFFFFFFF AND PUSH1 0xE0 SHL DUP2 MSTORE PUSH1 0x4 ADD PUSH1 0x20 PUSH1 0x40 MLOAD DUP1 DUP4 SUB DUP2 DUP7 GAS STATICCALL ISZERO DUP1 ISZERO PUSH2 0x1A66 JUMPI RETURNDATASIZE PUSH1 0x0 DUP1 RETURNDATACOPY RETURNDATASIZE PUSH1 0x0 REVERT JUMPDEST POP POP POP POP PUSH1 0x40 MLOAD RETURNDATASIZE PUSH1 0x1F NOT PUSH1 0x1F DUP3 ADD AND DUP3 ADD DUP1 PUSH1 0x40 MSTORE POP DUP2 ADD SWAP1 PUSH2 0x1A8A SWAP2 SWAP1 PUSH2 0x4B7F JUMP JUMPDEST PUSH20 0x3A2D8ADB238F47B4D258545701439E05DB201574 PUSH1 0x40 MLOAD DUP4 PUSH4 0xFFFFFFFF AND PUSH1 0xE0 SHL DUP2 MSTORE PUSH1 0x4 ADD PUSH2 0x1ABC SWAP3 SWAP2 SWAP1 PUSH2 0x4BBB JUMP JUMPDEST PUSH1 0x0 PUSH1 0x40 MLOAD DUP1 DUP4 SUB DUP2 DUP7 DUP1 EXTCODESIZE ISZERO DUP1 ISZERO PUSH2 0x1AD4 JUMPI PUSH1 0x0 DUP1 REVERT JUMPDEST POP GAS DELEGATECALL ISZERO DUP1 ISZERO PUSH2 0x1AE8 JUMPI RETURNDATASIZE PUSH1 0x0 DUP1 RETURNDATACOPY RETURNDATASIZE PUSH1 0x0 REVERT JUMPDEST POP POP POP POP PUSH20 0x7382C066801E7ACB2299AC8562847B9883F5CD3C PUSH20 0xFFFFFFFFFFFFFFFFFFFFFFFFFFFFFFFFFFFFFFFF AND PUSH4 0x1E77933E PUSH20 0x623FE3720C94AB42CE31CB255780E4D0E1D04A1B PUSH1 0x40 MLOAD DUP3 PUSH4 0xFFFFFFFF AND PUSH1 0xE0 SHL DUP2 MSTORE PUSH1 0x4 ADD PUSH2 0x1B4D SWAP2 SWAP1 PUSH2 0x4BF3 JUMP JUMPDEST PUSH1 0x0 PUSH1 0x40 MLOAD DUP1 DUP4 SUB DUP2 PUSH1 0x0 DUP8 DUP1 EXTCODESIZE ISZERO DUP1 ISZERO PUSH2 0x1B67 JUMPI PUSH1 0x0 DUP1 REVERT JUMPDEST POP GAS CALL ISZERO DUP1 ISZERO PUSH2 0x1B7B JUMPI RETURNDATASIZE PUSH1 0x0 DUP1 RETURNDATACOPY RETURNDATASIZE PUSH1 0x0 REVERT JUMPDEST POP POP POP POP PUSH20 0x0 PUSH4 0xDFE425B9 PUSH20 0x7382C066801E7ACB2299AC8562847B9883F5CD3C PUSH20 0xFFFFFFFFFFFFFFFFFFFFFFFFFFFFFFFFFFFFFFFF AND PUSH4 0x2E7DC6AF PUSH1 0x40 MLOAD DUP2 PUSH4 0xFFFFFFFF AND PUSH1 0xE0 SHL DUP2 MSTORE PUSH1 0x4 ADD PUSH1 0x20 PUSH1 0x40 MLOAD DUP1 DUP4 SUB DUP2 DUP7 GAS STATICCALL ISZERO DUP1 ISZERO PUSH2 0x1BF8 JUMPI RETURNDATASIZE PUSH1 0x0 DUP1 RETURNDATACOPY RETURNDATASIZE PUSH1 0x0 REVERT JUMPDEST POP POP POP POP PUSH1 0x40 MLOAD RETURNDATASIZE PUSH1 0x1F NOT PUSH1 0x1F DUP3 ADD AND DUP3 ADD DUP1 PUSH1 0x40 MSTORE POP DUP2 ADD SWAP1 PUSH2 0x1C1C SWAP2 SWAP1 PUSH2 0x4B7F JUMP JUMPDEST PUSH20 0x7382C066801E7ACB2299AC8562847B9883F5CD3C PUSH1 0x40 MLOAD DUP4 PUSH4 0xFFFFFFFF AND PUSH1 0xE0 SHL DUP2 MSTORE PUSH1 0x4 ADD PUSH2 0x1C4E SWAP3 SWAP2 SWAP1 PUSH2 0x4BBB JUMP JUMPDEST PUSH1 0x0 PUSH1 0x40 MLOAD DUP1 DUP4 SUB DUP2 DUP7 DUP1 EXTCODESIZE ISZERO DUP1 ISZERO PUSH2 0x1C66 JUMPI PUSH1 0x0 DUP1 REVERT JUMPDEST POP GAS DELEGATECALL ISZERO DUP1 ISZERO PUSH2 0x1C7A JUMPI RETURNDATASIZE PUSH1 0x0 DUP1 RETURNDATACOPY RETURNDATASIZE PUSH1 0x0 REVERT JUMPDEST POP POP POP POP PUSH20 0xF36B79BD4C0904A5F350F1E4F776B81208C13069 PUSH20 0xFFFFFFFFFFFFFFFFFFFFFFFFFFFFFFFFFFFFFFFF AND PUSH4 0x1E77933E PUSH20 0x4B9AD4401CBDE1ADA6ADD90AC40F326FB88DDF4E PUSH1 0x40 MLOAD DUP3 PUSH4 0xFFFFFFFF AND PUSH1 0xE0 SHL DUP2 MSTORE PUSH1 0x4 ADD PUSH2 0x1CDF SWAP2 SWAP1 PUSH2 0x4BF3 JUMP JUMPDEST PUSH1 0x0 PUSH1 0x40 MLOAD DUP1 DUP4 SUB DUP2 PUSH1 0x0 DUP8 DUP1 EXTCODESIZE ISZERO DUP1 ISZERO PUSH2 0x1CF9 JUMPI PUSH1 0x0 DUP1 REVERT JUMPDEST POP GAS CALL ISZERO DUP1 ISZERO PUSH2 0x1D0D JUMPI RETURNDATASIZE PUSH1 0x0 DUP1 RETURNDATACOPY RETURNDATASIZE PUSH1 0x0 REVERT JUMPDEST POP POP POP POP PUSH20 0x0 PUSH4 0xDFE425B9 PUSH20 0xF36B79BD4C0904A5F350F1E4F776B81208C13069 PUSH20 0xFFFFFFFFFFFFFFFFFFFFFFFFFFFFFFFFFFFFFFFF AND PUSH4 0x2E7DC6AF PUSH1 0x40 MLOAD DUP2 PUSH4 0xFFFFFFFF AND PUSH1 0xE0 SHL DUP2 MSTORE PUSH1 0x4 ADD PUSH1 0x20 PUSH1 0x40 MLOAD DUP1 DUP4 SUB DUP2 DUP7 GAS STATICCALL ISZERO DUP1 ISZERO PUSH2 0x1D8A JUMPI RETURNDATASIZE PUSH1 0x0 DUP1 RETURNDATACOPY RETURNDATASIZE PUSH1 0x0 REVERT JUMPDEST POP POP POP POP PUSH1 0x40 MLOAD RETURNDATASIZE PUSH1 0x1F NOT PUSH1 0x1F DUP3 ADD AND DUP3 ADD DUP1 PUSH1 0x40 MSTORE POP DUP2 ADD SWAP1 PUSH2 0x1DAE SWAP2 SWAP1 PUSH2 0x4B7F JUMP JUMPDEST PUSH20 0xF36B79BD4C0904A5F350F1E4F776B81208C13069 PUSH1 0x40 MLOAD DUP4 PUSH4 0xFFFFFFFF AND PUSH1 0xE0 SHL DUP2 MSTORE PUSH1 0x4 ADD PUSH2 0x1DE0 SWAP3 SWAP2 SWAP1 PUSH2 0x4BBB JUMP JUMPDEST PUSH1 0x0 PUSH1 0x40 MLOAD DUP1 DUP4 SUB DUP2 DUP7 DUP1 EXTCODESIZE ISZERO DUP1 ISZERO PUSH2 0x1DF8 JUMPI PUSH1 0x0 DUP1 REVERT JUMPDEST POP GAS DELEGATECALL ISZERO DUP1 ISZERO PUSH2 0x1E0C JUMPI RETURNDATASIZE PUSH1 0x0 DUP1 RETURNDATACOPY RETURNDATASIZE PUSH1 0x0 REVERT JUMPDEST POP POP POP POP PUSH20 0x8067259EA630601F319FCCE477977E55C6078C13 PUSH20 0xFFFFFFFFFFFFFFFFFFFFFFFFFFFFFFFFFFFFFFFF AND PUSH4 0x1E77933E PUSH20 0x31DF188997E1FE0C7FB29B43C0D8148D83E1C584 PUSH1 0x40 MLOAD DUP3 PUSH4 0xFFFFFFFF AND PUSH1 0xE0 SHL DUP2 MSTORE PUSH1 0x4 ADD PUSH2 0x1E71 SWAP2 SWAP1 PUSH2 0x4BF3 JUMP JUMPDEST PUSH1 0x0 PUSH1 0x40 MLOAD DUP1 DUP4 SUB DUP2 PUSH1 0x0 DUP8 DUP1 EXTCODESIZE ISZERO DUP1 ISZERO PUSH2 0x1E8B JUMPI PUSH1 0x0 DUP1 REVERT JUMPDEST POP GAS CALL ISZERO DUP1 ISZERO PUSH2 0x1E9F JUMPI RETURNDATASIZE PUSH1 0x0 DUP1 RETURNDATACOPY RETURNDATASIZE PUSH1 0x0 REVERT JUMPDEST POP POP POP POP PUSH20 0x0 PUSH4 0xDFE425B9 PUSH20 0x8067259EA630601F319FCCE477977E55C6078C13 PUSH20 0xFFFFFFFFFFFFFFFFFFFFFFFFFFFFFFFFFFFFFFFF AND PUSH4 0x2E7DC6AF PUSH1 0x40 MLOAD DUP2 PUSH4 0xFFFFFFFF AND PUSH1 0xE0 SHL DUP2 MSTORE PUSH1 0x4 ADD PUSH1 0x20 PUSH1 0x40 MLOAD DUP1 DUP4 SUB DUP2 DUP7 GAS STATICCALL ISZERO DUP1 ISZERO PUSH2 0x1F1C JUMPI RETURNDATASIZE PUSH1 0x0 DUP1 RETURNDATACOPY RETURNDATASIZE PUSH1 0x0 REVERT JUMPDEST POP POP POP POP PUSH1 0x40 MLOAD RETURNDATASIZE PUSH1 0x1F NOT PUSH1 0x1F DUP3 ADD AND DUP3 ADD DUP1 PUSH1 0x40 MSTORE POP DUP2 ADD SWAP1 PUSH2 0x1F40 SWAP2 SWAP1 PUSH2 0x4B7F JUMP JUMPDEST PUSH20 0x8067259EA630601F319FCCE477977E55C6078C13 PUSH1 0x40 MLOAD DUP4 PUSH4 0xFFFFFFFF AND PUSH1 0xE0 SHL DUP2 MSTORE PUSH1 0x4 ADD PUSH2 0x1F72 SWAP3 SWAP2 SWAP1 PUSH2 0x4BBB JUMP JUMPDEST PUSH1 0x0 PUSH1 0x40 MLOAD DUP1 DUP4 SUB DUP2 DUP7 DUP1 EXTCODESIZE ISZERO DUP1 ISZERO PUSH2 0x1F8A JUMPI PUSH1 0x0 DUP1 REVERT JUMPDEST POP GAS DELEGATECALL ISZERO DUP1 ISZERO PUSH2 0x1F9E JUMPI RETURNDATASIZE PUSH1 0x0 DUP1 RETURNDATACOPY RETURNDATASIZE PUSH1 0x0 REVERT JUMPDEST POP POP POP POP PUSH20 0x7A5918670B0C390AD25F7BEE908C1ACC2D314A3C PUSH20 0xFFFFFFFFFFFFFFFFFFFFFFFFFFFFFFFFFFFFFFFF AND PUSH4 0x1E77933E PUSH20 0x5CF7B83C17B70D2A06C592B91AD4F5C3CCA7C0DD PUSH1 0x40 MLOAD DUP3 PUSH4 0xFFFFFFFF AND PUSH1 0xE0 SHL DUP2 MSTORE PUSH1 0x4 ADD PUSH2 0x2003 SWAP2 SWAP1 PUSH2 0x4BF3 JUMP JUMPDEST PUSH1 0x0 PUSH1 0x40 MLOAD DUP1 DUP4 SUB DUP2 PUSH1 0x0 DUP8 DUP1 EXTCODESIZE ISZERO DUP1 ISZERO PUSH2 0x201D JUMPI PUSH1 0x0 DUP1 REVERT JUMPDEST POP GAS CALL ISZERO DUP1 ISZERO PUSH2 0x2031 JUMPI RETURNDATASIZE PUSH1 0x0 DUP1 RETURNDATACOPY RETURNDATASIZE PUSH1 0x0 REVERT JUMPDEST POP POP POP POP PUSH20 0x0 PUSH4 0xDFE425B9 PUSH20 0x7A5918670B0C390AD25F7BEE908C1ACC2D314A3C PUSH20 0xFFFFFFFFFFFFFFFFFFFFFFFFFFFFFFFFFFFFFFFF AND PUSH4 0x2E7DC6AF PUSH1 0x40 MLOAD DUP2 PUSH4 0xFFFFFFFF AND PUSH1 0xE0 SHL DUP2 MSTORE PUSH1 0x4 ADD PUSH1 0x20 PUSH1 0x40 MLOAD DUP1 DUP4 SUB DUP2 DUP7 GAS STATICCALL ISZERO DUP1 ISZERO PUSH2 0x20AE JUMPI RETURNDATASIZE PUSH1 0x0 DUP1 RETURNDATACOPY RETURNDATASIZE PUSH1 0x0 REVERT JUMPDEST POP POP POP POP PUSH1 0x40 MLOAD RETURNDATASIZE PUSH1 0x1F NOT PUSH1 0x1F DUP3 ADD AND DUP3 ADD DUP1 PUSH1 0x40 MSTORE POP DUP2 ADD SWAP1 PUSH2 0x20D2 SWAP2 SWAP1 PUSH2 0x4B7F JUMP JUMPDEST PUSH20 0x7A5918670B0C390AD25F7BEE908C1ACC2D314A3C PUSH1 0x40 MLOAD DUP4 PUSH4 0xFFFFFFFF AND PUSH1 0xE0 SHL DUP2 MSTORE PUSH1 0x4 ADD PUSH2 0x2104 SWAP3 SWAP2 SWAP1 PUSH2 0x4BBB JUMP JUMPDEST PUSH1 0x0 PUSH1 0x40 MLOAD DUP1 DUP4 SUB DUP2 DUP7 DUP1 EXTCODESIZE ISZERO DUP1 ISZERO PUSH2 0x211C JUMPI PUSH1 0x0 DUP1 REVERT JUMPDEST POP GAS DELEGATECALL ISZERO DUP1 ISZERO PUSH2 0x2130 JUMPI RETURNDATASIZE PUSH1 0x0 DUP1 RETURNDATACOPY RETURNDATASIZE PUSH1 0x0 REVERT JUMPDEST POP POP POP POP PUSH20 0x0 PUSH4 0xE5C6EB33 PUSH20 0x0 PUSH4 0x2E77468D PUSH1 0x40 MLOAD DUP2 PUSH4 0xFFFFFFFF AND PUSH1 0xE0 SHL DUP2 MSTORE PUSH1 0x4 ADD PUSH1 0x20 PUSH1 0x40 MLOAD DUP1 DUP4 SUB DUP2 DUP7 GAS DELEGATECALL ISZERO DUP1 ISZERO PUSH2 0x2197 JUMPI RETURNDATASIZE PUSH1 0x0 DUP1 RETURNDATACOPY RETURNDATASIZE PUSH1 0x0 REVERT JUMPDEST POP POP POP POP PUSH1 0x40 MLOAD RETURNDATASIZE PUSH1 0x1F NOT PUSH1 0x1F DUP3 ADD AND DUP3 ADD DUP1 PUSH1 0x40 MSTORE POP DUP2 ADD SWAP1 PUSH2 0x21BB SWAP2 SWAP1 PUSH2 0x4B7F JUMP JUMPDEST PUSH32 0x5041585553442D41000000000000000000000000000000000000000000000000 PUSH20 0x348FC3EF33373828E09270E9B2DC672EB5E5FDF8 PUSH1 0x40 MLOAD DUP5 PUSH4 0xFFFFFFFF AND PUSH1 0xE0 SHL DUP2 MSTORE PUSH1 0x4 ADD PUSH2 0x220F SWAP4 SWAP3 SWAP2 SWAP1 PUSH2 0x4E96 JUMP JUMPDEST PUSH1 0x0 PUSH1 0x40 MLOAD DUP1 DUP4 SUB DUP2 DUP7 DUP1 EXTCODESIZE ISZERO DUP1 ISZERO PUSH2 0x2227 JUMPI PUSH1 0x0 DUP1 REVERT JUMPDEST POP GAS DELEGATECALL ISZERO DUP1 ISZERO PUSH2 0x223B JUMPI RETURNDATASIZE PUSH1 0x0 DUP1 RETURNDATACOPY RETURNDATASIZE PUSH1 0x0 REVERT JUMPDEST POP POP POP POP PUSH20 0x0 PUSH4 0x2BEF4595 PUSH20 0x348FC3EF33373828E09270E9B2DC672EB5E5FDF8 PUSH20 0x0 PUSH4 0xE475AC5D PUSH1 0x40 MLOAD DUP2 PUSH4 0xFFFFFFFF AND PUSH1 0xE0 SHL DUP2 MSTORE PUSH1 0x4 ADD PUSH1 0x20 PUSH1 0x40 MLOAD DUP1 DUP4 SUB DUP2 DUP7 GAS DELEGATECALL ISZERO DUP1 ISZERO PUSH2 0x22B7 JUMPI RETURNDATASIZE PUSH1 0x0 DUP1 RETURNDATACOPY RETURNDATASIZE PUSH1 0x0 REVERT JUMPDEST POP POP POP POP PUSH1 0x40 MLOAD RETURNDATASIZE PUSH1 0x1F NOT PUSH1 0x1F DUP3 ADD AND DUP3 ADD DUP1 PUSH1 0x40 MSTORE POP DUP2 ADD SWAP1 PUSH2 0x22DB SWAP2 SWAP1 PUSH2 0x4B7F JUMP JUMPDEST PUSH1 0x40 MLOAD DUP4 PUSH4 0xFFFFFFFF AND PUSH1 0xE0 SHL DUP2 MSTORE PUSH1 0x4 ADD PUSH2 0x22F8 SWAP3 SWAP2 SWAP1 PUSH2 0x4BBB JUMP JUMPDEST PUSH1 0x0 PUSH1 0x40 MLOAD DUP1 DUP4 SUB DUP2 DUP7 DUP1 EXTCODESIZE ISZERO DUP1 ISZERO PUSH2 0x2310 JUMPI PUSH1 0x0 DUP1 REVERT JUMPDEST POP GAS DELEGATECALL ISZERO DUP1 ISZERO PUSH2 0x2324 JUMPI RETURNDATASIZE PUSH1 0x0 DUP1 RETURNDATACOPY RETURNDATASIZE PUSH1 0x0 REVERT JUMPDEST POP POP POP POP PUSH20 0x0 PUSH4 0xE5C6EB33 PUSH20 0x0 PUSH4 0x2E77468D PUSH1 0x40 MLOAD DUP2 PUSH4 0xFFFFFFFF AND PUSH1 0xE0 SHL DUP2 MSTORE PUSH1 0x4 ADD PUSH1 0x20 PUSH1 0x40 MLOAD DUP1 DUP4 SUB DUP2 DUP7 GAS DELEGATECALL ISZERO DUP1 ISZERO PUSH2 0x238B JUMPI RETURNDATASIZE PUSH1 0x0 DUP1 RETURNDATACOPY RETURNDATASIZE PUSH1 0x0 REVERT JUMPDEST POP POP POP POP PUSH1 0x40 MLOAD RETURNDATASIZE PUSH1 0x1F NOT PUSH1 0x1F DUP3 ADD AND DUP3 ADD DUP1 PUSH1 0x40 MSTORE POP DUP2 ADD SWAP1 PUSH2 0x23AF SWAP2 SWAP1 PUSH2 0x4B7F JUMP JUMPDEST PUSH32 0x50534D2D5041582D410000000000000000000000000000000000000000000000 PUSH20 0x348FC3EF33373828E09270E9B2DC672EB5E5FDF8 PUSH1 0x40 MLOAD DUP5 PUSH4 0xFFFFFFFF AND PUSH1 0xE0 SHL DUP2 MSTORE PUSH1 0x4 ADD PUSH2 0x2403 SWAP4 SWAP3 SWAP2 SWAP1 PUSH2 0x4F14 JUMP JUMPDEST PUSH1 0x0 PUSH1 0x40 MLOAD DUP1 DUP4 SUB DUP2 DUP7 DUP1 EXTCODESIZE ISZERO DUP1 ISZERO PUSH2 0x241B JUMPI PUSH1 0x0 DUP1 REVERT JUMPDEST POP GAS DELEGATECALL ISZERO DUP1 ISZERO PUSH2 0x242F JUMPI RETURNDATASIZE PUSH1 0x0 DUP1 RETURNDATACOPY RETURNDATASIZE PUSH1 0x0 REVERT JUMPDEST POP POP POP POP PUSH20 0x0 PUSH4 0xE9D8CCB8 PUSH20 0x348FC3EF33373828E09270E9B2DC672EB5E5FDF8 PUSH1 0x40 MLOAD DUP3 PUSH4 0xFFFFFFFF AND PUSH1 0xE0 SHL DUP2 MSTORE PUSH1 0x4 ADD PUSH2 0x247E SWAP2 SWAP1 PUSH2 0x4D47 JUMP JUMPDEST PUSH1 0x0 PUSH1 0x40 MLOAD DUP1 DUP4 SUB DUP2 DUP7 DUP1 EXTCODESIZE ISZERO DUP1 ISZERO PUSH2 0x2496 JUMPI PUSH1 0x0 DUP1 REVERT JUMPDEST POP GAS DELEGATECALL ISZERO DUP1 ISZERO PUSH2 0x24AA JUMPI RETURNDATASIZE PUSH1 0x0 DUP1 RETURNDATACOPY RETURNDATASIZE PUSH1 0x0 REVERT JUMPDEST POP POP POP POP PUSH20 0x0 PUSH4 0x268E5143 PUSH20 0x348FC3EF33373828E09270E9B2DC672EB5E5FDF8 PUSH20 0x0 PUSH4 0x2E77468D PUSH1 0x40 MLOAD DUP2 PUSH4 0xFFFFFFFF AND PUSH1 0xE0 SHL DUP2 MSTORE PUSH1 0x4 ADD PUSH1 0x20 PUSH1 0x40 MLOAD DUP1 DUP4 SUB DUP2 DUP7 GAS DELEGATECALL ISZERO DUP1 ISZERO PUSH2 0x2526 JUMPI RETURNDATASIZE PUSH1 0x0 DUP1 RETURNDATACOPY RETURNDATASIZE PUSH1 0x0 REVERT JUMPDEST POP POP POP POP PUSH1 0x40 MLOAD RETURNDATASIZE PUSH1 0x1F NOT PUSH1 0x1F DUP3 ADD AND DUP3 ADD DUP1 PUSH1 0x40 MSTORE POP DUP2 ADD SWAP1 PUSH2 0x254A SWAP2 SWAP1 PUSH2 0x4B7F JUMP JUMPDEST PUSH1 0x40 MLOAD DUP4 PUSH4 0xFFFFFFFF AND PUSH1 0xE0 SHL DUP2 MSTORE PUSH1 0x4 ADD PUSH2 0x2567 SWAP3 SWAP2 SWAP1 PUSH2 0x4BBB JUMP JUMPDEST PUSH1 0x0 PUSH1 0x40 MLOAD DUP1 DUP4 SUB DUP2 DUP7 DUP1 EXTCODESIZE ISZERO DUP1 ISZERO PUSH2 0x257F JUMPI PUSH1 0x0 DUP1 REVERT JUMPDEST POP GAS DELEGATECALL ISZERO DUP1 ISZERO PUSH2 0x2593 JUMPI RETURNDATASIZE PUSH1 0x0 DUP1 RETURNDATACOPY RETURNDATASIZE PUSH1 0x0 REVERT JUMPDEST POP POP POP POP PUSH20 0x0 PUSH4 0x268E5143 PUSH20 0x348FC3EF33373828E09270E9B2DC672EB5E5FDF8 PUSH20 0xBCB396CD139D1116BD89562B49B9D1D6C25378B0 PUSH1 0x40 MLOAD DUP4 PUSH4 0xFFFFFFFF AND PUSH1 0xE0 SHL DUP2 MSTORE PUSH1 0x4 ADD PUSH2 0x25F8 SWAP3 SWAP2 SWAP1 PUSH2 0x4BBB JUMP JUMPDEST PUSH1 0x0 PUSH1 0x40 MLOAD DUP1 DUP4 SUB DUP2 DUP7 DUP1 EXTCODESIZE ISZERO DUP1 ISZERO PUSH2 0x2610 JUMPI PUSH1 0x0 DUP1 REVERT JUMPDEST POP GAS DELEGATECALL ISZERO DUP1 ISZERO PUSH2 0x2624 JUMPI RETURNDATASIZE PUSH1 0x0 DUP1 RETURNDATACOPY RETURNDATASIZE PUSH1 0x0 REVERT JUMPDEST POP POP POP POP PUSH20 0x0 PUSH4 0x268E5143 PUSH20 0x348FC3EF33373828E09270E9B2DC672EB5E5FDF8 PUSH20 0x0 PUSH4 0x31E0B802 PUSH1 0x40 MLOAD DUP2 PUSH4 0xFFFFFFFF AND PUSH1 0xE0 SHL DUP2 MSTORE PUSH1 0x4 ADD PUSH1 0x20 PUSH1 0x40 MLOAD DUP1 DUP4 SUB DUP2 DUP7 GAS DELEGATECALL ISZERO DUP1 ISZERO PUSH2 0x26A0 JUMPI RETURNDATASIZE PUSH1 0x0 DUP1 RETURNDATACOPY RETURNDATASIZE PUSH1 0x0 REVERT JUMPDEST POP POP POP POP PUSH1 0x40 MLOAD RETURNDATASIZE PUSH1 0x1F NOT PUSH1 0x1F DUP3 ADD AND DUP3 ADD DUP1 PUSH1 0x40 MSTORE POP DUP2 ADD SWAP1 PUSH2 0x26C4 SWAP2 SWAP1 PUSH2 0x4B7F JUMP JUMPDEST PUSH1 0x40 MLOAD DUP4 PUSH4 0xFFFFFFFF AND PUSH1 0xE0 SHL DUP2 MSTORE PUSH1 0x4 ADD PUSH2 0x26E1 SWAP3 SWAP2 SWAP1 PUSH2 0x4BBB JUMP JUMPDEST PUSH1 0x0 PUSH1 0x40 MLOAD DUP1 DUP4 SUB DUP2 DUP7 DUP1 EXTCODESIZE ISZERO DUP1 ISZERO PUSH2 0x26F9 JUMPI PUSH1 0x0 DUP1 REVERT JUMPDEST POP GAS DELEGATECALL ISZERO DUP1 ISZERO PUSH2 0x270D JUMPI RETURNDATASIZE PUSH1 0x0 DUP1 RETURNDATACOPY RETURNDATASIZE PUSH1 0x0 REVERT JUMPDEST POP POP POP POP PUSH20 0x0 PUSH4 0x268E5143 PUSH20 0x348FC3EF33373828E09270E9B2DC672EB5E5FDF8 PUSH20 0x0 PUSH4 0xEFBE1C1C PUSH1 0x40 MLOAD DUP2 PUSH4 0xFFFFFFFF AND PUSH1 0xE0 SHL DUP2 MSTORE PUSH1 0x4 ADD PUSH1 0x20 PUSH1 0x40 MLOAD DUP1 DUP4 SUB DUP2 DUP7 GAS DELEGATECALL ISZERO DUP1 ISZERO PUSH2 0x2789 JUMPI RETURNDATASIZE PUSH1 0x0 DUP1 RETURNDATACOPY RETURNDATASIZE PUSH1 0x0 REVERT JUMPDEST POP POP POP POP PUSH1 0x40 MLOAD RETURNDATASIZE PUSH1 0x1F NOT PUSH1 0x1F DUP3 ADD AND DUP3 ADD DUP1 PUSH1 0x40 MSTORE POP DUP2 ADD SWAP1 PUSH2 0x27AD SWAP2 SWAP1 PUSH2 0x4B7F JUMP JUMPDEST PUSH1 0x40 MLOAD DUP4 PUSH4 0xFFFFFFFF AND PUSH1 0xE0 SHL DUP2 MSTORE PUSH1 0x4 ADD PUSH2 0x27CA SWAP3 SWAP2 SWAP1 PUSH2 0x4BBB JUMP JUMPDEST PUSH1 0x0 PUSH1 0x40 MLOAD DUP1 DUP4 SUB DUP2 DUP7 DUP1 EXTCODESIZE ISZERO DUP1 ISZERO PUSH2 0x27E2 JUMPI PUSH1 0x0 DUP1 REVERT JUMPDEST POP GAS DELEGATECALL ISZERO DUP1 ISZERO PUSH2 0x27F6 JUMPI RETURNDATASIZE PUSH1 0x0 DUP1 RETURNDATACOPY RETURNDATASIZE PUSH1 0x0 REVERT JUMPDEST POP POP POP POP PUSH20 0x0 PUSH4 0x89C32076 PUSH20 0x348FC3EF33373828E09270E9B2DC672EB5E5FDF8 PUSH32 0x5041585553442D41000000000000000000000000000000000000000000000000 PUSH1 0x40 MLOAD DUP4 PUSH4 0xFFFFFFFF AND PUSH1 0xE0 SHL DUP2 MSTORE PUSH1 0x4 ADD PUSH2 0x2867 SWAP3 SWAP2 SWAP1 PUSH2 0x4F57 JUMP JUMPDEST PUSH1 0x0 PUSH1 0x40 MLOAD DUP1 DUP4 SUB DUP2 DUP7 DUP1 EXTCODESIZE ISZERO DUP1 ISZERO PUSH2 0x287F JUMPI PUSH1 0x0 DUP1 REVERT JUMPDEST POP GAS DELEGATECALL ISZERO DUP1 ISZERO PUSH2 0x2893 JUMPI RETURNDATASIZE PUSH1 0x0 DUP1 RETURNDATACOPY RETURNDATASIZE PUSH1 0x0 REVERT JUMPDEST POP POP POP POP PUSH20 0x0 PUSH4 0x89C32076 PUSH20 0x348FC3EF33373828E09270E9B2DC672EB5E5FDF8 PUSH32 0x50534D2D5041582D410000000000000000000000000000000000000000000000 PUSH1 0x40 MLOAD DUP4 PUSH4 0xFFFFFFFF AND PUSH1 0xE0 SHL DUP2 MSTORE PUSH1 0x4 ADD PUSH2 0x2904 SWAP3 SWAP2 SWAP1 PUSH2 0x4F80 JUMP JUMPDEST PUSH1 0x0 PUSH1 0x40 MLOAD DUP1 DUP4 SUB DUP2 DUP7 DUP1 EXTCODESIZE ISZERO DUP1 ISZERO PUSH2 0x291C JUMPI PUSH1 0x0 DUP1 REVERT JUMPDEST POP GAS DELEGATECALL ISZERO DUP1 ISZERO PUSH2 0x2930 JUMPI RETURNDATASIZE PUSH1 0x0 DUP1 RETURNDATACOPY RETURNDATASIZE PUSH1 0x0 REVERT JUMPDEST POP POP POP POP PUSH20 0x0 PUSH4 0xDFE425B9 PUSH20 0x348FC3EF33373828E09270E9B2DC672EB5E5FDF8 PUSH20 0xFFFFFFFFFFFFFFFFFFFFFFFFFFFFFFFFFFFFFFFF AND PUSH4 0x2E7DC6AF PUSH1 0x40 MLOAD DUP2 PUSH4 0xFFFFFFFF AND PUSH1 0xE0 SHL DUP2 MSTORE PUSH1 0x4 ADD PUSH1 0x20 PUSH1 0x40 MLOAD DUP1 DUP4 SUB DUP2 DUP7 GAS STATICCALL ISZERO DUP1 ISZERO PUSH2 0x29AD JUMPI RETURNDATASIZE PUSH1 0x0 DUP1 RETURNDATACOPY RETURNDATASIZE PUSH1 0x0 REVERT JUMPDEST POP POP POP POP PUSH1 0x40 MLOAD RETURNDATASIZE PUSH1 0x1F NOT PUSH1 0x1F DUP3 ADD AND DUP3 ADD DUP1 PUSH1 0x40 MSTORE POP DUP2 ADD SWAP1 PUSH2 0x29D1 SWAP2 SWAP1 PUSH2 0x4B7F JUMP JUMPDEST PUSH20 0x348FC3EF33373828E09270E9B2DC672EB5E5FDF8 PUSH1 0x40 MLOAD DUP4 PUSH4 0xFFFFFFFF AND PUSH1 0xE0 SHL DUP2 MSTORE PUSH1 0x4 ADD PUSH2 0x2A03 SWAP3 SWAP2 SWAP1 PUSH2 0x4BBB JUMP JUMPDEST PUSH1 0x0 PUSH1 0x40 MLOAD DUP1 DUP4 SUB DUP2 DUP7 DUP1 EXTCODESIZE ISZERO DUP1 ISZERO PUSH2 0x2A1B JUMPI PUSH1 0x0 DUP1 REVERT JUMPDEST POP GAS DELEGATECALL ISZERO DUP1 ISZERO PUSH2 0x2A2F JUMPI RETURNDATASIZE PUSH1 0x0 DUP1 RETURNDATACOPY RETURNDATASIZE PUSH1 0x0 REVERT JUMPDEST POP POP POP POP PUSH20 0xBED0879953E633135A48A157718AA791AC0108E4 PUSH20 0xFFFFFFFFFFFFFFFFFFFFFFFFFFFFFFFFFFFFFFFF AND PUSH4 0x1E77933E PUSH20 0x1694676AA992D3C6AB859D6D9D2E7BC448F4332B PUSH1 0x40 MLOAD DUP3 PUSH4 0xFFFFFFFF AND PUSH1 0xE0 SHL DUP2 MSTORE PUSH1 0x4 ADD PUSH2 0x2A94 SWAP2 SWAP1 PUSH2 0x4BF3 JUMP JUMPDEST PUSH1 0x0 PUSH1 0x40 MLOAD DUP1 DUP4 SUB DUP2 PUSH1 0x0 DUP8 DUP1 EXTCODESIZE ISZERO DUP1 ISZERO PUSH2 0x2AAE JUMPI PUSH1 0x0 DUP1 REVERT JUMPDEST POP GAS CALL ISZERO DUP1 ISZERO PUSH2 0x2AC2 JUMPI RETURNDATASIZE PUSH1 0x0 DUP1 RETURNDATACOPY RETURNDATASIZE PUSH1 0x0 REVERT JUMPDEST POP POP POP POP PUSH20 0x0 PUSH4 0xDFE425B9 PUSH20 0xBED0879953E633135A48A157718AA791AC0108E4 PUSH20 0xFFFFFFFFFFFFFFFFFFFFFFFFFFFFFFFFFFFFFFFF AND PUSH4 0x2E7DC6AF PUSH1 0x40 MLOAD DUP2 PUSH4 0xFFFFFFFF AND PUSH1 0xE0 SHL DUP2 MSTORE PUSH1 0x4 ADD PUSH1 0x20 PUSH1 0x40 MLOAD DUP1 DUP4 SUB DUP2 DUP7 GAS STATICCALL ISZERO DUP1 ISZERO PUSH2 0x2B3F JUMPI RETURNDATASIZE PUSH1 0x0 DUP1 RETURNDATACOPY RETURNDATASIZE PUSH1 0x0 REVERT JUMPDEST POP POP POP POP PUSH1 0x40 MLOAD RETURNDATASIZE PUSH1 0x1F NOT PUSH1 0x1F DUP3 ADD AND DUP3 ADD DUP1 PUSH1 0x40 MSTORE POP DUP2 ADD SWAP1 PUSH2 0x2B63 SWAP2 SWAP1 PUSH2 0x4B7F JUMP JUMPDEST PUSH20 0xBED0879953E633135A48A157718AA791AC0108E4 PUSH1 0x40 MLOAD DUP4 PUSH4 0xFFFFFFFF AND PUSH1 0xE0 SHL DUP2 MSTORE PUSH1 0x4 ADD PUSH2 0x2B95 SWAP3 SWAP2 SWAP1 PUSH2 0x4BBB JUMP JUMPDEST PUSH1 0x0 PUSH1 0x40 MLOAD DUP1 DUP4 SUB DUP2 DUP7 DUP1 EXTCODESIZE ISZERO DUP1 ISZERO PUSH2 0x2BAD JUMPI PUSH1 0x0 DUP1 REVERT JUMPDEST POP GAS DELEGATECALL ISZERO DUP1 ISZERO PUSH2 0x2BC1 JUMPI RETURNDATASIZE PUSH1 0x0 DUP1 RETURNDATACOPY RETURNDATASIZE PUSH1 0x0 REVERT JUMPDEST POP POP POP POP PUSH20 0x9EB923339C24C40BEF2F4AF4961742AA7C23EF3A PUSH20 0xFFFFFFFFFFFFFFFFFFFFFFFFFFFFFFFFFFFFFFFF AND PUSH4 0x1E77933E PUSH20 0x8F8CDD12D5F0EC99B1314C37446EBC50481A16C5 PUSH1 0x40 MLOAD DUP3 PUSH4 0xFFFFFFFF AND PUSH1 0xE0 SHL DUP2 MSTORE PUSH1 0x4 ADD PUSH2 0x2C26 SWAP2 SWAP1 PUSH2 0x4BF3 JUMP JUMPDEST PUSH1 0x0 PUSH1 0x40 MLOAD DUP1 DUP4 SUB DUP2 PUSH1 0x0 DUP8 DUP1 EXTCODESIZE ISZERO DUP1 ISZERO PUSH2 0x2C40 JUMPI PUSH1 0x0 DUP1 REVERT JUMPDEST POP GAS CALL ISZERO DUP1 ISZERO PUSH2 0x2C54 JUMPI RETURNDATASIZE PUSH1 0x0 DUP1 RETURNDATACOPY RETURNDATASIZE PUSH1 0x0 REVERT JUMPDEST POP POP POP POP PUSH20 0x0 PUSH4 0xDFE425B9 PUSH20 0x9EB923339C24C40BEF2F4AF4961742AA7C23EF3A PUSH20 0xFFFFFFFFFFFFFFFFFFFFFFFFFFFFFFFFFFFFFFFF AND PUSH4 0x2E7DC6AF PUSH1 0x40 MLOAD DUP2 PUSH4 0xFFFFFFFF AND PUSH1 0xE0 SHL DUP2 MSTORE PUSH1 0x4 ADD PUSH1 0x20 PUSH1 0x40 MLOAD DUP1 DUP4 SUB DUP2 DUP7 GAS STATICCALL ISZERO DUP1 ISZERO PUSH2 0x2CD1 JUMPI RETURNDATASIZE PUSH1 0x0 DUP1 RETURNDATACOPY RETURNDATASIZE PUSH1 0x0 REVERT JUMPDEST POP POP POP POP PUSH1 0x40 MLOAD RETURNDATASIZE PUSH1 0x1F NOT PUSH1 0x1F DUP3 ADD AND DUP3 ADD DUP1 PUSH1 0x40 MSTORE POP DUP2 ADD SWAP1 PUSH2 0x2CF5 SWAP2 SWAP1 PUSH2 0x4B7F JUMP JUMPDEST PUSH20 0x9EB923339C24C40BEF2F4AF4961742AA7C23EF3A PUSH1 0x40 MLOAD DUP4 PUSH4 0xFFFFFFFF AND PUSH1 0xE0 SHL DUP2 MSTORE PUSH1 0x4 ADD PUSH2 0x2D27 SWAP3 SWAP2 SWAP1 PUSH2 0x4BBB JUMP JUMPDEST PUSH1 0x0 PUSH1 0x40 MLOAD DUP1 DUP4 SUB DUP2 DUP7 DUP1 EXTCODESIZE ISZERO DUP1 ISZERO PUSH2 0x2D3F JUMPI PUSH1 0x0 DUP1 REVERT JUMPDEST POP GAS DELEGATECALL ISZERO DUP1 ISZERO PUSH2 0x2D53 JUMPI RETURNDATASIZE PUSH1 0x0 DUP1 RETURNDATACOPY RETURNDATASIZE PUSH1 0x0 REVERT JUMPDEST POP POP POP POP PUSH20 0x9B0C694C6939B5EA9584E9B61C7815E8D97D9CC7 PUSH20 0xFFFFFFFFFFFFFFFFFFFFFFFFFFFFFFFFFFFFFFFF AND PUSH4 0x1E77933E PUSH20 0xB11EDC36668F5509EFE8A563CFA9E7A5A302003E PUSH1 0x40 MLOAD DUP3 PUSH4 0xFFFFFFFF AND PUSH1 0xE0 SHL DUP2 MSTORE PUSH1 0x4 ADD PUSH2 0x2DB8 SWAP2 SWAP1 PUSH2 0x4BF3 JUMP JUMPDEST PUSH1 0x0 PUSH1 0x40 MLOAD DUP1 DUP4 SUB DUP2 PUSH1 0x0 DUP8 DUP1 EXTCODESIZE ISZERO DUP1 ISZERO PUSH2 0x2DD2 JUMPI PUSH1 0x0 DUP1 REVERT JUMPDEST POP GAS CALL ISZERO DUP1 ISZERO PUSH2 0x2DE6 JUMPI RETURNDATASIZE PUSH1 0x0 DUP1 RETURNDATACOPY RETURNDATASIZE PUSH1 0x0 REVERT JUMPDEST POP POP POP POP PUSH20 0x0 PUSH4 0xDFE425B9 PUSH20 0x9B0C694C6939B5EA9584E9B61C7815E8D97D9CC7 PUSH20 0xFFFFFFFFFFFFFFFFFFFFFFFFFFFFFFFFFFFFFFFF AND PUSH4 0x2E7DC6AF PUSH1 0x40 MLOAD DUP2 PUSH4 0xFFFFFFFF AND PUSH1 0xE0 SHL DUP2 MSTORE PUSH1 0x4 ADD PUSH1 0x20 PUSH1 0x40 MLOAD DUP1 DUP4 SUB DUP2 DUP7 GAS STATICCALL ISZERO DUP1 ISZERO PUSH2 0x2E63 JUMPI RETURNDATASIZE PUSH1 0x0 DUP1 RETURNDATACOPY RETURNDATASIZE PUSH1 0x0 REVERT JUMPDEST POP POP POP POP PUSH1 0x40 MLOAD RETURNDATASIZE PUSH1 0x1F NOT PUSH1 0x1F DUP3 ADD AND DUP3 ADD DUP1 PUSH1 0x40 MSTORE POP DUP2 ADD SWAP1 PUSH2 0x2E87 SWAP2 SWAP1 PUSH2 0x4B7F JUMP JUMPDEST PUSH20 0x9B0C694C6939B5EA9584E9B61C7815E8D97D9CC7 PUSH1 0x40 MLOAD DUP4 PUSH4 0xFFFFFFFF AND PUSH1 0xE0 SHL DUP2 MSTORE PUSH1 0x4 ADD PUSH2 0x2EB9 SWAP3 SWAP2 SWAP1 PUSH2 0x4BBB JUMP JUMPDEST PUSH1 0x0 PUSH1 0x40 MLOAD DUP1 DUP4 SUB DUP2 DUP7 DUP1 EXTCODESIZE ISZERO DUP1 ISZERO PUSH2 0x2ED1 JUMPI PUSH1 0x0 DUP1 REVERT JUMPDEST POP GAS DELEGATECALL ISZERO DUP1 ISZERO PUSH2 0x2EE5 JUMPI RETURNDATASIZE PUSH1 0x0 DUP1 RETURNDATACOPY RETURNDATASIZE PUSH1 0x0 REVERT JUMPDEST POP POP POP POP PUSH20 0x3FF860C0F28D69F392543A16A397D0DAE85D16DE PUSH20 0xFFFFFFFFFFFFFFFFFFFFFFFFFFFFFFFFFFFFFFFF AND PUSH4 0x1E77933E PUSH20 0x3882C9A2D251A972312E411BCB7E0D9C79788E8A PUSH1 0x40 MLOAD DUP3 PUSH4 0xFFFFFFFF AND PUSH1 0xE0 SHL DUP2 MSTORE PUSH1 0x4 ADD PUSH2 0x2F4A SWAP2 SWAP1 PUSH2 0x4BF3 JUMP JUMPDEST PUSH1 0x0 PUSH1 0x40 MLOAD DUP1 DUP4 SUB DUP2 PUSH1 0x0 DUP8 DUP1 EXTCODESIZE ISZERO DUP1 ISZERO PUSH2 0x2F64 JUMPI PUSH1 0x0 DUP1 REVERT JUMPDEST POP GAS CALL ISZERO DUP1 ISZERO PUSH2 0x2F78 JUMPI RETURNDATASIZE PUSH1 0x0 DUP1 RETURNDATACOPY RETURNDATASIZE PUSH1 0x0 REVERT JUMPDEST POP POP POP POP PUSH20 0x0 PUSH4 0xDFE425B9 PUSH20 0x3FF860C0F28D69F392543A16A397D0DAE85D16DE PUSH20 0xFFFFFFFFFFFFFFFFFFFFFFFFFFFFFFFFFFFFFFFF AND PUSH4 0x2E7DC6AF PUSH1 0x40 MLOAD DUP2 PUSH4 0xFFFFFFFF AND PUSH1 0xE0 SHL DUP2 MSTORE PUSH1 0x4 ADD PUSH1 0x20 PUSH1 0x40 MLOAD DUP1 DUP4 SUB DUP2 DUP7 GAS STATICCALL ISZERO DUP1 ISZERO PUSH2 0x2FF5 JUMPI RETURNDATASIZE PUSH1 0x0 DUP1 RETURNDATACOPY RETURNDATASIZE PUSH1 0x0 REVERT JUMPDEST POP POP POP POP PUSH1 0x40 MLOAD RETURNDATASIZE PUSH1 0x1F NOT PUSH1 0x1F DUP3 ADD AND DUP3 ADD DUP1 PUSH1 0x40 MSTORE POP DUP2 ADD SWAP1 PUSH2 0x3019 SWAP2 SWAP1 PUSH2 0x4B7F JUMP JUMPDEST PUSH20 0x3FF860C0F28D69F392543A16A397D0DAE85D16DE PUSH1 0x40 MLOAD DUP4 PUSH4 0xFFFFFFFF AND PUSH1 0xE0 SHL DUP2 MSTORE PUSH1 0x4 ADD PUSH2 0x304B SWAP3 SWAP2 SWAP1 PUSH2 0x4BBB JUMP JUMPDEST PUSH1 0x0 PUSH1 0x40 MLOAD DUP1 DUP4 SUB DUP2 DUP7 DUP1 EXTCODESIZE ISZERO DUP1 ISZERO PUSH2 0x3063 JUMPI PUSH1 0x0 DUP1 REVERT JUMPDEST POP GAS DELEGATECALL ISZERO DUP1 ISZERO PUSH2 0x3077 JUMPI RETURNDATASIZE PUSH1 0x0 DUP1 RETURNDATACOPY RETURNDATASIZE PUSH1 0x0 REVERT JUMPDEST POP POP POP POP PUSH20 0x5F122465BCF86F45922036970BE6DD7F58820214 PUSH20 0xFFFFFFFFFFFFFFFFFFFFFFFFFFFFFFFFFFFFFFFF AND PUSH4 0x1E77933E PUSH20 0x5BDF3B8FB8476F8250420B95E09C5C900A67EBE8 PUSH1 0x40 MLOAD DUP3 PUSH4 0xFFFFFFFF AND PUSH1 0xE0 SHL DUP2 MSTORE PUSH1 0x4 ADD PUSH2 0x30DC SWAP2 SWAP1 PUSH2 0x4BF3 JUMP JUMPDEST PUSH1 0x0 PUSH1 0x40 MLOAD DUP1 DUP4 SUB DUP2 PUSH1 0x0 DUP8 DUP1 EXTCODESIZE ISZERO DUP1 ISZERO PUSH2 0x30F6 JUMPI PUSH1 0x0 DUP1 REVERT JUMPDEST POP GAS CALL ISZERO DUP1 ISZERO PUSH2 0x310A JUMPI RETURNDATASIZE PUSH1 0x0 DUP1 RETURNDATACOPY RETURNDATASIZE PUSH1 0x0 REVERT JUMPDEST POP POP POP POP PUSH20 0x0 PUSH4 0xDFE425B9 PUSH20 0x5F122465BCF86F45922036970BE6DD7F58820214 PUSH20 0xFFFFFFFFFFFFFFFFFFFFFFFFFFFFFFFFFFFFFFFF AND PUSH4 0x2E7DC6AF PUSH1 0x40 MLOAD DUP2 PUSH4 0xFFFFFFFF AND PUSH1 0xE0 SHL DUP2 MSTORE PUSH1 0x4 ADD PUSH1 0x20 PUSH1 0x40 MLOAD DUP1 DUP4 SUB DUP2 DUP7 GAS STATICCALL ISZERO DUP1 ISZERO PUSH2 0x3187 JUMPI RETURNDATASIZE PUSH1 0x0 DUP1 RETURNDATACOPY RETURNDATASIZE PUSH1 0x0 REVERT JUMPDEST POP POP POP POP PUSH1 0x40 MLOAD RETURNDATASIZE PUSH1 0x1F NOT PUSH1 0x1F DUP3 ADD AND DUP3 ADD DUP1 PUSH1 0x40 MSTORE POP DUP2 ADD SWAP1 PUSH2 0x31AB SWAP2 SWAP1 PUSH2 0x4B7F JUMP JUMPDEST PUSH20 0x5F122465BCF86F45922036970BE6DD7F58820214 PUSH1 0x40 MLOAD DUP4 PUSH4 0xFFFFFFFF AND PUSH1 0xE0 SHL DUP2 MSTORE PUSH1 0x4 ADD PUSH2 0x31DD SWAP3 SWAP2 SWAP1 PUSH2 0x4BBB JUMP JUMPDEST PUSH1 0x0 PUSH1 0x40 MLOAD DUP1 DUP4 SUB DUP2 DUP7 DUP1 EXTCODESIZE ISZERO DUP1 ISZERO PUSH2 0x31F5 JUMPI PUSH1 0x0 DUP1 REVERT JUMPDEST POP GAS DELEGATECALL ISZERO DUP1 ISZERO PUSH2 0x3209 JUMPI RETURNDATASIZE PUSH1 0x0 DUP1 RETURNDATACOPY RETURNDATASIZE PUSH1 0x0 REVERT JUMPDEST POP POP POP POP PUSH20 0x0 PUSH4 0xE5C6EB33 PUSH20 0x0 PUSH4 0x2E77468D PUSH1 0x40 MLOAD DUP2 PUSH4 0xFFFFFFFF AND PUSH1 0xE0 SHL DUP2 MSTORE PUSH1 0x4 ADD PUSH1 0x20 PUSH1 0x40 MLOAD DUP1 DUP4 SUB DUP2 DUP7 GAS DELEGATECALL ISZERO DUP1 ISZERO PUSH2 0x3270 JUMPI RETURNDATASIZE PUSH1 0x0 DUP1 RETURNDATACOPY RETURNDATASIZE PUSH1 0x0 REVERT JUMPDEST POP POP POP POP PUSH1 0x40 MLOAD RETURNDATASIZE PUSH1 0x1F NOT PUSH1 0x1F DUP3 ADD AND DUP3 ADD DUP1 PUSH1 0x40 MSTORE POP DUP2 ADD SWAP1 PUSH2 0x3294 SWAP2 SWAP1 PUSH2 0x4B7F JUMP JUMPDEST PUSH32 0x475553442D410000000000000000000000000000000000000000000000000000 PUSH20 0x828169221293CB90D747B17341B7B7B20E58E039 PUSH1 0x40 MLOAD DUP5 PUSH4 0xFFFFFFFF AND PUSH1 0xE0 SHL DUP2 MSTORE PUSH1 0x4 ADD PUSH2 0x32E8 SWAP4 SWAP3 SWAP2 SWAP1 PUSH2 0x4FE4 JUMP JUMPDEST PUSH1 0x0 PUSH1 0x40 MLOAD DUP1 DUP4 SUB DUP2 DUP7 DUP1 EXTCODESIZE ISZERO DUP1 ISZERO PUSH2 0x3300 JUMPI PUSH1 0x0 DUP1 REVERT JUMPDEST POP GAS DELEGATECALL ISZERO DUP1 ISZERO PUSH2 0x3314 JUMPI RETURNDATASIZE PUSH1 0x0 DUP1 RETURNDATACOPY RETURNDATASIZE PUSH1 0x0 REVERT JUMPDEST POP POP POP POP PUSH20 0x0 PUSH4 0x2BEF4595 PUSH20 0x828169221293CB90D747B17341B7B7B20E58E039 PUSH20 0x0 PUSH4 0xE475AC5D PUSH1 0x40 MLOAD DUP2 PUSH4 0xFFFFFFFF AND PUSH1 0xE0 SHL DUP2 MSTORE PUSH1 0x4 ADD PUSH1 0x20 PUSH1 0x40 MLOAD DUP1 DUP4 SUB DUP2 DUP7 GAS DELEGATECALL ISZERO DUP1 ISZERO PUSH2 0x3390 JUMPI RETURNDATASIZE PUSH1 0x0 DUP1 RETURNDATACOPY RETURNDATASIZE PUSH1 0x0 REVERT JUMPDEST POP POP POP POP PUSH1 0x40 MLOAD RETURNDATASIZE PUSH1 0x1F NOT PUSH1 0x1F DUP3 ADD AND DUP3 ADD DUP1 PUSH1 0x40 MSTORE POP DUP2 ADD SWAP1 PUSH2 0x33B4 SWAP2 SWAP1 PUSH2 0x4B7F JUMP JUMPDEST PUSH1 0x40 MLOAD DUP4 PUSH4 0xFFFFFFFF AND PUSH1 0xE0 SHL DUP2 MSTORE PUSH1 0x4 ADD PUSH2 0x33D1 SWAP3 SWAP2 SWAP1 PUSH2 0x4BBB JUMP JUMPDEST PUSH1 0x0 PUSH1 0x40 MLOAD DUP1 DUP4 SUB DUP2 DUP7 DUP1 EXTCODESIZE ISZERO DUP1 ISZERO PUSH2 0x33E9 JUMPI PUSH1 0x0 DUP1 REVERT JUMPDEST POP GAS DELEGATECALL ISZERO DUP1 ISZERO PUSH2 0x33FD JUMPI RETURNDATASIZE PUSH1 0x0 DUP1 RETURNDATACOPY RETURNDATASIZE PUSH1 0x0 REVERT JUMPDEST POP POP POP POP PUSH20 0x0 PUSH4 0x268E5143 PUSH20 0x828169221293CB90D747B17341B7B7B20E58E039 PUSH20 0xA47D68B9DB0A0361284FA04BA40623FCBD1A263E PUSH1 0x40 MLOAD DUP4 PUSH4 0xFFFFFFFF AND PUSH1 0xE0 SHL DUP2 MSTORE PUSH1 0x4 ADD PUSH2 0x3462 SWAP3 SWAP2 SWAP1 PUSH2 0x4BBB JUMP JUMPDEST PUSH1 0x0 PUSH1 0x40 MLOAD DUP1 DUP4 SUB DUP2 DUP7 DUP1 EXTCODESIZE ISZERO DUP1 ISZERO PUSH2 0x347A JUMPI PUSH1 0x0 DUP1 REVERT JUMPDEST POP GAS DELEGATECALL ISZERO DUP1 ISZERO PUSH2 0x348E JUMPI RETURNDATASIZE PUSH1 0x0 DUP1 RETURNDATACOPY RETURNDATASIZE PUSH1 0x0 REVERT JUMPDEST POP POP POP POP PUSH20 0x0 PUSH4 0x89C32076 PUSH20 0x828169221293CB90D747B17341B7B7B20E58E039 PUSH32 0x475553442D410000000000000000000000000000000000000000000000000000 PUSH1 0x40 MLOAD DUP4 PUSH4 0xFFFFFFFF AND PUSH1 0xE0 SHL DUP2 MSTORE PUSH1 0x4 ADD PUSH2 0x34FF SWAP3 SWAP2 SWAP1 PUSH2 0x5027 JUMP JUMPDEST PUSH1 0x0 PUSH1 0x40 MLOAD DUP1 DUP4 SUB DUP2 DUP7 DUP1 EXTCODESIZE ISZERO DUP1 ISZERO PUSH2 0x3517 JUMPI PUSH1 0x0 DUP1 REVERT JUMPDEST POP GAS DELEGATECALL ISZERO DUP1 ISZERO PUSH2 0x352B JUMPI RETURNDATASIZE PUSH1 0x0 DUP1 RETURNDATACOPY RETURNDATASIZE PUSH1 0x0 REVERT JUMPDEST POP POP POP POP PUSH20 0x0 PUSH4 0xE5C6EB33 PUSH20 0x0 PUSH4 0x2E77468D PUSH1 0x40 MLOAD DUP2 PUSH4 0xFFFFFFFF AND PUSH1 0xE0 SHL DUP2 MSTORE PUSH1 0x4 ADD PUSH1 0x20 PUSH1 0x40 MLOAD DUP1 DUP4 SUB DUP2 DUP7 GAS DELEGATECALL ISZERO DUP1 ISZERO PUSH2 0x3592 JUMPI RETURNDATASIZE PUSH1 0x0 DUP1 RETURNDATACOPY RETURNDATASIZE PUSH1 0x0 REVERT JUMPDEST POP POP POP POP PUSH1 0x40 MLOAD RETURNDATASIZE PUSH1 0x1F NOT PUSH1 0x1F DUP3 ADD AND DUP3 ADD DUP1 PUSH1 0x40 MSTORE POP DUP2 ADD SWAP1 PUSH2 0x35B6 SWAP2 SWAP1 PUSH2 0x4B7F JUMP JUMPDEST PUSH32 0x50534D2D475553442D4100000000000000000000000000000000000000000000 PUSH20 0x828169221293CB90D747B17341B7B7B20E58E039 PUSH1 0x40 MLOAD DUP5 PUSH4 0xFFFFFFFF AND PUSH1 0xE0 SHL DUP2 MSTORE PUSH1 0x4 ADD PUSH2 0x360A SWAP4 SWAP3 SWAP2 SWAP1 PUSH2 0x508B JUMP JUMPDEST PUSH1 0x0 PUSH1 0x40 MLOAD DUP1 DUP4 SUB DUP2 DUP7 DUP1 EXTCODESIZE ISZERO DUP1 ISZERO PUSH2 0x3622 JUMPI PUSH1 0x0 DUP1 REVERT JUMPDEST POP GAS DELEGATECALL ISZERO DUP1 ISZERO PUSH2 0x3636 JUMPI RETURNDATASIZE PUSH1 0x0 DUP1 RETURNDATACOPY RETURNDATASIZE PUSH1 0x0 REVERT JUMPDEST POP POP POP POP PUSH20 0x0 PUSH4 0x2BEF4595 PUSH20 0x828169221293CB90D747B17341B7B7B20E58E039 PUSH20 0x0 PUSH4 0xE475AC5D PUSH1 0x40 MLOAD DUP2 PUSH4 0xFFFFFFFF AND PUSH1 0xE0 SHL DUP2 MSTORE PUSH1 0x4 ADD PUSH1 0x20 PUSH1 0x40 MLOAD DUP1 DUP4 SUB DUP2 DUP7 GAS DELEGATECALL ISZERO DUP1 ISZERO PUSH2 0x36B2 JUMPI RETURNDATASIZE PUSH1 0x0 DUP1 RETURNDATACOPY RETURNDATASIZE PUSH1 0x0 REVERT JUMPDEST POP POP POP POP PUSH1 0x40 MLOAD RETURNDATASIZE PUSH1 0x1F NOT PUSH1 0x1F DUP3 ADD AND DUP3 ADD DUP1 PUSH1 0x40 MSTORE POP DUP2 ADD SWAP1 PUSH2 0x36D6 SWAP2 SWAP1 PUSH2 0x4B7F JUMP JUMPDEST PUSH1 0x40 MLOAD DUP4 PUSH4 0xFFFFFFFF AND PUSH1 0xE0 SHL DUP2 MSTORE PUSH1 0x4 ADD PUSH2 0x36F3 SWAP3 SWAP2 SWAP1 PUSH2 0x4BBB JUMP JUMPDEST PUSH1 0x0 PUSH1 0x40 MLOAD DUP1 DUP4 SUB DUP2 DUP7 DUP1 EXTCODESIZE ISZERO DUP1 ISZERO PUSH2 0x370B JUMPI PUSH1 0x0 DUP1 REVERT JUMPDEST POP GAS DELEGATECALL ISZERO DUP1 ISZERO PUSH2 0x371F JUMPI RETURNDATASIZE PUSH1 0x0 DUP1 RETURNDATACOPY RETURNDATASIZE PUSH1 0x0 REVERT JUMPDEST POP POP POP POP PUSH20 0x0 PUSH4 0xE9D8CCB8 PUSH20 0x828169221293CB90D747B17341B7B7B20E58E039 PUSH1 0x40 MLOAD DUP3 PUSH4 0xFFFFFFFF AND PUSH1 0xE0 SHL DUP2 MSTORE PUSH1 0x4 ADD PUSH2 0x376E SWAP2 SWAP1 PUSH2 0x4D47 JUMP JUMPDEST PUSH1 0x0 PUSH1 0x40 MLOAD DUP1 DUP4 SUB DUP2 DUP7 DUP1 EXTCODESIZE ISZERO DUP1 ISZERO PUSH2 0x3786 JUMPI PUSH1 0x0 DUP1 REVERT JUMPDEST POP GAS DELEGATECALL ISZERO DUP1 ISZERO PUSH2 0x379A JUMPI RETURNDATASIZE PUSH1 0x0 DUP1 RETURNDATACOPY RETURNDATASIZE PUSH1 0x0 REVERT JUMPDEST POP POP POP POP PUSH20 0x0 PUSH4 0x268E5143 PUSH20 0x828169221293CB90D747B17341B7B7B20E58E039 PUSH20 0x0 PUSH4 0x2E77468D PUSH1 0x40 MLOAD DUP2 PUSH4 0xFFFFFFFF AND PUSH1 0xE0 SHL DUP2 MSTORE PUSH1 0x4 ADD PUSH1 0x20 PUSH1 0x40 MLOAD DUP1 DUP4 SUB DUP2 DUP7 GAS DELEGATECALL ISZERO DUP1 ISZERO PUSH2 0x3816 JUMPI RETURNDATASIZE PUSH1 0x0 DUP1 RETURNDATACOPY RETURNDATASIZE PUSH1 0x0 REVERT JUMPDEST POP POP POP POP PUSH1 0x40 MLOAD RETURNDATASIZE PUSH1 0x1F NOT PUSH1 0x1F DUP3 ADD AND DUP3 ADD DUP1 PUSH1 0x40 MSTORE POP DUP2 ADD SWAP1 PUSH2 0x383A SWAP2 SWAP1 PUSH2 0x4B7F JUMP JUMPDEST PUSH1 0x40 MLOAD DUP4 PUSH4 0xFFFFFFFF AND PUSH1 0xE0 SHL DUP2 MSTORE PUSH1 0x4 ADD PUSH2 0x3857 SWAP3 SWAP2 SWAP1 PUSH2 0x4BBB JUMP JUMPDEST PUSH1 0x0 PUSH1 0x40 MLOAD DUP1 DUP4 SUB DUP2 DUP7 DUP1 EXTCODESIZE ISZERO DUP1 ISZERO PUSH2 0x386F JUMPI PUSH1 0x0 DUP1 REVERT JUMPDEST POP GAS DELEGATECALL ISZERO DUP1 ISZERO PUSH2 0x3883 JUMPI RETURNDATASIZE PUSH1 0x0 DUP1 RETURNDATACOPY RETURNDATASIZE PUSH1 0x0 REVERT JUMPDEST POP POP POP POP PUSH20 0x0 PUSH4 0x268E5143 PUSH20 0x828169221293CB90D747B17341B7B7B20E58E039 PUSH20 0xF93CC3A50F450ED245E003BFECC8A6EC1732B0B2 PUSH1 0x40 MLOAD DUP4 PUSH4 0xFFFFFFFF AND PUSH1 0xE0 SHL DUP2 MSTORE PUSH1 0x4 ADD PUSH2 0x38E8 SWAP3 SWAP2 SWAP1 PUSH2 0x4BBB JUMP JUMPDEST PUSH1 0x0 PUSH1 0x40 MLOAD DUP1 DUP4 SUB DUP2 DUP7 DUP1 EXTCODESIZE ISZERO DUP1 ISZERO PUSH2 0x3900 JUMPI PUSH1 0x0 DUP1 REVERT JUMPDEST POP GAS DELEGATECALL ISZERO DUP1 ISZERO PUSH2 0x3914 JUMPI RETURNDATASIZE PUSH1 0x0 DUP1 RETURNDATACOPY RETURNDATASIZE PUSH1 0x0 REVERT JUMPDEST POP POP POP POP PUSH20 0x0 PUSH4 0x268E5143 PUSH20 0x828169221293CB90D747B17341B7B7B20E58E039 PUSH20 0x0 PUSH4 0x31E0B802 PUSH1 0x40 MLOAD DUP2 PUSH4 0xFFFFFFFF AND PUSH1 0xE0 SHL DUP2 MSTORE PUSH1 0x4 ADD PUSH1 0x20 PUSH1 0x40 MLOAD DUP1 DUP4 SUB DUP2 DUP7 GAS DELEGATECALL ISZERO DUP1 ISZERO PUSH2 0x3990 JUMPI RETURNDATASIZE PUSH1 0x0 DUP1 RETURNDATACOPY RETURNDATASIZE PUSH1 0x0 REVERT JUMPDEST POP POP POP POP PUSH1 0x40 MLOAD RETURNDATASIZE PUSH1 0x1F NOT PUSH1 0x1F DUP3 ADD AND DUP3 ADD DUP1 PUSH1 0x40 MSTORE POP DUP2 ADD SWAP1 PUSH2 0x39B4 SWAP2 SWAP1 PUSH2 0x4B7F JUMP JUMPDEST PUSH1 0x40 MLOAD DUP4 PUSH4 0xFFFFFFFF AND PUSH1 0xE0 SHL DUP2 MSTORE PUSH1 0x4 ADD PUSH2 0x39D1 SWAP3 SWAP2 SWAP1 PUSH2 0x4BBB JUMP JUMPDEST PUSH1 0x0 PUSH1 0x40 MLOAD DUP1 DUP4 SUB DUP2 DUP7 DUP1 EXTCODESIZE ISZERO DUP1 ISZERO PUSH2 0x39E9 JUMPI PUSH1 0x0 DUP1 REVERT JUMPDEST POP GAS DELEGATECALL ISZERO DUP1 ISZERO PUSH2 0x39FD JUMPI RETURNDATASIZE PUSH1 0x0 DUP1 RETURNDATACOPY RETURNDATASIZE PUSH1 0x0 REVERT JUMPDEST POP POP POP POP PUSH20 0x0 PUSH4 0x268E5143 PUSH20 0x828169221293CB90D747B17341B7B7B20E58E039 PUSH20 0x0 PUSH4 0xEFBE1C1C PUSH1 0x40 MLOAD DUP2 PUSH4 0xFFFFFFFF AND PUSH1 0xE0 SHL DUP2 MSTORE PUSH1 0x4 ADD PUSH1 0x20 PUSH1 0x40 MLOAD DUP1 DUP4 SUB DUP2 DUP7 GAS DELEGATECALL ISZERO DUP1 ISZERO PUSH2 0x3A79 JUMPI RETURNDATASIZE PUSH1 0x0 DUP1 RETURNDATACOPY RETURNDATASIZE PUSH1 0x0 REVERT JUMPDEST POP POP POP POP PUSH1 0x40 MLOAD RETURNDATASIZE PUSH1 0x1F NOT PUSH1 0x1F DUP3 ADD AND DUP3 ADD DUP1 PUSH1 0x40 MSTORE POP DUP2 ADD SWAP1 PUSH2 0x3A9D SWAP2 SWAP1 PUSH2 0x4B7F JUMP JUMPDEST PUSH1 0x40 MLOAD DUP4 PUSH4 0xFFFFFFFF AND PUSH1 0xE0 SHL DUP2 MSTORE PUSH1 0x4 ADD PUSH2 0x3ABA SWAP3 SWAP2 SWAP1 PUSH2 0x4BBB JUMP JUMPDEST PUSH1 0x0 PUSH1 0x40 MLOAD DUP1 DUP4 SUB DUP2 DUP7 DUP1 EXTCODESIZE ISZERO DUP1 ISZERO PUSH2 0x3AD2 JUMPI PUSH1 0x0 DUP1 REVERT JUMPDEST POP GAS DELEGATECALL ISZERO DUP1 ISZERO PUSH2 0x3AE6 JUMPI RETURNDATASIZE PUSH1 0x0 DUP1 RETURNDATACOPY RETURNDATASIZE PUSH1 0x0 REVERT JUMPDEST POP POP POP POP PUSH20 0x0 PUSH4 0x89C32076 PUSH20 0x828169221293CB90D747B17341B7B7B20E58E039 PUSH32 0x50534D2D475553442D4100000000000000000000000000000000000000000000 PUSH1 0x40 MLOAD DUP4 PUSH4 0xFFFFFFFF AND PUSH1 0xE0 SHL DUP2 MSTORE PUSH1 0x4 ADD PUSH2 0x3B57 SWAP3 SWAP2 SWAP1 PUSH2 0x50CE JUMP JUMPDEST PUSH1 0x0 PUSH1 0x40 MLOAD DUP1 DUP4 SUB DUP2 DUP7 DUP1 EXTCODESIZE ISZERO DUP1 ISZERO PUSH2 0x3B6F JUMPI PUSH1 0x0 DUP1 REVERT JUMPDEST POP GAS DELEGATECALL ISZERO DUP1 ISZERO PUSH2 0x3B83 JUMPI RETURNDATASIZE PUSH1 0x0 DUP1 RETURNDATACOPY RETURNDATASIZE PUSH1 0x0 REVERT JUMPDEST POP POP POP POP PUSH20 0x0 PUSH4 0xDFE425B9 PUSH20 0x828169221293CB90D747B17341B7B7B20E58E039 PUSH20 0xFFFFFFFFFFFFFFFFFFFFFFFFFFFFFFFFFFFFFFFF AND PUSH4 0x2E7DC6AF PUSH1 0x40 MLOAD DUP2 PUSH4 0xFFFFFFFF AND PUSH1 0xE0 SHL DUP2 MSTORE PUSH1 0x4 ADD PUSH1 0x20 PUSH1 0x40 MLOAD DUP1 DUP4 SUB DUP2 DUP7 GAS STATICCALL ISZERO DUP1 ISZERO PUSH2 0x3C00 JUMPI RETURNDATASIZE PUSH1 0x0 DUP1 RETURNDATACOPY RETURNDATASIZE PUSH1 0x0 REVERT JUMPDEST POP POP POP POP PUSH1 0x40 MLOAD RETURNDATASIZE PUSH1 0x1F NOT PUSH1 0x1F DUP3 ADD AND DUP3 ADD DUP1 PUSH1 0x40 MSTORE POP DUP2 ADD SWAP1 PUSH2 0x3C24 SWAP2 SWAP1 PUSH2 0x4B7F JUMP JUMPDEST PUSH20 0x828169221293CB90D747B17341B7B7B20E58E039 PUSH1 0x40 MLOAD DUP4 PUSH4 0xFFFFFFFF AND PUSH1 0xE0 SHL DUP2 MSTORE PUSH1 0x4 ADD PUSH2 0x3C56 SWAP3 SWAP2 SWAP1 PUSH2 0x4BBB JUMP JUMPDEST PUSH1 0x0 PUSH1 0x40 MLOAD DUP1 DUP4 SUB DUP2 DUP7 DUP1 EXTCODESIZE ISZERO DUP1 ISZERO PUSH2 0x3C6E JUMPI PUSH1 0x0 DUP1 REVERT JUMPDEST POP GAS DELEGATECALL ISZERO DUP1 ISZERO PUSH2 0x3C82 JUMPI RETURNDATASIZE PUSH1 0x0 DUP1 RETURNDATACOPY RETURNDATASIZE PUSH1 0x0 REVERT JUMPDEST POP POP POP POP PUSH20 0xF363C7E351C96B910B92B45D34190650DF4AE8E7 PUSH20 0xFFFFFFFFFFFFFFFFFFFFFFFFFFFFFFFFFFFFFFFF AND PUSH4 0x1E77933E PUSH20 0x7B64F61F9C30C1A2979AE78FF00D3D1F6D8E51FC PUSH1 0x40 MLOAD DUP3 PUSH4 0xFFFFFFFF AND PUSH1 0xE0 SHL DUP2 MSTORE PUSH1 0x4 ADD PUSH2 0x3CE7 SWAP2 SWAP1 PUSH2 0x4BF3 JUMP JUMPDEST PUSH1 0x0 PUSH1 0x40 MLOAD DUP1 DUP4 SUB DUP2 PUSH1 0x0 DUP8 DUP1 EXTCODESIZE ISZERO DUP1 ISZERO PUSH2 0x3D01 JUMPI PUSH1 0x0 DUP1 REVERT JUMPDEST POP GAS CALL ISZERO DUP1 ISZERO PUSH2 0x3D15 JUMPI RETURNDATASIZE PUSH1 0x0 DUP1 RETURNDATACOPY RETURNDATASIZE PUSH1 0x0 REVERT JUMPDEST POP POP POP POP PUSH20 0x0 PUSH4 0xDFE425B9 PUSH20 0xF363C7E351C96B910B92B45D34190650DF4AE8E7 PUSH20 0xFFFFFFFFFFFFFFFFFFFFFFFFFFFFFFFFFFFFFFFF AND PUSH4 0x2E7DC6AF PUSH1 0x40 MLOAD DUP2 PUSH4 0xFFFFFFFF AND PUSH1 0xE0 SHL DUP2 MSTORE PUSH1 0x4 ADD PUSH1 0x20 PUSH1 0x40 MLOAD DUP1 DUP4 SUB DUP2 DUP7 GAS STATICCALL ISZERO DUP1 ISZERO PUSH2 0x3D92 JUMPI RETURNDATASIZE PUSH1 0x0 DUP1 RETURNDATACOPY RETURNDATASIZE PUSH1 0x0 REVERT JUMPDEST POP POP POP POP PUSH1 0x40 MLOAD RETURNDATASIZE PUSH1 0x1F NOT PUSH1 0x1F DUP3 ADD AND DUP3 ADD DUP1 PUSH1 0x40 MSTORE POP DUP2 ADD SWAP1 PUSH2 0x3DB6 SWAP2 SWAP1 PUSH2 0x4B7F JUMP JUMPDEST PUSH20 0xF363C7E351C96B910B92B45D34190650DF4AE8E7 PUSH1 0x40 MLOAD DUP4 PUSH4 0xFFFFFFFF AND PUSH1 0xE0 SHL DUP2 MSTORE PUSH1 0x4 ADD PUSH2 0x3DE8 SWAP3 SWAP2 SWAP1 PUSH2 0x4BBB JUMP JUMPDEST PUSH1 0x0 PUSH1 0x40 MLOAD DUP1 DUP4 SUB DUP2 DUP7 DUP1 EXTCODESIZE ISZERO DUP1 ISZERO PUSH2 0x3E00 JUMPI PUSH1 0x0 DUP1 REVERT JUMPDEST POP GAS DELEGATECALL ISZERO DUP1 ISZERO PUSH2 0x3E14 JUMPI RETURNDATASIZE PUSH1 0x0 DUP1 RETURNDATACOPY RETURNDATASIZE PUSH1 0x0 REVERT JUMPDEST POP POP POP POP PUSH20 0x8DF8F06DC2DE0434DB40DCBB32A82A104218754C PUSH20 0xFFFFFFFFFFFFFFFFFFFFFFFFFFFFFFFFFFFFFFFF AND PUSH4 0x1E77933E PUSH20 0x1662712EB3C4BF961D58A0E118C567343AC218FC PUSH1 0x40 MLOAD DUP3 PUSH4 0xFFFFFFFF AND PUSH1 0xE0 SHL DUP2 MSTORE PUSH1 0x4 ADD PUSH2 0x3E79 SWAP2 SWAP1 PUSH2 0x4BF3 JUMP JUMPDEST PUSH1 0x0 PUSH1 0x40 MLOAD DUP1 DUP4 SUB DUP2 PUSH1 0x0 DUP8 DUP1 EXTCODESIZE ISZERO DUP1 ISZERO PUSH2 0x3E93 JUMPI PUSH1 0x0 DUP1 REVERT JUMPDEST POP GAS CALL ISZERO DUP1 ISZERO PUSH2 0x3EA7 JUMPI RETURNDATASIZE PUSH1 0x0 DUP1 RETURNDATACOPY RETURNDATASIZE PUSH1 0x0 REVERT JUMPDEST POP POP POP POP PUSH20 0x0 PUSH4 0xDFE425B9 PUSH20 0x8DF8F06DC2DE0434DB40DCBB32A82A104218754C PUSH20 0xFFFFFFFFFFFFFFFFFFFFFFFFFFFFFFFFFFFFFFFF AND PUSH4 0x2E7DC6AF PUSH1 0x40 MLOAD DUP2 PUSH4 0xFFFFFFFF AND PUSH1 0xE0 SHL DUP2 MSTORE PUSH1 0x4 ADD PUSH1 0x20 PUSH1 0x40 MLOAD DUP1 DUP4 SUB DUP2 DUP7 GAS STATICCALL ISZERO DUP1 ISZERO PUSH2 0x3F24 JUMPI RETURNDATASIZE PUSH1 0x0 DUP1 RETURNDATACOPY RETURNDATASIZE PUSH1 0x0 REVERT JUMPDEST POP POP POP POP PUSH1 0x40 MLOAD RETURNDATASIZE PUSH1 0x1F NOT PUSH1 0x1F DUP3 ADD AND DUP3 ADD DUP1 PUSH1 0x40 MSTORE POP DUP2 ADD SWAP1 PUSH2 0x3F48 SWAP2 SWAP1 PUSH2 0x4B7F JUMP JUMPDEST PUSH20 0x8DF8F06DC2DE0434DB40DCBB32A82A104218754C PUSH1 0x40 MLOAD DUP4 PUSH4 0xFFFFFFFF AND PUSH1 0xE0 SHL DUP2 MSTORE PUSH1 0x4 ADD PUSH2 0x3F7A SWAP3 SWAP2 SWAP1 PUSH2 0x4BBB JUMP JUMPDEST PUSH1 0x0 PUSH1 0x40 MLOAD DUP1 DUP4 SUB DUP2 DUP7 DUP1 EXTCODESIZE ISZERO DUP1 ISZERO PUSH2 0x3F92 JUMPI PUSH1 0x0 DUP1 REVERT JUMPDEST POP GAS DELEGATECALL ISZERO DUP1 ISZERO PUSH2 0x3FA6 JUMPI RETURNDATASIZE PUSH1 0x0 DUP1 RETURNDATACOPY RETURNDATASIZE PUSH1 0x0 REVERT JUMPDEST POP POP POP POP PUSH20 0x8874964279302E6D4E523FB1789981C39A1034BA PUSH20 0xFFFFFFFFFFFFFFFFFFFFFFFFFFFFFFFFFFFFFFFF AND PUSH4 0x1E77933E PUSH20 0x75AEB7A72200241E66D843926B5D584928E89011 PUSH1 0x40 MLOAD DUP3 PUSH4 0xFFFFFFFF AND PUSH1 0xE0 SHL DUP2 MSTORE PUSH1 0x4 ADD PUSH2 0x400B SWAP2 SWAP1 PUSH2 0x4BF3 JUMP JUMPDEST PUSH1 0x0 PUSH1 0x40 MLOAD DUP1 DUP4 SUB DUP2 PUSH1 0x0 DUP8 DUP1 EXTCODESIZE ISZERO DUP1 ISZERO PUSH2 0x4025 JUMPI PUSH1 0x0 DUP1 REVERT JUMPDEST POP GAS CALL ISZERO DUP1 ISZERO PUSH2 0x4039 JUMPI RETURNDATASIZE PUSH1 0x0 DUP1 RETURNDATACOPY RETURNDATASIZE PUSH1 0x0 REVERT JUMPDEST POP POP POP POP PUSH20 0x0 PUSH4 0xDFE425B9 PUSH20 0x8874964279302E6D4E523FB1789981C39A1034BA PUSH20 0xFFFFFFFFFFFFFFFFFFFFFFFFFFFFFFFFFFFFFFFF AND PUSH4 0x2E7DC6AF PUSH1 0x40 MLOAD DUP2 PUSH4 0xFFFFFFFF AND PUSH1 0xE0 SHL DUP2 MSTORE PUSH1 0x4 ADD PUSH1 0x20 PUSH1 0x40 MLOAD DUP1 DUP4 SUB DUP2 DUP7 GAS STATICCALL ISZERO DUP1 ISZERO PUSH2 0x40B6 JUMPI RETURNDATASIZE PUSH1 0x0 DUP1 RETURNDATACOPY RETURNDATASIZE PUSH1 0x0 REVERT JUMPDEST POP POP POP POP PUSH1 0x40 MLOAD RETURNDATASIZE PUSH1 0x1F NOT PUSH1 0x1F DUP3 ADD AND DUP3 ADD DUP1 PUSH1 0x40 MSTORE POP DUP2 ADD SWAP1 PUSH2 0x40DA SWAP2 SWAP1 PUSH2 0x4B7F JUMP JUMPDEST PUSH20 0x8874964279302E6D4E523FB1789981C39A1034BA PUSH1 0x40 MLOAD DUP4 PUSH4 0xFFFFFFFF AND PUSH1 0xE0 SHL DUP2 MSTORE PUSH1 0x4 ADD PUSH2 0x410C SWAP3 SWAP2 SWAP1 PUSH2 0x4BBB JUMP JUMPDEST PUSH1 0x0 PUSH1 0x40 MLOAD DUP1 DUP4 SUB DUP2 DUP7 DUP1 EXTCODESIZE ISZERO DUP1 ISZERO PUSH2 0x4124 JUMPI PUSH1 0x0 DUP1 REVERT JUMPDEST POP GAS DELEGATECALL ISZERO DUP1 ISZERO PUSH2 0x4138 JUMPI RETURNDATASIZE PUSH1 0x0 DUP1 RETURNDATACOPY RETURNDATASIZE PUSH1 0x0 REVERT JUMPDEST POP POP POP POP PUSH20 0xFE7A2AC0B945F12089AEEB6ECEBF4F384D9F043F PUSH20 0xFFFFFFFFFFFFFFFFFFFFFFFFFFFFFFFFFFFFFFFF AND PUSH4 0x1E77933E PUSH20 0x5E08F4239847792DC6F65D0E178F7E544C119E77 PUSH1 0x40 MLOAD DUP3 PUSH4 0xFFFFFFFF AND PUSH1 0xE0 SHL DUP2 MSTORE PUSH1 0x4 ADD PUSH2 0x419D SWAP2 SWAP1 PUSH2 0x4BF3 JUMP JUMPDEST PUSH1 0x0 PUSH1 0x40 MLOAD DUP1 DUP4 SUB DUP2 PUSH1 0x0 DUP8 DUP1 EXTCODESIZE ISZERO DUP1 ISZERO PUSH2 0x41B7 JUMPI PUSH1 0x0 DUP1 REVERT JUMPDEST POP GAS CALL ISZERO DUP1 ISZERO PUSH2 0x41CB JUMPI RETURNDATASIZE PUSH1 0x0 DUP1 RETURNDATACOPY RETURNDATASIZE PUSH1 0x0 REVERT JUMPDEST POP POP POP POP PUSH20 0x0 PUSH4 0xDFE425B9 PUSH20 0xFE7A2AC0B945F12089AEEB6ECEBF4F384D9F043F PUSH20 0xFFFFFFFFFFFFFFFFFFFFFFFFFFFFFFFFFFFFFFFF AND PUSH4 0x2E7DC6AF PUSH1 0x40 MLOAD DUP2 PUSH4 0xFFFFFFFF AND PUSH1 0xE0 SHL DUP2 MSTORE PUSH1 0x4 ADD PUSH1 0x20 PUSH1 0x40 MLOAD DUP1 DUP4 SUB DUP2 DUP7 GAS STATICCALL ISZERO DUP1 ISZERO PUSH2 0x4248 JUMPI RETURNDATASIZE PUSH1 0x0 DUP1 RETURNDATACOPY RETURNDATASIZE PUSH1 0x0 REVERT JUMPDEST POP POP POP POP PUSH1 0x40 MLOAD RETURNDATASIZE PUSH1 0x1F NOT PUSH1 0x1F DUP3 ADD AND DUP3 ADD DUP1 PUSH1 0x40 MSTORE POP DUP2 ADD SWAP1 PUSH2 0x426C SWAP2 SWAP1 PUSH2 0x4B7F JUMP JUMPDEST PUSH20 0xFE7A2AC0B945F12089AEEB6ECEBF4F384D9F043F PUSH1 0x40 MLOAD DUP4 PUSH4 0xFFFFFFFF AND PUSH1 0xE0 SHL DUP2 MSTORE PUSH1 0x4 ADD PUSH2 0x429E SWAP3 SWAP2 SWAP1 PUSH2 0x4BBB JUMP JUMPDEST PUSH1 0x0 PUSH1 0x40 MLOAD DUP1 DUP4 SUB DUP2 DUP7 DUP1 EXTCODESIZE ISZERO DUP1 ISZERO PUSH2 0x42B6 JUMPI PUSH1 0x0 DUP1 REVERT JUMPDEST POP GAS DELEGATECALL ISZERO DUP1 ISZERO PUSH2 0x42CA JUMPI RETURNDATASIZE PUSH1 0x0 DUP1 RETURNDATACOPY RETURNDATASIZE PUSH1 0x0 REVERT JUMPDEST POP POP POP POP PUSH20 0xEE7F0B350AA119B3D05DC733A4621A81972F7D47 PUSH20 0xFFFFFFFFFFFFFFFFFFFFFFFFFFFFFFFFFFFFFFFF AND PUSH4 0x1E77933E PUSH20 0x9B2722BE6488EE2D2C6862EE316286522AFB9D5B PUSH1 0x40 MLOAD DUP3 PUSH4 0xFFFFFFFF AND PUSH1 0xE0 SHL DUP2 MSTORE PUSH1 0x4 ADD PUSH2 0x432F SWAP2 SWAP1 PUSH2 0x4BF3 JUMP JUMPDEST PUSH1 0x0 PUSH1 0x40 MLOAD DUP1 DUP4 SUB DUP2 PUSH1 0x0 DUP8 DUP1 EXTCODESIZE ISZERO DUP1 ISZERO PUSH2 0x4349 JUMPI PUSH1 0x0 DUP1 REVERT JUMPDEST POP GAS CALL ISZERO DUP1 ISZERO PUSH2 0x435D JUMPI RETURNDATASIZE PUSH1 0x0 DUP1 RETURNDATACOPY RETURNDATASIZE PUSH1 0x0 REVERT JUMPDEST POP POP POP POP PUSH20 0x0 PUSH4 0xDFE425B9 PUSH20 0xEE7F0B350AA119B3D05DC733A4621A81972F7D47 PUSH20 0xFFFFFFFFFFFFFFFFFFFFFFFFFFFFFFFFFFFFFFFF AND PUSH4 0x2E7DC6AF PUSH1 0x40 MLOAD DUP2 PUSH4 0xFFFFFFFF AND PUSH1 0xE0 SHL DUP2 MSTORE PUSH1 0x4 ADD PUSH1 0x20 PUSH1 0x40 MLOAD DUP1 DUP4 SUB DUP2 DUP7 GAS STATICCALL ISZERO DUP1 ISZERO PUSH2 0x43DA JUMPI RETURNDATASIZE PUSH1 0x0 DUP1 RETURNDATACOPY RETURNDATASIZE PUSH1 0x0 REVERT JUMPDEST POP POP POP POP PUSH1 0x40 MLOAD RETURNDATASIZE PUSH1 0x1F NOT PUSH1 0x1F DUP3 ADD AND DUP3 ADD DUP1 PUSH1 0x40 MSTORE POP DUP2 ADD SWAP1 PUSH2 0x43FE SWAP2 SWAP1 PUSH2 0x4B7F JUMP JUMPDEST PUSH20 0xEE7F0B350AA119B3D05DC733A4621A81972F7D47 PUSH1 0x40 MLOAD DUP4 PUSH4 0xFFFFFFFF AND PUSH1 0xE0 SHL DUP2 MSTORE PUSH1 0x4 ADD PUSH2 0x4430 SWAP3 SWAP2 SWAP1 PUSH2 0x4BBB JUMP JUMPDEST PUSH1 0x0 PUSH1 0x40 MLOAD DUP1 DUP4 SUB DUP2 DUP7 DUP1 EXTCODESIZE ISZERO DUP1 ISZERO PUSH2 0x4448 JUMPI PUSH1 0x0 DUP1 REVERT JUMPDEST POP GAS DELEGATECALL ISZERO DUP1 ISZERO PUSH2 0x445C JUMPI RETURNDATASIZE PUSH1 0x0 DUP1 RETURNDATACOPY RETURNDATASIZE PUSH1 0x0 REVERT JUMPDEST POP POP POP POP PUSH20 0xD800CA44FFABECD159C7889C3BF64A217361AEC8 PUSH20 0xFFFFFFFFFFFFFFFFFFFFFFFFFFFFFFFFFFFFFFFF AND PUSH4 0x1E77933E PUSH20 0xC6111BFCE7A59D3F86D8227DBECB5255318DD2AD PUSH1 0x40 MLOAD DUP3 PUSH4 0xFFFFFFFF AND PUSH1 0xE0 SHL DUP2 MSTORE PUSH1 0x4 ADD PUSH2 0x44C1 SWAP2 SWAP1 PUSH2 0x4BF3 JUMP JUMPDEST PUSH1 0x0 PUSH1 0x40 MLOAD DUP1 DUP4 SUB DUP2 PUSH1 0x0 DUP8 DUP1 EXTCODESIZE ISZERO DUP1 ISZERO PUSH2 0x44DB JUMPI PUSH1 0x0 DUP1 REVERT JUMPDEST POP GAS CALL ISZERO DUP1 ISZERO PUSH2 0x44EF JUMPI RETURNDATASIZE PUSH1 0x0 DUP1 RETURNDATACOPY RETURNDATASIZE PUSH1 0x0 REVERT JUMPDEST POP POP POP POP PUSH20 0x0 PUSH4 0xDFE425B9 PUSH20 0xD800CA44FFABECD159C7889C3BF64A217361AEC8 PUSH20 0xFFFFFFFFFFFFFFFFFFFFFFFFFFFFFFFFFFFFFFFF AND PUSH4 0x2E7DC6AF PUSH1 0x40 MLOAD DUP2 PUSH4 0xFFFFFFFF AND PUSH1 0xE0 SHL DUP2 MSTORE PUSH1 0x4 ADD PUSH1 0x20 PUSH1 0x40 MLOAD DUP1 DUP4 SUB DUP2 DUP7 GAS STATICCALL ISZERO DUP1 ISZERO PUSH2 0x456C JUMPI RETURNDATASIZE PUSH1 0x0 DUP1 RETURNDATACOPY RETURNDATASIZE PUSH1 0x0 REVERT JUMPDEST POP POP POP POP PUSH1 0x40 MLOAD RETURNDATASIZE PUSH1 0x1F NOT PUSH1 0x1F DUP3 ADD AND DUP3 ADD DUP1 PUSH1 0x40 MSTORE POP DUP2 ADD SWAP1 PUSH2 0x4590 SWAP2 SWAP1 PUSH2 0x4B7F JUMP JUMPDEST PUSH20 0xD800CA44FFABECD159C7889C3BF64A217361AEC8 PUSH1 0x40 MLOAD DUP4 PUSH4 0xFFFFFFFF AND PUSH1 0xE0 SHL DUP2 MSTORE PUSH1 0x4 ADD PUSH2 0x45C2 SWAP3 SWAP2 SWAP1 PUSH2 0x4BBB JUMP JUMPDEST PUSH1 0x0 PUSH1 0x40 MLOAD DUP1 DUP4 SUB DUP2 DUP7 DUP1 EXTCODESIZE ISZERO DUP1 ISZERO PUSH2 0x45DA JUMPI PUSH1 0x0 DUP1 REVERT JUMPDEST POP GAS DELEGATECALL ISZERO DUP1 ISZERO PUSH2 0x45EE JUMPI RETURNDATASIZE PUSH1 0x0 DUP1 RETURNDATACOPY RETURNDATASIZE PUSH1 0x0 REVERT JUMPDEST POP POP POP POP PUSH20 0x0 PUSH4 0x5F3A7DD7 PUSH1 0x40 MLOAD DUP2 PUSH4 0xFFFFFFFF AND PUSH1 0xE0 SHL DUP2 MSTORE PUSH1 0x4 ADD PUSH2 0x4627 SWAP1 PUSH2 0x5154 JUMP JUMPDEST PUSH1 0x0 PUSH1 0x40 MLOAD DUP1 DUP4 SUB DUP2 DUP7 DUP1 EXTCODESIZE ISZERO DUP1 ISZERO PUSH2 0x463F JUMPI PUSH1 0x0 DUP1 REVERT JUMPDEST POP GAS DELEGATECALL ISZERO DUP1 ISZERO PUSH2 0x4653 JUMPI RETURNDATASIZE PUSH1 0x0 DUP1 RETURNDATACOPY RETURNDATASIZE PUSH1 0x0 REVERT JUMPDEST POP POP POP POP JUMP JUMPDEST PUSH1 0x0 DUP2 ISZERO ISZERO SWAP1 POP SWAP2 SWAP1 POP JUMP JUMPDEST PUSH2 0x466E DUP2 PUSH2 0x4659 JUMP JUMPDEST DUP3 MSTORE POP POP JUMP JUMPDEST PUSH1 0x0 PUSH1 0x20 DUP3 ADD SWAP1 POP PUSH2 0x4689 PUSH1 0x0 DUP4 ADD DUP5 PUSH2 0x4665 JUMP JUMPDEST SWAP3 SWAP2 POP POP JUMP JUMPDEST PUSH1 0x0 DUP2 MLOAD SWAP1 POP SWAP2 SWAP1 POP JUMP JUMPDEST PUSH1 0x0 DUP3 DUP3 MSTORE PUSH1 0x20 DUP3 ADD SWAP1 POP SWAP3 SWAP2 POP POP JUMP JUMPDEST PUSH1 0x0 JUMPDEST DUP4 DUP2 LT ISZERO PUSH2 0x46C9 JUMPI DUP1 DUP3 ADD MLOAD DUP2 DUP5 ADD MSTORE PUSH1 0x20 DUP2 ADD SWAP1 POP PUSH2 0x46AE JUMP JUMPDEST PUSH1 0x0 DUP5 DUP5 ADD MSTORE POP POP POP POP JUMP JUMPDEST PUSH1 0x0 PUSH1 0x1F NOT PUSH1 0x1F DUP4 ADD AND SWAP1 POP SWAP2 SWAP1 POP JUMP JUMPDEST PUSH1 0x0 PUSH2 0x46F1 DUP3 PUSH2 0x468F JUMP JUMPDEST PUSH2 0x46FB DUP2 DUP6 PUSH2 0x469A JUMP JUMPDEST SWAP4 POP PUSH2 0x470B DUP2 DUP6 PUSH1 0x20 DUP7 ADD PUSH2 0x46AB JUMP JUMPDEST PUSH2 0x4714 DUP2 PUSH2 0x46D5 JUMP JUMPDEST DUP5 ADD SWAP2 POP POP SWAP3 SWAP2 POP POP JUMP JUMPDEST PUSH1 0x0 PUSH1 0x20 DUP3 ADD SWAP1 POP DUP2 DUP2 SUB PUSH1 0x0 DUP4 ADD MSTORE PUSH2 0x4739 DUP2 DUP5 PUSH2 0x46E6 JUMP JUMPDEST SWAP1 POP SWAP3 SWAP2 POP POP JUMP JUMPDEST PUSH1 0x0 DUP1 REVERT JUMPDEST PUSH1 0x0 DUP2 SWAP1 POP SWAP2 SWAP1 POP JUMP JUMPDEST PUSH2 0x4759 DUP2 PUSH2 0x4746 JUMP JUMPDEST DUP2 EQ PUSH2 0x4764 JUMPI PUSH1 0x0 DUP1 REVERT JUMPDEST POP JUMP JUMPDEST PUSH1 0x0 DUP2 CALLDATALOAD SWAP1 POP PUSH2 0x4776 DUP2 PUSH2 0x4750 JUMP JUMPDEST SWAP3 SWAP2 POP POP JUMP JUMPDEST PUSH1 0x0 PUSH1 0x20 DUP3 DUP5 SUB SLT ISZERO PUSH2 0x4792 JUMPI PUSH2 0x4791 PUSH2 0x4741 JUMP JUMPDEST JUMPDEST PUSH1 0x0 PUSH2 0x47A0 DUP5 DUP3 DUP6 ADD PUSH2 0x4767 JUMP JUMPDEST SWAP2 POP POP SWAP3 SWAP2 POP POP JUMP JUMPDEST PUSH2 0x47B2 DUP2 PUSH2 0x4746 JUMP JUMPDEST DUP3 MSTORE POP POP JUMP JUMPDEST PUSH1 0x0 PUSH1 0x20 DUP3 ADD SWAP1 POP PUSH2 0x47CD PUSH1 0x0 DUP4 ADD DUP5 PUSH2 0x47A9 JUMP JUMPDEST SWAP3 SWAP2 POP POP JUMP JUMPDEST PUSH1 0x0 PUSH5 0xFFFFFFFFFF DUP3 AND SWAP1 POP SWAP2 SWAP1 POP JUMP JUMPDEST PUSH2 0x47ED DUP2 PUSH2 0x47D3 JUMP JUMPDEST DUP3 MSTORE POP POP JUMP JUMPDEST PUSH2 0x47FC DUP2 PUSH2 0x4659 JUMP JUMPDEST DUP3 MSTORE POP POP JUMP JUMPDEST PUSH1 0x0 PUSH1 0x40 DUP3 ADD SWAP1 POP PUSH2 0x4817 PUSH1 0x0 DUP4 ADD DUP6 PUSH2 0x47E4 JUMP JUMPDEST PUSH2 0x4824 PUSH1 0x20 DUP4 ADD DUP5 PUSH2 0x47F3 JUMP JUMPDEST SWAP4 SWAP3 POP POP POP JUMP JUMPDEST PUSH2 0x4834 DUP2 PUSH2 0x4659 JUMP JUMPDEST DUP2 EQ PUSH2 0x483F JUMPI PUSH1 0x0 DUP1 REVERT JUMPDEST POP JUMP JUMPDEST PUSH1 0x0 DUP2 MLOAD SWAP1 POP PUSH2 0x4851 DUP2 PUSH2 0x482B JUMP JUMPDEST SWAP3 SWAP2 POP POP JUMP JUMPDEST PUSH1 0x0 PUSH1 0x20 DUP3 DUP5 SUB SLT ISZERO PUSH2 0x486D JUMPI PUSH2 0x486C PUSH2 0x4741 JUMP JUMPDEST JUMPDEST PUSH1 0x0 PUSH2 0x487B DUP5 DUP3 DUP6 ADD PUSH2 0x4842 JUMP JUMPDEST SWAP2 POP POP SWAP3 SWAP2 POP POP JUMP JUMPDEST PUSH32 0x4F757473696465206F666669636520686F757273000000000000000000000000 PUSH1 0x0 DUP3 ADD MSTORE POP JUMP JUMPDEST PUSH1 0x0 PUSH2 0x48BA PUSH1 0x14 DUP4 PUSH2 0x469A JUMP JUMPDEST SWAP2 POP PUSH2 0x48C5 DUP3 PUSH2 0x4884 JUMP JUMPDEST PUSH1 0x20 DUP3 ADD SWAP1 POP SWAP2 SWAP1 POP JUMP JUMPDEST PUSH1 0x0 PUSH1 0x20 DUP3 ADD SWAP1 POP DUP2 DUP2 SUB PUSH1 0x0 DUP4 ADD MSTORE PUSH2 0x48E9 DUP2 PUSH2 0x48AD JUMP JUMPDEST SWAP1 POP SWAP2 SWAP1 POP JUMP JUMPDEST PUSH1 0x0 PUSH1 0x60 DUP3 ADD SWAP1 POP PUSH2 0x4905 PUSH1 0x0 DUP4 ADD DUP7 PUSH2 0x47E4 JUMP JUMPDEST PUSH2 0x4912 PUSH1 0x20 DUP4 ADD DUP6 PUSH2 0x47E4 JUMP JUMPDEST PUSH2 0x491F PUSH1 0x40 DUP4 ADD DUP5 PUSH2 0x47F3 JUMP JUMPDEST SWAP5 SWAP4 POP POP POP POP JUMP JUMPDEST PUSH1 0x0 DUP2 MLOAD SWAP1 POP PUSH2 0x4936 DUP2 PUSH2 0x4750 JUMP JUMPDEST SWAP3 SWAP2 POP POP JUMP JUMPDEST PUSH1 0x0 PUSH1 0x20 DUP3 DUP5 SUB SLT ISZERO PUSH2 0x4952 JUMPI PUSH2 0x4951 PUSH2 0x4741 JUMP JUMPDEST JUMPDEST PUSH1 0x0 PUSH2 0x4960 DUP5 DUP3 DUP6 ADD PUSH2 0x4927 JUMP JUMPDEST SWAP2 POP POP SWAP3 SWAP2 POP POP JUMP JUMPDEST PUSH1 0x0 DUP2 SWAP1 POP SWAP2 SWAP1 POP JUMP JUMPDEST PUSH1 0x0 DUP2 SWAP1 POP SWAP2 SWAP1 POP JUMP JUMPDEST PUSH1 0x0 PUSH2 0x4998 PUSH2 0x4993 PUSH2 0x498E DUP5 PUSH2 0x4969 JUMP JUMPDEST PUSH2 0x4973 JUMP JUMPDEST PUSH2 0x4746 JUMP JUMPDEST SWAP1 POP SWAP2 SWAP1 POP JUMP JUMPDEST PUSH2 0x49A8 DUP2 PUSH2 0x497D JUMP JUMPDEST DUP3 MSTORE POP POP JUMP JUMPDEST PUSH1 0x0 PUSH1 0x20 DUP3 ADD SWAP1 POP PUSH2 0x49C3 PUSH1 0x0 DUP4 ADD DUP5 PUSH2 0x499F JUMP JUMPDEST SWAP3 SWAP2 POP POP JUMP JUMPDEST PUSH1 0x0 DUP2 SWAP1 POP SWAP2 SWAP1 POP JUMP JUMPDEST PUSH1 0x0 PUSH2 0x49EE PUSH2 0x49E9 PUSH2 0x49E4 DUP5 PUSH2 0x49C9 JUMP JUMPDEST PUSH2 0x4973 JUMP JUMPDEST PUSH2 0x4746 JUMP JUMPDEST SWAP1 POP SWAP2 SWAP1 POP JUMP JUMPDEST PUSH2 0x49FE DUP2 PUSH2 0x49D3 JUMP JUMPDEST DUP3 MSTORE POP POP JUMP JUMPDEST PUSH1 0x0 PUSH1 0x20 DUP3 ADD SWAP1 POP PUSH2 0x4A19 PUSH1 0x0 DUP4 ADD DUP5 PUSH2 0x49F5 JUMP JUMPDEST SWAP3 SWAP2 POP POP JUMP JUMPDEST PUSH1 0x0 DUP2 SWAP1 POP SWAP2 SWAP1 POP JUMP JUMPDEST PUSH1 0x0 PUSH2 0x4A44 PUSH2 0x4A3F PUSH2 0x4A3A DUP5 PUSH2 0x4A1F JUMP JUMPDEST PUSH2 0x4973 JUMP JUMPDEST PUSH2 0x4746 JUMP JUMPDEST SWAP1 POP SWAP2 SWAP1 POP JUMP JUMPDEST PUSH2 0x4A54 DUP2 PUSH2 0x4A29 JUMP JUMPDEST DUP3 MSTORE POP POP JUMP JUMPDEST PUSH1 0x0 PUSH1 0x20 DUP3 ADD SWAP1 POP PUSH2 0x4A6F PUSH1 0x0 DUP4 ADD DUP5 PUSH2 0x4A4B JUMP JUMPDEST SWAP3 SWAP2 POP POP JUMP JUMPDEST PUSH1 0x0 DUP2 SWAP1 POP SWAP2 SWAP1 POP JUMP JUMPDEST PUSH1 0x0 PUSH2 0x4A9A PUSH2 0x4A95 PUSH2 0x4A90 DUP5 PUSH2 0x4A75 JUMP JUMPDEST PUSH2 0x4973 JUMP JUMPDEST PUSH2 0x4746 JUMP JUMPDEST SWAP1 POP SWAP2 SWAP1 POP JUMP JUMPDEST PUSH2 0x4AAA DUP2 PUSH2 0x4A7F JUMP JUMPDEST DUP3 MSTORE POP POP JUMP JUMPDEST PUSH1 0x0 PUSH1 0x20 DUP3 ADD SWAP1 POP PUSH2 0x4AC5 PUSH1 0x0 DUP4 ADD DUP5 PUSH2 0x4AA1 JUMP JUMPDEST SWAP3 SWAP2 POP POP JUMP JUMPDEST PUSH1 0x0 DUP2 SWAP1 POP SWAP2 SWAP1 POP JUMP JUMPDEST PUSH1 0x0 PUSH2 0x4AF0 PUSH2 0x4AEB PUSH2 0x4AE6 DUP5 PUSH2 0x4ACB JUMP JUMPDEST PUSH2 0x4973 JUMP JUMPDEST PUSH2 0x4746 JUMP JUMPDEST SWAP1 POP SWAP2 SWAP1 POP JUMP JUMPDEST PUSH2 0x4B00 DUP2 PUSH2 0x4AD5 JUMP JUMPDEST DUP3 MSTORE POP POP JUMP JUMPDEST PUSH1 0x0 PUSH1 0x20 DUP3 ADD SWAP1 POP PUSH2 0x4B1B PUSH1 0x0 DUP4 ADD DUP5 PUSH2 0x4AF7 JUMP JUMPDEST SWAP3 SWAP2 POP POP JUMP JUMPDEST PUSH1 0x0 PUSH20 0xFFFFFFFFFFFFFFFFFFFFFFFFFFFFFFFFFFFFFFFF DUP3 AND SWAP1 POP SWAP2 SWAP1 POP JUMP JUMPDEST PUSH1 0x0 PUSH2 0x4B4C DUP3 PUSH2 0x4B21 JUMP JUMPDEST SWAP1 POP SWAP2 SWAP1 POP JUMP JUMPDEST PUSH2 0x4B5C DUP2 PUSH2 0x4B41 JUMP JUMPDEST DUP2 EQ PUSH2 0x4B67 JUMPI PUSH1 0x0 DUP1 REVERT JUMPDEST POP JUMP JUMPDEST PUSH1 0x0 DUP2 MLOAD SWAP1 POP PUSH2 0x4B79 DUP2 PUSH2 0x4B53 JUMP JUMPDEST SWAP3 SWAP2 POP POP JUMP JUMPDEST PUSH1 0x0 PUSH1 0x20 DUP3 DUP5 SUB SLT ISZERO PUSH2 0x4B95 JUMPI PUSH2 0x4B94 PUSH2 0x4741 JUMP JUMPDEST JUMPDEST PUSH1 0x0 PUSH2 0x4BA3 DUP5 DUP3 DUP6 ADD PUSH2 0x4B6A JUMP JUMPDEST SWAP2 POP POP SWAP3 SWAP2 POP POP JUMP JUMPDEST PUSH2 0x4BB5 DUP2 PUSH2 0x4B41 JUMP JUMPDEST DUP3 MSTORE POP POP JUMP JUMPDEST PUSH1 0x0 PUSH1 0x40 DUP3 ADD SWAP1 POP PUSH2 0x4BD0 PUSH1 0x0 DUP4 ADD DUP6 PUSH2 0x4BAC JUMP JUMPDEST PUSH2 0x4BDD PUSH1 0x20 DUP4 ADD DUP5 PUSH2 0x4BAC JUMP JUMPDEST SWAP4 SWAP3 POP POP POP JUMP JUMPDEST PUSH2 0x4BED DUP2 PUSH2 0x4B41 JUMP JUMPDEST DUP3 MSTORE POP POP JUMP JUMPDEST PUSH1 0x0 PUSH1 0x20 DUP3 ADD SWAP1 POP PUSH2 0x4C08 PUSH1 0x0 DUP4 ADD DUP5 PUSH2 0x4BE4 JUMP JUMPDEST SWAP3 SWAP2 POP POP JUMP JUMPDEST PUSH1 0x0 DUP2 SWAP1 POP SWAP2 SWAP1 POP JUMP JUMPDEST PUSH1 0x0 DUP2 SWAP1 POP SWAP2 SWAP1 POP JUMP JUMPDEST PUSH1 0x0 DUP2 PUSH1 0x0 SHL SWAP1 POP SWAP2 SWAP1 POP JUMP JUMPDEST PUSH1 0x0 PUSH2 0x4C4A PUSH2 0x4C45 PUSH2 0x4C40 DUP5 PUSH2 0x4C0E JUMP JUMPDEST PUSH2 0x4C22 JUMP JUMPDEST PUSH2 0x4C18 JUMP JUMPDEST SWAP1 POP SWAP2 SWAP1 POP JUMP JUMPDEST PUSH2 0x4C5A DUP2 PUSH2 0x4C2F JUMP JUMPDEST DUP3 MSTORE POP POP JUMP JUMPDEST PUSH32 0x7069700000000000000000000000000000000000000000000000000000000000 DUP2 MSTORE POP JUMP JUMPDEST PUSH1 0x0 PUSH1 0x80 DUP3 ADD SWAP1 POP PUSH2 0x4C9B PUSH1 0x0 DUP4 ADD DUP7 PUSH2 0x4BAC JUMP JUMPDEST PUSH2 0x4CA8 PUSH1 0x20 DUP4 ADD DUP6 PUSH2 0x4C51 JUMP JUMPDEST PUSH2 0x4CB4 PUSH1 0x40 DUP4 ADD PUSH2 0x4C60 JUMP JUMPDEST PUSH2 0x4CC1 PUSH1 0x60 DUP4 ADD DUP5 PUSH2 0x4BAC JUMP JUMPDEST SWAP5 SWAP4 POP POP POP POP JUMP JUMPDEST PUSH1 0x0 DUP2 SWAP1 POP SWAP2 SWAP1 POP JUMP JUMPDEST PUSH1 0x0 PUSH2 0x4CEE PUSH2 0x4CE9 PUSH2 0x4CE4 DUP5 PUSH2 0x4CC9 JUMP JUMPDEST PUSH2 0x4C22 JUMP JUMPDEST PUSH2 0x4C18 JUMP JUMPDEST SWAP1 POP SWAP2 SWAP1 POP JUMP JUMPDEST PUSH2 0x4CFE DUP2 PUSH2 0x4CD3 JUMP JUMPDEST DUP3 MSTORE POP POP JUMP JUMPDEST PUSH1 0x0 PUSH1 0x80 DUP3 ADD SWAP1 POP PUSH2 0x4D19 PUSH1 0x0 DUP4 ADD DUP7 PUSH2 0x4BAC JUMP JUMPDEST PUSH2 0x4D26 PUSH1 0x20 DUP4 ADD DUP6 PUSH2 0x4CF5 JUMP JUMPDEST PUSH2 0x4D32 PUSH1 0x40 DUP4 ADD PUSH2 0x4C60 JUMP JUMPDEST PUSH2 0x4D3F PUSH1 0x60 DUP4 ADD DUP5 PUSH2 0x4BAC JUMP JUMPDEST SWAP5 SWAP4 POP POP POP POP JUMP JUMPDEST PUSH1 0x0 PUSH1 0x20 DUP3 ADD SWAP1 POP PUSH2 0x4D5C PUSH1 0x0 DUP4 ADD DUP5 PUSH2 0x4BAC JUMP JUMPDEST SWAP3 SWAP2 POP POP JUMP JUMPDEST PUSH1 0x0 PUSH1 0x40 DUP3 ADD SWAP1 POP PUSH2 0x4D77 PUSH1 0x0 DUP4 ADD DUP6 PUSH2 0x4BAC JUMP JUMPDEST PUSH2 0x4D84 PUSH1 0x20 DUP4 ADD DUP5 PUSH2 0x4C51 JUMP JUMPDEST SWAP4 SWAP3 POP POP POP JUMP JUMPDEST PUSH1 0x0 PUSH1 0x40 DUP3 ADD SWAP1 POP PUSH2 0x4DA0 PUSH1 0x0 DUP4 ADD DUP6 PUSH2 0x4BAC JUMP JUMPDEST PUSH2 0x4DAD PUSH1 0x20 DUP4 ADD DUP5 PUSH2 0x4CF5 JUMP JUMPDEST SWAP4 SWAP3 POP POP POP JUMP JUMPDEST PUSH1 0x0 DUP2 SWAP1 POP SWAP2 SWAP1 POP JUMP JUMPDEST PUSH1 0x0 PUSH2 0x4DD9 PUSH2 0x4DD4 PUSH2 0x4DCF DUP5 PUSH2 0x4DB4 JUMP JUMPDEST PUSH2 0x4C22 JUMP JUMPDEST PUSH2 0x4C18 JUMP JUMPDEST SWAP1 POP SWAP2 SWAP1 POP JUMP JUMPDEST PUSH2 0x4DE9 DUP2 PUSH2 0x4DBE JUMP JUMPDEST DUP3 MSTORE POP POP JUMP JUMPDEST PUSH1 0x0 PUSH1 0x80 DUP3 ADD SWAP1 POP PUSH2 0x4E04 PUSH1 0x0 DUP4 ADD DUP7 PUSH2 0x4BAC JUMP JUMPDEST PUSH2 0x4E11 PUSH1 0x20 DUP4 ADD DUP6 PUSH2 0x4DE0 JUMP JUMPDEST PUSH2 0x4E1D PUSH1 0x40 DUP4 ADD PUSH2 0x4C60 JUMP JUMPDEST PUSH2 0x4E2A PUSH1 0x60 DUP4 ADD DUP5 PUSH2 0x4BAC JUMP JUMPDEST SWAP5 SWAP4 POP POP POP POP JUMP JUMPDEST PUSH1 0x0 PUSH1 0x40 DUP3 ADD SWAP1 POP PUSH2 0x4E47 PUSH1 0x0 DUP4 ADD DUP6 PUSH2 0x4BAC JUMP JUMPDEST PUSH2 0x4E54 PUSH1 0x20 DUP4 ADD DUP5 PUSH2 0x4DE0 JUMP JUMPDEST SWAP4 SWAP3 POP POP POP JUMP JUMPDEST PUSH1 0x0 DUP2 SWAP1 POP SWAP2 SWAP1 POP JUMP JUMPDEST PUSH1 0x0 PUSH2 0x4E80 PUSH2 0x4E7B PUSH2 0x4E76 DUP5 PUSH2 0x4E5B JUMP JUMPDEST PUSH2 0x4C22 JUMP JUMPDEST PUSH2 0x4C18 JUMP JUMPDEST SWAP1 POP SWAP2 SWAP1 POP JUMP JUMPDEST PUSH2 0x4E90 DUP2 PUSH2 0x4E65 JUMP JUMPDEST DUP3 MSTORE POP POP JUMP JUMPDEST PUSH1 0x0 PUSH1 0x80 DUP3 ADD SWAP1 POP PUSH2 0x4EAB PUSH1 0x0 DUP4 ADD DUP7 PUSH2 0x4BAC JUMP JUMPDEST PUSH2 0x4EB8 PUSH1 0x20 DUP4 ADD DUP6 PUSH2 0x4E87 JUMP JUMPDEST PUSH2 0x4EC4 PUSH1 0x40 DUP4 ADD PUSH2 0x4C60 JUMP JUMPDEST PUSH2 0x4ED1 PUSH1 0x60 DUP4 ADD DUP5 PUSH2 0x4BAC JUMP JUMPDEST SWAP5 SWAP4 POP POP POP POP JUMP JUMPDEST PUSH1 0x0 DUP2 SWAP1 POP SWAP2 SWAP1 POP JUMP JUMPDEST PUSH1 0x0 PUSH2 0x4EFE PUSH2 0x4EF9 PUSH2 0x4EF4 DUP5 PUSH2 0x4ED9 JUMP JUMPDEST PUSH2 0x4C22 JUMP JUMPDEST PUSH2 0x4C18 JUMP JUMPDEST SWAP1 POP SWAP2 SWAP1 POP JUMP JUMPDEST PUSH2 0x4F0E DUP2 PUSH2 0x4EE3 JUMP JUMPDEST DUP3 MSTORE POP POP JUMP JUMPDEST PUSH1 0x0 PUSH1 0x80 DUP3 ADD SWAP1 POP PUSH2 0x4F29 PUSH1 0x0 DUP4 ADD DUP7 PUSH2 0x4BAC JUMP JUMPDEST PUSH2 0x4F36 PUSH1 0x20 DUP4 ADD DUP6 PUSH2 0x4F05 JUMP JUMPDEST PUSH2 0x4F42 PUSH1 0x40 DUP4 ADD PUSH2 0x4C60 JUMP JUMPDEST PUSH2 0x4F4F PUSH1 0x60 DUP4 ADD DUP5 PUSH2 0x4BAC JUMP JUMPDEST SWAP5 SWAP4 POP POP POP POP JUMP JUMPDEST PUSH1 0x0 PUSH1 0x40 DUP3 ADD SWAP1 POP PUSH2 0x4F6C PUSH1 0x0 DUP4 ADD DUP6 PUSH2 0x4BAC JUMP JUMPDEST PUSH2 0x4F79 PUSH1 0x20 DUP4 ADD DUP5 PUSH2 0x4E87 JUMP JUMPDEST SWAP4 SWAP3 POP POP POP JUMP JUMPDEST PUSH1 0x0 PUSH1 0x40 DUP3 ADD SWAP1 POP PUSH2 0x4F95 PUSH1 0x0 DUP4 ADD DUP6 PUSH2 0x4BAC JUMP JUMPDEST PUSH2 0x4FA2 PUSH1 0x20 DUP4 ADD DUP5 PUSH2 0x4F05 JUMP JUMPDEST SWAP4 SWAP3 POP POP POP JUMP JUMPDEST PUSH1 0x0 DUP2 SWAP1 POP SWAP2 SWAP1 POP JUMP JUMPDEST PUSH1 0x0 PUSH2 0x4FCE PUSH2 0x4FC9 PUSH2 0x4FC4 DUP5 PUSH2 0x4FA9 JUMP JUMPDEST PUSH2 0x4C22 JUMP JUMPDEST PUSH2 0x4C18 JUMP JUMPDEST SWAP1 POP SWAP2 SWAP1 POP JUMP JUMPDEST PUSH2 0x4FDE DUP2 PUSH2 0x4FB3 JUMP JUMPDEST DUP3 MSTORE POP POP JUMP JUMPDEST PUSH1 0x0 PUSH1 0x80 DUP3 ADD SWAP1 POP PUSH2 0x4FF9 PUSH1 0x0 DUP4 ADD DUP7 PUSH2 0x4BAC JUMP JUMPDEST PUSH2 0x5006 PUSH1 0x20 DUP4 ADD DUP6 PUSH2 0x4FD5 JUMP JUMPDEST PUSH2 0x5012 PUSH1 0x40 DUP4 ADD PUSH2 0x4C60 JUMP JUMPDEST PUSH2 0x501F PUSH1 0x60 DUP4 ADD DUP5 PUSH2 0x4BAC JUMP JUMPDEST SWAP5 SWAP4 POP POP POP POP JUMP JUMPDEST PUSH1 0x0 PUSH1 0x40 DUP3 ADD SWAP1 POP PUSH2 0x503C PUSH1 0x0 DUP4 ADD DUP6 PUSH2 0x4BAC JUMP JUMPDEST PUSH2 0x5049 PUSH1 0x20 DUP4 ADD DUP5 PUSH2 0x4FD5 JUMP JUMPDEST SWAP4 SWAP3 POP POP POP JUMP JUMPDEST PUSH1 0x0 DUP2 SWAP1 POP SWAP2 SWAP1 POP JUMP JUMPDEST PUSH1 0x0 PUSH2 0x5075 PUSH2 0x5070 PUSH2 0x506B DUP5 PUSH2 0x5050 JUMP JUMPDEST PUSH2 0x4C22 JUMP JUMPDEST PUSH2 0x4C18 JUMP JUMPDEST SWAP1 POP SWAP2 SWAP1 POP JUMP JUMPDEST PUSH2 0x5085 DUP2 PUSH2 0x505A JUMP JUMPDEST DUP3 MSTORE POP POP JUMP JUMPDEST PUSH1 0x0 PUSH1 0x80 DUP3 ADD SWAP1 POP PUSH2 0x50A0 PUSH1 0x0 DUP4 ADD DUP7 PUSH2 0x4BAC JUMP JUMPDEST PUSH2 0x50AD PUSH1 0x20 DUP4 ADD DUP6 PUSH2 0x507C JUMP JUMPDEST PUSH2 0x50B9 PUSH1 0x40 DUP4 ADD PUSH2 0x4C60 JUMP JUMPDEST PUSH2 0x50C6 PUSH1 0x60 DUP4 ADD DUP5 PUSH2 0x4BAC JUMP JUMPDEST SWAP5 SWAP4 POP POP POP POP JUMP JUMPDEST PUSH1 0x0 PUSH1 0x40 DUP3 ADD SWAP1 POP PUSH2 0x50E3 PUSH1 0x0 DUP4 ADD DUP6 PUSH2 0x4BAC JUMP JUMPDEST PUSH2 0x50F0 PUSH1 0x20 DUP4 ADD DUP5 PUSH2 0x507C JUMP JUMPDEST SWAP4 SWAP3 POP POP POP JUMP JUMPDEST PUSH1 0x0 DUP3 DUP3 MSTORE PUSH1 0x20 DUP3 ADD SWAP1 POP SWAP3 SWAP2 POP POP JUMP JUMPDEST PUSH32 0x312E31352E300000000000000000000000000000000000000000000000000000 PUSH1 0x0 DUP3 ADD MSTORE POP JUMP JUMPDEST PUSH1 0x0 PUSH2 0x513E PUSH1 0x6 DUP4 PUSH2 0x50F7 JUMP JUMPDEST SWAP2 POP PUSH2 0x5149 DUP3 PUSH2 0x5108 JUMP JUMPDEST PUSH1 0x20 DUP3 ADD SWAP1 POP SWAP2 SWAP1 POP JUMP JUMPDEST PUSH1 0x0 PUSH1 0x20 DUP3 ADD SWAP1 POP DUP2 DUP2 SUB PUSH1 0x0 DUP4 ADD MSTORE PUSH2 0x516D DUP2 PUSH2 0x5131 JUMP JUMPDEST SWAP1 POP SWAP2 SWAP1 POP JUMP INVALID ORIGIN ADDRESS ORIGIN CALLDATALOAD 0x2D CALLVALUE 0x2D ADDRESS ORIGIN KECCAK256 0x4D PUSH2 0x6B65 PUSH19 0x44414F20457865637574697665205370656C6C KECCAK256 PUSH29 0x20486173683A2030783562346431343330326262396565613137323864 PUSH7 0x63616130353364 CALLER CODESIZE PUSH6 0x383233653137 PUSH4 0x35303330 CALLER CALLVALUE CALLDATASIZE CODECOPY CODECOPY PUSH3 0x363563 PUSH2 0x6632 PUSH3 0x396665 CALLVALUE CALLVALUE CALLDATASIZE ORIGIN PUSH6 0x30A264697066 PUSH20 0x58221220EFD0EF37764BC3583A556C3EA1A82634 DUP12 0xC7 SLOAD 0xDB PUSH19 0xF3ECC58C5811238E31466164736F6C63430008 LT STOP CALLER "},"methodIdentifiers":{"actions()":"f99e36bc","description()":"7284e416","execute()":"61461954","nextCastTime(uint256)":"bf0fbcec","officeHours()":"6e832f07"}}}}}