{
  "_format": "hh-sol-artifact-1",
  "contractName": "DssExec",
  "sourceName": "contracts/src/DssExec.sol",
  "abi": [
    {
      "inputs": [
        {
          "internalType": "uint256",
          "name": "_expiration",
          "type": "uint256"
        },
        {
          "internalType": "address",
          "name": "_spellAction",
          "type": "address"
        }
      ],
      "stateMutability": "nonpayable",
      "type": "constructor"
    },
    {
      "inputs": [],
      "name": "action",
      "outputs": [
        {
          "internalType": "address",
          "name": "",
          "type": "address"
        }
      ],
      "stateMutability": "view",
      "type": "function"
    },
    {
      "inputs": [],
      "name": "cast",
      "outputs": [],
      "stateMutability": "nonpayable",
      "type": "function"
    },
    {
      "inputs": [],
      "name": "description",
      "outputs": [
        {
          "internalType": "string",
          "name": "",
          "type": "string"
        }
      ],
      "stateMutability": "view",
      "type": "function"
    },
    {
      "inputs": [],
      "name": "done",
      "outputs": [
        {
          "internalType": "bool",
          "name": "",
          "type": "bool"
        }
      ],
      "stateMutability": "view",
      "type": "function"
    },
    {
      "inputs": [],
      "name": "eta",
      "outputs": [
        {
          "internalType": "uint256",
          "name": "",
          "type": "uint256"
        }
      ],
      "stateMutability": "view",
      "type": "function"
    },
    {
      "inputs": [],
      "name": "expiration",
      "outputs": [
        {
          "internalType": "uint256",
          "name": "",
          "type": "uint256"
        }
      ],
      "stateMutability": "view",
      "type": "function"
    },
    {
      "inputs": [],
      "name": "log",
      "outputs": [
        {
          "internalType": "contract Changelog",
          "name": "",
          "type": "address"
        }
      ],
      "stateMutability": "view",
      "type": "function"
    },
    {
      "inputs": [],
      "name": "nextCastTime",
      "outputs": [
        {
          "internalType": "uint256",
          "name": "castTime",
          "type": "uint256"
        }
      ],
      "stateMutability": "view",
      "type": "function"
    },
    {
      "inputs": [],
      "name": "officeHours",
      "outputs": [
        {
          "internalType": "bool",
          "name": "",
          "type": "bool"
        }
      ],
      "stateMutability": "view",
      "type": "function"
    },
    {
      "inputs": [],
      "name": "pause",
      "outputs": [
        {
          "internalType": "contract PauseAbstract",
          "name": "",
          "type": "address"
        }
      ],
      "stateMutability": "view",
      "type": "function"
    },
    {
      "inputs": [],
      "name": "schedule",
      "outputs": [],
      "stateMutability": "nonpayable",
      "type": "function"
    },
    {
      "inputs": [],
      "name": "sig",
      "outputs": [
        {
          "internalType": "bytes",
          "name": "",
          "type": "bytes"
        }
      ],
      "stateMutability": "view",
      "type": "function"
    },
    {
      "inputs": [],
      "name": "tag",
      "outputs": [
        {
          "internalType": "bytes32",
          "name": "",
          "type": "bytes32"
        }
      ],
      "stateMutability": "view",
      "type": "function"
    }
  ],
  "bytecode": "0x6101006040523480156200001257600080fd5b506040516200192e3803806200192e83398181016040528101906200003891906200028d565b73da0ab1e0017debcd72be8599041a2aa3ba7e740f73ffffffffffffffffffffffffffffffffffffffff166321f8a7216040518163ffffffff1660e01b81526004016200008590620002fa565b602060405180830381865afa158015620000a3573d6000803e3d6000fd5b505050506040513d601f19601f82011682018060405250810190620000c9919062000315565b73ffffffffffffffffffffffffffffffffffffffff1660e08173ffffffffffffffffffffffffffffffffffffffff16815250508160c081815250508073ffffffffffffffffffffffffffffffffffffffff1660a08173ffffffffffffffffffffffffffffffffffffffff16815250506040516024016040516020818303038152906040527f61461954000000000000000000000000000000000000000000000000000000007bffffffffffffffffffffffffffffffffffffffffffffffffffffffff19166020820180517bffffffffffffffffffffffffffffffffffffffffffffffffffffffff838183161783525050505060019081620001cb9190620005b7565b50600080829050803f91508160808181525050505050506200069e565b600080fd5b6000819050919050565b6200020281620001ed565b81146200020e57600080fd5b50565b6000815190506200022281620001f7565b92915050565b600073ffffffffffffffffffffffffffffffffffffffff82169050919050565b6000620002558262000228565b9050919050565b620002678162000248565b81146200027357600080fd5b50565b60008151905062000287816200025c565b92915050565b60008060408385031215620002a757620002a6620001e8565b5b6000620002b78582860162000211565b9250506020620002ca8582860162000276565b9150509250929050565b7f4d43445f50415553450000000000000000000000000000000000000000000000815250565b60006020820190506200031060008301620002d4565b919050565b6000602082840312156200032e576200032d620001e8565b5b60006200033e8482850162000276565b91505092915050565b600081519050919050565b7f4e487b7100000000000000000000000000000000000000000000000000000000600052604160045260246000fd5b7f4e487b7100000000000000000000000000000000000000000000000000000000600052602260045260246000fd5b60006002820490506001821680620003c957607f821691505b602082108103620003df57620003de62000381565b5b50919050565b60008190508160005260206000209050919050565b60006020601f8301049050919050565b600082821b905092915050565b600060088302620004497fffffffffffffffffffffffffffffffffffffffffffffffffffffffffffffffff826200040a565b6200045586836200040a565b95508019841693508086168417925050509392505050565b6000819050919050565b600062000498620004926200048c84620001ed565b6200046d565b620001ed565b9050919050565b6000819050919050565b620004b48362000477565b620004cc620004c3826200049f565b84845462000417565b825550505050565b600090565b620004e3620004d4565b620004f0818484620004a9565b505050565b5b8181101562000518576200050c600082620004d9565b600181019050620004f6565b5050565b601f82111562000567576200053181620003e5565b6200053c84620003fa565b810160208510156200054c578190505b620005646200055b85620003fa565b830182620004f5565b50505b505050565b600082821c905092915050565b60006200058c600019846008026200056c565b1980831691505092915050565b6000620005a7838362000579565b9150826002028217905092915050565b620005c28262000347565b67ffffffffffffffff811115620005de57620005dd62000352565b5b620005ea8254620003b0565b620005f78282856200051c565b600060209050601f8311600181146200062f57600084156200061a578287015190505b62000626858262000599565b86555062000696565b601f1984166200063f86620003e5565b60005b82811015620006695784890151825560018201915060208501945060208101905062000642565b8683101562000689578489015162000685601f89168262000579565b8355505b6001600288020188555050505b505050505050565b60805160a05160c05160e051611209620007256000396000818161047601528181610505015281816106ac015261074c0152600081816102e501526106050152600081816102c101528181610347015281816103dd0152818161054101528181610788015261082a0152600081816103210152818161056201526107a901526112096000f3fe608060405234801561001057600080fd5b50600436106100ce5760003560e01c80637284e4161161008c578063ae8421e111610066578063ae8421e1146101cd578063b0604a26146101eb578063f7992d85146101f5578063fe7d47bb14610213576100ce565b80637284e416146101875780638456cb59146101a557806396d373e5146101c3576100ce565b8062a7029b146100d35780630a7a1c4d146100f15780634665096d1461010f57806351973ec91461012d57806351f910661461014b5780636e832f0714610169575b600080fd5b6100db610231565b6040516100e89190610959565b60405180910390f35b6100f96102bf565b60405161010691906109bc565b60405180910390f35b6101176102e3565b60405161012491906109f0565b60405180910390f35b610135610307565b6040516101429190610a6a565b60405180910390f35b61015361031f565b6040516101609190610a9e565b60405180910390f35b610171610343565b60405161017e9190610ad4565b60405180910390f35b61018f6103d9565b60405161019c9190610b44565b60405180910390f35b6101ad610474565b6040516101ba9190610b87565b60405180910390f35b6101cb610498565b005b6101d56105f0565b6040516101e29190610ad4565b60405180910390f35b6101f3610603565b005b6101fd610820565b60405161020a91906109f0565b60405180910390f35b61021b610826565b60405161022891906109f0565b60405180910390f35b6001805461023e90610bd1565b80601f016020809104026020016040519081016040528092919081815260200182805461026a90610bd1565b80156102b75780601f1061028c576101008083540402835291602001916102b7565b820191906000526020600020905b81548152906001019060200180831161029a57829003601f168201915b505050505081565b7f000000000000000000000000000000000000000000000000000000000000000081565b7f000000000000000000000000000000000000000000000000000000000000000081565b73da0ab1e0017debcd72be8599041a2aa3ba7e740f81565b7f000000000000000000000000000000000000000000000000000000000000000081565b60007f000000000000000000000000000000000000000000000000000000000000000073ffffffffffffffffffffffffffffffffffffffff16636e832f076040518163ffffffff1660e01b8152600401602060405180830381865afa1580156103b0573d6000803e3d6000fd5b505050506040513d601f19601f820116820180604052508101906103d49190610c42565b905090565b60607f000000000000000000000000000000000000000000000000000000000000000073ffffffffffffffffffffffffffffffffffffffff16637284e4166040518163ffffffff1660e01b8152600401600060405180830381865afa158015610446573d6000803e3d6000fd5b505050506040513d6000823e3d601f19601f8201168201806040525081019061046f9190610d95565b905090565b7f000000000000000000000000000000000000000000000000000000000000000081565b600260009054906101000a900460ff16156104e8576040517f08c379a00000000000000000000000000000000000000000000000000000000081526004016104df90610e2a565b60405180910390fd5b6001600260006101000a81548160ff0219169083151502179055507f000000000000000000000000000000000000000000000000000000000000000073ffffffffffffffffffffffffffffffffffffffff1663168ccd677f00000000000000000000000000000000000000000000000000000000000000007f000000000000000000000000000000000000000000000000000000000000000060016000546040518563ffffffff1660e01b81526004016105a59493929190610ee3565b6000604051808303816000875af11580156105c4573d6000803e3d6000fd5b505050506040513d6000823e3d601f19601f820116820180604052508101906105ed9190610fd0565b50565b600260009054906101000a900460ff1681565b7f0000000000000000000000000000000000000000000000000000000000000000421115610666576040517f08c379a000000000000000000000000000000000000000000000000000000000815260040161065d90611065565b60405180910390fd5b60008054146106aa576040517f08c379a00000000000000000000000000000000000000000000000000000000081526004016106a1906110f7565b60405180910390fd5b7f000000000000000000000000000000000000000000000000000000000000000073ffffffffffffffffffffffffffffffffffffffff16636a42b8f86040518163ffffffff1660e01b8152600401602060405180830381865afa158015610715573d6000803e3d6000fd5b505050506040513d601f19601f820116820180604052508101906107399190611143565b42610744919061119f565b6000819055507f000000000000000000000000000000000000000000000000000000000000000073ffffffffffffffffffffffffffffffffffffffff166346d2fbbb7f00000000000000000000000000000000000000000000000000000000000000007f000000000000000000000000000000000000000000000000000000000000000060016000546040518563ffffffff1660e01b81526004016107ec9493929190610ee3565b600060405180830381600087803b15801561080657600080fd5b505af115801561081a573d6000803e3d6000fd5b50505050565b60005481565b60007f000000000000000000000000000000000000000000000000000000000000000073ffffffffffffffffffffffffffffffffffffffff1663bf0fbcec6000546040518263ffffffff1660e01b815260040161088391906109f0565b602060405180830381865afa1580156108a0573d6000803e3d6000fd5b505050506040513d601f19601f820116820180604052508101906108c49190611143565b905090565b600081519050919050565b600082825260208201905092915050565b60005b838110156109035780820151818401526020810190506108e8565b60008484015250505050565b6000601f19601f8301169050919050565b600061092b826108c9565b61093581856108d4565b93506109458185602086016108e5565b61094e8161090f565b840191505092915050565b600060208201905081810360008301526109738184610920565b905092915050565b600073ffffffffffffffffffffffffffffffffffffffff82169050919050565b60006109a68261097b565b9050919050565b6109b68161099b565b82525050565b60006020820190506109d160008301846109ad565b92915050565b6000819050919050565b6109ea816109d7565b82525050565b6000602082019050610a0560008301846109e1565b92915050565b6000819050919050565b6000610a30610a2b610a268461097b565b610a0b565b61097b565b9050919050565b6000610a4282610a15565b9050919050565b6000610a5482610a37565b9050919050565b610a6481610a49565b82525050565b6000602082019050610a7f6000830184610a5b565b92915050565b6000819050919050565b610a9881610a85565b82525050565b6000602082019050610ab36000830184610a8f565b92915050565b60008115159050919050565b610ace81610ab9565b82525050565b6000602082019050610ae96000830184610ac5565b92915050565b600081519050919050565b600082825260208201905092915050565b6000610b1682610aef565b610b208185610afa565b9350610b308185602086016108e5565b610b398161090f565b840191505092915050565b60006020820190508181036000830152610b5e8184610b0b565b905092915050565b6000610b7182610a37565b9050919050565b610b8181610b66565b82525050565b6000602082019050610b9c6000830184610b78565b92915050565b7f4e487b7100000000000000000000000000000000000000000000000000000000600052602260045260246000fd5b60006002820490506001821680610be957607f821691505b602082108103610bfc57610bfb610ba2565b5b50919050565b6000604051905090565b600080fd5b600080fd5b610c1f81610ab9565b8114610c2a57600080fd5b50565b600081519050610c3c81610c16565b92915050565b600060208284031215610c5857610c57610c0c565b5b6000610c6684828501610c2d565b91505092915050565b600080fd5b600080fd5b7f4e487b7100000000000000000000000000000000000000000000000000000000600052604160045260246000fd5b610cb18261090f565b810181811067ffffffffffffffff82111715610cd057610ccf610c79565b5b80604052505050565b6000610ce3610c02565b9050610cef8282610ca8565b919050565b600067ffffffffffffffff821115610d0f57610d0e610c79565b5b610d188261090f565b9050602081019050919050565b6000610d38610d3384610cf4565b610cd9565b905082815260208101848484011115610d5457610d53610c74565b5b610d5f8482856108e5565b509392505050565b600082601f830112610d7c57610d7b610c6f565b5b8151610d8c848260208601610d25565b91505092915050565b600060208284031215610dab57610daa610c0c565b5b600082015167ffffffffffffffff811115610dc957610dc8610c11565b5b610dd584828501610d67565b91505092915050565b7f7370656c6c2d616c72656164792d636173740000000000000000000000000000600082015250565b6000610e14601283610afa565b9150610e1f82610dde565b602082019050919050565b60006020820190508181036000830152610e4381610e07565b9050919050565b60008190508160005260206000209050919050565b60008154610e6c81610bd1565b610e7681866108d4565b94506001821660008114610e915760018114610ea757610eda565b60ff198316865281151560200286019350610eda565b610eb085610e4a565b60005b83811015610ed257815481890152600182019150602081019050610eb3565b808801955050505b50505092915050565b6000608082019050610ef860008301876109ad565b610f056020830186610a8f565b8181036040830152610f178185610e5f565b9050610f2660608301846109e1565b95945050505050565b600067ffffffffffffffff821115610f4a57610f49610c79565b5b610f538261090f565b9050602081019050919050565b6000610f73610f6e84610f2f565b610cd9565b905082815260208101848484011115610f8f57610f8e610c74565b5b610f9a8482856108e5565b509392505050565b600082601f830112610fb757610fb6610c6f565b5b8151610fc7848260208601610f60565b91505092915050565b600060208284031215610fe657610fe5610c0c565b5b600082015167ffffffffffffffff81111561100457611003610c11565b5b61101084828501610fa2565b91505092915050565b7f5468697320636f6e747261637420686173206578706972656400000000000000600082015250565b600061104f601983610afa565b915061105a82611019565b602082019050919050565b6000602082019050818103600083015261107e81611042565b9050919050565b7f54686973207370656c6c2068617320616c7265616479206265656e207363686560008201527f64756c6564000000000000000000000000000000000000000000000000000000602082015250565b60006110e1602583610afa565b91506110ec82611085565b604082019050919050565b60006020820190508181036000830152611110816110d4565b9050919050565b611120816109d7565b811461112b57600080fd5b50565b60008151905061113d81611117565b92915050565b60006020828403121561115957611158610c0c565b5b60006111678482850161112e565b91505092915050565b7f4e487b7100000000000000000000000000000000000000000000000000000000600052601160045260246000fd5b60006111aa826109d7565b91506111b5836109d7565b92508282019050808211156111cd576111cc611170565b5b9291505056fea26469706673582212203ff1308ecf5a9394855c7be461925334e3bb512430a331849b728502ee9ab35764736f6c63430008180033",
  "linkReferences": {},
  "deployedLinkReferences": {}
}