{
  "_format": "hh-sol-artifact-1",
  "contractName": "Cat",
  "sourceName": "contracts/cat.sol",
  "abi": [
    {
      "inputs": [
        {
          "internalType": "address",
          "name": "vat_",
          "type": "address"
        }
      ],
      "stateMutability": "nonpayable",
      "type": "constructor"
    },
    {
      "anonymous": false,
      "inputs": [
        {
          "indexed": true,
          "internalType": "bytes32",
          "name": "ilk",
          "type": "bytes32"
        },
        {
          "indexed": true,
          "internalType": "address",
          "name": "urn",
          "type": "address"
        },
        {
          "indexed": false,
          "internalType": "uint256",
          "name": "ink",
          "type": "uint256"
        },
        {
          "indexed": false,
          "internalType": "uint256",
          "name": "art",
          "type": "uint256"
        },
        {
          "indexed": false,
          "internalType": "uint256",
          "name": "tab",
          "type": "uint256"
        },
        {
          "indexed": false,
          "internalType": "address",
          "name": "flip",
          "type": "address"
        },
        {
          "indexed": false,
          "internalType": "uint256",
          "name": "id",
          "type": "uint256"
        }
      ],
      "name": "Bite",
      "type": "event"
    },
    {
      "inputs": [
        {
          "internalType": "bytes32",
          "name": "ilk",
          "type": "bytes32"
        },
        {
          "internalType": "address",
          "name": "urn",
          "type": "address"
        }
      ],
      "name": "bite",
      "outputs": [
        {
          "internalType": "uint256",
          "name": "id",
          "type": "uint256"
        }
      ],
      "stateMutability": "nonpayable",
      "type": "function"
    },
    {
      "inputs": [],
      "name": "box",
      "outputs": [
        {
          "internalType": "uint256",
          "name": "",
          "type": "uint256"
        }
      ],
      "stateMutability": "view",
      "type": "function"
    },
    {
      "inputs": [],
      "name": "cage",
      "outputs": [],
      "stateMutability": "nonpayable",
      "type": "function"
    },
    {
      "inputs": [
        {
          "internalType": "uint256",
          "name": "rad",
          "type": "uint256"
        }
      ],
      "name": "claw",
      "outputs": [],
      "stateMutability": "nonpayable",
      "type": "function"
    },
    {
      "inputs": [
        {
          "internalType": "address",
          "name": "usr",
          "type": "address"
        }
      ],
      "name": "deny",
      "outputs": [],
      "stateMutability": "nonpayable",
      "type": "function"
    },
    {
      "inputs": [
        {
          "internalType": "bytes32",
          "name": "ilk",
          "type": "bytes32"
        },
        {
          "internalType": "bytes32",
          "name": "what",
          "type": "bytes32"
        },
        {
          "internalType": "uint256",
          "name": "data",
          "type": "uint256"
        }
      ],
      "name": "file",
      "outputs": [],
      "stateMutability": "nonpayable",
      "type": "function"
    },
    {
      "inputs": [
        {
          "internalType": "bytes32",
          "name": "what",
          "type": "bytes32"
        },
        {
          "internalType": "uint256",
          "name": "data",
          "type": "uint256"
        }
      ],
      "name": "file",
      "outputs": [],
      "stateMutability": "nonpayable",
      "type": "function"
    },
    {
      "inputs": [
        {
          "internalType": "bytes32",
          "name": "what",
          "type": "bytes32"
        },
        {
          "internalType": "address",
          "name": "data",
          "type": "address"
        }
      ],
      "name": "file",
      "outputs": [],
      "stateMutability": "nonpayable",
      "type": "function"
    },
    {
      "inputs": [
        {
          "internalType": "bytes32",
          "name": "ilk",
          "type": "bytes32"
        },
        {
          "internalType": "bytes32",
          "name": "what",
          "type": "bytes32"
        },
        {
          "internalType": "address",
          "name": "flip",
          "type": "address"
        }
      ],
      "name": "file",
      "outputs": [],
      "stateMutability": "nonpayable",
      "type": "function"
    },
    {
      "inputs": [
        {
          "internalType": "bytes32",
          "name": "",
          "type": "bytes32"
        }
      ],
      "name": "ilks",
      "outputs": [
        {
          "internalType": "address",
          "name": "flip",
          "type": "address"
        },
        {
          "internalType": "uint256",
          "name": "chop",
          "type": "uint256"
        },
        {
          "internalType": "uint256",
          "name": "dunk",
          "type": "uint256"
        }
      ],
      "stateMutability": "view",
      "type": "function"
    },
    {
      "inputs": [],
      "name": "litter",
      "outputs": [
        {
          "internalType": "uint256",
          "name": "",
          "type": "uint256"
        }
      ],
      "stateMutability": "view",
      "type": "function"
    },
    {
      "inputs": [],
      "name": "live",
      "outputs": [
        {
          "internalType": "uint256",
          "name": "",
          "type": "uint256"
        }
      ],
      "stateMutability": "view",
      "type": "function"
    },
    {
      "inputs": [
        {
          "internalType": "address",
          "name": "usr",
          "type": "address"
        }
      ],
      "name": "rely",
      "outputs": [],
      "stateMutability": "nonpayable",
      "type": "function"
    },
    {
      "inputs": [],
      "name": "vat",
      "outputs": [
        {
          "internalType": "contract VatLike",
          "name": "",
          "type": "address"
        }
      ],
      "stateMutability": "view",
      "type": "function"
    },
    {
      "inputs": [],
      "name": "vow",
      "outputs": [
        {
          "internalType": "contract VowLike",
          "name": "",
          "type": "address"
        }
      ],
      "stateMutability": "view",
      "type": "function"
    },
    {
      "inputs": [
        {
          "internalType": "address",
          "name": "",
          "type": "address"
        }
      ],
      "name": "wards",
      "outputs": [
        {
          "internalType": "uint256",
          "name": "",
          "type": "uint256"
        }
      ],
      "stateMutability": "view",
      "type": "function"
    }
  ],
  "bytecode": "0x60806040523480156200001157600080fd5b506040516200208c3803806200208c833981810160405281019062000037919062000135565b60016000803373ffffffffffffffffffffffffffffffffffffffff1673ffffffffffffffffffffffffffffffffffffffff1681526020019081526020016000208190555080600360006101000a81548173ffffffffffffffffffffffffffffffffffffffff021916908373ffffffffffffffffffffffffffffffffffffffff16021790555060016002819055505062000167565b600080fd5b600073ffffffffffffffffffffffffffffffffffffffff82169050919050565b6000620000fd82620000d0565b9050919050565b6200010f81620000f0565b81146200011b57600080fd5b50565b6000815190506200012f8162000104565b92915050565b6000602082840312156200014e576200014d620000cb565b5b60006200015e848285016200011e565b91505092915050565b611f1580620001776000396000f3fe608060405234801561001057600080fd5b50600436106101005760003560e01c8063957aa58c11610097578063d4e8be8311610066578063d4e8be8314610275578063d9638d3614610291578063e66d279b146102c3578063ebecb39d146102df57610100565b8063957aa58c146101ed5780639c52a7f11461020b578063a4fe8caf14610227578063bf353dbb1461024557610100565b8063626cb3c5116100d3578063626cb3c51461018b57806365fae35e146101a957806369245009146101c5578063754215a1146101cf57610100565b80631a0b287e1461010557806329ae81141461012157806336569e771461013d57806345cf22301461015b575b600080fd5b61011f600480360381019061011a9190611462565b6102fb565b005b61013b600480360381019061013691906114b5565b61044b565b005b61014561053e565b6040516101529190611574565b60405180910390f35b610175600480360381019061017091906115cd565b610564565b604051610182919061161c565b60405180910390f35b610193610c4e565b6040516101a09190611658565b60405180910390f35b6101c360048036038101906101be9190611673565b610c74565b005b6101cd610d3c565b005b6101d7610dc7565b6040516101e4919061161c565b60405180910390f35b6101f5610dcd565b604051610202919061161c565b60405180910390f35b61022560048036038101906102209190611673565b610dd3565b005b61022f610e9b565b60405161023c919061161c565b60405180910390f35b61025f600480360381019061025a9190611673565b610ea1565b60405161026c919061161c565b60405180910390f35b61028f600480360381019061028a91906115cd565b610eb9565b005b6102ab60048036038101906102a691906116a0565b610fe6565b6040516102ba939291906116dc565b60405180910390f35b6102dd60048036038101906102d89190611713565b611030565b005b6102f960048036038101906102f49190611740565b6110c6565b005b60016000803373ffffffffffffffffffffffffffffffffffffffff1673ffffffffffffffffffffffffffffffffffffffff168152602001908152602001600020541461037c576040517f08c379a0000000000000000000000000000000000000000000000000000000008152600401610373906117f0565b60405180910390fd5b7f63686f700000000000000000000000000000000000000000000000000000000082036103c357806001600085815260200190815260200160002060010181905550610446565b7f64756e6b00000000000000000000000000000000000000000000000000000000820361040a57806001600085815260200190815260200160002060020181905550610445565b6040517f08c379a000000000000000000000000000000000000000000000000000000000815260040161043c9061185c565b60405180910390fd5b5b505050565b60016000803373ffffffffffffffffffffffffffffffffffffffff1673ffffffffffffffffffffffffffffffffffffffff16815260200190815260200160002054146104cc576040517f08c379a00000000000000000000000000000000000000000000000000000000081526004016104c3906117f0565b60405180910390fd5b7f626f78000000000000000000000000000000000000000000000000000000000082036104ff578060058190555061053a565b6040517f08c379a00000000000000000000000000000000000000000000000000000000081526004016105319061185c565b60405180910390fd5b5050565b600360009054906101000a900473ffffffffffffffffffffffffffffffffffffffff1681565b600080600080600360009054906101000a900473ffffffffffffffffffffffffffffffffffffffff1673ffffffffffffffffffffffffffffffffffffffff1663d9638d36876040518263ffffffff1660e01b81526004016105c5919061188b565b60a060405180830381865afa1580156105e2573d6000803e3d6000fd5b505050506040513d601f19601f8201168201806040525081019061060691906118bb565b9450509350935050600080600360009054906101000a900473ffffffffffffffffffffffffffffffffffffffff1673ffffffffffffffffffffffffffffffffffffffff16632424be5c89896040518363ffffffff1660e01b815260040161066e929190611936565b6040805180830381865afa15801561068a573d6000803e3d6000fd5b505050506040513d601f19601f820116820180604052508101906106ae919061195f565b915091506001600254146106f7576040517f08c379a00000000000000000000000000000000000000000000000000000000081526004016106ee906119eb565b60405180910390fd5b600084118015610718575061070c8186611358565b6107168386611358565b105b610757576040517f08c379a000000000000000000000000000000000000000000000000000000000815260040161074e90611a57565b60405180910390fd5b6000600160008a81526020019081526020016000206040518060600160405290816000820160009054906101000a900473ffffffffffffffffffffffffffffffffffffffff1673ffffffffffffffffffffffffffffffffffffffff1673ffffffffffffffffffffffffffffffffffffffff1681526020016001820154815260200160028201548152505090506000806107f460055460065461138f565b90506005546006541080156108095750858110155b610848576040517f08c379a000000000000000000000000000000000000000000000000000000000815260040161083f90611ac3565b60405180910390fd5b61088a8484602001518a6108716108638860400151876113b2565b670de0b6b3a7640000611358565b61087b9190611b41565b6108859190611b41565b6113b2565b91505060006108ad858561089e8886611358565b6108a89190611b41565b6113b2565b90506000821180156108bf5750600081115b6108fe576040517f08c379a00000000000000000000000000000000000000000000000000000000081526004016108f590611bbe565b60405180910390fd5b7f8000000000000000000000000000000000000000000000000000000000000000821115801561094e57507f80000000000000000000000000000000000000000000000000000000000000008111155b61098d576040517f08c379a000000000000000000000000000000000000000000000000000000000815260040161098490611c2a565b60405180910390fd5b600360009054906101000a900473ffffffffffffffffffffffffffffffffffffffff1673ffffffffffffffffffffffffffffffffffffffff16637bab3f408c8c30600460009054906101000a900473ffffffffffffffffffffffffffffffffffffffff16866109fb90611c54565b88610a0590611c54565b6040518763ffffffff1660e01b8152600401610a2696959493929190611cab565b600060405180830381600087803b158015610a4057600080fd5b505af1158015610a54573d6000803e3d6000fd5b50505050600460009054906101000a900473ffffffffffffffffffffffffffffffffffffffff1673ffffffffffffffffffffffffffffffffffffffff1663697efb78610aa0848b611358565b6040518263ffffffff1660e01b8152600401610abc919061161c565b600060405180830381600087803b158015610ad657600080fd5b505af1158015610aea573d6000803e3d6000fd5b505050506000670de0b6b3a7640000610b10610b06858c611358565b8660200151611358565b610b1a9190611b41565b9050610b28600654826113ce565b600681905550836000015173ffffffffffffffffffffffffffffffffffffffff1663351de6008c600460009054906101000a900473ffffffffffffffffffffffffffffffffffffffff16848660006040518663ffffffff1660e01b8152600401610b96959493929190611d47565b6020604051808303816000875af1158015610bb5573d6000803e3d6000fd5b505050506040513d601f19601f82011682018060405250810190610bd99190611d9a565b9950508973ffffffffffffffffffffffffffffffffffffffff168b7fa716da86bc1fb6d43d1493373f34d7a418b619681cd7b90f7ea667ba1489be288385610c21878e611358565b88600001518f604051610c38959493929190611dc7565b60405180910390a3505050505050505092915050565b600460009054906101000a900473ffffffffffffffffffffffffffffffffffffffff1681565b60016000803373ffffffffffffffffffffffffffffffffffffffff1673ffffffffffffffffffffffffffffffffffffffff1681526020019081526020016000205414610cf5576040517f08c379a0000000000000000000000000000000000000000000000000000000008152600401610cec906117f0565b60405180910390fd5b60016000808373ffffffffffffffffffffffffffffffffffffffff1673ffffffffffffffffffffffffffffffffffffffff1681526020019081526020016000208190555050565b60016000803373ffffffffffffffffffffffffffffffffffffffff1673ffffffffffffffffffffffffffffffffffffffff1681526020019081526020016000205414610dbd576040517f08c379a0000000000000000000000000000000000000000000000000000000008152600401610db4906117f0565b60405180910390fd5b6000600281905550565b60055481565b60025481565b60016000803373ffffffffffffffffffffffffffffffffffffffff1673ffffffffffffffffffffffffffffffffffffffff1681526020019081526020016000205414610e54576040517f08c379a0000000000000000000000000000000000000000000000000000000008152600401610e4b906117f0565b60405180910390fd5b60008060008373ffffffffffffffffffffffffffffffffffffffff1673ffffffffffffffffffffffffffffffffffffffff1681526020019081526020016000208190555050565b60065481565b60006020528060005260406000206000915090505481565b60016000803373ffffffffffffffffffffffffffffffffffffffff1673ffffffffffffffffffffffffffffffffffffffff1681526020019081526020016000205414610f3a576040517f08c379a0000000000000000000000000000000000000000000000000000000008152600401610f31906117f0565b60405180910390fd5b7f766f7700000000000000000000000000000000000000000000000000000000008203610fa75780600460006101000a81548173ffffffffffffffffffffffffffffffffffffffff021916908373ffffffffffffffffffffffffffffffffffffffff160217905550610fe2565b6040517f08c379a0000000000000000000000000000000000000000000000000000000008152600401610fd99061185c565b60405180910390fd5b5050565b60016020528060005260406000206000915090508060000160009054906101000a900473ffffffffffffffffffffffffffffffffffffffff16908060010154908060020154905083565b60016000803373ffffffffffffffffffffffffffffffffffffffff1673ffffffffffffffffffffffffffffffffffffffff16815260200190815260200160002054146110b1576040517f08c379a00000000000000000000000000000000000000000000000000000000081526004016110a8906117f0565b60405180910390fd5b6110bd6006548261138f565b60068190555050565b60016000803373ffffffffffffffffffffffffffffffffffffffff1673ffffffffffffffffffffffffffffffffffffffff1681526020019081526020016000205414611147576040517f08c379a000000000000000000000000000000000000000000000000000000000815260040161113e906117f0565b60405180910390fd5b7f666c697000000000000000000000000000000000000000000000000000000000820361131857600360009054906101000a900473ffffffffffffffffffffffffffffffffffffffff1673ffffffffffffffffffffffffffffffffffffffff1663dc4d20fa6001600086815260200190815260200160002060000160009054906101000a900473ffffffffffffffffffffffffffffffffffffffff166040518263ffffffff1660e01b81526004016111ff9190611e1a565b600060405180830381600087803b15801561121957600080fd5b505af115801561122d573d6000803e3d6000fd5b50505050806001600085815260200190815260200160002060000160006101000a81548173ffffffffffffffffffffffffffffffffffffffff021916908373ffffffffffffffffffffffffffffffffffffffff160217905550600360009054906101000a900473ffffffffffffffffffffffffffffffffffffffff1673ffffffffffffffffffffffffffffffffffffffff1663a3b22fc4826040518263ffffffff1660e01b81526004016112e19190611e1a565b600060405180830381600087803b1580156112fb57600080fd5b505af115801561130f573d6000803e3d6000fd5b50505050611353565b6040517f08c379a000000000000000000000000000000000000000000000000000000000815260040161134a9061185c565b60405180910390fd5b505050565b6000808214806113805750828283856113719190611e35565b92508261137e9190611b41565b145b61138957600080fd5b92915050565b600082828461139e9190611e77565b91508111156113ac57600080fd5b92915050565b6000818311156113c4578190506113c8565b8290505b92915050565b60008282846113dd9190611eab565b91508110156113eb57600080fd5b92915050565b600080fd5b6000819050919050565b611409816113f6565b811461141457600080fd5b50565b60008135905061142681611400565b92915050565b6000819050919050565b61143f8161142c565b811461144a57600080fd5b50565b60008135905061145c81611436565b92915050565b60008060006060848603121561147b5761147a6113f1565b5b600061148986828701611417565b935050602061149a86828701611417565b92505060406114ab8682870161144d565b9150509250925092565b600080604083850312156114cc576114cb6113f1565b5b60006114da85828601611417565b92505060206114eb8582860161144d565b9150509250929050565b600073ffffffffffffffffffffffffffffffffffffffff82169050919050565b6000819050919050565b600061153a611535611530846114f5565b611515565b6114f5565b9050919050565b600061154c8261151f565b9050919050565b600061155e82611541565b9050919050565b61156e81611553565b82525050565b60006020820190506115896000830184611565565b92915050565b600061159a826114f5565b9050919050565b6115aa8161158f565b81146115b557600080fd5b50565b6000813590506115c7816115a1565b92915050565b600080604083850312156115e4576115e36113f1565b5b60006115f285828601611417565b9250506020611603858286016115b8565b9150509250929050565b6116168161142c565b82525050565b6000602082019050611631600083018461160d565b92915050565b600061164282611541565b9050919050565b61165281611637565b82525050565b600060208201905061166d6000830184611649565b92915050565b600060208284031215611689576116886113f1565b5b6000611697848285016115b8565b91505092915050565b6000602082840312156116b6576116b56113f1565b5b60006116c484828501611417565b91505092915050565b6116d68161158f565b82525050565b60006060820190506116f160008301866116cd565b6116fe602083018561160d565b61170b604083018461160d565b949350505050565b600060208284031215611729576117286113f1565b5b60006117378482850161144d565b91505092915050565b600080600060608486031215611759576117586113f1565b5b600061176786828701611417565b935050602061177886828701611417565b9250506040611789868287016115b8565b9150509250925092565b600082825260208201905092915050565b7f4361742f6e6f742d617574686f72697a65640000000000000000000000000000600082015250565b60006117da601283611793565b91506117e5826117a4565b602082019050919050565b60006020820190508181036000830152611809816117cd565b9050919050565b7f4361742f66696c652d756e7265636f676e697a65642d706172616d0000000000600082015250565b6000611846601b83611793565b915061185182611810565b602082019050919050565b6000602082019050818103600083015261187581611839565b9050919050565b611885816113f6565b82525050565b60006020820190506118a0600083018461187c565b92915050565b6000815190506118b581611436565b92915050565b600080600080600060a086880312156118d7576118d66113f1565b5b60006118e5888289016118a6565b95505060206118f6888289016118a6565b9450506040611907888289016118a6565b9350506060611918888289016118a6565b9250506080611929888289016118a6565b9150509295509295909350565b600060408201905061194b600083018561187c565b61195860208301846116cd565b9392505050565b60008060408385031215611976576119756113f1565b5b6000611984858286016118a6565b9250506020611995858286016118a6565b9150509250929050565b7f4361742f6e6f742d6c6976650000000000000000000000000000000000000000600082015250565b60006119d5600c83611793565b91506119e08261199f565b602082019050919050565b60006020820190508181036000830152611a04816119c8565b9050919050565b7f4361742f6e6f742d756e73616665000000000000000000000000000000000000600082015250565b6000611a41600e83611793565b9150611a4c82611a0b565b602082019050919050565b60006020820190508181036000830152611a7081611a34565b9050919050565b7f4361742f6c69717569646174696f6e2d6c696d69742d68697400000000000000600082015250565b6000611aad601983611793565b9150611ab882611a77565b602082019050919050565b60006020820190508181036000830152611adc81611aa0565b9050919050565b7f4e487b7100000000000000000000000000000000000000000000000000000000600052601260045260246000fd5b7f4e487b7100000000000000000000000000000000000000000000000000000000600052601160045260246000fd5b6000611b4c8261142c565b9150611b578361142c565b925082611b6757611b66611ae3565b5b828204905092915050565b7f4361742f6e756c6c2d61756374696f6e00000000000000000000000000000000600082015250565b6000611ba8601083611793565b9150611bb382611b72565b602082019050919050565b60006020820190508181036000830152611bd781611b9b565b9050919050565b7f4361742f6f766572666c6f770000000000000000000000000000000000000000600082015250565b6000611c14600c83611793565b9150611c1f82611bde565b602082019050919050565b60006020820190508181036000830152611c4381611c07565b9050919050565b6000819050919050565b6000611c5f82611c4a565b91507f80000000000000000000000000000000000000000000000000000000000000008203611c9157611c90611b12565b5b816000039050919050565b611ca581611c4a565b82525050565b600060c082019050611cc0600083018961187c565b611ccd60208301886116cd565b611cda60408301876116cd565b611ce760608301866116cd565b611cf46080830185611c9c565b611d0160a0830184611c9c565b979650505050505050565b6000819050919050565b6000611d31611d2c611d2784611d0c565b611515565b61142c565b9050919050565b611d4181611d16565b82525050565b600060a082019050611d5c60008301886116cd565b611d6960208301876116cd565b611d76604083018661160d565b611d83606083018561160d565b611d906080830184611d38565b9695505050505050565b600060208284031215611db057611daf6113f1565b5b6000611dbe848285016118a6565b91505092915050565b600060a082019050611ddc600083018861160d565b611de9602083018761160d565b611df6604083018661160d565b611e0360608301856116cd565b611e10608083018461160d565b9695505050505050565b6000602082019050611e2f60008301846116cd565b92915050565b6000611e408261142c565b9150611e4b8361142c565b9250828202611e598161142c565b91508282048414831517611e7057611e6f611b12565b5b5092915050565b6000611e828261142c565b9150611e8d8361142c565b9250828203905081811115611ea557611ea4611b12565b5b92915050565b6000611eb68261142c565b9150611ec18361142c565b9250828201905080821115611ed957611ed8611b12565b5b9291505056fea26469706673582212207bd7c41ff5d8679a7193d7772803059f630dc41e60905e9961d6c31318c0db5e64736f6c63430008180033",
  "linkReferences": {},
  "deployedLinkReferences": {}
}