{
  "_format": "hh-sol-artifact-1",
  "contractName": "MedianGnoUsd",
  "sourceName": "contracts/Meadian.sol",
  "abi": [
    {
      "inputs": [
        {
          "internalType": "address",
          "name": "_oracle",
          "type": "address"
        }
      ],
      "stateMutability": "nonpayable",
      "type": "constructor"
    },
    {
      "anonymous": false,
      "inputs": [
        {
          "indexed": true,
          "internalType": "address",
          "name": "usr",
          "type": "address"
        }
      ],
      "name": "Deny",
      "type": "event"
    },
    {
      "anonymous": false,
      "inputs": [
        {
          "indexed": false,
          "internalType": "uint256",
          "name": "val",
          "type": "uint256"
        },
        {
          "indexed": false,
          "internalType": "uint256",
          "name": "age",
          "type": "uint256"
        }
      ],
      "name": "LogMedianPrice",
      "type": "event"
    },
    {
      "anonymous": true,
      "inputs": [
        {
          "indexed": true,
          "internalType": "bytes4",
          "name": "sig",
          "type": "bytes4"
        },
        {
          "indexed": true,
          "internalType": "address",
          "name": "usr",
          "type": "address"
        },
        {
          "indexed": true,
          "internalType": "bytes32",
          "name": "arg1",
          "type": "bytes32"
        },
        {
          "indexed": true,
          "internalType": "bytes32",
          "name": "arg2",
          "type": "bytes32"
        },
        {
          "indexed": false,
          "internalType": "bytes",
          "name": "data",
          "type": "bytes"
        }
      ],
      "name": "LogNote",
      "type": "event"
    },
    {
      "anonymous": false,
      "inputs": [
        {
          "indexed": true,
          "internalType": "address",
          "name": "usr",
          "type": "address"
        }
      ],
      "name": "Rely",
      "type": "event"
    },
    {
      "inputs": [],
      "name": "age",
      "outputs": [
        {
          "internalType": "uint32",
          "name": "",
          "type": "uint32"
        }
      ],
      "stateMutability": "view",
      "type": "function"
    },
    {
      "inputs": [],
      "name": "bar",
      "outputs": [
        {
          "internalType": "uint256",
          "name": "",
          "type": "uint256"
        }
      ],
      "stateMutability": "view",
      "type": "function"
    },
    {
      "inputs": [
        {
          "internalType": "address",
          "name": "",
          "type": "address"
        }
      ],
      "name": "bud",
      "outputs": [
        {
          "internalType": "uint256",
          "name": "",
          "type": "uint256"
        }
      ],
      "stateMutability": "view",
      "type": "function"
    },
    {
      "inputs": [
        {
          "internalType": "address",
          "name": "usr",
          "type": "address"
        }
      ],
      "name": "deny",
      "outputs": [],
      "stateMutability": "nonpayable",
      "type": "function"
    },
    {
      "inputs": [
        {
          "internalType": "address[]",
          "name": "a",
          "type": "address[]"
        }
      ],
      "name": "diss",
      "outputs": [],
      "stateMutability": "nonpayable",
      "type": "function"
    },
    {
      "inputs": [
        {
          "internalType": "address",
          "name": "a",
          "type": "address"
        }
      ],
      "name": "diss",
      "outputs": [],
      "stateMutability": "nonpayable",
      "type": "function"
    },
    {
      "inputs": [
        {
          "internalType": "address[]",
          "name": "a",
          "type": "address[]"
        }
      ],
      "name": "drop",
      "outputs": [],
      "stateMutability": "nonpayable",
      "type": "function"
    },
    {
      "inputs": [
        {
          "internalType": "address",
          "name": "a",
          "type": "address"
        }
      ],
      "name": "kiss",
      "outputs": [],
      "stateMutability": "nonpayable",
      "type": "function"
    },
    {
      "inputs": [
        {
          "internalType": "address[]",
          "name": "a",
          "type": "address[]"
        }
      ],
      "name": "lift",
      "outputs": [],
      "stateMutability": "nonpayable",
      "type": "function"
    },
    {
      "inputs": [
        {
          "internalType": "address",
          "name": "",
          "type": "address"
        }
      ],
      "name": "orcl",
      "outputs": [
        {
          "internalType": "uint256",
          "name": "",
          "type": "uint256"
        }
      ],
      "stateMutability": "view",
      "type": "function"
    },
    {
      "inputs": [],
      "name": "peek",
      "outputs": [
        {
          "internalType": "uint256",
          "name": "",
          "type": "uint256"
        },
        {
          "internalType": "bool",
          "name": "",
          "type": "bool"
        }
      ],
      "stateMutability": "view",
      "type": "function"
    },
    {
      "inputs": [
        {
          "internalType": "uint256[]",
          "name": "val_",
          "type": "uint256[]"
        },
        {
          "internalType": "uint256[]",
          "name": "age_",
          "type": "uint256[]"
        }
      ],
      "name": "poke",
      "outputs": [],
      "stateMutability": "nonpayable",
      "type": "function"
    },
    {
      "inputs": [],
      "name": "read",
      "outputs": [
        {
          "internalType": "uint256",
          "name": "",
          "type": "uint256"
        }
      ],
      "stateMutability": "view",
      "type": "function"
    },
    {
      "inputs": [
        {
          "internalType": "address",
          "name": "usr",
          "type": "address"
        }
      ],
      "name": "rely",
      "outputs": [],
      "stateMutability": "nonpayable",
      "type": "function"
    },
    {
      "inputs": [
        {
          "internalType": "uint256",
          "name": "bar_",
          "type": "uint256"
        }
      ],
      "name": "setBar",
      "outputs": [],
      "stateMutability": "nonpayable",
      "type": "function"
    },
    {
      "inputs": [
        {
          "internalType": "uint8",
          "name": "",
          "type": "uint8"
        }
      ],
      "name": "slot",
      "outputs": [
        {
          "internalType": "address",
          "name": "",
          "type": "address"
        }
      ],
      "stateMutability": "view",
      "type": "function"
    },
    {
      "inputs": [
        {
          "internalType": "address",
          "name": "",
          "type": "address"
        }
      ],
      "name": "wards",
      "outputs": [
        {
          "internalType": "uint256",
          "name": "",
          "type": "uint256"
        }
      ],
      "stateMutability": "view",
      "type": "function"
    },
    {
      "inputs": [],
      "name": "wat",
      "outputs": [
        {
          "internalType": "bytes32",
          "name": "",
          "type": "bytes32"
        }
      ],
      "stateMutability": "view",
      "type": "function"
    }
  ],
  "bytecode": "0x608060405260016002553480156200001657600080fd5b5060405162001e9f38038062001e9f83398181016040528101906200003c919062000136565b60016000803373ffffffffffffffffffffffffffffffffffffffff1673ffffffffffffffffffffffffffffffffffffffff168152602001908152602001600020819055506001600360008373ffffffffffffffffffffffffffffffffffffffff1673ffffffffffffffffffffffffffffffffffffffff168152602001908152602001600020819055505062000168565b600080fd5b600073ffffffffffffffffffffffffffffffffffffffff82169050919050565b6000620000fe82620000d1565b9050919050565b6200011081620000f1565b81146200011c57600080fd5b50565b600081519050620001308162000105565b92915050565b6000602082840312156200014f576200014e620000cc565b5b60006200015f848285016200011f565b91505092915050565b611d2780620001786000396000f3fe608060405234801561001057600080fd5b50600436106101165760003560e01c806365c4ce7a116100a2578063943181061161007157806394318106146102cc5780639c52a7f1146102e8578063bf353dbb14610304578063f29c29c414610334578063febb0f7e1461035057610116565b806365c4ce7a1461024857806365fae35e146102645780638d0e5a9a146102805780638ef5eaf0146102b057610116565b806346d4577d116100e957806346d4577d146101a15780634ca29923146101bd5780634fce7a2a146101db57806357de26a41461020b57806359e02dd71461022957610116565b8063020b2e321461011b578063262a9dff1461014b5780632d687b3114610169578063352d3fba14610185575b600080fd5b61013560048036038101906101309190611377565b61036e565b60405161014291906113bd565b60405180910390f35b610153610386565b60405161016091906113f7565b60405180910390f35b610183600480360381019061017e9190611477565b61039c565b005b61019f600480360381019061019a9190611524565b61065d565b005b6101bb60048036038101906101b691906115a7565b6107ad565b005b6101c56108ed565b6040516101d2919061160d565b60405180910390f35b6101f560048036038101906101f09190611377565b610911565b60405161020291906113bd565b60405180910390f35b610213610929565b60405161022091906113bd565b60405180910390f35b610231610a56565b60405161023f929190611643565b60405180910390f35b610262600480360381019061025d9190611377565b610b4b565b005b61027e60048036038101906102799190611377565b610c47565b005b61029a600480360381019061029591906116a5565b610d42565b6040516102a791906116e1565b60405180910390f35b6102ca60048036038101906102c591906115a7565b610d75565b005b6102e660048036038101906102e191906115a7565b610eb5565b005b61030260048036038101906102fd9190611377565b61108b565b005b61031e60048036038101906103199190611377565b611186565b60405161032b91906113bd565b60405180910390f35b61034e60048036038101906103499190611377565b61119e565b005b610358611309565b60405161036591906113bd565b60405180910390f35b60036020528060005260406000206000915090505481565b600160109054906101000a900463ffffffff1681565b60025484849050146103e3576040517f08c379a00000000000000000000000000000000000000000000000000000000081526004016103da90611759565b60405180910390fd5b600080600160109054906101000a900463ffffffff1663ffffffff16905060005b86869050811015610571576001600360003373ffffffffffffffffffffffffffffffffffffffff1673ffffffffffffffffffffffffffffffffffffffff1681526020019081526020016000205414610491576040517f08c379a0000000000000000000000000000000000000000000000000000000008152600401610488906117c5565b60405180910390fd5b818585838181106104a5576104a46117e5565b5b90506020020135116104ec576040517f08c379a00000000000000000000000000000000000000000000000000000000081526004016104e390611860565b60405180910390fd5b82878783818110610500576104ff6117e5565b5b905060200201351015610548576040517f08c379a000000000000000000000000000000000000000000000000000000000815260040161053f906118cc565b60405180910390fd5b86868281811061055b5761055a6117e5565b5b9050602002013592508080600101915050610404565b508585600188889050901c81811061058c5761058b6117e5565b5b90506020020135600160006101000a8154816fffffffffffffffffffffffffffffffff02191690836fffffffffffffffffffffffffffffffff16021790555042600160106101000a81548163ffffffff021916908363ffffffff1602179055507fb78ebc573f1f889ca9e1e0fb62c843c836f3d3a2e1f43ef62940e9b894f4ea4c600160009054906101000a90046fffffffffffffffffffffffffffffffff16600160109054906101000a900463ffffffff1660405161064d929190611974565b60405180910390a1505050505050565b60016000803373ffffffffffffffffffffffffffffffffffffffff1673ffffffffffffffffffffffffffffffffffffffff16815260200190815260200160002054146106de576040517f08c379a00000000000000000000000000000000000000000000000000000000081526004016106d5906119e9565b60405180910390fd5b60008111610721576040517f08c379a000000000000000000000000000000000000000000000000000000000815260040161071890611a55565b60405180910390fd5b60006002826107309190611aa4565b03610770576040517f08c379a000000000000000000000000000000000000000000000000000000000815260040161076790611b21565b60405180910390fd5b806002819055505961012081016040526020815260e0602082015260e0600060408301376024356004353360003560e01c60e01b61012085a45050565b60016000803373ffffffffffffffffffffffffffffffffffffffff1673ffffffffffffffffffffffffffffffffffffffff168152602001908152602001600020541461082e576040517f08c379a0000000000000000000000000000000000000000000000000000000008152600401610825906119e9565b60405180910390fd5b60005b828290508110156108b557600060046000858585818110610855576108546117e5565b5b905060200201602081019061086a9190611377565b73ffffffffffffffffffffffffffffffffffffffff1673ffffffffffffffffffffffffffffffffffffffff168152602001908152602001600020819055508080600101915050610831565b505961012081016040526020815260e0602082015260e0600060408301376024356004353360003560e01c60e01b61012085a4505050565b7f676e6f757364000000000000000000000000000000000000000000000000000081565b60046020528060005260406000206000915090505481565b60006001600460003373ffffffffffffffffffffffffffffffffffffffff1673ffffffffffffffffffffffffffffffffffffffff16815260200190815260200160002054146109ad576040517f08c379a00000000000000000000000000000000000000000000000000000000081526004016109a490611b8d565b60405180910390fd5b6000600160009054906101000a90046fffffffffffffffffffffffffffffffff166fffffffffffffffffffffffffffffffff1611610a20576040517f08c379a0000000000000000000000000000000000000000000000000000000008152600401610a1790611bf9565b60405180910390fd5b600160009054906101000a90046fffffffffffffffffffffffffffffffff166fffffffffffffffffffffffffffffffff16905090565b6000806001600460003373ffffffffffffffffffffffffffffffffffffffff1673ffffffffffffffffffffffffffffffffffffffff1681526020019081526020016000205414610adb576040517f08c379a0000000000000000000000000000000000000000000000000000000008152600401610ad290611b8d565b60405180910390fd5b600160009054906101000a90046fffffffffffffffffffffffffffffffff166000600160009054906101000a90046fffffffffffffffffffffffffffffffff166fffffffffffffffffffffffffffffffff1611816fffffffffffffffffffffffffffffffff169150915091509091565b60016000803373ffffffffffffffffffffffffffffffffffffffff1673ffffffffffffffffffffffffffffffffffffffff1681526020019081526020016000205414610bcc576040517f08c379a0000000000000000000000000000000000000000000000000000000008152600401610bc3906119e9565b60405180910390fd5b6000600460008373ffffffffffffffffffffffffffffffffffffffff1673ffffffffffffffffffffffffffffffffffffffff168152602001908152602001600020819055505961012081016040526020815260e0602082015260e0600060408301376024356004353360003560e01c60e01b61012085a45050565b60016000803373ffffffffffffffffffffffffffffffffffffffff1673ffffffffffffffffffffffffffffffffffffffff1681526020019081526020016000205414610cc8576040517f08c379a0000000000000000000000000000000000000000000000000000000008152600401610cbf906119e9565b60405180910390fd5b60016000808373ffffffffffffffffffffffffffffffffffffffff1673ffffffffffffffffffffffffffffffffffffffff168152602001908152602001600020819055505961012081016040526020815260e0602082015260e0600060408301376024356004353360003560e01c60e01b61012085a45050565b60056020528060005260406000206000915054906101000a900473ffffffffffffffffffffffffffffffffffffffff1681565b60016000803373ffffffffffffffffffffffffffffffffffffffff1673ffffffffffffffffffffffffffffffffffffffff1681526020019081526020016000205414610df6576040517f08c379a0000000000000000000000000000000000000000000000000000000008152600401610ded906119e9565b60405180910390fd5b60005b82829050811015610e7d57600060036000858585818110610e1d57610e1c6117e5565b5b9050602002016020810190610e329190611377565b73ffffffffffffffffffffffffffffffffffffffff1673ffffffffffffffffffffffffffffffffffffffff168152602001908152602001600020819055508080600101915050610df9565b505961012081016040526020815260e0602082015260e0600060408301376024356004353360003560e01c60e01b61012085a4505050565b60016000803373ffffffffffffffffffffffffffffffffffffffff1673ffffffffffffffffffffffffffffffffffffffff1681526020019081526020016000205414610f36576040517f08c379a0000000000000000000000000000000000000000000000000000000008152600401610f2d906119e9565b60405180910390fd5b60005b8282905081101561105357600073ffffffffffffffffffffffffffffffffffffffff16838383818110610f6f57610f6e6117e5565b5b9050602002016020810190610f849190611377565b73ffffffffffffffffffffffffffffffffffffffff1603610fda576040517f08c379a0000000000000000000000000000000000000000000000000000000008152600401610fd190611c65565b60405180910390fd5b600160036000858585818110610ff357610ff26117e5565b5b90506020020160208101906110089190611377565b73ffffffffffffffffffffffffffffffffffffffff1673ffffffffffffffffffffffffffffffffffffffff168152602001908152602001600020819055508080600101915050610f39565b505961012081016040526020815260e0602082015260e0600060408301376024356004353360003560e01c60e01b61012085a4505050565b60016000803373ffffffffffffffffffffffffffffffffffffffff1673ffffffffffffffffffffffffffffffffffffffff168152602001908152602001600020541461110c576040517f08c379a0000000000000000000000000000000000000000000000000000000008152600401611103906119e9565b60405180910390fd5b60008060008373ffffffffffffffffffffffffffffffffffffffff1673ffffffffffffffffffffffffffffffffffffffff168152602001908152602001600020819055505961012081016040526020815260e0602082015260e0600060408301376024356004353360003560e01c60e01b61012085a45050565b60006020528060005260406000206000915090505481565b60016000803373ffffffffffffffffffffffffffffffffffffffff1673ffffffffffffffffffffffffffffffffffffffff168152602001908152602001600020541461121f576040517f08c379a0000000000000000000000000000000000000000000000000000000008152600401611216906119e9565b60405180910390fd5b600073ffffffffffffffffffffffffffffffffffffffff168173ffffffffffffffffffffffffffffffffffffffff160361128e576040517f08c379a000000000000000000000000000000000000000000000000000000000815260040161128590611cd1565b60405180910390fd5b6001600460008373ffffffffffffffffffffffffffffffffffffffff1673ffffffffffffffffffffffffffffffffffffffff168152602001908152602001600020819055505961012081016040526020815260e0602082015260e0600060408301376024356004353360003560e01c60e01b61012085a45050565b60025481565b600080fd5b600080fd5b600073ffffffffffffffffffffffffffffffffffffffff82169050919050565b600061134482611319565b9050919050565b61135481611339565b811461135f57600080fd5b50565b6000813590506113718161134b565b92915050565b60006020828403121561138d5761138c61130f565b5b600061139b84828501611362565b91505092915050565b6000819050919050565b6113b7816113a4565b82525050565b60006020820190506113d260008301846113ae565b92915050565b600063ffffffff82169050919050565b6113f1816113d8565b82525050565b600060208201905061140c60008301846113e8565b92915050565b600080fd5b600080fd5b600080fd5b60008083601f84011261143757611436611412565b5b8235905067ffffffffffffffff81111561145457611453611417565b5b6020830191508360208202830111156114705761146f61141c565b5b9250929050565b600080600080604085870312156114915761149061130f565b5b600085013567ffffffffffffffff8111156114af576114ae611314565b5b6114bb87828801611421565b9450945050602085013567ffffffffffffffff8111156114de576114dd611314565b5b6114ea87828801611421565b925092505092959194509250565b611501816113a4565b811461150c57600080fd5b50565b60008135905061151e816114f8565b92915050565b60006020828403121561153a5761153961130f565b5b60006115488482850161150f565b91505092915050565b60008083601f84011261156757611566611412565b5b8235905067ffffffffffffffff81111561158457611583611417565b5b6020830191508360208202830111156115a05761159f61141c565b5b9250929050565b600080602083850312156115be576115bd61130f565b5b600083013567ffffffffffffffff8111156115dc576115db611314565b5b6115e885828601611551565b92509250509250929050565b6000819050919050565b611607816115f4565b82525050565b600060208201905061162260008301846115fe565b92915050565b60008115159050919050565b61163d81611628565b82525050565b600060408201905061165860008301856113ae565b6116656020830184611634565b9392505050565b600060ff82169050919050565b6116828161166c565b811461168d57600080fd5b50565b60008135905061169f81611679565b92915050565b6000602082840312156116bb576116ba61130f565b5b60006116c984828501611690565b91505092915050565b6116db81611339565b82525050565b60006020820190506116f660008301846116d2565b92915050565b600082825260208201905092915050565b7f4d656469616e2f6261722d746f6f2d6c6f770000000000000000000000000000600082015250565b60006117436012836116fc565b915061174e8261170d565b602082019050919050565b6000602082019050818103600083015261177281611736565b9050919050565b7f4d656469616e2f696e76616c69642d6f7261636c650000000000000000000000600082015250565b60006117af6015836116fc565b91506117ba82611779565b602082019050919050565b600060208201905081810360008301526117de816117a2565b9050919050565b7f4e487b7100000000000000000000000000000000000000000000000000000000600052603260045260246000fd5b7f4d656469616e2f7374616c652d6d657373616765000000000000000000000000600082015250565b600061184a6014836116fc565b915061185582611814565b602082019050919050565b600060208201905081810360008301526118798161183d565b9050919050565b7f4d656469616e2f6d657373616765732d6e6f742d696e2d6f7264657200000000600082015250565b60006118b6601c836116fc565b91506118c182611880565b602082019050919050565b600060208201905081810360008301526118e5816118a9565b9050919050565b60006fffffffffffffffffffffffffffffffff82169050919050565b6000819050919050565b600061192d611928611923846118ec565b611908565b6113a4565b9050919050565b61193d81611912565b82525050565b600061195e611959611954846113d8565b611908565b6113a4565b9050919050565b61196e81611943565b82525050565b60006040820190506119896000830185611934565b6119966020830184611965565b9392505050565b7f4d656469616e2f6e6f742d617574686f72697a65640000000000000000000000600082015250565b60006119d36015836116fc565b91506119de8261199d565b602082019050919050565b60006020820190508181036000830152611a02816119c6565b9050919050565b7f4d656469616e2f71756f72756d2d69732d7a65726f0000000000000000000000600082015250565b6000611a3f6015836116fc565b9150611a4a82611a09565b602082019050919050565b60006020820190508181036000830152611a6e81611a32565b9050919050565b7f4e487b7100000000000000000000000000000000000000000000000000000000600052601260045260246000fd5b6000611aaf826113a4565b9150611aba836113a4565b925082611aca57611ac9611a75565b5b828206905092915050565b7f4d656469616e2f71756f72756d2d6e6f742d6f64642d6e756d62657200000000600082015250565b6000611b0b601c836116fc565b9150611b1682611ad5565b602082019050919050565b60006020820190508181036000830152611b3a81611afe565b9050919050565b7f4d656469616e2f636f6e74726163742d6e6f742d77686974656c697374656400600082015250565b6000611b77601f836116fc565b9150611b8282611b41565b602082019050919050565b60006020820190508181036000830152611ba681611b6a565b9050919050565b7f4d656469616e2f696e76616c69642d70726963652d6665656400000000000000600082015250565b6000611be36019836116fc565b9150611bee82611bad565b602082019050919050565b60006020820190508181036000830152611c1281611bd6565b9050919050565b7f4d656469616e2f6e6f2d6f7261636c652d300000000000000000000000000000600082015250565b6000611c4f6012836116fc565b9150611c5a82611c19565b602082019050919050565b60006020820190508181036000830152611c7e81611c42565b9050919050565b7f4d656469616e2f6e6f2d636f6e74726163742d30000000000000000000000000600082015250565b6000611cbb6014836116fc565b9150611cc682611c85565b602082019050919050565b60006020820190508181036000830152611cea81611cae565b905091905056fea2646970667358221220b3dcfbb06601915c87e33b7d6f5b05a85397f8798ad1f49e686affc8488f656564736f6c63430008180033",
  "linkReferences": {},
  "deployedLinkReferences": {}
}