{
  "_format": "hh-sol-artifact-1",
  "contractName": "DssExecLib",
  "sourceName": "contracts/src/DssExecLib.sol",
  "abi": [
    {
      "inputs": [],
      "name": "LOG",
      "outputs": [
        {
          "internalType": "address",
          "name": "",
          "type": "address"
        }
      ],
      "stateMutability": "view",
      "type": "function"
    },
    {
      "inputs": [],
      "name": "autoLine",
      "outputs": [
        {
          "internalType": "address",
          "name": "",
          "type": "address"
        }
      ],
      "stateMutability": "view",
      "type": "function"
    },
    {
      "inputs": [
        {
          "internalType": "bytes32",
          "name": "_ilk",
          "type": "bytes32"
        }
      ],
      "name": "calc",
      "outputs": [
        {
          "internalType": "address",
          "name": "_calc",
          "type": "address"
        }
      ],
      "stateMutability": "view",
      "type": "function"
    },
    {
      "inputs": [
        {
          "internalType": "uint40",
          "name": "_ts",
          "type": "uint40"
        },
        {
          "internalType": "bool",
          "name": "_officeHours",
          "type": "bool"
        }
      ],
      "name": "canCast",
      "outputs": [
        {
          "internalType": "bool",
          "name": "",
          "type": "bool"
        }
      ],
      "stateMutability": "pure",
      "type": "function"
    },
    {
      "inputs": [],
      "name": "cat",
      "outputs": [
        {
          "internalType": "address",
          "name": "",
          "type": "address"
        }
      ],
      "stateMutability": "view",
      "type": "function"
    },
    {
      "inputs": [
        {
          "internalType": "bytes32",
          "name": "_ilk",
          "type": "bytes32"
        }
      ],
      "name": "clip",
      "outputs": [
        {
          "internalType": "address",
          "name": "_clip",
          "type": "address"
        }
      ],
      "stateMutability": "view",
      "type": "function"
    },
    {
      "inputs": [],
      "name": "clipperMom",
      "outputs": [
        {
          "internalType": "address",
          "name": "",
          "type": "address"
        }
      ],
      "stateMutability": "view",
      "type": "function"
    },
    {
      "inputs": [],
      "name": "dai",
      "outputs": [
        {
          "internalType": "address",
          "name": "",
          "type": "address"
        }
      ],
      "stateMutability": "view",
      "type": "function"
    },
    {
      "inputs": [],
      "name": "daiJoin",
      "outputs": [
        {
          "internalType": "address",
          "name": "",
          "type": "address"
        }
      ],
      "stateMutability": "view",
      "type": "function"
    },
    {
      "inputs": [],
      "name": "dog",
      "outputs": [
        {
          "internalType": "address",
          "name": "",
          "type": "address"
        }
      ],
      "stateMutability": "view",
      "type": "function"
    },
    {
      "inputs": [],
      "name": "end",
      "outputs": [
        {
          "internalType": "address",
          "name": "",
          "type": "address"
        }
      ],
      "stateMutability": "view",
      "type": "function"
    },
    {
      "inputs": [],
      "name": "esm",
      "outputs": [
        {
          "internalType": "address",
          "name": "",
          "type": "address"
        }
      ],
      "stateMutability": "view",
      "type": "function"
    },
    {
      "inputs": [],
      "name": "flap",
      "outputs": [
        {
          "internalType": "address",
          "name": "",
          "type": "address"
        }
      ],
      "stateMutability": "view",
      "type": "function"
    },
    {
      "inputs": [
        {
          "internalType": "bytes32",
          "name": "_ilk",
          "type": "bytes32"
        }
      ],
      "name": "flip",
      "outputs": [
        {
          "internalType": "address",
          "name": "_flip",
          "type": "address"
        }
      ],
      "stateMutability": "view",
      "type": "function"
    },
    {
      "inputs": [],
      "name": "flipperMom",
      "outputs": [
        {
          "internalType": "address",
          "name": "",
          "type": "address"
        }
      ],
      "stateMutability": "view",
      "type": "function"
    },
    {
      "inputs": [],
      "name": "flop",
      "outputs": [
        {
          "internalType": "address",
          "name": "",
          "type": "address"
        }
      ],
      "stateMutability": "view",
      "type": "function"
    },
    {
      "inputs": [
        {
          "internalType": "bytes32",
          "name": "_key",
          "type": "bytes32"
        }
      ],
      "name": "getChangelogAddress",
      "outputs": [
        {
          "internalType": "address",
          "name": "",
          "type": "address"
        }
      ],
      "stateMutability": "view",
      "type": "function"
    },
    {
      "inputs": [],
      "name": "govGuard",
      "outputs": [
        {
          "internalType": "address",
          "name": "",
          "type": "address"
        }
      ],
      "stateMutability": "view",
      "type": "function"
    },
    {
      "inputs": [],
      "name": "jug",
      "outputs": [
        {
          "internalType": "address",
          "name": "",
          "type": "address"
        }
      ],
      "stateMutability": "view",
      "type": "function"
    },
    {
      "inputs": [],
      "name": "lerpFab",
      "outputs": [
        {
          "internalType": "address",
          "name": "",
          "type": "address"
        }
      ],
      "stateMutability": "view",
      "type": "function"
    },
    {
      "inputs": [],
      "name": "mkr",
      "outputs": [
        {
          "internalType": "address",
          "name": "",
          "type": "address"
        }
      ],
      "stateMutability": "view",
      "type": "function"
    },
    {
      "inputs": [
        {
          "internalType": "uint40",
          "name": "_eta",
          "type": "uint40"
        },
        {
          "internalType": "uint40",
          "name": "_ts",
          "type": "uint40"
        },
        {
          "internalType": "bool",
          "name": "_officeHours",
          "type": "bool"
        }
      ],
      "name": "nextCastTime",
      "outputs": [
        {
          "internalType": "uint256",
          "name": "castTime",
          "type": "uint256"
        }
      ],
      "stateMutability": "pure",
      "type": "function"
    },
    {
      "inputs": [],
      "name": "osmMom",
      "outputs": [
        {
          "internalType": "address",
          "name": "",
          "type": "address"
        }
      ],
      "stateMutability": "view",
      "type": "function"
    },
    {
      "inputs": [],
      "name": "pauseProxy",
      "outputs": [
        {
          "internalType": "address",
          "name": "",
          "type": "address"
        }
      ],
      "stateMutability": "view",
      "type": "function"
    },
    {
      "inputs": [],
      "name": "pot",
      "outputs": [
        {
          "internalType": "address",
          "name": "",
          "type": "address"
        }
      ],
      "stateMutability": "view",
      "type": "function"
    },
    {
      "inputs": [],
      "name": "reg",
      "outputs": [
        {
          "internalType": "address",
          "name": "",
          "type": "address"
        }
      ],
      "stateMutability": "view",
      "type": "function"
    },
    {
      "inputs": [],
      "name": "spotter",
      "outputs": [
        {
          "internalType": "address",
          "name": "",
          "type": "address"
        }
      ],
      "stateMutability": "view",
      "type": "function"
    },
    {
      "inputs": [],
      "name": "vat",
      "outputs": [
        {
          "internalType": "address",
          "name": "",
          "type": "address"
        }
      ],
      "stateMutability": "view",
      "type": "function"
    },
    {
      "inputs": [],
      "name": "vow",
      "outputs": [
        {
          "internalType": "address",
          "name": "",
          "type": "address"
        }
      ],
      "stateMutability": "view",
      "type": "function"
    }
  ],
  "bytecode": "0x615aee62000054600b82828239805160001a607314610047577f4e487b7100000000000000000000000000000000000000000000000000000000600052600060045260246000fd5b30600052607381538281f3fe73000000000000000000000000000000000000000030146080604052600436106105705760003560e01c806391cd0648116102d4578063c3b3ad7f11610197578063e4881813116100fe578063edfc90c4116100b7578063f02b0d0211610091578063f02b0d02146113d1578063f36464aa146113fa578063f4b9fa7514611423578063fd549de21461144157610570565b8063edfc90c414611361578063ef94132e1461138a578063efbe1c1c146113b357610570565b8063e488181314611281578063e5c6eb331461129f578063e7796f33146112c8578063e9d8ccb8146112f1578063eb3ffe9e1461131a578063ebb7920e1461134357610570565b8063d255745611610150578063d25574561461118f578063d6d55e7d146111bf578063ded3a489146111e8578063dfe425b914611211578063e40898e01461123a578063e475ac5d1461126357610570565b8063c3b3ad7f146110a4578063c3bbce6a146110c2578063c661c88c146110eb578063c7732adc14611114578063caa683871461113d578063d0bab9331461116657610570565b8063aee953c81161023b578063b7953078116101f4578063b795307814610fbd578063b90aca8114610fe6578063bbbb0d7b1461100f578063bdc56f301461102d578063c11645bc14611056578063c341a8901461107457610570565b8063aee953c814610ebe578063af41b24814610ee7578063b085f23714610f05578063b0e2236314610f2e578063b1698f4114610f6b578063b452c13114610f9457610570565b8063a16ed56f1161028d578063a16ed56f14610dd3578063a1d8eb3214610e03578063a1f217c514610e1a578063a497d53614610e43578063a7e0833614610e6c578063add7f43c14610e9557610570565b806391cd064814610cdd57806392125fa514610d0657806396856bfe14610d2f5780639976f02b14610d585780639bd0a56a14610d815780639f476ee114610daa57610570565b80634ba2363a116104375780636ffd80011161039e5780638050ec6011610357578063846a54fe11610331578063846a54fe14610c4f57806384718d8914610c6d57806389c3207614610c8b5780638d196e3214610cb457610570565b80638050ec6014610bd457806380bce70514610bfd57806381acdce914610c2657610570565b80636ffd800114610aed578063738fdd1a14610b1d57806377dbf55a14610b3b5780637c4c3bf114610b645780637d2a54f414610b8d5780637e992cb814610bb657610570565b8063626cb3c5116103f0578063626cb3c514610a0d57806363a8fd8914610a2b5780636604930d14610a495780636cf7a7fa14610a725780636d530fb314610a9b5780636d892f7e14610ac457610570565b80634ba2363a146109225780634c940024146109405780634e39aee31461096957806353d9e20e146109925780635f3a7dd7146109bb5780635fc132c1146109e457610570565b8063229039fc116104db57806335329d4c1161049457806335329d4c1461082957806336569e7714610859578063402ef0761461087757806340a8d9de146108a057806341daca2e146108d0578063437757b9146108f957610570565b8063229039fc14610749578063268e51431461077257806327eddd121461079b5780632bef4595146107c45780632e77468d146107ed57806331e0b8021461080b57610570565b8063153a85131161052d578063153a85131461065e578063161c6510146106875780631816a5e1146106b057806319d900a1146106ce5780631b1aff63146106f7578063204884531461072057610570565b80630650843114610575578063067322e01461059e5780630905213e146105db5780630daa5eb5146105f95780630e01198b146106225780631307f3ab14610640575b600080fd5b81801561058157600080fd5b5061059c600480360381019061059791906148b4565b61146a565b005b8180156105aa57600080fd5b506105c560048036038101906105c09190614952565b6114ce565b6040516105d29190614a03565b60405180910390f35b6105e361164e565b6040516105f09190614a03565b60405180910390f35b81801561060557600080fd5b50610620600480360381019061061b91906148b4565b61167e565b005b61062a6117ed565b6040516106379190614a03565b60405180910390f35b61064861181d565b6040516106559190614a03565b60405180910390f35b81801561066a57600080fd5b5061068560048036038101906106809190614a1e565b61184d565b005b81801561069357600080fd5b506106ae60048036038101906106a99190614a4b565b611896565b005b6106b86118f2565b6040516106c59190614a03565b60405180910390f35b8180156106da57600080fd5b506106f560048036038101906106f09190614a8b565b61190a565b005b81801561070357600080fd5b5061071e60048036038101906107199190614a4b565b61198f565b005b81801561072c57600080fd5b5061074760048036038101906107429190614a1e565b611a34565b005b81801561075557600080fd5b50610770600480360381019061076b91906148b4565b611a69565b005b81801561077e57600080fd5b5061079960048036038101906107949190614acb565b611aa0565b005b8180156107a757600080fd5b506107c260048036038101906107bd91906148b4565b611b0f565b005b8180156107d057600080fd5b506107eb60048036038101906107e69190614acb565b611c60565b005b6107f5611ccf565b6040516108029190614a03565b60405180910390f35b610813611cff565b6040516108209190614a03565b60405180910390f35b610843600480360381019061083e9190614b80565b611d2f565b6040516108509190614bcf565b60405180910390f35b610861611dce565b60405161086e9190614a03565b60405180910390f35b81801561088357600080fd5b5061089e60048036038101906108999190614a1e565b611dfe565b005b6108ba60048036038101906108b59190614bea565b611e47565b6040516108c79190614a03565b60405180910390f35b8180156108dc57600080fd5b506108f760048036038101906108f29190614acb565b611ed1565b005b81801561090557600080fd5b50610920600480360381019061091b9190614c17565b611f40565b005b61092a612027565b6040516109379190614a03565b60405180910390f35b81801561094c57600080fd5b50610967600480360381019061096291906148b4565b612057565b005b81801561097557600080fd5b50610990600480360381019061098b9190614a1e565b6120bb565b005b81801561099e57600080fd5b506109b960048036038101906109b49190614c57565b612117565b005b8180156109c757600080fd5b506109e260048036038101906109dd9190614df0565b6121eb565b005b8180156109f057600080fd5b50610a0b6004803603810190610a0691906148b4565b61226d565b005b610a15612484565b604051610a229190614a03565b60405180910390f35b610a336124b4565b604051610a409190614a03565b60405180910390f35b818015610a5557600080fd5b50610a706004803603810190610a6b91906148b4565b6124e4565b005b818015610a7e57600080fd5b50610a996004803603810190610a949190614a4b565b61256d565b005b818015610aa757600080fd5b50610ac26004803603810190610abd9190614bea565b6125c9565b005b818015610ad057600080fd5b50610aeb6004803603810190610ae69190614acb565b61263e565b005b610b076004803603810190610b029190614bea565b6126ad565b604051610b149190614a03565b60405180910390f35b610b25612737565b604051610b329190614a03565b60405180910390f35b818015610b4757600080fd5b50610b626004803603810190610b5d9190614a1e565b612767565b005b818015610b7057600080fd5b50610b8b6004803603810190610b869190614a1e565b6127ce565b005b818015610b9957600080fd5b50610bb46004803603810190610baf9190614a1e565b612835565b005b610bbe61291b565b604051610bcb9190614a03565b60405180910390f35b818015610be057600080fd5b50610bfb6004803603810190610bf69190614e39565b61294b565b005b818015610c0957600080fd5b50610c246004803603810190610c1f9190614a1e565b6129c0565b005b818015610c3257600080fd5b50610c4d6004803603810190610c489190614a1e565b612aa6565b005b610c57612b1b565b604051610c649190614a03565b60405180910390f35b610c75612b4b565b604051610c829190614a03565b60405180910390f35b818015610c9757600080fd5b50610cb26004803603810190610cad9190614ea0565b612b7b565b005b818015610cc057600080fd5b50610cdb6004803603810190610cd69190614a1e565b612bf3565b005b818015610ce957600080fd5b50610d046004803603810190610cff9190614a1e565b612c5a565b005b818015610d1257600080fd5b50610d2d6004803603810190610d289190614ee0565b612cae565b005b818015610d3b57600080fd5b50610d566004803603810190610d519190614bea565b612d23565b005b818015610d6457600080fd5b50610d7f6004803603810190610d7a91906148b4565b612daa565b005b818015610d8d57600080fd5b50610da86004803603810190610da391906148b4565b612e13565b005b818015610db657600080fd5b50610dd16004803603810190610dcc9190614a1e565b612e7c565b005b610ded6004803603810190610de89190614bea565b612ee3565b604051610dfa9190614a03565b60405180910390f35b818015610e0f57600080fd5b50610e18612f7a565b005b818015610e2657600080fd5b50610e416004803603810190610e3c9190614a1e565b612ff5565b005b818015610e4f57600080fd5b50610e6a6004803603810190610e659190614a1e565b61306a565b005b818015610e7857600080fd5b50610e936004803603810190610e8e9190614f0d565b61309f565b005b818015610ea157600080fd5b50610ebc6004803603810190610eb79190614a1e565b6131af565b005b818015610eca57600080fd5b50610ee56004803603810190610ee09190614a1e565b613215565b005b610eef61327c565b604051610efc9190614a03565b60405180910390f35b818015610f1157600080fd5b50610f2c6004803603810190610f279190614f60565b6132ac565b005b818015610f3a57600080fd5b50610f556004803603810190610f509190614fc7565b61338e565b604051610f629190614a03565b60405180910390f35b818015610f7757600080fd5b50610f926004803603810190610f8d9190614a4b565b613511565b005b818015610fa057600080fd5b50610fbb6004803603810190610fb69190614a1e565b61364b565b005b818015610fc957600080fd5b50610fe46004803603810190610fdf91906148b4565b613680565b005b818015610ff257600080fd5b5061100d60048036038101906110089190614a1e565b6136e9565b005b611017613750565b6040516110249190614a03565b60405180910390f35b81801561103957600080fd5b50611054600480360381019061104f91906148b4565b613780565b005b61105e613809565b60405161106b9190614a03565b60405180910390f35b61108e60048036038101906110899190614bea565b613839565b60405161109b9190614a03565b60405180910390f35b6110ac6138b9565b6040516110b99190614a03565b60405180910390f35b8180156110ce57600080fd5b506110e960048036038101906110e49190614df0565b6138e9565b005b8180156110f757600080fd5b50611112600480360381019061110d9190614ee0565b61396b565b005b81801561112057600080fd5b5061113b60048036038101906111369190614a1e565b6139e0565b005b81801561114957600080fd5b50611164600480360381019061115f9190614acb565b613a55565b005b81801561117257600080fd5b5061118d6004803603810190611188919061507d565b613b54565b005b6111a960048036038101906111a491906150d0565b613bdc565b6040516111b69190615132565b60405180910390f35b8180156111cb57600080fd5b506111e660048036038101906111e19190614a4b565b613e17565b005b8180156111f457600080fd5b5061120f600480360381019061120a9190614df0565b613e46565b005b81801561121d57600080fd5b5061123860048036038101906112339190614acb565b613ec8565b005b81801561124657600080fd5b50611261600480360381019061125c9190614f0d565b613fc7565b005b61126b6140ba565b6040516112789190614a03565b60405180910390f35b6112896140ea565b6040516112969190614a03565b60405180910390f35b8180156112ab57600080fd5b506112c660048036038101906112c1919061514d565b61411a565b005b8180156112d457600080fd5b506112ef60048036038101906112ea9190614acb565b61418f565b005b8180156112fd57600080fd5b5061131860048036038101906113139190614ee0565b6141fe565b005b81801561132657600080fd5b50611341600480360381019061133c91906151b4565b614413565b005b61134b614485565b6040516113589190614a03565b60405180910390f35b81801561136d57600080fd5b5061138860048036038101906113839190614a1e565b6144b5565b005b81801561139657600080fd5b506113b160048036038101906113ac9190614f0d565b6144ea565b005b6113bb6145fa565b6040516113c89190614a03565b60405180910390f35b8180156113dd57600080fd5b506113f860048036038101906113f39190614bea565b61462a565b005b81801561140657600080fd5b50611421600480360381019061141c9190615207565b61469f565b005b61142b614711565b6040516114389190614a03565b60405180910390f35b81801561144d57600080fd5b5061146860048036038101906114639190614a4b565b614741565b005b6064806114779190615289565b811061148257600080fd5b6114ca61148e83611e47565b7f63757370000000000000000000000000000000000000000000000000000000006114c5846064806114c09190615289565b6147b0565b614413565b5050565b6000806114d9612b1b565b73ffffffffffffffffffffffffffffffffffffffff16633f10119d8a8a8a8a8a8a8a6040518863ffffffff1660e01b815260040161151d97969594939291906152f8565b6020604051808303816000875af115801561153c573d6000803e3d6000fd5b505050506040513d601f19601f82011682018060405250810190611560919061537c565b90508773ffffffffffffffffffffffffffffffffffffffff166365fae35e826040518263ffffffff1660e01b815260040161159b91906153a9565b600060405180830381600087803b1580156115b557600080fd5b505af11580156115c9573d6000803e3d6000fd5b505050508073ffffffffffffffffffffffffffffffffffffffff16633eaf5d9f6040518163ffffffff1660e01b81526004016020604051808303816000875af115801561161a573d6000803e3d6000fd5b505050506040513d601f19601f8201168201806040525081019061163e91906153d9565b5080915050979650505050505050565b60006116797f474f565f47554152440000000000000000000000000000000000000000000000612ee3565b905090565b60648061168b9190615289565b811061169657600080fd5b6116f16116a16138b9565b837f63686f70000000000000000000000000000000000000000000000000000000006116d9856064806116d49190615289565b6147f4565b670de0b6b3a76400006116ec9190615406565b61294b565b60006116fc83611e47565b73ffffffffffffffffffffffffffffffffffffffff166040516024016040516020818303038152906040527f0cbb5862000000000000000000000000000000000000000000000000000000007bffffffffffffffffffffffffffffffffffffffffffffffffffffffff19166020820180517bffffffffffffffffffffffffffffffffffffffffffffffffffffffff83818316178352505050506040516117a291906154ab565b6000604051808303816000865af19150503d80600081146117df576040519150601f19603f3d011682016040523d82523d6000602084013e6117e4565b606091505b50509050505050565b60006118187f4d43445f464c4150000000000000000000000000000000000000000000000000612ee3565b905090565b60006118487f464c49505045525f4d4f4d000000000000000000000000000000000000000000612ee3565b905090565b65ffffffffffff8016811061186157600080fd5b61189361186c613750565b7f746175000000000000000000000000000000000000000000000000000000000083614413565b50565b6064806118a39190615289565b81106118ae57600080fd5b6118ee827f63757400000000000000000000000000000000000000000000000000000000006118e9846064806118e49190615289565b6147b0565b614413565b5050565b73da0ab1e0017debcd72be8599041a2aa3ba7e740f81565b73da0ab1e0017debcd72be8599041a2aa3ba7e740f73ffffffffffffffffffffffffffffffffffffffff1663ca446dd983836040518363ffffffff1660e01b81526004016119599291906154c2565b600060405180830381600087803b15801561197357600080fd5b505af1158015611987573d6000803e3d6000fd5b505050505050565b60648061199c9190615289565b81106119a757600080fd5b6119af611cff565b73ffffffffffffffffffffffffffffffffffffffff1663bf90f418836119e1846064806119dc9190615289565b6147b0565b6040518363ffffffff1660e01b81526004016119fe9291906154eb565b600060405180830381600087803b158015611a1857600080fd5b505af1158015611a2c573d6000803e3d6000fd5b505050505050565b611a66611a3f612484565b7f776169740000000000000000000000000000000000000000000000000000000083614413565b50565b611a9c611a7583611e47565b7f7461696c0000000000000000000000000000000000000000000000000000000083614413565b5050565b8173ffffffffffffffffffffffffffffffffffffffff1663f29c29c4826040518263ffffffff1660e01b8152600401611ad991906153a9565b600060405180830381600087803b158015611af357600080fd5b505af1158015611b07573d6000803e3d6000fd5b505050505050565b6000611b19614485565b90506000808273ffffffffffffffffffffffffffffffffffffffff1663d9638d36866040518263ffffffff1660e01b8152600401611b579190615514565b60a060405180830381865afa158015611b74573d6000803e3d6000fd5b505050506040513d601f19601f82011682018060405250810190611b98919061556d565b5050925092505060008214158015611bb9575060008165ffffffffffff1614155b611bc257600080fd5b8273ffffffffffffffffffffffffffffffffffffffff16632a48322d86722cd76fe086b93ce2f768a00b22a0000000000087611bfe9190615289565b858565ffffffffffff166040518563ffffffff1660e01b8152600401611c2794939291906155e8565b600060405180830381600087803b158015611c4157600080fd5b505af1158015611c55573d6000803e3d6000fd5b505050505050505050565b8173ffffffffffffffffffffffffffffffffffffffff166365fae35e826040518263ffffffff1660e01b8152600401611c9991906153a9565b600060405180830381600087803b158015611cb357600080fd5b505af1158015611cc7573d6000803e3d6000fd5b505050505050565b6000611cfa7f4d43445f53504f54000000000000000000000000000000000000000000000000612ee3565b905090565b6000611d2a7f434c49505045525f4d4f4d000000000000000000000000000000000000000000612ee3565b905090565b60008115611dc3576000600760036201518086611d4c919061565c565b611d56919061568d565b611d6091906156c6565b64ffffffffff16905060058110611d7b576000915050611dc8565b60006018610e1086611d8d919061565c565b611d9791906156c6565b64ffffffffff169050600e811080611db0575060158110155b15611dc057600092505050611dc8565b50505b600190505b92915050565b6000611df97f4d43445f56415400000000000000000000000000000000000000000000000000612ee3565b905090565b65ffffffffffff80168110611e1257600080fd5b611e44611e1d613750565b7f74746c000000000000000000000000000000000000000000000000000000000083614413565b50565b6000611e51612737565b73ffffffffffffffffffffffffffffffffffffffff1663247c803f836040518263ffffffff1660e01b8152600401611e899190615514565b602060405180830381865afa158015611ea6573d6000803e3d6000fd5b505050506040513d601f19601f82011682018060405250810190611eca919061537c565b9050919050565b8173ffffffffffffffffffffffffffffffffffffffff166365c4ce7a826040518263ffffffff1660e01b8152600401611f0a91906153a9565b600060405180830381600087803b158015611f2457600080fd5b505af1158015611f38573d6000803e3d6000fd5b505050505050565b6b033b2e3c9fd0803ce80000008210158015611f6857506b033b2e3dd0d78f60556d65838211155b611f7157600080fd5b8015611ff157611f7f612027565b73ffffffffffffffffffffffffffffffffffffffff16639f678cca6040518163ffffffff1660e01b81526004016020604051808303816000875af1158015611fcb573d6000803e3d6000fd5b505050506040513d601f19601f82011682018060405250810190611fef91906153d9565b505b612023611ffc612027565b7f647372000000000000000000000000000000000000000000000000000000000084614413565b5050565b60006120527f4d43445f504f5400000000000000000000000000000000000000000000000000612ee3565b905090565b6064806120649190615289565b811061206f57600080fd5b6120b761207b83611e47565b7f63686970000000000000000000000000000000000000000000000000000000006120b2846064806120ad9190615289565b6147f4565b614413565b5050565b670de0b6b3a764000081106120cf57600080fd5b6121146120da612484565b7f64756d7000000000000000000000000000000000000000000000000000000000670de0b6b3a76400008461210f9190615289565b614413565b50565b670de0b6b3a7640000811061212b57600080fd5b6121358383612daa565b61215e7f4d495032315f4c49515549444154494f4e5f4f5241434c450000000000000000612ee3565b73ffffffffffffffffffffffffffffffffffffffff1663e9eb09f684670de0b6b3a76400008461218e9190615289565b6040518363ffffffff1660e01b81526004016121ab9291906156f7565b600060405180830381600087803b1580156121c557600080fd5b505af11580156121d9573d6000803e3d6000fd5b505050506121e6836125c9565b505050565b73da0ab1e0017debcd72be8599041a2aa3ba7e740f73ffffffffffffffffffffffffffffffffffffffff1663788bc78c826040518263ffffffff1660e01b81526004016122389190615775565b600060405180830381600087803b15801561225257600080fd5b505af1158015612266573d6000803e3d6000fd5b5050505050565b670de0b6b3a7640000811061228157600080fd5b600061228b6138b9565b73ffffffffffffffffffffffffffffffffffffffff1663d9638d36846040518263ffffffff1660e01b81526004016122c39190615514565b6080604051808303816000875af11580156122e2573d6000803e3d6000fd5b505050506040513d601f19601f820116820180604052508101906123069190615797565b5092505050722cd76fe086b93ce2f768a00b22a000000000008161232a91906157fe565b82111561233657600080fd5b612387612341611dce565b847f6475737400000000000000000000000000000000000000000000000000000000722cd76fe086b93ce2f768a00b22a00000000000866123829190615289565b61294b565b600061239284611e47565b73ffffffffffffffffffffffffffffffffffffffff166040516024016040516020818303038152906040527f0cbb5862000000000000000000000000000000000000000000000000000000007bffffffffffffffffffffffffffffffffffffffffffffffffffffffff19166020820180517bffffffffffffffffffffffffffffffffffffffffffffffffffffffff838183161783525050505060405161243891906154ab565b6000604051808303816000865af19150503d8060008114612475576040519150601f19603f3d011682016040523d82523d6000602084013e61247a565b606091505b5050905050505050565b60006124af7f4d43445f564f5700000000000000000000000000000000000000000000000000612ee3565b905090565b60006124df7f4d43445f50415553455f50524f58590000000000000000000000000000000000612ee3565b905090565b6064806124f19190615289565b600a6124fd9190615289565b811061250857600080fd5b6064806125159190615289565b81101561252157600080fd5b61256961252d83611e47565b7f62756600000000000000000000000000000000000000000000000000000000006125648460648061255f9190615289565b6147b0565b614413565b5050565b60648061257a9190615289565b811061258557600080fd5b6125c5827f62617200000000000000000000000000000000000000000000000000000000006125c0846064806125bb9190615289565b6147b0565b614413565b5050565b6125d1611ccf565b73ffffffffffffffffffffffffffffffffffffffff16631504460f826040518263ffffffff1660e01b81526004016126099190615514565b600060405180830381600087803b15801561262357600080fd5b505af1158015612637573d6000803e3d6000fd5b5050505050565b8173ffffffffffffffffffffffffffffffffffffffff16639c52a7f1826040518263ffffffff1660e01b815260040161267791906153a9565b600060405180830381600087803b15801561269157600080fd5b505af11580156126a5573d6000803e3d6000fd5b505050505050565b60006126b7612737565b73ffffffffffffffffffffffffffffffffffffffff1663247c803f836040518263ffffffff1660e01b81526004016126ef9190615514565b602060405180830381865afa15801561270c573d6000803e3d6000fd5b505050506040513d601f19601f82011682018060405250810190612730919061537c565b9050919050565b60006127627f494c4b5f52454749535452590000000000000000000000000000000000000000612ee3565b905090565b670de0b6b3a7640000811061277b57600080fd5b6127cb612786612484565b7f73756d7000000000000000000000000000000000000000000000000000000000722cd76fe086b93ce2f768a00b22a00000000000846127c69190615289565b614413565b50565b670de0b6b3a764000081106127e257600080fd5b6128326127ed612484565b7f62756d7000000000000000000000000000000000000000000000000000000000722cd76fe086b93ce2f768a00b22a000000000008461282d9190615289565b614413565b50565b670de0b6b3a7640000811061284957600080fd5b6000612853611dce565b9050612917817f4c696e6500000000000000000000000000000000000000000000000000000000722cd76fe086b93ce2f768a00b22a00000000000856128999190615289565b8473ffffffffffffffffffffffffffffffffffffffff1663babe8a3f6040518163ffffffff1660e01b8152600401602060405180830381865afa1580156128e4573d6000803e3d6000fd5b505050506040513d601f19601f8201168201806040525081019061290891906153d9565b6129129190615406565b614413565b5050565b60006129467f4d43445f474f5600000000000000000000000000000000000000000000000000612ee3565b905090565b8373ffffffffffffffffffffffffffffffffffffffff16631a0b287e8484846040518463ffffffff1660e01b81526004016129889392919061582f565b600060405180830381600087803b1580156129a257600080fd5b505af11580156129b6573d6000803e3d6000fd5b5050505050505050565b670de0b6b3a764000081106129d457600080fd5b60006129de611dce565b9050612aa2817f4c696e6500000000000000000000000000000000000000000000000000000000722cd76fe086b93ce2f768a00b22a0000000000085612a249190615289565b8473ffffffffffffffffffffffffffffffffffffffff1663babe8a3f6040518163ffffffff1660e01b8152600401602060405180830381865afa158015612a6f573d6000803e3d6000fd5b505050506040513d601f19601f82011682018060405250810190612a9391906153d9565b612a9d9190615866565b614413565b5050565b606480612ab39190615289565b8110612abe57600080fd5b612b18612ac9613750565b7f7061640000000000000000000000000000000000000000000000000000000000612b0084606480612afb9190615289565b6147f4565b670de0b6b3a7640000612b139190615406565b614413565b50565b6000612b467f4c4552505f464142000000000000000000000000000000000000000000000000612ee3565b905090565b6000612b767f4d43445f4a554700000000000000000000000000000000000000000000000000612ee3565b905090565b612b836140ba565b73ffffffffffffffffffffffffffffffffffffffff1663c98cdf8682846040518363ffffffff1660e01b8152600401612bbd9291906154c2565b600060405180830381600087803b158015612bd757600080fd5b505af1158015612beb573d6000803e3d6000fd5b505050505050565b670de0b6b3a76400008110612c0757600080fd5b612c57612c12611dce565b7f4c696e6500000000000000000000000000000000000000000000000000000000722cd76fe086b93ce2f768a00b22a0000000000084612c529190615289565b614413565b50565b670de0b6b3a76400008110612c6e57600080fd5b612cab612c79611ccf565b7f7061720000000000000000000000000000000000000000000000000000000000612ca6846103e86147b0565b614413565b50565b612cb6611dce565b73ffffffffffffffffffffffffffffffffffffffff1663dc4d20fa826040518263ffffffff1660e01b8152600401612cee91906153a9565b600060405180830381600087803b158015612d0857600080fd5b505af1158015612d1c573d6000803e3d6000fd5b5050505050565b612d2b612b4b565b73ffffffffffffffffffffffffffffffffffffffff166344e2a5a8826040518263ffffffff1660e01b8152600401612d639190615514565b6020604051808303816000875af1158015612d82573d6000803e3d6000fd5b505050506040513d601f19601f82011682018060405250810190612da691906153d9565b5050565b670de0b6b3a76400008110612dbe57600080fd5b612e0f612dc9611dce565b837f6c696e6500000000000000000000000000000000000000000000000000000000722cd76fe086b93ce2f768a00b22a0000000000085612e0a9190615289565b61294b565b5050565b670de0b6b3a76400008110612e2757600080fd5b612e78612e326138b9565b837f686f6c6500000000000000000000000000000000000000000000000000000000722cd76fe086b93ce2f768a00b22a0000000000085612e739190615289565b61294b565b5050565b670de0b6b3a76400008110612e9057600080fd5b612ee0612e9b612484565b7f68756d7000000000000000000000000000000000000000000000000000000000722cd76fe086b93ce2f768a00b22a0000000000084612edb9190615289565b614413565b50565b600073da0ab1e0017debcd72be8599041a2aa3ba7e740f73ffffffffffffffffffffffffffffffffffffffff166321f8a721836040518263ffffffff1660e01b8152600401612f329190615514565b602060405180830381865afa158015612f4f573d6000803e3d6000fd5b505050506040513d601f19601f82011682018060405250810190612f73919061537c565b9050919050565b612f82612027565b73ffffffffffffffffffffffffffffffffffffffff16639f678cca6040518163ffffffff1660e01b81526004016020604051808303816000875af1158015612fce573d6000803e3d6000fd5b505050506040513d601f19601f82011682018060405250810190612ff291906153d9565b50565b6064806130029190615289565b811061300d57600080fd5b6130676130186117ed565b7f626567000000000000000000000000000000000000000000000000000000000061304f8460648061304a9190615289565b6147f4565b670de0b6b3a76400006130629190615406565b614413565b50565b61309c6130756117ed565b7f746175000000000000000000000000000000000000000000000000000000000083614413565b50565b670de0b6b3a764000082106130b357600080fd5b60006130bd611dce565b905060008173ffffffffffffffffffffffffffffffffffffffff1663d9638d36866040518263ffffffff1660e01b81526004016130fa9190615514565b60a0604051808303816000875af1158015613119573d6000803e3d6000fd5b505050506040513d601f19601f8201168201806040525081019061313d919061589a565b50935050505061319882867f6c696e6500000000000000000000000000000000000000000000000000000000722cd76fe086b93ce2f768a00b22a00000000000886131889190615289565b856131939190615866565b61294b565b82156131a8576131a7846129c0565b5b5050505050565b6b033b2e3c9fd0803ce800000081101580156131d757506b033b2e3dd0d78f60556d65838111155b6131e057600080fd5b6132126131eb612b4b565b7f626173650000000000000000000000000000000000000000000000000000000083614413565b50565b670de0b6b3a7640000811061322957600080fd5b6132796132346138b9565b7f486f6c6500000000000000000000000000000000000000000000000000000000722cd76fe086b93ce2f768a00b22a00000000000846132749190615289565b614413565b50565b60006132a77f4d43445f45534d00000000000000000000000000000000000000000000000000612ee3565b905090565b670de0b6b3a764000083106132c057600080fd5b670de0b6b3a764000082106132d457600080fd5b6132dc614485565b73ffffffffffffffffffffffffffffffffffffffff16632a48322d85722cd76fe086b93ce2f768a00b22a00000000000866133179190615289565b722cd76fe086b93ce2f768a00b22a00000000000866133369190615289565b856040518563ffffffff1660e01b815260040161335694939291906155e8565b600060405180830381600087803b15801561337057600080fd5b505af1158015613384573d6000803e3d6000fd5b5050505050505050565b600080613399612b1b565b73ffffffffffffffffffffffffffffffffffffffff1663e02b0a5f8b8b8b8b8b8b8b8b6040518963ffffffff1660e01b81526004016133df989796959493929190615915565b6020604051808303816000875af11580156133fe573d6000803e3d6000fd5b505050506040513d601f19601f82011682018060405250810190613422919061537c565b90508873ffffffffffffffffffffffffffffffffffffffff166365fae35e826040518263ffffffff1660e01b815260040161345d91906153a9565b600060405180830381600087803b15801561347757600080fd5b505af115801561348b573d6000803e3d6000fd5b505050508073ffffffffffffffffffffffffffffffffffffffff16633eaf5d9f6040518163ffffffff1660e01b81526004016020604051808303816000875af11580156134dc573d6000803e3d6000fd5b505050506040513d601f19601f8201168201806040525081019061350091906153d9565b508091505098975050505050505050565b670de0b6b3a7640000811061352557600080fd5b61352d611dce565b73ffffffffffffffffffffffffffffffffffffffff1663f24e23eb613550612484565b30722cd76fe086b93ce2f768a00b22a00000000000856135709190615289565b6040518463ffffffff1660e01b815260040161358e93929190615993565b600060405180830381600087803b1580156135a857600080fd5b505af11580156135bc573d6000803e3d6000fd5b505050506135c8613809565b73ffffffffffffffffffffffffffffffffffffffff1663ef693bed83670de0b6b3a7640000846135f89190615289565b6040518363ffffffff1660e01b81526004016136159291906154eb565b600060405180830381600087803b15801561362f57600080fd5b505af1158015613643573d6000803e3d6000fd5b505050505050565b61367d6136566117ed565b7f74746c000000000000000000000000000000000000000000000000000000000083614413565b50565b670de0b6b3a7640000811061369457600080fd5b6136e56136a083611e47565b7f7469700000000000000000000000000000000000000000000000000000000000722cd76fe086b93ce2f768a00b22a00000000000846136e09190615289565b614413565b5050565b670de0b6b3a764000081106136fd57600080fd5b61374d6137086140ea565b7f626f780000000000000000000000000000000000000000000000000000000000722cd76fe086b93ce2f768a00b22a00000000000846137489190615289565b614413565b50565b600061377b7f4d43445f464c4f50000000000000000000000000000000000000000000000000612ee3565b905090565b60648061378d9190615289565b600a6137999190615289565b81106137a457600080fd5b6064806137b19190615289565b8110156137bd57600080fd5b6138056137c8611ccf565b837f6d61740000000000000000000000000000000000000000000000000000000000613800856064806137fb9190615289565b6147b0565b61294b565b5050565b60006138347f4d43445f4a4f494e5f4441490000000000000000000000000000000000000000612ee3565b905090565b600061384482611e47565b73ffffffffffffffffffffffffffffffffffffffff166396f1b6be6040518163ffffffff1660e01b8152600401602060405180830381865afa15801561388e573d6000803e3d6000fd5b505050506040513d601f19601f820116820180604052508101906138b2919061537c565b9050919050565b60006138e47f4d43445f444f4700000000000000000000000000000000000000000000000000612ee3565b905090565b73da0ab1e0017debcd72be8599041a2aa3ba7e740f73ffffffffffffffffffffffffffffffffffffffff1663884a631f826040518263ffffffff1660e01b81526004016139369190615775565b600060405180830381600087803b15801561395057600080fd5b505af1158015613964573d6000803e3d6000fd5b5050505050565b613973611dce565b73ffffffffffffffffffffffffffffffffffffffff1663a3b22fc4826040518263ffffffff1660e01b81526004016139ab91906153a9565b600060405180830381600087803b1580156139c557600080fd5b505af11580156139d9573d6000803e3d6000fd5b5050505050565b6064806139ed9190615289565b81106139f857600080fd5b613a52613a03613750565b7f6265670000000000000000000000000000000000000000000000000000000000613a3a84606480613a359190615289565b6147f4565b670de0b6b3a7640000613a4d9190615406565b614413565b50565b60008273ffffffffffffffffffffffffffffffffffffffff1682604051602401613a7f91906153a9565b6040516020818303038152906040527f65c4ce7a000000000000000000000000000000000000000000000000000000007bffffffffffffffffffffffffffffffffffffffffffffffffffffffff19166020820180517bffffffffffffffffffffffffffffffffffffffffffffffffffffffff8381831617835250505050604051613b0991906154ab565b6000604051808303816000865af19150503d8060008114613b46576040519150601f19603f3d011682016040523d82523d6000602084013e613b4b565b606091505b50509050505050565b606480613b619190615289565b8110613b6c57600080fd5b613bac837f6375740000000000000000000000000000000000000000000000000000000000613ba784606480613ba29190615289565b6147b0565b614413565b613bd7837f737465700000000000000000000000000000000000000000000000000000000084614413565b505050565b6000808464ffffffffff1603613bf157600080fd5b60008364ffffffffff1603613c0557600080fd5b8364ffffffffff168364ffffffffff1611613c205783613c22565b825b64ffffffffff1690508115613e10576000600760036201518084613c4691906157fe565b613c509190615406565b613c5a91906159ca565b905060006018610e1084613c6e91906157fe565b613c7891906159ca565b90506000603c8085613c8a91906157fe565b613c9491906159ca565b90506000603c85613ca591906159ca565b905060058410613d345762015180846006613cc09190615866565b613cca9190615289565b85613cd59190615406565b9450610e10600e846018613ce99190615866565b613cf39190615406565b613cfd9190615289565b85613d089190615406565b945080603c83613d189190615289565b613d229190615406565b85613d2d9190615866565b9450613e0b565b60158310613db35760048403613d56576202a30085613d539190615406565b94505b610e10600e846018613d689190615866565b613d729190615406565b613d7c9190615289565b85613d879190615406565b945080603c83613d979190615289565b613da19190615406565b85613dac9190615866565b9450613e0a565b600e831015613e0957610e1083600e613dcc9190615866565b613dd69190615289565b85613de19190615406565b945080603c83613df19190615289565b613dfb9190615406565b85613e069190615866565b94505b5b5b505050505b9392505050565b613e42827f746175000000000000000000000000000000000000000000000000000000000083614413565b5050565b73da0ab1e0017debcd72be8599041a2aa3ba7e740f73ffffffffffffffffffffffffffffffffffffffff1663d19ac77a826040518263ffffffff1660e01b8152600401613e939190615775565b600060405180830381600087803b158015613ead57600080fd5b505af1158015613ec1573d6000803e3d6000fd5b5050505050565b60008273ffffffffffffffffffffffffffffffffffffffff1682604051602401613ef291906153a9565b6040516020818303038152906040527ff29c29c4000000000000000000000000000000000000000000000000000000007bffffffffffffffffffffffffffffffffffffffffffffffffffffffff19166020820180517bffffffffffffffffffffffffffffffffffffffffffffffffffffffff8381831617835250505050604051613f7c91906154ab565b6000604051808303816000865af19150503d8060008114613fb9576040519150601f19603f3d011682016040523d82523d6000602084013e613fbe565b606091505b50509050505050565b6b033b2e3c9fd0803ce80000008210158015613fef57506b033b2e3dd0d78f60556d65838211155b613ff857600080fd5b6000614002612b4b565b90508115614088578073ffffffffffffffffffffffffffffffffffffffff166344e2a5a8856040518263ffffffff1660e01b81526004016140439190615514565b6020604051808303816000875af1158015614062573d6000803e3d6000fd5b505050506040513d601f19601f8201168201806040525081019061408691906153d9565b505b6140b481857f64757479000000000000000000000000000000000000000000000000000000008661294b565b50505050565b60006140e57f4f534d5f4d4f4d00000000000000000000000000000000000000000000000000612ee3565b905090565b60006141157f4d43445f43415400000000000000000000000000000000000000000000000000612ee3565b905090565b8373ffffffffffffffffffffffffffffffffffffffff1663ebecb39d8484846040518463ffffffff1660e01b8152600401614157939291906159fb565b600060405180830381600087803b15801561417157600080fd5b505af1158015614185573d6000803e3d6000fd5b5050505050505050565b8173ffffffffffffffffffffffffffffffffffffffff16637a9e5e4b826040518263ffffffff1660e01b81526004016141c891906153a9565b600060405180830381600087803b1580156141e257600080fd5b505af11580156141f6573d6000803e3d6000fd5b505050505050565b6000808273ffffffffffffffffffffffffffffffffffffffff166040516024016040516020818303038152906040527f6c2552f9000000000000000000000000000000000000000000000000000000007bffffffffffffffffffffffffffffffffffffffffffffffffffffffff19166020820180517bffffffffffffffffffffffffffffffffffffffffffffffffffffffff83818316178352505050506040516142a891906154ab565b6000604051808303816000865af19150503d80600081146142e5576040519150601f19603f3d011682016040523d82523d6000602084013e6142ea565b606091505b509150915081156143955760008180602001905181019061430b9190615a70565b90506143178185613ec8565b61438f8473ffffffffffffffffffffffffffffffffffffffff1663dca44f6f6040518163ffffffff1660e01b8152600401602060405180830381865afa158015614365573d6000803e3d6000fd5b505050506040513d601f19601f82011682018060405250810190614389919061537c565b85613ec8565b5061440e565b61440d8373ffffffffffffffffffffffffffffffffffffffff16632e7dc6af6040518163ffffffff1660e01b8152600401602060405180830381865afa1580156143e3573d6000803e3d6000fd5b505050506040513d601f19601f82011682018060405250810190614407919061537c565b84613ec8565b5b505050565b8273ffffffffffffffffffffffffffffffffffffffff166329ae811483836040518363ffffffff1660e01b815260040161444e9291906156f7565b600060405180830381600087803b15801561446857600080fd5b505af115801561447c573d6000803e3d6000fd5b50505050505050565b60006144b07f4d43445f49414d5f4155544f5f4c494e45000000000000000000000000000000612ee3565b905090565b6144e76144c06145fa565b7f776169740000000000000000000000000000000000000000000000000000000083614413565b50565b670de0b6b3a764000082106144fe57600080fd5b6000614508611dce565b905060008173ffffffffffffffffffffffffffffffffffffffff1663d9638d36866040518263ffffffff1660e01b81526004016145459190615514565b60a0604051808303816000875af1158015614564573d6000803e3d6000fd5b505050506040513d601f19601f82011682018060405250810190614588919061589a565b5093505050506145e382867f6c696e6500000000000000000000000000000000000000000000000000000000722cd76fe086b93ce2f768a00b22a00000000000886145d39190615289565b856145de9190615406565b61294b565b82156145f3576145f284612835565b5b5050505050565b60006146257f4d43445f454e4400000000000000000000000000000000000000000000000000612ee3565b905090565b614632614485565b73ffffffffffffffffffffffffffffffffffffffff1663c465f077826040518263ffffffff1660e01b815260040161466a9190615514565b600060405180830381600087803b15801561468457600080fd5b505af1158015614698573d6000803e3d6000fd5b5050505050565b8273ffffffffffffffffffffffffffffffffffffffff1663d4e8be8383836040518363ffffffff1660e01b81526004016146da9291906154c2565b600060405180830381600087803b1580156146f457600080fd5b505af1158015614708573d6000803e3d6000fd5b50505050505050565b600061473c7f4d43445f44414900000000000000000000000000000000000000000000000000612ee3565b905090565b8173ffffffffffffffffffffffffffffffffffffffff1663352d3fba826040518263ffffffff1660e01b815260040161477a9190615a9d565b600060405180830381600087803b15801561479457600080fd5b505af11580156147a8573d6000803e3d6000fd5b505050505050565b6000816002836147c091906157fe565b6b033b2e3c9fd0803ce8000000856147d89190615289565b6147e29190615406565b6147ec91906157fe565b905092915050565b60008160028361480491906157fe565b670de0b6b3a7640000856148189190615289565b6148229190615406565b61482c91906157fe565b905092915050565b6000604051905090565b600080fd5b600080fd5b6000819050919050565b61485b81614848565b811461486657600080fd5b50565b60008135905061487881614852565b92915050565b6000819050919050565b6148918161487e565b811461489c57600080fd5b50565b6000813590506148ae81614888565b92915050565b600080604083850312156148cb576148ca61483e565b5b60006148d985828601614869565b92505060206148ea8582860161489f565b9150509250929050565b600073ffffffffffffffffffffffffffffffffffffffff82169050919050565b600061491f826148f4565b9050919050565b61492f81614914565b811461493a57600080fd5b50565b60008135905061494c81614926565b92915050565b600080600080600080600060e0888a0312156149715761497061483e565b5b600061497f8a828b01614869565b97505060206149908a828b0161493d565b96505060406149a18a828b01614869565b95505060606149b28a828b0161489f565b94505060806149c38a828b0161489f565b93505060a06149d48a828b0161489f565b92505060c06149e58a828b0161489f565b91505092959891949750929550565b6149fd81614914565b82525050565b6000602082019050614a1860008301846149f4565b92915050565b600060208284031215614a3457614a3361483e565b5b6000614a428482850161489f565b91505092915050565b60008060408385031215614a6257614a6161483e565b5b6000614a708582860161493d565b9250506020614a818582860161489f565b9150509250929050565b60008060408385031215614aa257614aa161483e565b5b6000614ab085828601614869565b9250506020614ac18582860161493d565b9150509250929050565b60008060408385031215614ae257614ae161483e565b5b6000614af08582860161493d565b9250506020614b018582860161493d565b9150509250929050565b600064ffffffffff82169050919050565b614b2581614b0b565b8114614b3057600080fd5b50565b600081359050614b4281614b1c565b92915050565b60008115159050919050565b614b5d81614b48565b8114614b6857600080fd5b50565b600081359050614b7a81614b54565b92915050565b60008060408385031215614b9757614b9661483e565b5b6000614ba585828601614b33565b9250506020614bb685828601614b6b565b9150509250929050565b614bc981614b48565b82525050565b6000602082019050614be46000830184614bc0565b92915050565b600060208284031215614c0057614bff61483e565b5b6000614c0e84828501614869565b91505092915050565b60008060408385031215614c2e57614c2d61483e565b5b6000614c3c8582860161489f565b9250506020614c4d85828601614b6b565b9150509250929050565b600080600060608486031215614c7057614c6f61483e565b5b6000614c7e86828701614869565b9350506020614c8f8682870161489f565b9250506040614ca08682870161489f565b9150509250925092565b600080fd5b600080fd5b6000601f19601f8301169050919050565b7f4e487b7100000000000000000000000000000000000000000000000000000000600052604160045260246000fd5b614cfd82614cb4565b810181811067ffffffffffffffff82111715614d1c57614d1b614cc5565b5b80604052505050565b6000614d2f614834565b9050614d3b8282614cf4565b919050565b600067ffffffffffffffff821115614d5b57614d5a614cc5565b5b614d6482614cb4565b9050602081019050919050565b82818337600083830152505050565b6000614d93614d8e84614d40565b614d25565b905082815260208101848484011115614daf57614dae614caf565b5b614dba848285614d71565b509392505050565b600082601f830112614dd757614dd6614caa565b5b8135614de7848260208601614d80565b91505092915050565b600060208284031215614e0657614e0561483e565b5b600082013567ffffffffffffffff811115614e2457614e23614843565b5b614e3084828501614dc2565b91505092915050565b60008060008060808587031215614e5357614e5261483e565b5b6000614e618782880161493d565b9450506020614e7287828801614869565b9350506040614e8387828801614869565b9250506060614e948782880161489f565b91505092959194509250565b60008060408385031215614eb757614eb661483e565b5b6000614ec58582860161493d565b9250506020614ed685828601614869565b9150509250929050565b600060208284031215614ef657614ef561483e565b5b6000614f048482850161493d565b91505092915050565b600080600060608486031215614f2657614f2561483e565b5b6000614f3486828701614869565b9350506020614f458682870161489f565b9250506040614f5686828701614b6b565b9150509250925092565b60008060008060808587031215614f7a57614f7961483e565b5b6000614f8887828801614869565b9450506020614f998782880161489f565b9350506040614faa8782880161489f565b9250506060614fbb8782880161489f565b91505092959194509250565b600080600080600080600080610100898b031215614fe857614fe761483e565b5b6000614ff68b828c01614869565b98505060206150078b828c0161493d565b97505060406150188b828c01614869565b96505060606150298b828c01614869565b955050608061503a8b828c0161489f565b94505060a061504b8b828c0161489f565b93505060c061505c8b828c0161489f565b92505060e061506d8b828c0161489f565b9150509295985092959890939650565b6000806000606084860312156150965761509561483e565b5b60006150a48682870161493d565b93505060206150b58682870161489f565b92505060406150c68682870161489f565b9150509250925092565b6000806000606084860312156150e9576150e861483e565b5b60006150f786828701614b33565b935050602061510886828701614b33565b925050604061511986828701614b6b565b9150509250925092565b61512c8161487e565b82525050565b60006020820190506151476000830184615123565b92915050565b600080600080608085870312156151675761516661483e565b5b60006151758782880161493d565b945050602061518687828801614869565b935050604061519787828801614869565b92505060606151a88782880161493d565b91505092959194509250565b6000806000606084860312156151cd576151cc61483e565b5b60006151db8682870161493d565b93505060206151ec86828701614869565b92505060406151fd8682870161489f565b9150509250925092565b6000806000606084860312156152205761521f61483e565b5b600061522e8682870161493d565b935050602061523f86828701614869565b92505060406152508682870161493d565b9150509250925092565b7f4e487b7100000000000000000000000000000000000000000000000000000000600052601160045260246000fd5b60006152948261487e565b915061529f8361487e565b92508282026152ad8161487e565b915082820484148315176152c4576152c361525a565b5b5092915050565b6152d481614848565b82525050565b6152e381614914565b82525050565b6152f28161487e565b82525050565b600060e08201905061530d600083018a6152cb565b61531a60208301896152da565b61532760408301886152cb565b61533460608301876152e9565b61534160808301866152e9565b61534e60a08301856152e9565b61535b60c08301846152e9565b98975050505050505050565b60008151905061537681614926565b92915050565b6000602082840312156153925761539161483e565b5b60006153a084828501615367565b91505092915050565b60006020820190506153be60008301846152da565b92915050565b6000815190506153d381614888565b92915050565b6000602082840312156153ef576153ee61483e565b5b60006153fd848285016153c4565b91505092915050565b60006154118261487e565b915061541c8361487e565b92508282019050808211156154345761543361525a565b5b92915050565b600081519050919050565b600081905092915050565b60005b8381101561546e578082015181840152602081019050615453565b60008484015250505050565b60006154858261543a565b61548f8185615445565b935061549f818560208601615450565b80840191505092915050565b60006154b7828461547a565b915081905092915050565b60006040820190506154d760008301856152cb565b6154e460208301846152da565b9392505050565b600060408201905061550060008301856152da565b61550d60208301846152e9565b9392505050565b600060208201905061552960008301846152cb565b92915050565b600065ffffffffffff82169050919050565b61554a8161552f565b811461555557600080fd5b50565b60008151905061556781615541565b92915050565b600080600080600060a086880312156155895761558861483e565b5b6000615597888289016153c4565b95505060206155a8888289016153c4565b94505060406155b988828901615558565b93505060606155ca88828901615558565b92505060806155db88828901615558565b9150509295509295909350565b60006080820190506155fd60008301876152cb565b61560a60208301866152e9565b61561760408301856152e9565b61562460608301846152e9565b95945050505050565b7f4e487b7100000000000000000000000000000000000000000000000000000000600052601260045260246000fd5b600061566782614b0b565b915061567283614b0b565b9250826156825761568161562d565b5b828204905092915050565b600061569882614b0b565b91506156a383614b0b565b9250828201905064ffffffffff8111156156c0576156bf61525a565b5b92915050565b60006156d182614b0b565b91506156dc83614b0b565b9250826156ec576156eb61562d565b5b828206905092915050565b600060408201905061570c60008301856152cb565b61571960208301846152e9565b9392505050565b600081519050919050565b600082825260208201905092915050565b600061574782615720565b615751818561572b565b9350615761818560208601615450565b61576a81614cb4565b840191505092915050565b6000602082019050818103600083015261578f818461573c565b905092915050565b600080600080608085870312156157b1576157b061483e565b5b60006157bf87828801615367565b94505060206157d0878288016153c4565b93505060406157e1878288016153c4565b92505060606157f2878288016153c4565b91505092959194509250565b60006158098261487e565b91506158148361487e565b9250826158245761582361562d565b5b828204905092915050565b600060608201905061584460008301866152cb565b61585160208301856152cb565b61585e60408301846152e9565b949350505050565b60006158718261487e565b915061587c8361487e565b92508282039050818111156158945761589361525a565b5b92915050565b600080600080600060a086880312156158b6576158b561483e565b5b60006158c4888289016153c4565b95505060206158d5888289016153c4565b94505060406158e6888289016153c4565b93505060606158f7888289016153c4565b9250506080615908888289016153c4565b9150509295509295909350565b60006101008201905061592b600083018b6152cb565b615938602083018a6152da565b61594560408301896152cb565b61595260608301886152cb565b61595f60808301876152e9565b61596c60a08301866152e9565b61597960c08301856152e9565b61598660e08301846152e9565b9998505050505050505050565b60006060820190506159a860008301866152da565b6159b560208301856152da565b6159c260408301846152e9565b949350505050565b60006159d58261487e565b91506159e08361487e565b9250826159f0576159ef61562d565b5b828206905092915050565b6000606082019050615a1060008301866152cb565b615a1d60208301856152cb565b615a2a60408301846152da565b949350505050565b6000615a3d826148f4565b9050919050565b615a4d81615a32565b8114615a5857600080fd5b50565b600081519050615a6a81615a44565b92915050565b600060208284031215615a8657615a8561483e565b5b6000615a9484828501615a5b565b91505092915050565b6000602082019050615ab260008301846152e9565b9291505056fea26469706673582212203bdeb00a126e685433bbadff136cf538ebc53ec3508838ef9306e3156e0c13e964736f6c63430008180033",
  "linkReferences": {},
  "deployedLinkReferences": {}
}