{
  "_format": "hh-sol-artifact-1",
  "contractName": "DssSpellAction",
  "sourceName": "contracts/DssSpell.sol",
  "abi": [
    {
      "inputs": [],
      "name": "actions",
      "outputs": [],
      "stateMutability": "nonpayable",
      "type": "function"
    },
    {
      "inputs": [],
      "name": "description",
      "outputs": [
        {
          "internalType": "string",
          "name": "",
          "type": "string"
        }
      ],
      "stateMutability": "view",
      "type": "function"
    },
    {
      "inputs": [],
      "name": "execute",
      "outputs": [],
      "stateMutability": "nonpayable",
      "type": "function"
    },
    {
      "inputs": [
        {
          "internalType": "uint256",
          "name": "eta",
          "type": "uint256"
        }
      ],
      "name": "nextCastTime",
      "outputs": [
        {
          "internalType": "uint256",
          "name": "castTime",
          "type": "uint256"
        }
      ],
      "stateMutability": "view",
      "type": "function"
    },
    {
      "inputs": [],
      "name": "officeHours",
      "outputs": [
        {
          "internalType": "bool",
          "name": "",
          "type": "bool"
        }
      ],
      "stateMutability": "pure",
      "type": "function"
    }
  ],
  "bytecode": "0x608060405234801561001057600080fd5b50615217806100206000396000f3fe608060405234801561001057600080fd5b50600436106100575760003560e01c8063614619541461005c5780636e832f07146100665780637284e41614610084578063bf0fbcec146100a2578063f99e36bc146100d2575b600080fd5b6100646100dc565b005b61006e6101a6565b60405161007b9190614674565b60405180910390f35b61008c6101ab565b604051610099919061471f565b60405180910390f35b6100bc60048036038101906100b7919061477c565b6101c7565b6040516100c991906147b8565b60405180910390f35b6100da610267565b005b73__$3460f78de88eac5d504038ca885511d774$__6335329d4c426100ff6101a6565b6040518363ffffffff1660e01b815260040161011c929190614802565b602060405180830381865af4158015610139573d6000803e3d6000fd5b505050506040513d601f19601f8201168201806040525081019061015d9190614857565b61019c576040517f08c379a0000000000000000000000000000000000000000000000000000000008152600401610193906148d0565b60405180910390fd5b6101a4610267565b565b600090565b6040518060a00160405280606d8152602001615175606d913981565b600064ffffffffff80168211156101dd57600080fd5b73__$3460f78de88eac5d504038ca885511d774$__63d255745683426102016101a6565b6040518463ffffffff1660e01b815260040161021f939291906148f0565b602060405180830381865af415801561023c573d6000803e3d6000fd5b505050506040513d601f19601f82011682018060405250810190610260919061493c565b9050919050565b73__$3460f78de88eac5d504038ca885511d774$__634e39aee3600a6040518263ffffffff1660e01b815260040161029f91906149ae565b60006040518083038186803b1580156102b757600080fd5b505af41580156102cb573d6000803e3d6000fd5b5050505073__$3460f78de88eac5d504038ca885511d774$__6377dbf55a62061a806040518263ffffffff1660e01b81526004016103099190614a04565b60006040518083038186803b15801561032157600080fd5b505af4158015610335573d6000803e3d6000fd5b5050505073__$3460f78de88eac5d504038ca885511d774$__63153a8513610e106040518263ffffffff1660e01b81526004016103729190614a5a565b60006040518083038186803b15801561038a57600080fd5b505af415801561039e573d6000803e3d6000fd5b5050505073__$3460f78de88eac5d504038ca885511d774$__63402ef0766107086040518263ffffffff1660e01b81526004016103db9190614ab0565b60006040518083038186803b1580156103f357600080fd5b505af4158015610407573d6000803e3d6000fd5b5050505073__$3460f78de88eac5d504038ca885511d774$__638d196e32640218711a006040518263ffffffff1660e01b81526004016104479190614b06565b60006040518083038186803b15801561045f57600080fd5b505af4158015610473573d6000803e3d6000fd5b5050505073__$3460f78de88eac5d504038ca885511d774$__632bef459573__$3460f78de88eac5d504038ca885511d774$__632e77468d6040518163ffffffff1660e01b8152600401602060405180830381865af41580156104da573d6000803e3d6000fd5b505050506040513d601f19601f820116820180604052508101906104fe9190614b7f565b7372550b5e1c3904faeea48f0149c168386e4c4d656040518363ffffffff1660e01b8152600401610530929190614bbb565b60006040518083038186803b15801561054857600080fd5b505af415801561055c573d6000803e3d6000fd5b5050505073be286431454714f511008713973d3b053a2d38f373ffffffffffffffffffffffffffffffffffffffff166313af403560006040518263ffffffff1660e01b81526004016105ae9190614bf3565b600060405180830381600087803b1580156105c857600080fd5b505af11580156105dc573d6000803e3d6000fd5b505050507381fe72b5a8d1a857d176c3e7d5bd2679a9b8576373ffffffffffffffffffffffffffffffffffffffff16631e77933e73613433ae2b8d3ae6371ca6ec26bce0a73c005ba26040518263ffffffff1660e01b81526004016106419190614bf3565b600060405180830381600087803b15801561065b57600080fd5b505af115801561066f573d6000803e3d6000fd5b5050505073__$3460f78de88eac5d504038ca885511d774$__63dfe425b97381fe72b5a8d1a857d176c3e7d5bd2679a9b8576373ffffffffffffffffffffffffffffffffffffffff16632e7dc6af6040518163ffffffff1660e01b8152600401602060405180830381865afa1580156106ec573d6000803e3d6000fd5b505050506040513d601f19601f820116820180604052508101906107109190614b7f565b7381fe72b5a8d1a857d176c3e7d5bd2679a9b857636040518363ffffffff1660e01b8152600401610742929190614bbb565b60006040518083038186803b15801561075a57600080fd5b505af415801561076e573d6000803e3d6000fd5b5050505073b4eb54af9cc7882df0121d26c5b97e802915abe673ffffffffffffffffffffffffffffffffffffffff16631e77933e7382e5e259ed1569586fcca571ce50a7d1d6786bad6040518263ffffffff1660e01b81526004016107d39190614bf3565b600060405180830381600087803b1580156107ed57600080fd5b505af1158015610801573d6000803e3d6000fd5b5050505073__$3460f78de88eac5d504038ca885511d774$__63dfe425b973b4eb54af9cc7882df0121d26c5b97e802915abe673ffffffffffffffffffffffffffffffffffffffff16632e7dc6af6040518163ffffffff1660e01b8152600401602060405180830381865afa15801561087e573d6000803e3d6000fd5b505050506040513d601f19601f820116820180604052508101906108a29190614b7f565b73b4eb54af9cc7882df0121d26c5b97e802915abe66040518363ffffffff1660e01b81526004016108d4929190614bbb565b60006040518083038186803b1580156108ec57600080fd5b505af4158015610900573d6000803e3d6000fd5b5050505073__$3460f78de88eac5d504038ca885511d774$__63e5c6eb3373__$3460f78de88eac5d504038ca885511d774$__632e77468d6040518163ffffffff1660e01b8152600401602060405180830381865af4158015610967573d6000803e3d6000fd5b505050506040513d601f19601f8201168201806040525081019061098b9190614b7f565b7f555344432d4100000000000000000000000000000000000000000000000000007364ee82fc3af7785fbd78a2be24b0b31cd7bfd2e06040518463ffffffff1660e01b81526004016109df93929190614c86565b60006040518083038186803b1580156109f757600080fd5b505af4158015610a0b573d6000803e3d6000fd5b5050505073__$3460f78de88eac5d504038ca885511d774$__63e5c6eb3373__$3460f78de88eac5d504038ca885511d774$__632e77468d6040518163ffffffff1660e01b8152600401602060405180830381865af4158015610a72573d6000803e3d6000fd5b505050506040513d601f19601f82011682018060405250810190610a969190614b7f565b7f50534d2d555344432d41000000000000000000000000000000000000000000007364ee82fc3af7785fbd78a2be24b0b31cd7bfd2e06040518463ffffffff1660e01b8152600401610aea93929190614d04565b60006040518083038186803b158015610b0257600080fd5b505af4158015610b16573d6000803e3d6000fd5b5050505073__$3460f78de88eac5d504038ca885511d774$__632bef45957364ee82fc3af7785fbd78a2be24b0b31cd7bfd2e073__$3460f78de88eac5d504038ca885511d774$__63e475ac5d6040518163ffffffff1660e01b8152600401602060405180830381865af4158015610b92573d6000803e3d6000fd5b505050506040513d601f19601f82011682018060405250810190610bb69190614b7f565b6040518363ffffffff1660e01b8152600401610bd3929190614bbb565b60006040518083038186803b158015610beb57600080fd5b505af4158015610bff573d6000803e3d6000fd5b5050505073__$3460f78de88eac5d504038ca885511d774$__63e9d8ccb87364ee82fc3af7785fbd78a2be24b0b31cd7bfd2e06040518263ffffffff1660e01b8152600401610c4e9190614d47565b60006040518083038186803b158015610c6657600080fd5b505af4158015610c7a573d6000803e3d6000fd5b5050505073__$3460f78de88eac5d504038ca885511d774$__63268e51437364ee82fc3af7785fbd78a2be24b0b31cd7bfd2e073__$3460f78de88eac5d504038ca885511d774$__632e77468d6040518163ffffffff1660e01b8152600401602060405180830381865af4158015610cf6573d6000803e3d6000fd5b505050506040513d601f19601f82011682018060405250810190610d1a9190614b7f565b6040518363ffffffff1660e01b8152600401610d37929190614bbb565b60006040518083038186803b158015610d4f57600080fd5b505af4158015610d63573d6000803e3d6000fd5b5050505073__$3460f78de88eac5d504038ca885511d774$__63268e51437364ee82fc3af7785fbd78a2be24b0b31cd7bfd2e073046b1a5718da6a226d912cfd306ba199807729086040518363ffffffff1660e01b8152600401610dc8929190614bbb565b60006040518083038186803b158015610de057600080fd5b505af4158015610df4573d6000803e3d6000fd5b5050505073__$3460f78de88eac5d504038ca885511d774$__63268e51437364ee82fc3af7785fbd78a2be24b0b31cd7bfd2e073__$3460f78de88eac5d504038ca885511d774$__6331e0b8026040518163ffffffff1660e01b8152600401602060405180830381865af4158015610e70573d6000803e3d6000fd5b505050506040513d601f19601f82011682018060405250810190610e949190614b7f565b6040518363ffffffff1660e01b8152600401610eb1929190614bbb565b60006040518083038186803b158015610ec957600080fd5b505af4158015610edd573d6000803e3d6000fd5b5050505073__$3460f78de88eac5d504038ca885511d774$__63268e51437364ee82fc3af7785fbd78a2be24b0b31cd7bfd2e073__$3460f78de88eac5d504038ca885511d774$__63efbe1c1c6040518163ffffffff1660e01b8152600401602060405180830381865af4158015610f59573d6000803e3d6000fd5b505050506040513d601f19601f82011682018060405250810190610f7d9190614b7f565b6040518363ffffffff1660e01b8152600401610f9a929190614bbb565b60006040518083038186803b158015610fb257600080fd5b505af4158015610fc6573d6000803e3d6000fd5b5050505073__$3460f78de88eac5d504038ca885511d774$__6389c320767364ee82fc3af7785fbd78a2be24b0b31cd7bfd2e07f555344432d4100000000000000000000000000000000000000000000000000006040518363ffffffff1660e01b8152600401611037929190614d62565b60006040518083038186803b15801561104f57600080fd5b505af4158015611063573d6000803e3d6000fd5b5050505073__$3460f78de88eac5d504038ca885511d774$__6389c320767364ee82fc3af7785fbd78a2be24b0b31cd7bfd2e07f50534d2d555344432d41000000000000000000000000000000000000000000006040518363ffffffff1660e01b81526004016110d4929190614d8b565b60006040518083038186803b1580156110ec57600080fd5b505af4158015611100573d6000803e3d6000fd5b5050505073__$3460f78de88eac5d504038ca885511d774$__63dfe425b97364ee82fc3af7785fbd78a2be24b0b31cd7bfd2e073ffffffffffffffffffffffffffffffffffffffff16632e7dc6af6040518163ffffffff1660e01b8152600401602060405180830381865afa15801561117d573d6000803e3d6000fd5b505050506040513d601f19601f820116820180604052508101906111a19190614b7f565b7364ee82fc3af7785fbd78a2be24b0b31cd7bfd2e06040518363ffffffff1660e01b81526004016111d3929190614bbb565b60006040518083038186803b1580156111eb57600080fd5b505af41580156111ff573d6000803e3d6000fd5b5050505073f185d0682d50819263941e5f4eacc763cc5c6c4273ffffffffffffffffffffffffffffffffffffffff16631e77933e736e088b573694f1958c2fadb2d4e926fd8fff4f2c6040518263ffffffff1660e01b81526004016112649190614bf3565b600060405180830381600087803b15801561127e57600080fd5b505af1158015611292573d6000803e3d6000fd5b5050505073__$3460f78de88eac5d504038ca885511d774$__63dfe425b973f185d0682d50819263941e5f4eacc763cc5c6c4273ffffffffffffffffffffffffffffffffffffffff16632e7dc6af6040518163ffffffff1660e01b8152600401602060405180830381865afa15801561130f573d6000803e3d6000fd5b505050506040513d601f19601f820116820180604052508101906113339190614b7f565b73f185d0682d50819263941e5f4eacc763cc5c6c426040518363ffffffff1660e01b8152600401611365929190614bbb565b60006040518083038186803b15801561137d57600080fd5b505af4158015611391573d6000803e3d6000fd5b5050505073__$3460f78de88eac5d504038ca885511d774$__63e5c6eb3373__$3460f78de88eac5d504038ca885511d774$__632e77468d6040518163ffffffff1660e01b8152600401602060405180830381865af41580156113f8573d6000803e3d6000fd5b505050506040513d601f19601f8201168201806040525081019061141c9190614b7f565b7f545553442d410000000000000000000000000000000000000000000000000000733a2d8adb238f47b4d258545701439e05db2015746040518463ffffffff1660e01b815260040161147093929190614def565b60006040518083038186803b15801561148857600080fd5b505af415801561149c573d6000803e3d6000fd5b5050505073__$3460f78de88eac5d504038ca885511d774$__632bef4595733a2d8adb238f47b4d258545701439e05db20157473__$3460f78de88eac5d504038ca885511d774$__63e475ac5d6040518163ffffffff1660e01b8152600401602060405180830381865af4158015611518573d6000803e3d6000fd5b505050506040513d601f19601f8201168201806040525081019061153c9190614b7f565b6040518363ffffffff1660e01b8152600401611559929190614bbb565b60006040518083038186803b15801561157157600080fd5b505af4158015611585573d6000803e3d6000fd5b5050505073__$3460f78de88eac5d504038ca885511d774$__63e9d8ccb8733a2d8adb238f47b4d258545701439e05db2015746040518263ffffffff1660e01b81526004016115d49190614d47565b60006040518083038186803b1580156115ec57600080fd5b505af4158015611600573d6000803e3d6000fd5b5050505073__$3460f78de88eac5d504038ca885511d774$__63268e5143733a2d8adb238f47b4d258545701439e05db20157473__$3460f78de88eac5d504038ca885511d774$__632e77468d6040518163ffffffff1660e01b8152600401602060405180830381865af415801561167c573d6000803e3d6000fd5b505050506040513d601f19601f820116820180604052508101906116a09190614b7f565b6040518363ffffffff1660e01b81526004016116bd929190614bbb565b60006040518083038186803b1580156116d557600080fd5b505af41580156116e9573d6000803e3d6000fd5b5050505073__$3460f78de88eac5d504038ca885511d774$__63268e5143733a2d8adb238f47b4d258545701439e05db201574730f6f88f8a4b918584e3539182793a0c276097f446040518363ffffffff1660e01b815260040161174e929190614bbb565b60006040518083038186803b15801561176657600080fd5b505af415801561177a573d6000803e3d6000fd5b5050505073__$3460f78de88eac5d504038ca885511d774$__63268e5143733a2d8adb238f47b4d258545701439e05db20157473__$3460f78de88eac5d504038ca885511d774$__6331e0b8026040518163ffffffff1660e01b8152600401602060405180830381865af41580156117f6573d6000803e3d6000fd5b505050506040513d601f19601f8201168201806040525081019061181a9190614b7f565b6040518363ffffffff1660e01b8152600401611837929190614bbb565b60006040518083038186803b15801561184f57600080fd5b505af4158015611863573d6000803e3d6000fd5b5050505073__$3460f78de88eac5d504038ca885511d774$__63268e5143733a2d8adb238f47b4d258545701439e05db20157473__$3460f78de88eac5d504038ca885511d774$__63efbe1c1c6040518163ffffffff1660e01b8152600401602060405180830381865af41580156118df573d6000803e3d6000fd5b505050506040513d601f19601f820116820180604052508101906119039190614b7f565b6040518363ffffffff1660e01b8152600401611920929190614bbb565b60006040518083038186803b15801561193857600080fd5b505af415801561194c573d6000803e3d6000fd5b5050505073__$3460f78de88eac5d504038ca885511d774$__6389c32076733a2d8adb238f47b4d258545701439e05db2015747f545553442d4100000000000000000000000000000000000000000000000000006040518363ffffffff1660e01b81526004016119bd929190614e32565b60006040518083038186803b1580156119d557600080fd5b505af41580156119e9573d6000803e3d6000fd5b5050505073__$3460f78de88eac5d504038ca885511d774$__63dfe425b9733a2d8adb238f47b4d258545701439e05db20157473ffffffffffffffffffffffffffffffffffffffff16632e7dc6af6040518163ffffffff1660e01b8152600401602060405180830381865afa158015611a66573d6000803e3d6000fd5b505050506040513d601f19601f82011682018060405250810190611a8a9190614b7f565b733a2d8adb238f47b4d258545701439e05db2015746040518363ffffffff1660e01b8152600401611abc929190614bbb565b60006040518083038186803b158015611ad457600080fd5b505af4158015611ae8573d6000803e3d6000fd5b50505050737382c066801e7acb2299ac8562847b9883f5cd3c73ffffffffffffffffffffffffffffffffffffffff16631e77933e73623fe3720c94ab42ce31cb255780e4d0e1d04a1b6040518263ffffffff1660e01b8152600401611b4d9190614bf3565b600060405180830381600087803b158015611b6757600080fd5b505af1158015611b7b573d6000803e3d6000fd5b5050505073__$3460f78de88eac5d504038ca885511d774$__63dfe425b9737382c066801e7acb2299ac8562847b9883f5cd3c73ffffffffffffffffffffffffffffffffffffffff16632e7dc6af6040518163ffffffff1660e01b8152600401602060405180830381865afa158015611bf8573d6000803e3d6000fd5b505050506040513d601f19601f82011682018060405250810190611c1c9190614b7f565b737382c066801e7acb2299ac8562847b9883f5cd3c6040518363ffffffff1660e01b8152600401611c4e929190614bbb565b60006040518083038186803b158015611c6657600080fd5b505af4158015611c7a573d6000803e3d6000fd5b5050505073f36b79bd4c0904a5f350f1e4f776b81208c1306973ffffffffffffffffffffffffffffffffffffffff16631e77933e734b9ad4401cbde1ada6add90ac40f326fb88ddf4e6040518263ffffffff1660e01b8152600401611cdf9190614bf3565b600060405180830381600087803b158015611cf957600080fd5b505af1158015611d0d573d6000803e3d6000fd5b5050505073__$3460f78de88eac5d504038ca885511d774$__63dfe425b973f36b79bd4c0904a5f350f1e4f776b81208c1306973ffffffffffffffffffffffffffffffffffffffff16632e7dc6af6040518163ffffffff1660e01b8152600401602060405180830381865afa158015611d8a573d6000803e3d6000fd5b505050506040513d601f19601f82011682018060405250810190611dae9190614b7f565b73f36b79bd4c0904a5f350f1e4f776b81208c130696040518363ffffffff1660e01b8152600401611de0929190614bbb565b60006040518083038186803b158015611df857600080fd5b505af4158015611e0c573d6000803e3d6000fd5b50505050738067259ea630601f319fcce477977e55c6078c1373ffffffffffffffffffffffffffffffffffffffff16631e77933e7331df188997e1fe0c7fb29b43c0d8148d83e1c5846040518263ffffffff1660e01b8152600401611e719190614bf3565b600060405180830381600087803b158015611e8b57600080fd5b505af1158015611e9f573d6000803e3d6000fd5b5050505073__$3460f78de88eac5d504038ca885511d774$__63dfe425b9738067259ea630601f319fcce477977e55c6078c1373ffffffffffffffffffffffffffffffffffffffff16632e7dc6af6040518163ffffffff1660e01b8152600401602060405180830381865afa158015611f1c573d6000803e3d6000fd5b505050506040513d601f19601f82011682018060405250810190611f409190614b7f565b738067259ea630601f319fcce477977e55c6078c136040518363ffffffff1660e01b8152600401611f72929190614bbb565b60006040518083038186803b158015611f8a57600080fd5b505af4158015611f9e573d6000803e3d6000fd5b50505050737a5918670b0c390ad25f7bee908c1acc2d314a3c73ffffffffffffffffffffffffffffffffffffffff16631e77933e735cf7b83c17b70d2a06c592b91ad4f5c3cca7c0dd6040518263ffffffff1660e01b81526004016120039190614bf3565b600060405180830381600087803b15801561201d57600080fd5b505af1158015612031573d6000803e3d6000fd5b5050505073__$3460f78de88eac5d504038ca885511d774$__63dfe425b9737a5918670b0c390ad25f7bee908c1acc2d314a3c73ffffffffffffffffffffffffffffffffffffffff16632e7dc6af6040518163ffffffff1660e01b8152600401602060405180830381865afa1580156120ae573d6000803e3d6000fd5b505050506040513d601f19601f820116820180604052508101906120d29190614b7f565b737a5918670b0c390ad25f7bee908c1acc2d314a3c6040518363ffffffff1660e01b8152600401612104929190614bbb565b60006040518083038186803b15801561211c57600080fd5b505af4158015612130573d6000803e3d6000fd5b5050505073__$3460f78de88eac5d504038ca885511d774$__63e5c6eb3373__$3460f78de88eac5d504038ca885511d774$__632e77468d6040518163ffffffff1660e01b8152600401602060405180830381865af4158015612197573d6000803e3d6000fd5b505050506040513d601f19601f820116820180604052508101906121bb9190614b7f565b7f5041585553442d4100000000000000000000000000000000000000000000000073348fc3ef33373828e09270e9b2dc672eb5e5fdf86040518463ffffffff1660e01b815260040161220f93929190614e96565b60006040518083038186803b15801561222757600080fd5b505af415801561223b573d6000803e3d6000fd5b5050505073__$3460f78de88eac5d504038ca885511d774$__632bef459573348fc3ef33373828e09270e9b2dc672eb5e5fdf873__$3460f78de88eac5d504038ca885511d774$__63e475ac5d6040518163ffffffff1660e01b8152600401602060405180830381865af41580156122b7573d6000803e3d6000fd5b505050506040513d601f19601f820116820180604052508101906122db9190614b7f565b6040518363ffffffff1660e01b81526004016122f8929190614bbb565b60006040518083038186803b15801561231057600080fd5b505af4158015612324573d6000803e3d6000fd5b5050505073__$3460f78de88eac5d504038ca885511d774$__63e5c6eb3373__$3460f78de88eac5d504038ca885511d774$__632e77468d6040518163ffffffff1660e01b8152600401602060405180830381865af415801561238b573d6000803e3d6000fd5b505050506040513d601f19601f820116820180604052508101906123af9190614b7f565b7f50534d2d5041582d41000000000000000000000000000000000000000000000073348fc3ef33373828e09270e9b2dc672eb5e5fdf86040518463ffffffff1660e01b815260040161240393929190614f14565b60006040518083038186803b15801561241b57600080fd5b505af415801561242f573d6000803e3d6000fd5b5050505073__$3460f78de88eac5d504038ca885511d774$__63e9d8ccb873348fc3ef33373828e09270e9b2dc672eb5e5fdf86040518263ffffffff1660e01b815260040161247e9190614d47565b60006040518083038186803b15801561249657600080fd5b505af41580156124aa573d6000803e3d6000fd5b5050505073__$3460f78de88eac5d504038ca885511d774$__63268e514373348fc3ef33373828e09270e9b2dc672eb5e5fdf873__$3460f78de88eac5d504038ca885511d774$__632e77468d6040518163ffffffff1660e01b8152600401602060405180830381865af4158015612526573d6000803e3d6000fd5b505050506040513d601f19601f8201168201806040525081019061254a9190614b7f565b6040518363ffffffff1660e01b8152600401612567929190614bbb565b60006040518083038186803b15801561257f57600080fd5b505af4158015612593573d6000803e3d6000fd5b5050505073__$3460f78de88eac5d504038ca885511d774$__63268e514373348fc3ef33373828e09270e9b2dc672eb5e5fdf873bcb396cd139d1116bd89562b49b9d1d6c25378b06040518363ffffffff1660e01b81526004016125f8929190614bbb565b60006040518083038186803b15801561261057600080fd5b505af4158015612624573d6000803e3d6000fd5b5050505073__$3460f78de88eac5d504038ca885511d774$__63268e514373348fc3ef33373828e09270e9b2dc672eb5e5fdf873__$3460f78de88eac5d504038ca885511d774$__6331e0b8026040518163ffffffff1660e01b8152600401602060405180830381865af41580156126a0573d6000803e3d6000fd5b505050506040513d601f19601f820116820180604052508101906126c49190614b7f565b6040518363ffffffff1660e01b81526004016126e1929190614bbb565b60006040518083038186803b1580156126f957600080fd5b505af415801561270d573d6000803e3d6000fd5b5050505073__$3460f78de88eac5d504038ca885511d774$__63268e514373348fc3ef33373828e09270e9b2dc672eb5e5fdf873__$3460f78de88eac5d504038ca885511d774$__63efbe1c1c6040518163ffffffff1660e01b8152600401602060405180830381865af4158015612789573d6000803e3d6000fd5b505050506040513d601f19601f820116820180604052508101906127ad9190614b7f565b6040518363ffffffff1660e01b81526004016127ca929190614bbb565b60006040518083038186803b1580156127e257600080fd5b505af41580156127f6573d6000803e3d6000fd5b5050505073__$3460f78de88eac5d504038ca885511d774$__6389c3207673348fc3ef33373828e09270e9b2dc672eb5e5fdf87f5041585553442d410000000000000000000000000000000000000000000000006040518363ffffffff1660e01b8152600401612867929190614f57565b60006040518083038186803b15801561287f57600080fd5b505af4158015612893573d6000803e3d6000fd5b5050505073__$3460f78de88eac5d504038ca885511d774$__6389c3207673348fc3ef33373828e09270e9b2dc672eb5e5fdf87f50534d2d5041582d4100000000000000000000000000000000000000000000006040518363ffffffff1660e01b8152600401612904929190614f80565b60006040518083038186803b15801561291c57600080fd5b505af4158015612930573d6000803e3d6000fd5b5050505073__$3460f78de88eac5d504038ca885511d774$__63dfe425b973348fc3ef33373828e09270e9b2dc672eb5e5fdf873ffffffffffffffffffffffffffffffffffffffff16632e7dc6af6040518163ffffffff1660e01b8152600401602060405180830381865afa1580156129ad573d6000803e3d6000fd5b505050506040513d601f19601f820116820180604052508101906129d19190614b7f565b73348fc3ef33373828e09270e9b2dc672eb5e5fdf86040518363ffffffff1660e01b8152600401612a03929190614bbb565b60006040518083038186803b158015612a1b57600080fd5b505af4158015612a2f573d6000803e3d6000fd5b5050505073bed0879953e633135a48a157718aa791ac0108e473ffffffffffffffffffffffffffffffffffffffff16631e77933e731694676aa992d3c6ab859d6d9d2e7bc448f4332b6040518263ffffffff1660e01b8152600401612a949190614bf3565b600060405180830381600087803b158015612aae57600080fd5b505af1158015612ac2573d6000803e3d6000fd5b5050505073__$3460f78de88eac5d504038ca885511d774$__63dfe425b973bed0879953e633135a48a157718aa791ac0108e473ffffffffffffffffffffffffffffffffffffffff16632e7dc6af6040518163ffffffff1660e01b8152600401602060405180830381865afa158015612b3f573d6000803e3d6000fd5b505050506040513d601f19601f82011682018060405250810190612b639190614b7f565b73bed0879953e633135a48a157718aa791ac0108e46040518363ffffffff1660e01b8152600401612b95929190614bbb565b60006040518083038186803b158015612bad57600080fd5b505af4158015612bc1573d6000803e3d6000fd5b50505050739eb923339c24c40bef2f4af4961742aa7c23ef3a73ffffffffffffffffffffffffffffffffffffffff16631e77933e738f8cdd12d5f0ec99b1314c37446ebc50481a16c56040518263ffffffff1660e01b8152600401612c269190614bf3565b600060405180830381600087803b158015612c4057600080fd5b505af1158015612c54573d6000803e3d6000fd5b5050505073__$3460f78de88eac5d504038ca885511d774$__63dfe425b9739eb923339c24c40bef2f4af4961742aa7c23ef3a73ffffffffffffffffffffffffffffffffffffffff16632e7dc6af6040518163ffffffff1660e01b8152600401602060405180830381865afa158015612cd1573d6000803e3d6000fd5b505050506040513d601f19601f82011682018060405250810190612cf59190614b7f565b739eb923339c24c40bef2f4af4961742aa7c23ef3a6040518363ffffffff1660e01b8152600401612d27929190614bbb565b60006040518083038186803b158015612d3f57600080fd5b505af4158015612d53573d6000803e3d6000fd5b50505050739b0c694c6939b5ea9584e9b61c7815e8d97d9cc773ffffffffffffffffffffffffffffffffffffffff16631e77933e73b11edc36668f5509efe8a563cfa9e7a5a302003e6040518263ffffffff1660e01b8152600401612db89190614bf3565b600060405180830381600087803b158015612dd257600080fd5b505af1158015612de6573d6000803e3d6000fd5b5050505073__$3460f78de88eac5d504038ca885511d774$__63dfe425b9739b0c694c6939b5ea9584e9b61c7815e8d97d9cc773ffffffffffffffffffffffffffffffffffffffff16632e7dc6af6040518163ffffffff1660e01b8152600401602060405180830381865afa158015612e63573d6000803e3d6000fd5b505050506040513d601f19601f82011682018060405250810190612e879190614b7f565b739b0c694c6939b5ea9584e9b61c7815e8d97d9cc76040518363ffffffff1660e01b8152600401612eb9929190614bbb565b60006040518083038186803b158015612ed157600080fd5b505af4158015612ee5573d6000803e3d6000fd5b50505050733ff860c0f28d69f392543a16a397d0dae85d16de73ffffffffffffffffffffffffffffffffffffffff16631e77933e733882c9a2d251a972312e411bcb7e0d9c79788e8a6040518263ffffffff1660e01b8152600401612f4a9190614bf3565b600060405180830381600087803b158015612f6457600080fd5b505af1158015612f78573d6000803e3d6000fd5b5050505073__$3460f78de88eac5d504038ca885511d774$__63dfe425b9733ff860c0f28d69f392543a16a397d0dae85d16de73ffffffffffffffffffffffffffffffffffffffff16632e7dc6af6040518163ffffffff1660e01b8152600401602060405180830381865afa158015612ff5573d6000803e3d6000fd5b505050506040513d601f19601f820116820180604052508101906130199190614b7f565b733ff860c0f28d69f392543a16a397d0dae85d16de6040518363ffffffff1660e01b815260040161304b929190614bbb565b60006040518083038186803b15801561306357600080fd5b505af4158015613077573d6000803e3d6000fd5b50505050735f122465bcf86f45922036970be6dd7f5882021473ffffffffffffffffffffffffffffffffffffffff16631e77933e735bdf3b8fb8476f8250420b95e09c5c900a67ebe86040518263ffffffff1660e01b81526004016130dc9190614bf3565b600060405180830381600087803b1580156130f657600080fd5b505af115801561310a573d6000803e3d6000fd5b5050505073__$3460f78de88eac5d504038ca885511d774$__63dfe425b9735f122465bcf86f45922036970be6dd7f5882021473ffffffffffffffffffffffffffffffffffffffff16632e7dc6af6040518163ffffffff1660e01b8152600401602060405180830381865afa158015613187573d6000803e3d6000fd5b505050506040513d601f19601f820116820180604052508101906131ab9190614b7f565b735f122465bcf86f45922036970be6dd7f588202146040518363ffffffff1660e01b81526004016131dd929190614bbb565b60006040518083038186803b1580156131f557600080fd5b505af4158015613209573d6000803e3d6000fd5b5050505073__$3460f78de88eac5d504038ca885511d774$__63e5c6eb3373__$3460f78de88eac5d504038ca885511d774$__632e77468d6040518163ffffffff1660e01b8152600401602060405180830381865af4158015613270573d6000803e3d6000fd5b505050506040513d601f19601f820116820180604052508101906132949190614b7f565b7f475553442d41000000000000000000000000000000000000000000000000000073828169221293cb90d747b17341b7b7b20e58e0396040518463ffffffff1660e01b81526004016132e893929190614fe4565b60006040518083038186803b15801561330057600080fd5b505af4158015613314573d6000803e3d6000fd5b5050505073__$3460f78de88eac5d504038ca885511d774$__632bef459573828169221293cb90d747b17341b7b7b20e58e03973__$3460f78de88eac5d504038ca885511d774$__63e475ac5d6040518163ffffffff1660e01b8152600401602060405180830381865af4158015613390573d6000803e3d6000fd5b505050506040513d601f19601f820116820180604052508101906133b49190614b7f565b6040518363ffffffff1660e01b81526004016133d1929190614bbb565b60006040518083038186803b1580156133e957600080fd5b505af41580156133fd573d6000803e3d6000fd5b5050505073__$3460f78de88eac5d504038ca885511d774$__63268e514373828169221293cb90d747b17341b7b7b20e58e03973a47d68b9db0a0361284fa04ba40623fcbd1a263e6040518363ffffffff1660e01b8152600401613462929190614bbb565b60006040518083038186803b15801561347a57600080fd5b505af415801561348e573d6000803e3d6000fd5b5050505073__$3460f78de88eac5d504038ca885511d774$__6389c3207673828169221293cb90d747b17341b7b7b20e58e0397f475553442d4100000000000000000000000000000000000000000000000000006040518363ffffffff1660e01b81526004016134ff929190615027565b60006040518083038186803b15801561351757600080fd5b505af415801561352b573d6000803e3d6000fd5b5050505073__$3460f78de88eac5d504038ca885511d774$__63e5c6eb3373__$3460f78de88eac5d504038ca885511d774$__632e77468d6040518163ffffffff1660e01b8152600401602060405180830381865af4158015613592573d6000803e3d6000fd5b505050506040513d601f19601f820116820180604052508101906135b69190614b7f565b7f50534d2d475553442d410000000000000000000000000000000000000000000073828169221293cb90d747b17341b7b7b20e58e0396040518463ffffffff1660e01b815260040161360a9392919061508b565b60006040518083038186803b15801561362257600080fd5b505af4158015613636573d6000803e3d6000fd5b5050505073__$3460f78de88eac5d504038ca885511d774$__632bef459573828169221293cb90d747b17341b7b7b20e58e03973__$3460f78de88eac5d504038ca885511d774$__63e475ac5d6040518163ffffffff1660e01b8152600401602060405180830381865af41580156136b2573d6000803e3d6000fd5b505050506040513d601f19601f820116820180604052508101906136d69190614b7f565b6040518363ffffffff1660e01b81526004016136f3929190614bbb565b60006040518083038186803b15801561370b57600080fd5b505af415801561371f573d6000803e3d6000fd5b5050505073__$3460f78de88eac5d504038ca885511d774$__63e9d8ccb873828169221293cb90d747b17341b7b7b20e58e0396040518263ffffffff1660e01b815260040161376e9190614d47565b60006040518083038186803b15801561378657600080fd5b505af415801561379a573d6000803e3d6000fd5b5050505073__$3460f78de88eac5d504038ca885511d774$__63268e514373828169221293cb90d747b17341b7b7b20e58e03973__$3460f78de88eac5d504038ca885511d774$__632e77468d6040518163ffffffff1660e01b8152600401602060405180830381865af4158015613816573d6000803e3d6000fd5b505050506040513d601f19601f8201168201806040525081019061383a9190614b7f565b6040518363ffffffff1660e01b8152600401613857929190614bbb565b60006040518083038186803b15801561386f57600080fd5b505af4158015613883573d6000803e3d6000fd5b5050505073__$3460f78de88eac5d504038ca885511d774$__63268e514373828169221293cb90d747b17341b7b7b20e58e03973f93cc3a50f450ed245e003bfecc8a6ec1732b0b26040518363ffffffff1660e01b81526004016138e8929190614bbb565b60006040518083038186803b15801561390057600080fd5b505af4158015613914573d6000803e3d6000fd5b5050505073__$3460f78de88eac5d504038ca885511d774$__63268e514373828169221293cb90d747b17341b7b7b20e58e03973__$3460f78de88eac5d504038ca885511d774$__6331e0b8026040518163ffffffff1660e01b8152600401602060405180830381865af4158015613990573d6000803e3d6000fd5b505050506040513d601f19601f820116820180604052508101906139b49190614b7f565b6040518363ffffffff1660e01b81526004016139d1929190614bbb565b60006040518083038186803b1580156139e957600080fd5b505af41580156139fd573d6000803e3d6000fd5b5050505073__$3460f78de88eac5d504038ca885511d774$__63268e514373828169221293cb90d747b17341b7b7b20e58e03973__$3460f78de88eac5d504038ca885511d774$__63efbe1c1c6040518163ffffffff1660e01b8152600401602060405180830381865af4158015613a79573d6000803e3d6000fd5b505050506040513d601f19601f82011682018060405250810190613a9d9190614b7f565b6040518363ffffffff1660e01b8152600401613aba929190614bbb565b60006040518083038186803b158015613ad257600080fd5b505af4158015613ae6573d6000803e3d6000fd5b5050505073__$3460f78de88eac5d504038ca885511d774$__6389c3207673828169221293cb90d747b17341b7b7b20e58e0397f50534d2d475553442d41000000000000000000000000000000000000000000006040518363ffffffff1660e01b8152600401613b579291906150ce565b60006040518083038186803b158015613b6f57600080fd5b505af4158015613b83573d6000803e3d6000fd5b5050505073__$3460f78de88eac5d504038ca885511d774$__63dfe425b973828169221293cb90d747b17341b7b7b20e58e03973ffffffffffffffffffffffffffffffffffffffff16632e7dc6af6040518163ffffffff1660e01b8152600401602060405180830381865afa158015613c00573d6000803e3d6000fd5b505050506040513d601f19601f82011682018060405250810190613c249190614b7f565b73828169221293cb90d747b17341b7b7b20e58e0396040518363ffffffff1660e01b8152600401613c56929190614bbb565b60006040518083038186803b158015613c6e57600080fd5b505af4158015613c82573d6000803e3d6000fd5b5050505073f363c7e351c96b910b92b45d34190650df4ae8e773ffffffffffffffffffffffffffffffffffffffff16631e77933e737b64f61f9c30c1a2979ae78ff00d3d1f6d8e51fc6040518263ffffffff1660e01b8152600401613ce79190614bf3565b600060405180830381600087803b158015613d0157600080fd5b505af1158015613d15573d6000803e3d6000fd5b5050505073__$3460f78de88eac5d504038ca885511d774$__63dfe425b973f363c7e351c96b910b92b45d34190650df4ae8e773ffffffffffffffffffffffffffffffffffffffff16632e7dc6af6040518163ffffffff1660e01b8152600401602060405180830381865afa158015613d92573d6000803e3d6000fd5b505050506040513d601f19601f82011682018060405250810190613db69190614b7f565b73f363c7e351c96b910b92b45d34190650df4ae8e76040518363ffffffff1660e01b8152600401613de8929190614bbb565b60006040518083038186803b158015613e0057600080fd5b505af4158015613e14573d6000803e3d6000fd5b50505050738df8f06dc2de0434db40dcbb32a82a104218754c73ffffffffffffffffffffffffffffffffffffffff16631e77933e731662712eb3c4bf961d58a0e118c567343ac218fc6040518263ffffffff1660e01b8152600401613e799190614bf3565b600060405180830381600087803b158015613e9357600080fd5b505af1158015613ea7573d6000803e3d6000fd5b5050505073__$3460f78de88eac5d504038ca885511d774$__63dfe425b9738df8f06dc2de0434db40dcbb32a82a104218754c73ffffffffffffffffffffffffffffffffffffffff16632e7dc6af6040518163ffffffff1660e01b8152600401602060405180830381865afa158015613f24573d6000803e3d6000fd5b505050506040513d601f19601f82011682018060405250810190613f489190614b7f565b738df8f06dc2de0434db40dcbb32a82a104218754c6040518363ffffffff1660e01b8152600401613f7a929190614bbb565b60006040518083038186803b158015613f9257600080fd5b505af4158015613fa6573d6000803e3d6000fd5b50505050738874964279302e6d4e523fb1789981c39a1034ba73ffffffffffffffffffffffffffffffffffffffff16631e77933e7375aeb7a72200241e66d843926b5d584928e890116040518263ffffffff1660e01b815260040161400b9190614bf3565b600060405180830381600087803b15801561402557600080fd5b505af1158015614039573d6000803e3d6000fd5b5050505073__$3460f78de88eac5d504038ca885511d774$__63dfe425b9738874964279302e6d4e523fb1789981c39a1034ba73ffffffffffffffffffffffffffffffffffffffff16632e7dc6af6040518163ffffffff1660e01b8152600401602060405180830381865afa1580156140b6573d6000803e3d6000fd5b505050506040513d601f19601f820116820180604052508101906140da9190614b7f565b738874964279302e6d4e523fb1789981c39a1034ba6040518363ffffffff1660e01b815260040161410c929190614bbb565b60006040518083038186803b15801561412457600080fd5b505af4158015614138573d6000803e3d6000fd5b5050505073fe7a2ac0b945f12089aeeb6ecebf4f384d9f043f73ffffffffffffffffffffffffffffffffffffffff16631e77933e735e08f4239847792dc6f65d0e178f7e544c119e776040518263ffffffff1660e01b815260040161419d9190614bf3565b600060405180830381600087803b1580156141b757600080fd5b505af11580156141cb573d6000803e3d6000fd5b5050505073__$3460f78de88eac5d504038ca885511d774$__63dfe425b973fe7a2ac0b945f12089aeeb6ecebf4f384d9f043f73ffffffffffffffffffffffffffffffffffffffff16632e7dc6af6040518163ffffffff1660e01b8152600401602060405180830381865afa158015614248573d6000803e3d6000fd5b505050506040513d601f19601f8201168201806040525081019061426c9190614b7f565b73fe7a2ac0b945f12089aeeb6ecebf4f384d9f043f6040518363ffffffff1660e01b815260040161429e929190614bbb565b60006040518083038186803b1580156142b657600080fd5b505af41580156142ca573d6000803e3d6000fd5b5050505073ee7f0b350aa119b3d05dc733a4621a81972f7d4773ffffffffffffffffffffffffffffffffffffffff16631e77933e739b2722be6488ee2d2c6862ee316286522afb9d5b6040518263ffffffff1660e01b815260040161432f9190614bf3565b600060405180830381600087803b15801561434957600080fd5b505af115801561435d573d6000803e3d6000fd5b5050505073__$3460f78de88eac5d504038ca885511d774$__63dfe425b973ee7f0b350aa119b3d05dc733a4621a81972f7d4773ffffffffffffffffffffffffffffffffffffffff16632e7dc6af6040518163ffffffff1660e01b8152600401602060405180830381865afa1580156143da573d6000803e3d6000fd5b505050506040513d601f19601f820116820180604052508101906143fe9190614b7f565b73ee7f0b350aa119b3d05dc733a4621a81972f7d476040518363ffffffff1660e01b8152600401614430929190614bbb565b60006040518083038186803b15801561444857600080fd5b505af415801561445c573d6000803e3d6000fd5b5050505073d800ca44ffabecd159c7889c3bf64a217361aec873ffffffffffffffffffffffffffffffffffffffff16631e77933e73c6111bfce7a59d3f86d8227dbecb5255318dd2ad6040518263ffffffff1660e01b81526004016144c19190614bf3565b600060405180830381600087803b1580156144db57600080fd5b505af11580156144ef573d6000803e3d6000fd5b5050505073__$3460f78de88eac5d504038ca885511d774$__63dfe425b973d800ca44ffabecd159c7889c3bf64a217361aec873ffffffffffffffffffffffffffffffffffffffff16632e7dc6af6040518163ffffffff1660e01b8152600401602060405180830381865afa15801561456c573d6000803e3d6000fd5b505050506040513d601f19601f820116820180604052508101906145909190614b7f565b73d800ca44ffabecd159c7889c3bf64a217361aec86040518363ffffffff1660e01b81526004016145c2929190614bbb565b60006040518083038186803b1580156145da57600080fd5b505af41580156145ee573d6000803e3d6000fd5b5050505073__$3460f78de88eac5d504038ca885511d774$__635f3a7dd76040518163ffffffff1660e01b815260040161462790615154565b60006040518083038186803b15801561463f57600080fd5b505af4158015614653573d6000803e3d6000fd5b50505050565b60008115159050919050565b61466e81614659565b82525050565b60006020820190506146896000830184614665565b92915050565b600081519050919050565b600082825260208201905092915050565b60005b838110156146c95780820151818401526020810190506146ae565b60008484015250505050565b6000601f19601f8301169050919050565b60006146f18261468f565b6146fb818561469a565b935061470b8185602086016146ab565b614714816146d5565b840191505092915050565b6000602082019050818103600083015261473981846146e6565b905092915050565b600080fd5b6000819050919050565b61475981614746565b811461476457600080fd5b50565b60008135905061477681614750565b92915050565b60006020828403121561479257614791614741565b5b60006147a084828501614767565b91505092915050565b6147b281614746565b82525050565b60006020820190506147cd60008301846147a9565b92915050565b600064ffffffffff82169050919050565b6147ed816147d3565b82525050565b6147fc81614659565b82525050565b600060408201905061481760008301856147e4565b61482460208301846147f3565b9392505050565b61483481614659565b811461483f57600080fd5b50565b6000815190506148518161482b565b92915050565b60006020828403121561486d5761486c614741565b5b600061487b84828501614842565b91505092915050565b7f4f757473696465206f666669636520686f757273000000000000000000000000600082015250565b60006148ba60148361469a565b91506148c582614884565b602082019050919050565b600060208201905081810360008301526148e9816148ad565b9050919050565b600060608201905061490560008301866147e4565b61491260208301856147e4565b61491f60408301846147f3565b949350505050565b60008151905061493681614750565b92915050565b60006020828403121561495257614951614741565b5b600061496084828501614927565b91505092915050565b6000819050919050565b6000819050919050565b600061499861499361498e84614969565b614973565b614746565b9050919050565b6149a88161497d565b82525050565b60006020820190506149c3600083018461499f565b92915050565b6000819050919050565b60006149ee6149e96149e4846149c9565b614973565b614746565b9050919050565b6149fe816149d3565b82525050565b6000602082019050614a1960008301846149f5565b92915050565b6000819050919050565b6000614a44614a3f614a3a84614a1f565b614973565b614746565b9050919050565b614a5481614a29565b82525050565b6000602082019050614a6f6000830184614a4b565b92915050565b6000819050919050565b6000614a9a614a95614a9084614a75565b614973565b614746565b9050919050565b614aaa81614a7f565b82525050565b6000602082019050614ac56000830184614aa1565b92915050565b6000819050919050565b6000614af0614aeb614ae684614acb565b614973565b614746565b9050919050565b614b0081614ad5565b82525050565b6000602082019050614b1b6000830184614af7565b92915050565b600073ffffffffffffffffffffffffffffffffffffffff82169050919050565b6000614b4c82614b21565b9050919050565b614b5c81614b41565b8114614b6757600080fd5b50565b600081519050614b7981614b53565b92915050565b600060208284031215614b9557614b94614741565b5b6000614ba384828501614b6a565b91505092915050565b614bb581614b41565b82525050565b6000604082019050614bd06000830185614bac565b614bdd6020830184614bac565b9392505050565b614bed81614b41565b82525050565b6000602082019050614c086000830184614be4565b92915050565b6000819050919050565b6000819050919050565b60008160001b9050919050565b6000614c4a614c45614c4084614c0e565b614c22565b614c18565b9050919050565b614c5a81614c2f565b82525050565b7f7069700000000000000000000000000000000000000000000000000000000000815250565b6000608082019050614c9b6000830186614bac565b614ca86020830185614c51565b614cb460408301614c60565b614cc16060830184614bac565b949350505050565b6000819050919050565b6000614cee614ce9614ce484614cc9565b614c22565b614c18565b9050919050565b614cfe81614cd3565b82525050565b6000608082019050614d196000830186614bac565b614d266020830185614cf5565b614d3260408301614c60565b614d3f6060830184614bac565b949350505050565b6000602082019050614d5c6000830184614bac565b92915050565b6000604082019050614d776000830185614bac565b614d846020830184614c51565b9392505050565b6000604082019050614da06000830185614bac565b614dad6020830184614cf5565b9392505050565b6000819050919050565b6000614dd9614dd4614dcf84614db4565b614c22565b614c18565b9050919050565b614de981614dbe565b82525050565b6000608082019050614e046000830186614bac565b614e116020830185614de0565b614e1d60408301614c60565b614e2a6060830184614bac565b949350505050565b6000604082019050614e476000830185614bac565b614e546020830184614de0565b9392505050565b6000819050919050565b6000614e80614e7b614e7684614e5b565b614c22565b614c18565b9050919050565b614e9081614e65565b82525050565b6000608082019050614eab6000830186614bac565b614eb86020830185614e87565b614ec460408301614c60565b614ed16060830184614bac565b949350505050565b6000819050919050565b6000614efe614ef9614ef484614ed9565b614c22565b614c18565b9050919050565b614f0e81614ee3565b82525050565b6000608082019050614f296000830186614bac565b614f366020830185614f05565b614f4260408301614c60565b614f4f6060830184614bac565b949350505050565b6000604082019050614f6c6000830185614bac565b614f796020830184614e87565b9392505050565b6000604082019050614f956000830185614bac565b614fa26020830184614f05565b9392505050565b6000819050919050565b6000614fce614fc9614fc484614fa9565b614c22565b614c18565b9050919050565b614fde81614fb3565b82525050565b6000608082019050614ff96000830186614bac565b6150066020830185614fd5565b61501260408301614c60565b61501f6060830184614bac565b949350505050565b600060408201905061503c6000830185614bac565b6150496020830184614fd5565b9392505050565b6000819050919050565b600061507561507061506b84615050565b614c22565b614c18565b9050919050565b6150858161505a565b82525050565b60006080820190506150a06000830186614bac565b6150ad602083018561507c565b6150b960408301614c60565b6150c66060830184614bac565b949350505050565b60006040820190506150e36000830185614bac565b6150f0602083018461507c565b9392505050565b600082825260208201905092915050565b7f312e31352e300000000000000000000000000000000000000000000000000000600082015250565b600061513e6006836150f7565b915061514982615108565b602082019050919050565b6000602082019050818103600083015261516d81615131565b905091905056fe323032352d342d3032204d616b657244414f20457865637574697665205370656c6c207c20486173683a20307835623464313433303262623965656131373238646663616130353364333865383233653137633530333033343639396236356361663262396665343436326530a2646970667358221220ada8649fb3e8d65be25a3a025fc7f44f7a93bb2a4d693f99687f58f569c9399664736f6c63430008100033",
  "linkReferences": {
    "contracts/src/DssExecLib.sol": {
      "DssExecLib": [
        {
          "length": 20,
          "start": 254
        },
        {
          "length": 20,
          "start": 511
        },
        {
          "length": 20,
          "start": 649
        },
        {
          "length": 20,
          "start": 753
        },
        {
          "length": 20,
          "start": 859
        },
        {
          "length": 20,
          "start": 964
        },
        {
          "length": 20,
          "start": 1069
        },
        {
          "length": 20,
          "start": 1177
        },
        {
          "length": 20,
          "start": 1203
        },
        {
          "length": 20,
          "start": 1685
        },
        {
          "length": 20,
          "start": 2087
        },
        {
          "length": 20,
          "start": 2342
        },
        {
          "length": 20,
          "start": 2368
        },
        {
          "length": 20,
          "start": 2609
        },
        {
          "length": 20,
          "start": 2635
        },
        {
          "length": 20,
          "start": 2876
        },
        {
          "length": 20,
          "start": 2923
        },
        {
          "length": 20,
          "start": 3109
        },
        {
          "length": 20,
          "start": 3232
        },
        {
          "length": 20,
          "start": 3279
        },
        {
          "length": 20,
          "start": 3465
        },
        {
          "length": 20,
          "start": 3610
        },
        {
          "length": 20,
          "start": 3657
        },
        {
          "length": 20,
          "start": 3843
        },
        {
          "length": 20,
          "start": 3890
        },
        {
          "length": 20,
          "start": 4076
        },
        {
          "length": 20,
          "start": 4233
        },
        {
          "length": 20,
          "start": 4390
        },
        {
          "length": 20,
          "start": 4792
        },
        {
          "length": 20,
          "start": 5047
        },
        {
          "length": 20,
          "start": 5073
        },
        {
          "length": 20,
          "start": 5314
        },
        {
          "length": 20,
          "start": 5361
        },
        {
          "length": 20,
          "start": 5547
        },
        {
          "length": 20,
          "start": 5670
        },
        {
          "length": 20,
          "start": 5717
        },
        {
          "length": 20,
          "start": 5903
        },
        {
          "length": 20,
          "start": 6048
        },
        {
          "length": 20,
          "start": 6095
        },
        {
          "length": 20,
          "start": 6281
        },
        {
          "length": 20,
          "start": 6328
        },
        {
          "length": 20,
          "start": 6514
        },
        {
          "length": 20,
          "start": 6671
        },
        {
          "length": 20,
          "start": 7073
        },
        {
          "length": 20,
          "start": 7475
        },
        {
          "length": 20,
          "start": 7877
        },
        {
          "length": 20,
          "start": 8279
        },
        {
          "length": 20,
          "start": 8534
        },
        {
          "length": 20,
          "start": 8560
        },
        {
          "length": 20,
          "start": 8801
        },
        {
          "length": 20,
          "start": 8848
        },
        {
          "length": 20,
          "start": 9034
        },
        {
          "length": 20,
          "start": 9060
        },
        {
          "length": 20,
          "start": 9301
        },
        {
          "length": 20,
          "start": 9424
        },
        {
          "length": 20,
          "start": 9471
        },
        {
          "length": 20,
          "start": 9657
        },
        {
          "length": 20,
          "start": 9802
        },
        {
          "length": 20,
          "start": 9849
        },
        {
          "length": 20,
          "start": 10035
        },
        {
          "length": 20,
          "start": 10082
        },
        {
          "length": 20,
          "start": 10268
        },
        {
          "length": 20,
          "start": 10425
        },
        {
          "length": 20,
          "start": 10582
        },
        {
          "length": 20,
          "start": 10984
        },
        {
          "length": 20,
          "start": 11386
        },
        {
          "length": 20,
          "start": 11788
        },
        {
          "length": 20,
          "start": 12190
        },
        {
          "length": 20,
          "start": 12592
        },
        {
          "length": 20,
          "start": 12847
        },
        {
          "length": 20,
          "start": 12873
        },
        {
          "length": 20,
          "start": 13114
        },
        {
          "length": 20,
          "start": 13161
        },
        {
          "length": 20,
          "start": 13347
        },
        {
          "length": 20,
          "start": 13492
        },
        {
          "length": 20,
          "start": 13649
        },
        {
          "length": 20,
          "start": 13675
        },
        {
          "length": 20,
          "start": 13916
        },
        {
          "length": 20,
          "start": 13963
        },
        {
          "length": 20,
          "start": 14149
        },
        {
          "length": 20,
          "start": 14272
        },
        {
          "length": 20,
          "start": 14319
        },
        {
          "length": 20,
          "start": 14505
        },
        {
          "length": 20,
          "start": 14650
        },
        {
          "length": 20,
          "start": 14697
        },
        {
          "length": 20,
          "start": 14883
        },
        {
          "length": 20,
          "start": 14930
        },
        {
          "length": 20,
          "start": 15116
        },
        {
          "length": 20,
          "start": 15273
        },
        {
          "length": 20,
          "start": 15675
        },
        {
          "length": 20,
          "start": 16077
        },
        {
          "length": 20,
          "start": 16479
        },
        {
          "length": 20,
          "start": 16881
        },
        {
          "length": 20,
          "start": 17283
        },
        {
          "length": 20,
          "start": 17685
        },
        {
          "length": 20,
          "start": 17940
        }
      ]
    }
  },
  "deployedLinkReferences": {
    "contracts/src/DssExecLib.sol": {
      "DssExecLib": [
        {
          "length": 20,
          "start": 222
        },
        {
          "length": 20,
          "start": 479
        },
        {
          "length": 20,
          "start": 617
        },
        {
          "length": 20,
          "start": 721
        },
        {
          "length": 20,
          "start": 827
        },
        {
          "length": 20,
          "start": 932
        },
        {
          "length": 20,
          "start": 1037
        },
        {
          "length": 20,
          "start": 1145
        },
        {
          "length": 20,
          "start": 1171
        },
        {
          "length": 20,
          "start": 1653
        },
        {
          "length": 20,
          "start": 2055
        },
        {
          "length": 20,
          "start": 2310
        },
        {
          "length": 20,
          "start": 2336
        },
        {
          "length": 20,
          "start": 2577
        },
        {
          "length": 20,
          "start": 2603
        },
        {
          "length": 20,
          "start": 2844
        },
        {
          "length": 20,
          "start": 2891
        },
        {
          "length": 20,
          "start": 3077
        },
        {
          "length": 20,
          "start": 3200
        },
        {
          "length": 20,
          "start": 3247
        },
        {
          "length": 20,
          "start": 3433
        },
        {
          "length": 20,
          "start": 3578
        },
        {
          "length": 20,
          "start": 3625
        },
        {
          "length": 20,
          "start": 3811
        },
        {
          "length": 20,
          "start": 3858
        },
        {
          "length": 20,
          "start": 4044
        },
        {
          "length": 20,
          "start": 4201
        },
        {
          "length": 20,
          "start": 4358
        },
        {
          "length": 20,
          "start": 4760
        },
        {
          "length": 20,
          "start": 5015
        },
        {
          "length": 20,
          "start": 5041
        },
        {
          "length": 20,
          "start": 5282
        },
        {
          "length": 20,
          "start": 5329
        },
        {
          "length": 20,
          "start": 5515
        },
        {
          "length": 20,
          "start": 5638
        },
        {
          "length": 20,
          "start": 5685
        },
        {
          "length": 20,
          "start": 5871
        },
        {
          "length": 20,
          "start": 6016
        },
        {
          "length": 20,
          "start": 6063
        },
        {
          "length": 20,
          "start": 6249
        },
        {
          "length": 20,
          "start": 6296
        },
        {
          "length": 20,
          "start": 6482
        },
        {
          "length": 20,
          "start": 6639
        },
        {
          "length": 20,
          "start": 7041
        },
        {
          "length": 20,
          "start": 7443
        },
        {
          "length": 20,
          "start": 7845
        },
        {
          "length": 20,
          "start": 8247
        },
        {
          "length": 20,
          "start": 8502
        },
        {
          "length": 20,
          "start": 8528
        },
        {
          "length": 20,
          "start": 8769
        },
        {
          "length": 20,
          "start": 8816
        },
        {
          "length": 20,
          "start": 9002
        },
        {
          "length": 20,
          "start": 9028
        },
        {
          "length": 20,
          "start": 9269
        },
        {
          "length": 20,
          "start": 9392
        },
        {
          "length": 20,
          "start": 9439
        },
        {
          "length": 20,
          "start": 9625
        },
        {
          "length": 20,
          "start": 9770
        },
        {
          "length": 20,
          "start": 9817
        },
        {
          "length": 20,
          "start": 10003
        },
        {
          "length": 20,
          "start": 10050
        },
        {
          "length": 20,
          "start": 10236
        },
        {
          "length": 20,
          "start": 10393
        },
        {
          "length": 20,
          "start": 10550
        },
        {
          "length": 20,
          "start": 10952
        },
        {
          "length": 20,
          "start": 11354
        },
        {
          "length": 20,
          "start": 11756
        },
        {
          "length": 20,
          "start": 12158
        },
        {
          "length": 20,
          "start": 12560
        },
        {
          "length": 20,
          "start": 12815
        },
        {
          "length": 20,
          "start": 12841
        },
        {
          "length": 20,
          "start": 13082
        },
        {
          "length": 20,
          "start": 13129
        },
        {
          "length": 20,
          "start": 13315
        },
        {
          "length": 20,
          "start": 13460
        },
        {
          "length": 20,
          "start": 13617
        },
        {
          "length": 20,
          "start": 13643
        },
        {
          "length": 20,
          "start": 13884
        },
        {
          "length": 20,
          "start": 13931
        },
        {
          "length": 20,
          "start": 14117
        },
        {
          "length": 20,
          "start": 14240
        },
        {
          "length": 20,
          "start": 14287
        },
        {
          "length": 20,
          "start": 14473
        },
        {
          "length": 20,
          "start": 14618
        },
        {
          "length": 20,
          "start": 14665
        },
        {
          "length": 20,
          "start": 14851
        },
        {
          "length": 20,
          "start": 14898
        },
        {
          "length": 20,
          "start": 15084
        },
        {
          "length": 20,
          "start": 15241
        },
        {
          "length": 20,
          "start": 15643
        },
        {
          "length": 20,
          "start": 16045
        },
        {
          "length": 20,
          "start": 16447
        },
        {
          "length": 20,
          "start": 16849
        },
        {
          "length": 20,
          "start": 17251
        },
        {
          "length": 20,
          "start": 17653
        },
        {
          "length": 20,
          "start": 17908
        }
      ]
    }
  }
}