{
  "_format": "hh-sol-artifact-1",
  "contractName": "Cure",
  "sourceName": "contracts/cure.sol",
  "abi": [
    {
      "inputs": [],
      "stateMutability": "nonpayable",
      "type": "constructor"
    },
    {
      "anonymous": false,
      "inputs": [],
      "name": "Cage",
      "type": "event"
    },
    {
      "anonymous": false,
      "inputs": [
        {
          "indexed": true,
          "internalType": "address",
          "name": "usr",
          "type": "address"
        }
      ],
      "name": "Deny",
      "type": "event"
    },
    {
      "anonymous": false,
      "inputs": [
        {
          "indexed": true,
          "internalType": "address",
          "name": "src",
          "type": "address"
        }
      ],
      "name": "Drop",
      "type": "event"
    },
    {
      "anonymous": false,
      "inputs": [
        {
          "indexed": true,
          "internalType": "bytes32",
          "name": "what",
          "type": "bytes32"
        },
        {
          "indexed": false,
          "internalType": "uint256",
          "name": "data",
          "type": "uint256"
        }
      ],
      "name": "File",
      "type": "event"
    },
    {
      "anonymous": false,
      "inputs": [
        {
          "indexed": true,
          "internalType": "address",
          "name": "src",
          "type": "address"
        }
      ],
      "name": "Lift",
      "type": "event"
    },
    {
      "anonymous": false,
      "inputs": [
        {
          "indexed": true,
          "internalType": "address",
          "name": "src",
          "type": "address"
        }
      ],
      "name": "Load",
      "type": "event"
    },
    {
      "anonymous": false,
      "inputs": [
        {
          "indexed": true,
          "internalType": "address",
          "name": "usr",
          "type": "address"
        }
      ],
      "name": "Rely",
      "type": "event"
    },
    {
      "inputs": [
        {
          "internalType": "address",
          "name": "",
          "type": "address"
        }
      ],
      "name": "amt",
      "outputs": [
        {
          "internalType": "uint256",
          "name": "",
          "type": "uint256"
        }
      ],
      "stateMutability": "view",
      "type": "function"
    },
    {
      "inputs": [],
      "name": "cage",
      "outputs": [],
      "stateMutability": "nonpayable",
      "type": "function"
    },
    {
      "inputs": [
        {
          "internalType": "address",
          "name": "usr",
          "type": "address"
        }
      ],
      "name": "deny",
      "outputs": [],
      "stateMutability": "nonpayable",
      "type": "function"
    },
    {
      "inputs": [
        {
          "internalType": "address",
          "name": "src",
          "type": "address"
        }
      ],
      "name": "drop",
      "outputs": [],
      "stateMutability": "nonpayable",
      "type": "function"
    },
    {
      "inputs": [
        {
          "internalType": "bytes32",
          "name": "what",
          "type": "bytes32"
        },
        {
          "internalType": "uint256",
          "name": "data",
          "type": "uint256"
        }
      ],
      "name": "file",
      "outputs": [],
      "stateMutability": "nonpayable",
      "type": "function"
    },
    {
      "inputs": [],
      "name": "lCount",
      "outputs": [
        {
          "internalType": "uint256",
          "name": "",
          "type": "uint256"
        }
      ],
      "stateMutability": "view",
      "type": "function"
    },
    {
      "inputs": [
        {
          "internalType": "address",
          "name": "src",
          "type": "address"
        }
      ],
      "name": "lift",
      "outputs": [],
      "stateMutability": "nonpayable",
      "type": "function"
    },
    {
      "inputs": [],
      "name": "list",
      "outputs": [
        {
          "internalType": "address[]",
          "name": "",
          "type": "address[]"
        }
      ],
      "stateMutability": "view",
      "type": "function"
    },
    {
      "inputs": [],
      "name": "live",
      "outputs": [
        {
          "internalType": "uint256",
          "name": "",
          "type": "uint256"
        }
      ],
      "stateMutability": "view",
      "type": "function"
    },
    {
      "inputs": [
        {
          "internalType": "address",
          "name": "src",
          "type": "address"
        }
      ],
      "name": "load",
      "outputs": [],
      "stateMutability": "nonpayable",
      "type": "function"
    },
    {
      "inputs": [
        {
          "internalType": "address",
          "name": "",
          "type": "address"
        }
      ],
      "name": "loaded",
      "outputs": [
        {
          "internalType": "uint256",
          "name": "",
          "type": "uint256"
        }
      ],
      "stateMutability": "view",
      "type": "function"
    },
    {
      "inputs": [
        {
          "internalType": "address",
          "name": "",
          "type": "address"
        }
      ],
      "name": "pos",
      "outputs": [
        {
          "internalType": "uint256",
          "name": "",
          "type": "uint256"
        }
      ],
      "stateMutability": "view",
      "type": "function"
    },
    {
      "inputs": [
        {
          "internalType": "address",
          "name": "usr",
          "type": "address"
        }
      ],
      "name": "rely",
      "outputs": [],
      "stateMutability": "nonpayable",
      "type": "function"
    },
    {
      "inputs": [],
      "name": "say",
      "outputs": [
        {
          "internalType": "uint256",
          "name": "",
          "type": "uint256"
        }
      ],
      "stateMutability": "view",
      "type": "function"
    },
    {
      "inputs": [
        {
          "internalType": "uint256",
          "name": "",
          "type": "uint256"
        }
      ],
      "name": "srcs",
      "outputs": [
        {
          "internalType": "address",
          "name": "",
          "type": "address"
        }
      ],
      "stateMutability": "view",
      "type": "function"
    },
    {
      "inputs": [],
      "name": "tCount",
      "outputs": [
        {
          "internalType": "uint256",
          "name": "count_",
          "type": "uint256"
        }
      ],
      "stateMutability": "view",
      "type": "function"
    },
    {
      "inputs": [],
      "name": "tell",
      "outputs": [
        {
          "internalType": "uint256",
          "name": "",
          "type": "uint256"
        }
      ],
      "stateMutability": "view",
      "type": "function"
    },
    {
      "inputs": [],
      "name": "wait",
      "outputs": [
        {
          "internalType": "uint256",
          "name": "",
          "type": "uint256"
        }
      ],
      "stateMutability": "view",
      "type": "function"
    },
    {
      "inputs": [
        {
          "internalType": "address",
          "name": "",
          "type": "address"
        }
      ],
      "name": "wards",
      "outputs": [
        {
          "internalType": "uint256",
          "name": "",
          "type": "uint256"
        }
      ],
      "stateMutability": "view",
      "type": "function"
    },
    {
      "inputs": [],
      "name": "when",
      "outputs": [
        {
          "internalType": "uint256",
          "name": "",
          "type": "uint256"
        }
      ],
      "stateMutability": "view",
      "type": "function"
    }
  ],
  "bytecode": "0x608060405234801561001057600080fd5b506001808190555060016000803373ffffffffffffffffffffffffffffffffffffffff1673ffffffffffffffffffffffffffffffffffffffff168152602001908152602001600020819055503373ffffffffffffffffffffffffffffffffffffffff167fdd0e34038ac38b2a1ce960229778ac48a8719bc900b6c4f8d0475c6e8b385a6060405160405180910390a2611c1b806100ae6000396000f3fe608060405234801561001057600080fd5b506004361061012c5760003560e01c806369245009116100ad5780639c52a7f1116100715780639c52a7f1146102f9578063bf353dbb14610315578063e2b0caef14610345578063f381273f14610363578063ffa9ca9f146103935761012c565b8063692450091461026757806391f2700a1461027157806393d0281c1461028d578063954ab4b2146102bd578063957aa58c146102db5761012c565b8063493aa4c7116100f4578063493aa4c7146101d357806353d700e5146101f157806353f9a8731461020f57806364bd70131461022d57806365fae35e1461024b5761012c565b806309615662146101315780630f560cd71461016157806329ae81141461017f5780632f40e7341461019b5780633c278bd5146101b7575b600080fd5b61014b60048036038101906101469190611429565b6103c3565b604051610158919061146f565b60405180910390f35b6101696103db565b6040516101769190611548565b60405180910390f35b610199600480360381019061019491906115cc565b610469565b005b6101b560048036038101906101b09190611429565b6105d8565b005b6101d160048036038101906101cc9190611429565b6108a0565b005b6101db610ad9565b6040516101e8919061146f565b60405180910390f35b6101f9610adf565b604051610206919061146f565b60405180910390f35b610217610b4c565b604051610224919061146f565b60405180910390f35b610235610b59565b604051610242919061146f565b60405180910390f35b61026560048036038101906102609190611429565b610b5f565b005b61026f610cae565b005b61028b60048036038101906102869190611429565b610dbb565b005b6102a760048036038101906102a29190611429565b61112c565b6040516102b4919061146f565b60405180910390f35b6102c5611144565b6040516102d2919061146f565b60405180910390f35b6102e361114a565b6040516102f0919061146f565b60405180910390f35b610313600480360381019061030e9190611429565b611150565b005b61032f600480360381019061032a9190611429565b61129f565b60405161033c919061146f565b60405180910390f35b61034d6112b7565b60405161035a919061146f565b60405180910390f35b61037d6004803603810190610378919061160c565b6112bd565b60405161038a9190611648565b60405180910390f35b6103ad60048036038101906103a89190611429565b6112fc565b6040516103ba919061146f565b60405180910390f35b60066020528060005260406000206000915090505481565b6060600280548060200260200160405190810160405280929190818152602001828054801561045f57602002820191906000526020600020905b8160009054906101000a900473ffffffffffffffffffffffffffffffffffffffff1673ffffffffffffffffffffffffffffffffffffffff1681526020019060010190808311610415575b5050505050905090565b60016000803373ffffffffffffffffffffffffffffffffffffffff1673ffffffffffffffffffffffffffffffffffffffff16815260200190815260200160002054146104ea576040517f08c379a00000000000000000000000000000000000000000000000000000000081526004016104e1906116c0565b60405180910390fd5b600180541461052e576040517f08c379a00000000000000000000000000000000000000000000000000000000081526004016105259061172c565b60405180910390fd5b7f77616974000000000000000000000000000000000000000000000000000000008203610561578060038190555061059c565b6040517f08c379a000000000000000000000000000000000000000000000000000000000815260040161059390611798565b60405180910390fd5b817fe986e40cc8c151830d4f61050f4fb2e4add8567caad2d5f5496f9158e91fe4c7826040516105cc919061146f565b60405180910390a25050565b60006001541461061d576040517f08c379a000000000000000000000000000000000000000000000000000000000815260040161061490611804565b60405180910390fd5b6000600560008373ffffffffffffffffffffffffffffffffffffffff1673ffffffffffffffffffffffffffffffffffffffff168152602001908152602001600020541161069f576040517f08c379a000000000000000000000000000000000000000000000000000000000815260040161069690611870565b60405180910390fd5b6000600660008373ffffffffffffffffffffffffffffffffffffffff1673ffffffffffffffffffffffffffffffffffffffff16815260200190815260200160002054905060008273ffffffffffffffffffffffffffffffffffffffff1663840782ed6040518163ffffffff1660e01b8152600401602060405180830381865afa158015610730573d6000803e3d6000fd5b505050506040513d601f19601f8201168201806040525081019061075491906118a5565b600660008573ffffffffffffffffffffffffffffffffffffffff1673ffffffffffffffffffffffffffffffffffffffff16815260200190815260200160002081905590506107ad6107a760095484611314565b8261136d565b6009819055506000600760008573ffffffffffffffffffffffffffffffffffffffff1673ffffffffffffffffffffffffffffffffffffffff1681526020019081526020016000205403610858576001600760008573ffffffffffffffffffffffffffffffffffffffff1673ffffffffffffffffffffffffffffffffffffffff168152602001908152602001600020819055506008600081548092919061085290611901565b91905055505b8273ffffffffffffffffffffffffffffffffffffffff167fe90dfdfab1f4f73aeba2ef47b366c3c4118d3c38cab46bb993f7ed257a61c8c060405160405180910390a2505050565b60016000803373ffffffffffffffffffffffffffffffffffffffff1673ffffffffffffffffffffffffffffffffffffffff1681526020019081526020016000205414610921576040517f08c379a0000000000000000000000000000000000000000000000000000000008152600401610918906116c0565b60405180910390fd5b6001805414610965576040517f08c379a000000000000000000000000000000000000000000000000000000000815260040161095c9061172c565b60405180910390fd5b6000600560008373ffffffffffffffffffffffffffffffffffffffff1673ffffffffffffffffffffffffffffffffffffffff16815260200190815260200160002054146109e7576040517f08c379a00000000000000000000000000000000000000000000000000000000081526004016109de90611995565b60405180910390fd5b6002819080600181540180825580915050600190039060005260206000200160009091909190916101000a81548173ffffffffffffffffffffffffffffffffffffffff021916908373ffffffffffffffffffffffffffffffffffffffff160217905550600280549050600560008373ffffffffffffffffffffffffffffffffffffffff1673ffffffffffffffffffffffffffffffffffffffff168152602001908152602001600020819055508073ffffffffffffffffffffffffffffffffffffffff167f2b07094bdf192088dc9d18c2c3a2b11b7f1df5d6f3460343964c059221e3f04860405160405180910390a250565b60085481565b600080600154148015610b0557506002805490506008541480610b0457506004544210155b5b610b44576040517f08c379a0000000000000000000000000000000000000000000000000000000008152600401610b3b90611a27565b60405180910390fd5b600954905090565b6000600280549050905090565b60035481565b60016000803373ffffffffffffffffffffffffffffffffffffffff1673ffffffffffffffffffffffffffffffffffffffff1681526020019081526020016000205414610be0576040517f08c379a0000000000000000000000000000000000000000000000000000000008152600401610bd7906116c0565b60405180910390fd5b6001805414610c24576040517f08c379a0000000000000000000000000000000000000000000000000000000008152600401610c1b9061172c565b60405180910390fd5b60016000808373ffffffffffffffffffffffffffffffffffffffff1673ffffffffffffffffffffffffffffffffffffffff168152602001908152602001600020819055508073ffffffffffffffffffffffffffffffffffffffff167fdd0e34038ac38b2a1ce960229778ac48a8719bc900b6c4f8d0475c6e8b385a6060405160405180910390a250565b60016000803373ffffffffffffffffffffffffffffffffffffffff1673ffffffffffffffffffffffffffffffffffffffff1681526020019081526020016000205414610d2f576040517f08c379a0000000000000000000000000000000000000000000000000000000008152600401610d26906116c0565b60405180910390fd5b6001805414610d73576040517f08c379a0000000000000000000000000000000000000000000000000000000008152600401610d6a9061172c565b60405180910390fd5b6000600181905550610d874260035461136d565b6004819055507f2308ed18a14e800c39b86eb6ea43270105955ca385b603b64eca89f98ae8fbda60405160405180910390a1565b60016000803373ffffffffffffffffffffffffffffffffffffffff1673ffffffffffffffffffffffffffffffffffffffff1681526020019081526020016000205414610e3c576040517f08c379a0000000000000000000000000000000000000000000000000000000008152600401610e33906116c0565b60405180910390fd5b6001805414610e80576040517f08c379a0000000000000000000000000000000000000000000000000000000008152600401610e779061172c565b60405180910390fd5b6000600560008373ffffffffffffffffffffffffffffffffffffffff1673ffffffffffffffffffffffffffffffffffffffff16815260200190815260200160002054905060008111610f07576040517f08c379a0000000000000000000000000000000000000000000000000000000008152600401610efe90611870565b60405180910390fd5b60006002805490509050808210156110175760006002600183610f2a9190611a47565b81548110610f3b57610f3a611a7b565b5b9060005260206000200160009054906101000a900473ffffffffffffffffffffffffffffffffffffffff169050806002600185610f789190611a47565b81548110610f8957610f88611a7b565b5b9060005260206000200160006101000a81548173ffffffffffffffffffffffffffffffffffffffff021916908373ffffffffffffffffffffffffffffffffffffffff16021790555082600560008373ffffffffffffffffffffffffffffffffffffffff1673ffffffffffffffffffffffffffffffffffffffff16815260200190815260200160002081905550505b600280548061102957611028611aaa565b5b6001900381819060005260206000200160006101000a81549073ffffffffffffffffffffffffffffffffffffffff02191690559055600560008473ffffffffffffffffffffffffffffffffffffffff1673ffffffffffffffffffffffffffffffffffffffff16815260200190815260200160002060009055600660008473ffffffffffffffffffffffffffffffffffffffff1673ffffffffffffffffffffffffffffffffffffffff168152602001908152602001600020600090558273ffffffffffffffffffffffffffffffffffffffff167fdbc628f334a9c7bf46419d864ca89e17415703fa12263f2284d94cc9b75b659e60405160405180910390a2505050565b60056020528060005260406000206000915090505481565b60095481565b60015481565b60016000803373ffffffffffffffffffffffffffffffffffffffff1673ffffffffffffffffffffffffffffffffffffffff16815260200190815260200160002054146111d1576040517f08c379a00000000000000000000000000000000000000000000000000000000081526004016111c8906116c0565b60405180910390fd5b6001805414611215576040517f08c379a000000000000000000000000000000000000000000000000000000000815260040161120c9061172c565b60405180910390fd5b60008060008373ffffffffffffffffffffffffffffffffffffffff1673ffffffffffffffffffffffffffffffffffffffff168152602001908152602001600020819055508073ffffffffffffffffffffffffffffffffffffffff167f184450df2e323acec0ed3b5c7531b81f9b4cdef7914dfd4c0a4317416bb5251b60405160405180910390a250565b60006020528060005260406000206000915090505481565b60045481565b600281815481106112cd57600080fd5b906000526020600020016000915054906101000a900473ffffffffffffffffffffffffffffffffffffffff1681565b60076020528060005260406000206000915090505481565b60008282846113239190611a47565b9150811115611367576040517f08c379a000000000000000000000000000000000000000000000000000000000815260040161135e90611b25565b60405180910390fd5b92915050565b600082828461137c9190611b45565b91508110156113c0576040517f08c379a00000000000000000000000000000000000000000000000000000000081526004016113b790611bc5565b60405180910390fd5b92915050565b600080fd5b600073ffffffffffffffffffffffffffffffffffffffff82169050919050565b60006113f6826113cb565b9050919050565b611406816113eb565b811461141157600080fd5b50565b600081359050611423816113fd565b92915050565b60006020828403121561143f5761143e6113c6565b5b600061144d84828501611414565b91505092915050565b6000819050919050565b61146981611456565b82525050565b60006020820190506114846000830184611460565b92915050565b600081519050919050565b600082825260208201905092915050565b6000819050602082019050919050565b6114bf816113eb565b82525050565b60006114d183836114b6565b60208301905092915050565b6000602082019050919050565b60006114f58261148a565b6114ff8185611495565b935061150a836114a6565b8060005b8381101561153b57815161152288826114c5565b975061152d836114dd565b92505060018101905061150e565b5085935050505092915050565b6000602082019050818103600083015261156281846114ea565b905092915050565b6000819050919050565b61157d8161156a565b811461158857600080fd5b50565b60008135905061159a81611574565b92915050565b6115a981611456565b81146115b457600080fd5b50565b6000813590506115c6816115a0565b92915050565b600080604083850312156115e3576115e26113c6565b5b60006115f18582860161158b565b9250506020611602858286016115b7565b9150509250929050565b600060208284031215611622576116216113c6565b5b6000611630848285016115b7565b91505092915050565b611642816113eb565b82525050565b600060208201905061165d6000830184611639565b92915050565b600082825260208201905092915050565b7f437572652f6e6f742d617574686f72697a656400000000000000000000000000600082015250565b60006116aa601383611663565b91506116b582611674565b602082019050919050565b600060208201905081810360008301526116d98161169d565b9050919050565b7f437572652f6e6f742d6c69766500000000000000000000000000000000000000600082015250565b6000611716600d83611663565b9150611721826116e0565b602082019050919050565b6000602082019050818103600083015261174581611709565b9050919050565b7f437572652f66696c652d756e7265636f676e697a65642d706172616d00000000600082015250565b6000611782601c83611663565b915061178d8261174c565b602082019050919050565b600060208201905081810360008301526117b181611775565b9050919050565b7f437572652f7374696c6c2d6c6976650000000000000000000000000000000000600082015250565b60006117ee600f83611663565b91506117f9826117b8565b602082019050919050565b6000602082019050818103600083015261181d816117e1565b9050919050565b7f437572652f6e6f6e2d6578697374696e672d736f757263650000000000000000600082015250565b600061185a601883611663565b915061186582611824565b602082019050919050565b600060208201905081810360008301526118898161184d565b9050919050565b60008151905061189f816115a0565b92915050565b6000602082840312156118bb576118ba6113c6565b5b60006118c984828501611890565b91505092915050565b7f4e487b7100000000000000000000000000000000000000000000000000000000600052601160045260246000fd5b600061190c82611456565b91507fffffffffffffffffffffffffffffffffffffffffffffffffffffffffffffffff820361193e5761193d6118d2565b5b600182019050919050565b7f437572652f616c72656164792d6578697374696e672d736f7572636500000000600082015250565b600061197f601c83611663565b915061198a82611949565b602082019050919050565b600060208201905081810360008301526119ae81611972565b9050919050565b7f437572652f6d697373696e672d6c6f61642d616e642d74696d652d6e6f742d7060008201527f6173736564000000000000000000000000000000000000000000000000000000602082015250565b6000611a11602583611663565b9150611a1c826119b5565b604082019050919050565b60006020820190508181036000830152611a4081611a04565b9050919050565b6000611a5282611456565b9150611a5d83611456565b9250828203905081811115611a7557611a746118d2565b5b92915050565b7f4e487b7100000000000000000000000000000000000000000000000000000000600052603260045260246000fd5b7f4e487b7100000000000000000000000000000000000000000000000000000000600052603160045260246000fd5b7f437572652f7375622d756e646572666c6f770000000000000000000000000000600082015250565b6000611b0f601283611663565b9150611b1a82611ad9565b602082019050919050565b60006020820190508181036000830152611b3e81611b02565b9050919050565b6000611b5082611456565b9150611b5b83611456565b9250828201905080821115611b7357611b726118d2565b5b92915050565b7f437572652f6164642d6f766572666c6f77000000000000000000000000000000600082015250565b6000611baf601183611663565b9150611bba82611b79565b602082019050919050565b60006020820190508181036000830152611bde81611ba2565b905091905056fea2646970667358221220bb152a3e8d692ea8548de9810e7dddea8fb091500ba56f894df9c22e9e9e56c564736f6c63430008180033",
  "linkReferences": {},
  "deployedLinkReferences": {}
}