{
  "_format": "hh-sol-artifact-1",
  "contractName": "IlkRegistry",
  "sourceName": "contracts/ilkReg.sol",
  "abi": [
    {
      "inputs": [
        {
          "internalType": "address",
          "name": "vat_",
          "type": "address"
        },
        {
          "internalType": "address",
          "name": "dog_",
          "type": "address"
        },
        {
          "internalType": "address",
          "name": "cat_",
          "type": "address"
        },
        {
          "internalType": "address",
          "name": "spot_",
          "type": "address"
        }
      ],
      "stateMutability": "nonpayable",
      "type": "constructor"
    },
    {
      "anonymous": false,
      "inputs": [
        {
          "indexed": false,
          "internalType": "bytes32",
          "name": "ilk",
          "type": "bytes32"
        }
      ],
      "name": "AddIlk",
      "type": "event"
    },
    {
      "anonymous": false,
      "inputs": [
        {
          "indexed": false,
          "internalType": "address",
          "name": "usr",
          "type": "address"
        }
      ],
      "name": "Deny",
      "type": "event"
    },
    {
      "anonymous": false,
      "inputs": [
        {
          "indexed": false,
          "internalType": "bytes32",
          "name": "what",
          "type": "bytes32"
        },
        {
          "indexed": false,
          "internalType": "address",
          "name": "data",
          "type": "address"
        }
      ],
      "name": "File",
      "type": "event"
    },
    {
      "anonymous": false,
      "inputs": [
        {
          "indexed": false,
          "internalType": "bytes32",
          "name": "ilk",
          "type": "bytes32"
        },
        {
          "indexed": false,
          "internalType": "bytes32",
          "name": "what",
          "type": "bytes32"
        },
        {
          "indexed": false,
          "internalType": "address",
          "name": "data",
          "type": "address"
        }
      ],
      "name": "File",
      "type": "event"
    },
    {
      "anonymous": false,
      "inputs": [
        {
          "indexed": false,
          "internalType": "bytes32",
          "name": "ilk",
          "type": "bytes32"
        },
        {
          "indexed": false,
          "internalType": "bytes32",
          "name": "what",
          "type": "bytes32"
        },
        {
          "indexed": false,
          "internalType": "uint256",
          "name": "data",
          "type": "uint256"
        }
      ],
      "name": "File",
      "type": "event"
    },
    {
      "anonymous": false,
      "inputs": [
        {
          "indexed": false,
          "internalType": "bytes32",
          "name": "ilk",
          "type": "bytes32"
        },
        {
          "indexed": false,
          "internalType": "bytes32",
          "name": "what",
          "type": "bytes32"
        },
        {
          "indexed": false,
          "internalType": "string",
          "name": "data",
          "type": "string"
        }
      ],
      "name": "File",
      "type": "event"
    },
    {
      "anonymous": false,
      "inputs": [
        {
          "indexed": false,
          "internalType": "bytes32",
          "name": "ilk",
          "type": "bytes32"
        }
      ],
      "name": "NameError",
      "type": "event"
    },
    {
      "anonymous": false,
      "inputs": [
        {
          "indexed": false,
          "internalType": "address",
          "name": "usr",
          "type": "address"
        }
      ],
      "name": "Rely",
      "type": "event"
    },
    {
      "anonymous": false,
      "inputs": [
        {
          "indexed": false,
          "internalType": "bytes32",
          "name": "ilk",
          "type": "bytes32"
        }
      ],
      "name": "RemoveIlk",
      "type": "event"
    },
    {
      "anonymous": false,
      "inputs": [
        {
          "indexed": false,
          "internalType": "bytes32",
          "name": "ilk",
          "type": "bytes32"
        }
      ],
      "name": "SymbolError",
      "type": "event"
    },
    {
      "anonymous": false,
      "inputs": [
        {
          "indexed": false,
          "internalType": "bytes32",
          "name": "ilk",
          "type": "bytes32"
        }
      ],
      "name": "UpdateIlk",
      "type": "event"
    },
    {
      "inputs": [
        {
          "internalType": "address",
          "name": "adapter",
          "type": "address"
        }
      ],
      "name": "add",
      "outputs": [],
      "stateMutability": "nonpayable",
      "type": "function"
    },
    {
      "inputs": [],
      "name": "cat",
      "outputs": [
        {
          "internalType": "contract CatLike",
          "name": "",
          "type": "address"
        }
      ],
      "stateMutability": "view",
      "type": "function"
    },
    {
      "inputs": [
        {
          "internalType": "bytes32",
          "name": "ilk",
          "type": "bytes32"
        }
      ],
      "name": "class",
      "outputs": [
        {
          "internalType": "uint256",
          "name": "",
          "type": "uint256"
        }
      ],
      "stateMutability": "view",
      "type": "function"
    },
    {
      "inputs": [],
      "name": "count",
      "outputs": [
        {
          "internalType": "uint256",
          "name": "",
          "type": "uint256"
        }
      ],
      "stateMutability": "view",
      "type": "function"
    },
    {
      "inputs": [
        {
          "internalType": "bytes32",
          "name": "ilk",
          "type": "bytes32"
        }
      ],
      "name": "dec",
      "outputs": [
        {
          "internalType": "uint256",
          "name": "",
          "type": "uint256"
        }
      ],
      "stateMutability": "view",
      "type": "function"
    },
    {
      "inputs": [
        {
          "internalType": "address",
          "name": "usr",
          "type": "address"
        }
      ],
      "name": "deny",
      "outputs": [],
      "stateMutability": "nonpayable",
      "type": "function"
    },
    {
      "inputs": [],
      "name": "dog",
      "outputs": [
        {
          "internalType": "contract DogLike",
          "name": "",
          "type": "address"
        }
      ],
      "stateMutability": "view",
      "type": "function"
    },
    {
      "inputs": [
        {
          "internalType": "bytes32",
          "name": "ilk",
          "type": "bytes32"
        },
        {
          "internalType": "bytes32",
          "name": "what",
          "type": "bytes32"
        },
        {
          "internalType": "uint256",
          "name": "data",
          "type": "uint256"
        }
      ],
      "name": "file",
      "outputs": [],
      "stateMutability": "nonpayable",
      "type": "function"
    },
    {
      "inputs": [
        {
          "internalType": "bytes32",
          "name": "ilk",
          "type": "bytes32"
        },
        {
          "internalType": "bytes32",
          "name": "what",
          "type": "bytes32"
        },
        {
          "internalType": "string",
          "name": "data",
          "type": "string"
        }
      ],
      "name": "file",
      "outputs": [],
      "stateMutability": "nonpayable",
      "type": "function"
    },
    {
      "inputs": [
        {
          "internalType": "bytes32",
          "name": "what",
          "type": "bytes32"
        },
        {
          "internalType": "address",
          "name": "data",
          "type": "address"
        }
      ],
      "name": "file",
      "outputs": [],
      "stateMutability": "nonpayable",
      "type": "function"
    },
    {
      "inputs": [
        {
          "internalType": "bytes32",
          "name": "ilk",
          "type": "bytes32"
        },
        {
          "internalType": "bytes32",
          "name": "what",
          "type": "bytes32"
        },
        {
          "internalType": "address",
          "name": "data",
          "type": "address"
        }
      ],
      "name": "file",
      "outputs": [],
      "stateMutability": "nonpayable",
      "type": "function"
    },
    {
      "inputs": [
        {
          "internalType": "bytes32",
          "name": "ilk",
          "type": "bytes32"
        }
      ],
      "name": "gem",
      "outputs": [
        {
          "internalType": "address",
          "name": "",
          "type": "address"
        }
      ],
      "stateMutability": "view",
      "type": "function"
    },
    {
      "inputs": [
        {
          "internalType": "uint256",
          "name": "pos",
          "type": "uint256"
        }
      ],
      "name": "get",
      "outputs": [
        {
          "internalType": "bytes32",
          "name": "",
          "type": "bytes32"
        }
      ],
      "stateMutability": "view",
      "type": "function"
    },
    {
      "inputs": [
        {
          "internalType": "bytes32",
          "name": "",
          "type": "bytes32"
        }
      ],
      "name": "ilkData",
      "outputs": [
        {
          "internalType": "uint96",
          "name": "pos",
          "type": "uint96"
        },
        {
          "internalType": "address",
          "name": "join",
          "type": "address"
        },
        {
          "internalType": "address",
          "name": "gem",
          "type": "address"
        },
        {
          "internalType": "uint8",
          "name": "dec",
          "type": "uint8"
        },
        {
          "internalType": "uint96",
          "name": "class",
          "type": "uint96"
        },
        {
          "internalType": "address",
          "name": "pip",
          "type": "address"
        },
        {
          "internalType": "address",
          "name": "xlip",
          "type": "address"
        },
        {
          "internalType": "string",
          "name": "name",
          "type": "string"
        },
        {
          "internalType": "string",
          "name": "symbol",
          "type": "string"
        }
      ],
      "stateMutability": "view",
      "type": "function"
    },
    {
      "inputs": [
        {
          "internalType": "bytes32",
          "name": "ilk",
          "type": "bytes32"
        }
      ],
      "name": "info",
      "outputs": [
        {
          "internalType": "string",
          "name": "name",
          "type": "string"
        },
        {
          "internalType": "string",
          "name": "symbol",
          "type": "string"
        },
        {
          "internalType": "uint256",
          "name": "class",
          "type": "uint256"
        },
        {
          "internalType": "uint256",
          "name": "dec",
          "type": "uint256"
        },
        {
          "internalType": "address",
          "name": "gem",
          "type": "address"
        },
        {
          "internalType": "address",
          "name": "pip",
          "type": "address"
        },
        {
          "internalType": "address",
          "name": "join",
          "type": "address"
        },
        {
          "internalType": "address",
          "name": "xlip",
          "type": "address"
        }
      ],
      "stateMutability": "view",
      "type": "function"
    },
    {
      "inputs": [
        {
          "internalType": "bytes32",
          "name": "ilk",
          "type": "bytes32"
        }
      ],
      "name": "join",
      "outputs": [
        {
          "internalType": "address",
          "name": "",
          "type": "address"
        }
      ],
      "stateMutability": "view",
      "type": "function"
    },
    {
      "inputs": [],
      "name": "list",
      "outputs": [
        {
          "internalType": "bytes32[]",
          "name": "",
          "type": "bytes32[]"
        }
      ],
      "stateMutability": "view",
      "type": "function"
    },
    {
      "inputs": [
        {
          "internalType": "uint256",
          "name": "start",
          "type": "uint256"
        },
        {
          "internalType": "uint256",
          "name": "end",
          "type": "uint256"
        }
      ],
      "name": "list",
      "outputs": [
        {
          "internalType": "bytes32[]",
          "name": "",
          "type": "bytes32[]"
        }
      ],
      "stateMutability": "view",
      "type": "function"
    },
    {
      "inputs": [
        {
          "internalType": "bytes32",
          "name": "ilk",
          "type": "bytes32"
        }
      ],
      "name": "name",
      "outputs": [
        {
          "internalType": "string",
          "name": "",
          "type": "string"
        }
      ],
      "stateMutability": "view",
      "type": "function"
    },
    {
      "inputs": [
        {
          "internalType": "bytes32",
          "name": "ilk",
          "type": "bytes32"
        }
      ],
      "name": "pip",
      "outputs": [
        {
          "internalType": "address",
          "name": "",
          "type": "address"
        }
      ],
      "stateMutability": "view",
      "type": "function"
    },
    {
      "inputs": [
        {
          "internalType": "bytes32",
          "name": "ilk",
          "type": "bytes32"
        }
      ],
      "name": "pos",
      "outputs": [
        {
          "internalType": "uint256",
          "name": "",
          "type": "uint256"
        }
      ],
      "stateMutability": "view",
      "type": "function"
    },
    {
      "inputs": [
        {
          "internalType": "bytes32",
          "name": "_ilk",
          "type": "bytes32"
        },
        {
          "internalType": "address",
          "name": "_join",
          "type": "address"
        },
        {
          "internalType": "address",
          "name": "_gem",
          "type": "address"
        },
        {
          "internalType": "uint256",
          "name": "_dec",
          "type": "uint256"
        },
        {
          "internalType": "uint256",
          "name": "_class",
          "type": "uint256"
        },
        {
          "internalType": "address",
          "name": "_pip",
          "type": "address"
        },
        {
          "internalType": "address",
          "name": "_xlip",
          "type": "address"
        },
        {
          "internalType": "string",
          "name": "_name",
          "type": "string"
        },
        {
          "internalType": "string",
          "name": "_symbol",
          "type": "string"
        }
      ],
      "name": "put",
      "outputs": [],
      "stateMutability": "nonpayable",
      "type": "function"
    },
    {
      "inputs": [
        {
          "internalType": "address",
          "name": "usr",
          "type": "address"
        }
      ],
      "name": "rely",
      "outputs": [],
      "stateMutability": "nonpayable",
      "type": "function"
    },
    {
      "inputs": [
        {
          "internalType": "bytes32",
          "name": "ilk",
          "type": "bytes32"
        }
      ],
      "name": "remove",
      "outputs": [],
      "stateMutability": "nonpayable",
      "type": "function"
    },
    {
      "inputs": [
        {
          "internalType": "bytes32",
          "name": "ilk",
          "type": "bytes32"
        }
      ],
      "name": "removeAuth",
      "outputs": [],
      "stateMutability": "nonpayable",
      "type": "function"
    },
    {
      "inputs": [],
      "name": "spot",
      "outputs": [
        {
          "internalType": "contract SpotLike",
          "name": "",
          "type": "address"
        }
      ],
      "stateMutability": "view",
      "type": "function"
    },
    {
      "inputs": [
        {
          "internalType": "bytes32",
          "name": "ilk",
          "type": "bytes32"
        }
      ],
      "name": "symbol",
      "outputs": [
        {
          "internalType": "string",
          "name": "",
          "type": "string"
        }
      ],
      "stateMutability": "view",
      "type": "function"
    },
    {
      "inputs": [
        {
          "internalType": "bytes32",
          "name": "ilk",
          "type": "bytes32"
        }
      ],
      "name": "update",
      "outputs": [],
      "stateMutability": "nonpayable",
      "type": "function"
    },
    {
      "inputs": [],
      "name": "vat",
      "outputs": [
        {
          "internalType": "contract VatLike",
          "name": "",
          "type": "address"
        }
      ],
      "stateMutability": "view",
      "type": "function"
    },
    {
      "inputs": [
        {
          "internalType": "address",
          "name": "",
          "type": "address"
        }
      ],
      "name": "wards",
      "outputs": [
        {
          "internalType": "uint256",
          "name": "",
          "type": "uint256"
        }
      ],
      "stateMutability": "view",
      "type": "function"
    },
    {
      "inputs": [
        {
          "internalType": "bytes32",
          "name": "ilk",
          "type": "bytes32"
        }
      ],
      "name": "xlip",
      "outputs": [
        {
          "internalType": "address",
          "name": "",
          "type": "address"
        }
      ],
      "stateMutability": "view",
      "type": "function"
    }
  ],
  "bytecode": "0x60c06040523480156200001157600080fd5b506040516200611838038062006118833981810160405260808110156200003757600080fd5b810190808051906020019092919080519060200190929190805190602001909291908051906020019092919050505060008473ffffffffffffffffffffffffffffffffffffffff1660808173ffffffffffffffffffffffffffffffffffffffff1660601b815250905083600160006101000a81548173ffffffffffffffffffffffffffffffffffffffff021916908373ffffffffffffffffffffffffffffffffffffffff16021790555082600260006101000a81548173ffffffffffffffffffffffffffffffffffffffff021916908373ffffffffffffffffffffffffffffffffffffffff16021790555081600360006101000a81548173ffffffffffffffffffffffffffffffffffffffff021916908373ffffffffffffffffffffffffffffffffffffffff1602179055508473ffffffffffffffffffffffffffffffffffffffff16600160009054906101000a900473ffffffffffffffffffffffffffffffffffffffff1673ffffffffffffffffffffffffffffffffffffffff166336569e776040518163ffffffff1660e01b815260040160206040518083038186803b158015620001e357600080fd5b505afa158015620001f8573d6000803e3d6000fd5b505050506040513d60208110156200020f57600080fd5b810190808051906020019092919050505073ffffffffffffffffffffffffffffffffffffffff1614620002aa576040517f08c379a000000000000000000000000000000000000000000000000000000000815260040180806020018281038252601b8152602001807f496c6b52656769737472792f696e76616c69642d646f672d766174000000000081525060200191505060405180910390fd5b8473ffffffffffffffffffffffffffffffffffffffff16600260009054906101000a900473ffffffffffffffffffffffffffffffffffffffff1673ffffffffffffffffffffffffffffffffffffffff166336569e776040518163ffffffff1660e01b815260040160206040518083038186803b1580156200032a57600080fd5b505afa1580156200033f573d6000803e3d6000fd5b505050506040513d60208110156200035657600080fd5b810190808051906020019092919050505073ffffffffffffffffffffffffffffffffffffffff1614620003f1576040517f08c379a000000000000000000000000000000000000000000000000000000000815260040180806020018281038252601b8152602001807f496c6b52656769737472792f696e76616c69642d6361742d766174000000000081525060200191505060405180910390fd5b8473ffffffffffffffffffffffffffffffffffffffff16600360009054906101000a900473ffffffffffffffffffffffffffffffffffffffff1673ffffffffffffffffffffffffffffffffffffffff166336569e776040518163ffffffff1660e01b815260040160206040518083038186803b1580156200047157600080fd5b505afa15801562000486573d6000803e3d6000fd5b505050506040513d60208110156200049d57600080fd5b810190808051906020019092919050505073ffffffffffffffffffffffffffffffffffffffff161462000538576040517f08c379a000000000000000000000000000000000000000000000000000000000815260040180806020018281038252601f8152602001807f496c6b52656769737472792f696e76616c69642d73706f747465722d7661740081525060200191505060405180910390fd5b60018173ffffffffffffffffffffffffffffffffffffffff1663bf353dbb856040518263ffffffff1660e01b8152600401808273ffffffffffffffffffffffffffffffffffffffff16815260200191505060206040518083038186803b158015620005a257600080fd5b505afa158015620005b7573d6000803e3d6000fd5b505050506040513d6020811015620005ce57600080fd5b81019080805190602001909291905050501462000653576040517f08c379a000000000000000000000000000000000000000000000000000000000815260040180806020018281038252601e8152602001807f496c6b52656769737472792f6361742d6e6f742d617574686f72697a6564000081525060200191505060405180910390fd5b60018173ffffffffffffffffffffffffffffffffffffffff1663bf353dbb846040518263ffffffff1660e01b8152600401808273ffffffffffffffffffffffffffffffffffffffff16815260200191505060206040518083038186803b158015620006bd57600080fd5b505afa158015620006d2573d6000803e3d6000fd5b505050506040513d6020811015620006e957600080fd5b8101908080519060200190929190505050146200076e576040517f08c379a000000000000000000000000000000000000000000000000000000000815260040180806020018281038252601f8152602001807f496c6b52656769737472792f73706f742d6e6f742d617574686f72697a65640081525060200191505060405180910390fd5b60018173ffffffffffffffffffffffffffffffffffffffff1663957aa58c6040518163ffffffff1660e01b815260040160206040518083038186803b158015620007b757600080fd5b505afa158015620007cc573d6000803e3d6000fd5b505050506040513d6020811015620007e357600080fd5b81019080805190602001909291905050501462000868576040517f08c379a00000000000000000000000000000000000000000000000000000000081526004018080602001828103825260188152602001807f496c6b52656769737472792f7661742d6e6f742d6c697665000000000000000081525060200191505060405180910390fd5b6001600260009054906101000a900473ffffffffffffffffffffffffffffffffffffffff1673ffffffffffffffffffffffffffffffffffffffff1663957aa58c6040518163ffffffff1660e01b815260040160206040518083038186803b158015620008d357600080fd5b505afa158015620008e8573d6000803e3d6000fd5b505050506040513d6020811015620008ff57600080fd5b81019080805190602001909291905050501462000984576040517f08c379a00000000000000000000000000000000000000000000000000000000081526004018080602001828103825260188152602001807f496c6b52656769737472792f6361742d6e6f742d6c697665000000000000000081525060200191505060405180910390fd5b6001600360009054906101000a900473ffffffffffffffffffffffffffffffffffffffff1673ffffffffffffffffffffffffffffffffffffffff1663957aa58c6040518163ffffffff1660e01b815260040160206040518083038186803b158015620009ef57600080fd5b505afa15801562000a04573d6000803e3d6000fd5b505050506040513d602081101562000a1b57600080fd5b81019080805190602001909291905050501462000aa0576040517f08c379a00000000000000000000000000000000000000000000000000000000081526004018080602001828103825260198152602001807f496c6b52656769737472792f73706f742d6e6f742d6c6976650000000000000081525060200191505060405180910390fd5b60405162000aae9062000b51565b604051809103906000f08015801562000acb573d6000803e3d6000fd5b5073ffffffffffffffffffffffffffffffffffffffff1660a08173ffffffffffffffffffffffffffffffffffffffff1660601b8152505060016000803373ffffffffffffffffffffffffffffffffffffffff1673ffffffffffffffffffffffffffffffffffffffff16815260200190815260200160002081905550505050505062000b5f565b61049b8062005c7d83390190565b60805160601c60a05160601c6150e062000b9d6000398061175052806119a5525080610f6e5280611094528061247f528061307152506150e06000f3fe608060405234801561001057600080fd5b50600436106101e55760003560e01c80636f265b931161010f578063ad677d0b116100a2578063c8b97f7111610071578063c8b97f7114610df3578063d4e8be8314610e80578063e488181314610ece578063ebecb39d14610f02576101e5565b8063ad677d0b14610b7a578063b64a097e14610bd2578063bf353dbb14610d67578063c3b3ad7f14610dbf576101e5565b80639c52a7f1116100de5780639c52a7f1146108f5578063a19555d914610939578063a490303614610967578063a53a42b5146109bf576101e5565b80636f265b93146108235780638b147245146108575780639507d39a1461088557806395bc2673146108c7576101e5565b806336569e771161018757806356eac7dc1161015657806356eac7dc1461064f57806365fae35e14610691578063691f3431146106d55780636baa03301461077c576101e5565b806336569e77146103c957806341f0b723146103fd5780634d8835e61461045557806350fd7367146105c2576101e5565b80631a0b287e116101c35780631a0b287e146102ab578063217cf12b146102ed578063247c803f1461032f5780633017a54d14610387576101e5565b806306661abd146101ea5780630a3b0a4f146102085780630f560cd71461024c575b600080fd5b6101f2610f5a565b6040518082815260200191505060405180910390f35b61024a6004803603602081101561021e57600080fd5b81019080803573ffffffffffffffffffffffffffffffffffffffff169060200190929190505050610f67565b005b6102546120d7565b6040518080602001828103825283818151815260200191508051906020019060200280838360005b8381101561029757808201518184015260208101905061027c565b505050509050019250505060405180910390f35b6102eb600480360360608110156102c157600080fd5b8101908080359060200190929190803590602001909291908035906020019092919050505061212f565b005b6103196004803603602081101561030357600080fd5b81019080803590602001909291905050506123c7565b6040518082815260200191505060405180910390f35b61035b6004803603602081101561034557600080fd5b810190808035906020019092919050505061240d565b604051808273ffffffffffffffffffffffffffffffffffffffff16815260200191505060405180910390f35b6103b36004803603602081101561039d57600080fd5b810190808035906020019092919050505061244d565b6040518082815260200191505060405180910390f35b6103d161247d565b604051808273ffffffffffffffffffffffffffffffffffffffff16815260200191505060405180910390f35b6104296004803603602081101561041357600080fd5b81019080803590602001909291905050506124a1565b604051808273ffffffffffffffffffffffffffffffffffffffff16815260200191505060405180910390f35b6105c0600480360361012081101561046c57600080fd5b8101908080359060200190929190803573ffffffffffffffffffffffffffffffffffffffff169060200190929190803573ffffffffffffffffffffffffffffffffffffffff1690602001909291908035906020019092919080359060200190929190803573ffffffffffffffffffffffffffffffffffffffff169060200190929190803573ffffffffffffffffffffffffffffffffffffffff1690602001909291908035906020019064010000000081111561052757600080fd5b82018360208201111561053957600080fd5b8035906020019184600183028401116401000000008311171561055b57600080fd5b90919293919293908035906020019064010000000081111561057c57600080fd5b82018360208201111561058e57600080fd5b803590602001918460018302840111640100000000831117156105b057600080fd5b90919293919293905050506124e1565b005b6105f8600480360360408110156105d857600080fd5b810190808035906020019092919080359060200190929190505050612c14565b6040518080602001828103825283818151815260200191508051906020019060200280838360005b8381101561063b578082015181840152602081019050610620565b505050509050019250505060405180910390f35b61067b6004803603602081101561066557600080fd5b8101908080359060200190929190505050612d4b565b6040518082815260200191505060405180910390f35b6106d3600480360360208110156106a757600080fd5b81019080803573ffffffffffffffffffffffffffffffffffffffff169060200190929190505050612d91565b005b610701600480360360208110156106eb57600080fd5b8101908080359060200190929190505050612ed9565b6040518080602001828103825283818151815260200191508051906020019080838360005b83811015610741578082015181840152602081019050610726565b50505050905090810190601f16801561076e5780820380516001836020036101000a031916815260200191505b509250505060405180910390f35b6107a86004803603602081101561079257600080fd5b8101908080359060200190929190505050612f91565b6040518080602001828103825283818151815260200191508051906020019080838360005b838110156107e85780820151818401526020810190506107cd565b50505050905090810190601f1680156108155780820380516001836020036101000a031916815260200191505b509250505060405180910390f35b61082b613049565b604051808273ffffffffffffffffffffffffffffffffffffffff16815260200191505060405180910390f35b6108836004803603602081101561086d57600080fd5b810190808035906020019092919050505061306f565b005b6108b16004803603602081101561089b57600080fd5b81019080803590602001909291905050506135b5565b6040518082815260200191505060405180910390f35b6108f3600480360360208110156108dd57600080fd5b8101908080359060200190929190505050613650565b005b6109376004803603602081101561090b57600080fd5b81019080803573ffffffffffffffffffffffffffffffffffffffff169060200190929190505050613939565b005b6109656004803603602081101561094f57600080fd5b8101908080359060200190929190505050613a81565b005b6109936004803603602081101561097d57600080fd5b8101908080359060200190929190505050613b78565b604051808273ffffffffffffffffffffffffffffffffffffffff16815260200191505060405180910390f35b6109eb600480360360208110156109d557600080fd5b8101908080359060200190929190505050613bb8565b604051808a6bffffffffffffffffffffffff1681526020018973ffffffffffffffffffffffffffffffffffffffff1681526020018873ffffffffffffffffffffffffffffffffffffffff1681526020018760ff168152602001866bffffffffffffffffffffffff1681526020018573ffffffffffffffffffffffffffffffffffffffff1681526020018473ffffffffffffffffffffffffffffffffffffffff1681526020018060200180602001838103835285818151815260200191508051906020019080838360005b83811015610ad0578082015181840152602081019050610ab5565b50505050905090810190601f168015610afd5780820380516001836020036101000a031916815260200191505b50838103825284818151815260200191508051906020019080838360005b83811015610b36578082015181840152602081019050610b1b565b50505050905090810190601f168015610b635780820380516001836020036101000a031916815260200191505b509b50505050505050505050505060405180910390f35b610ba660048036036020811015610b9057600080fd5b8101908080359060200190929190505050613df3565b604051808273ffffffffffffffffffffffffffffffffffffffff16815260200191505060405180910390f35b610bfe60048036036020811015610be857600080fd5b8101908080359060200190929190505050613e33565b6040518080602001806020018981526020018881526020018773ffffffffffffffffffffffffffffffffffffffff1681526020018673ffffffffffffffffffffffffffffffffffffffff1681526020018573ffffffffffffffffffffffffffffffffffffffff1681526020018473ffffffffffffffffffffffffffffffffffffffff16815260200183810383528b818151815260200191508051906020019080838360005b83811015610cbe578082015181840152602081019050610ca3565b50505050905090810190601f168015610ceb5780820380516001836020036101000a031916815260200191505b5083810382528a818151815260200191508051906020019080838360005b83811015610d24578082015181840152602081019050610d09565b50505050905090810190601f168015610d515780820380516001836020036101000a031916815260200191505b509a505050505050505050505060405180910390f35b610da960048036036020811015610d7d57600080fd5b81019080803573ffffffffffffffffffffffffffffffffffffffff1690602001909291905050506141f9565b6040518082815260200191505060405180910390f35b610dc7614211565b604051808273ffffffffffffffffffffffffffffffffffffffff16815260200191505060405180910390f35b610e7e60048036036060811015610e0957600080fd5b81019080803590602001909291908035906020019092919080359060200190640100000000811115610e3a57600080fd5b820183602082011115610e4c57600080fd5b80359060200191846001830284011164010000000083111715610e6e57600080fd5b9091929391929390505050614237565b005b610ecc60048036036040811015610e9657600080fd5b8101908080359060200190929190803573ffffffffffffffffffffffffffffffffffffffff16906020019092919050505061445c565b005b610ed6614706565b604051808273ffffffffffffffffffffffffffffffffffffffff16815260200191505060405180910390f35b610f5860048036036060811015610f1857600080fd5b810190808035906020019092919080359060200190929190803573ffffffffffffffffffffffffffffffffffffffff16906020019092919050505061472c565b005b6000600580549050905090565b60008190507f000000000000000000000000000000000000000000000000000000000000000073ffffffffffffffffffffffffffffffffffffffff168173ffffffffffffffffffffffffffffffffffffffff166336569e776040518163ffffffff1660e01b815260040160206040518083038186803b158015610fe957600080fd5b505afa158015610ffd573d6000803e3d6000fd5b505050506040513d602081101561101357600080fd5b810190808051906020019092919050505073ffffffffffffffffffffffffffffffffffffffff1614611090576040517f08c379a00000000000000000000000000000000000000000000000000000000081526004018080602001828103825260248152602001806150656024913960400191505060405180910390fd5b60017f000000000000000000000000000000000000000000000000000000000000000073ffffffffffffffffffffffffffffffffffffffff1663bf353dbb836040518263ffffffff1660e01b8152600401808273ffffffffffffffffffffffffffffffffffffffff16815260200191505060206040518083038186803b15801561111957600080fd5b505afa15801561112d573d6000803e3d6000fd5b505050506040513d602081101561114357600080fd5b8101908080519060200190929190505050146111aa576040517f08c379a00000000000000000000000000000000000000000000000000000000081526004018080602001828103825260228152602001806150896022913960400191505060405180910390fd5b60008173ffffffffffffffffffffffffffffffffffffffff1663c5ce281e6040518163ffffffff1660e01b815260040160206040518083038186803b1580156111f257600080fd5b505afa158015611206573d6000803e3d6000fd5b505050506040513d602081101561121c57600080fd5b810190808051906020019092919050505090506000801b8114156112a8576040517f08c379a000000000000000000000000000000000000000000000000000000000815260040180806020018281038252601f8152602001807f496c6b52656769737472792f696c6b2d616461707465722d696e76616c69640081525060200191505060405180910390fd5b600073ffffffffffffffffffffffffffffffffffffffff1660046000838152602001908152602001600020600001600c9054906101000a900473ffffffffffffffffffffffffffffffffffffffff1673ffffffffffffffffffffffffffffffffffffffff1614611380576040517f08c379a000000000000000000000000000000000000000000000000000000000815260040180806020018281038252601e8152602001807f496c6b52656769737472792f696c6b2d616c72656164792d657869737473000081525060200191505060405180910390fd5b6000600360009054906101000a900473ffffffffffffffffffffffffffffffffffffffff1673ffffffffffffffffffffffffffffffffffffffff1663d9638d36836040518263ffffffff1660e01b815260040180828152602001915050604080518083038186803b1580156113f457600080fd5b505afa158015611408573d6000803e3d6000fd5b505050506040513d604081101561141e57600080fd5b810190808051906020019092919080519060200190929190505050509050600073ffffffffffffffffffffffffffffffffffffffff168173ffffffffffffffffffffffffffffffffffffffff1614156114df576040517f08c379a00000000000000000000000000000000000000000000000000000000081526004018080602001828103825260178152602001807f496c6b52656769737472792f7069702d696e76616c696400000000000000000081525060200191505060405180910390fd5b6000600160009054906101000a900473ffffffffffffffffffffffffffffffffffffffff1673ffffffffffffffffffffffffffffffffffffffff1663d9638d36846040518263ffffffff1660e01b81526004018082815260200191505060806040518083038186803b15801561155457600080fd5b505afa158015611568573d6000803e3d6000fd5b505050506040513d608081101561157e57600080fd5b81019080805190602001909291908051906020019092919080519060200190929190805190602001909291905050505050509050600060019050600073ffffffffffffffffffffffffffffffffffffffff168273ffffffffffffffffffffffffffffffffffffffff16141561174157600260009054906101000a900473ffffffffffffffffffffffffffffffffffffffff1673ffffffffffffffffffffffffffffffffffffffff1663d9638d36856040518263ffffffff1660e01b81526004018082815260200191505060606040518083038186803b15801561166057600080fd5b505afa158015611674573d6000803e3d6000fd5b505050506040513d606081101561168a57600080fd5b8101908080519060200190929190805190602001909291908051906020019092919050505090505080925050600073ffffffffffffffffffffffffffffffffffffffff168273ffffffffffffffffffffffffffffffffffffffff16141561173c576040517f08c379a00000000000000000000000000000000000000000000000000000000081526004018080602001828103825260248152602001806150416024913960400191505060405180910390fd5b600290505b606061174c85614a9e565b90507f000000000000000000000000000000000000000000000000000000000000000073ffffffffffffffffffffffffffffffffffffffff1663019848928773ffffffffffffffffffffffffffffffffffffffff16637bd2bea76040518163ffffffff1660e01b815260040160206040518083038186803b1580156117d057600080fd5b505afa1580156117e4573d6000803e3d6000fd5b505050506040513d60208110156117fa57600080fd5b81019080805190602001909291905050506040518263ffffffff1660e01b8152600401808273ffffffffffffffffffffffffffffffffffffffff16815260200191505060006040518083038186803b15801561185557600080fd5b505afa92505050801561194757506040513d6000823e3d601f19601f82011682018060405250602081101561188957600080fd5b81019080805160405193929190846401000000008211156118a957600080fd5b838201915060208201858111156118bf57600080fd5b82518660018202830111640100000000821117156118dc57600080fd5b8083526020830192505050908051906020019080838360005b838110156119105780820151818401526020810190506118f5565b50505050905090810190601f16801561193d5780820380516001836020036101000a031916815260200191505b5060405250505060015b611987577f93272f551c7dd0dd38e4c01ae7b4eeef80d2557b4460caa3ee96697d93bc809a856040518082815260200191505060405180910390a1611996565b6000815114611994578091505b505b60606119a186614a9e565b90507f000000000000000000000000000000000000000000000000000000000000000073ffffffffffffffffffffffffffffffffffffffff1663a86e35768873ffffffffffffffffffffffffffffffffffffffff16637bd2bea76040518163ffffffff1660e01b815260040160206040518083038186803b158015611a2557600080fd5b505afa158015611a39573d6000803e3d6000fd5b505050506040513d6020811015611a4f57600080fd5b81019080805190602001909291905050506040518263ffffffff1660e01b8152600401808273ffffffffffffffffffffffffffffffffffffffff16815260200191505060006040518083038186803b158015611aaa57600080fd5b505afa925050508015611b9c57506040513d6000823e3d601f19601f820116820180604052506020811015611ade57600080fd5b8101908080516040519392919084640100000000821115611afe57600080fd5b83820191506020820185811115611b1457600080fd5b8251866001820283011164010000000082111715611b3157600080fd5b8083526020830192505050908051906020019080838360005b83811015611b65578082015181840152602081019050611b4a565b50505050905090810190601f168015611b925780820380516001836020036101000a031916815260200191505b5060405250505060015b611bdc577fd4596cfd8cc9635c5a006e070f5c23e1af9b5d2e65665a8d73958c9e6cc17b4d866040518082815260200191505060405180910390a1611beb565b6000815114611be9578091505b505b7fffffffffffffffffffffffffffffffffffffffffffffffffffffffffffffffff6bffffffffffffffffffffffff1660058054905010611c93576040517f08c379a00000000000000000000000000000000000000000000000000000000081526004018080602001828103825260198152602001807f496c6b52656769737472792f746f6f2d6d616e792d696c6b730000000000000081525060200191505060405180910390fd5b60058690806001815401808255809150506001900390600052602060002001600090919091909150556040518061012001604052806001600580549050036bffffffffffffffffffffffff1681526020018873ffffffffffffffffffffffffffffffffffffffff1681526020018873ffffffffffffffffffffffffffffffffffffffff16637bd2bea76040518163ffffffff1660e01b815260040160206040518083038186803b158015611d4657600080fd5b505afa158015611d5a573d6000803e3d6000fd5b505050506040513d6020811015611d7057600080fd5b810190808051906020019092919050505073ffffffffffffffffffffffffffffffffffffffff1681526020018873ffffffffffffffffffffffffffffffffffffffff1663b3bcfa826040518163ffffffff1660e01b815260040160206040518083038186803b158015611de257600080fd5b505afa158015611df6573d6000803e3d6000fd5b505050506040513d6020811015611e0c57600080fd5b810190808051906020019092919050505060ff168152602001846bffffffffffffffffffffffff1681526020018673ffffffffffffffffffffffffffffffffffffffff1681526020018573ffffffffffffffffffffffffffffffffffffffff1681526020018381526020018281525060046000600560016005805490500381548110611e9457fe5b9060005260206000200154815260200190815260200160002060008201518160000160006101000a8154816bffffffffffffffffffffffff02191690836bffffffffffffffffffffffff160217905550602082015181600001600c6101000a81548173ffffffffffffffffffffffffffffffffffffffff021916908373ffffffffffffffffffffffffffffffffffffffff16021790555060408201518160010160006101000a81548173ffffffffffffffffffffffffffffffffffffffff021916908373ffffffffffffffffffffffffffffffffffffffff16021790555060608201518160010160146101000a81548160ff021916908360ff16021790555060808201518160020160006101000a8154816bffffffffffffffffffffffff02191690836bffffffffffffffffffffffff16021790555060a082015181600201600c6101000a81548173ffffffffffffffffffffffffffffffffffffffff021916908373ffffffffffffffffffffffffffffffffffffffff16021790555060c08201518160030160006101000a81548173ffffffffffffffffffffffffffffffffffffffff021916908373ffffffffffffffffffffffffffffffffffffffff16021790555060e0820151816004019080519060200190612074929190614d6d565b50610100820151816005019080519060200190612092929190614d6d565b509050507f74ceb2982b813d6b690af89638316706e6acb9a48fced388741b61b510f165b7866040518082815260200191505060405180910390a15050505050505050565b6060600580548060200260200160405190810160405280929190818152602001828054801561212557602002820191906000526020600020905b815481526020019060010190808311612111575b5050505050905090565b60016000803373ffffffffffffffffffffffffffffffffffffffff1673ffffffffffffffffffffffffffffffffffffffff16815260200190815260200160002054146121e3576040517f08c379a000000000000000000000000000000000000000000000000000000000815260040180806020018281038252601a8152602001807f496c6b52656769737472792f6e6f742d617574686f72697a656400000000000081525060200191505060405180910390fd5b7f636c61737300000000000000000000000000000000000000000000000000000082141561229d577fffffffffffffffffffffffffffffffffffffffffffffffffffffffffffffffff6bffffffffffffffffffffffff16811115801561224a575060008114155b61225357600080fd5b806004600085815260200190815260200160002060020160006101000a8154816bffffffffffffffffffffffff02191690836bffffffffffffffffffffffff16021790555061237b565b7f6465630000000000000000000000000000000000000000000000000000000000821415612329577fffffffffffffffffffffffffffffffffffffffffffffffffffffffffffffffff60ff168111156122f557600080fd5b806004600085815260200190815260200160002060010160146101000a81548160ff021916908360ff16021790555061237a565b6040517f08c379a000000000000000000000000000000000000000000000000000000000815260040180806020018281038252602b815260200180614f96602b913960400191505060405180910390fd5b5b7f851aa1caf4888170ad8875449d18f0f512fd6deb2a6571ea1a41fb9f95acbcd183838360405180848152602001838152602001828152602001935050505060405180910390a1505050565b60006004600083815260200190815260200160002060020160009054906101000a90046bffffffffffffffffffffffff166bffffffffffffffffffffffff169050919050565b60006004600083815260200190815260200160002060030160009054906101000a900473ffffffffffffffffffffffffffffffffffffffff169050919050565b60006004600083815260200190815260200160002060010160149054906101000a900460ff1660ff169050919050565b7f000000000000000000000000000000000000000000000000000000000000000081565b60006004600083815260200190815260200160002060010160009054906101000a900473ffffffffffffffffffffffffffffffffffffffff169050919050565b60016000803373ffffffffffffffffffffffffffffffffffffffff1673ffffffffffffffffffffffffffffffffffffffff1681526020019081526020016000205414612595576040517f08c379a000000000000000000000000000000000000000000000000000000000815260040180806020018281038252601a8152602001807f496c6b52656769737472792f6e6f742d617574686f72697a656400000000000081525060200191505060405180910390fd5b600087141580156125d457507fffffffffffffffffffffffffffffffffffffffffffffffffffffffffffffffff6bffffffffffffffffffffffff168711155b612646576040517f08c379a00000000000000000000000000000000000000000000000000000000081526004018080602001828103825260198152602001807f496c6b52656769737472792f696e76616c69642d636c6173730000000000000081525060200191505060405180910390fd5b7fffffffffffffffffffffffffffffffffffffffffffffffffffffffffffffffff60ff168811156126df576040517f08c379a00000000000000000000000000000000000000000000000000000000081526004018080602001828103825260178152602001807f496c6b52656769737472792f696e76616c69642d64656300000000000000000081525060200191505060405180910390fd5b600080600460008e815260200190815260200160002060020160009054906101000a90046bffffffffffffffffffffffff166bffffffffffffffffffffffff16141561283d577fffffffffffffffffffffffffffffffffffffffffffffffffffffffffffffffff6bffffffffffffffffffffffff16600580549050106127cd576040517f08c379a00000000000000000000000000000000000000000000000000000000081526004018080602001828103825260198152602001807f496c6b52656769737472792f746f6f2d6d616e792d696c6b730000000000000081525060200191505060405180910390fd5b60058c908060018154018082558091505060019003906000526020600020016000909190919091505560016005805490500390507f74ceb2982b813d6b690af89638316706e6acb9a48fced388741b61b510f165b78c6040518082815260200191505060405180910390a16128a6565b600460008d815260200190815260200160002060000160009054906101000a90046bffffffffffffffffffffffff1690507f176e1433f84712b82b982cc7a7b738797bd98e17b0882a6edc1a9a89e3dcbdfa8c6040518082815260200191505060405180910390a15b604051806101200160405280826bffffffffffffffffffffffff1681526020018c73ffffffffffffffffffffffffffffffffffffffff1681526020018b73ffffffffffffffffffffffffffffffffffffffff1681526020018a60ff168152602001896bffffffffffffffffffffffff1681526020018873ffffffffffffffffffffffffffffffffffffffff1681526020018773ffffffffffffffffffffffffffffffffffffffff16815260200186868080601f016020809104026020016040519081016040528093929190818152602001838380828437600081840152601f19601f82011690508083019250505050505050815260200184848080601f016020809104026020016040519081016040528093929190818152602001838380828437600081840152601f19601f82011690508083019250505050505050815250600460006005846bffffffffffffffffffffffff1681548110612a0457fe5b9060005260206000200154815260200190815260200160002060008201518160000160006101000a8154816bffffffffffffffffffffffff02191690836bffffffffffffffffffffffff160217905550602082015181600001600c6101000a81548173ffffffffffffffffffffffffffffffffffffffff021916908373ffffffffffffffffffffffffffffffffffffffff16021790555060408201518160010160006101000a81548173ffffffffffffffffffffffffffffffffffffffff021916908373ffffffffffffffffffffffffffffffffffffffff16021790555060608201518160010160146101000a81548160ff021916908360ff16021790555060808201518160020160006101000a8154816bffffffffffffffffffffffff02191690836bffffffffffffffffffffffff16021790555060a082015181600201600c6101000a81548173ffffffffffffffffffffffffffffffffffffffff021916908373ffffffffffffffffffffffffffffffffffffffff16021790555060c08201518160030160006101000a81548173ffffffffffffffffffffffffffffffffffffffff021916908373ffffffffffffffffffffffffffffffffffffffff16021790555060e0820151816004019080519060200190612be4929190614d6d565b50610100820151816005019080519060200190612c02929190614d6d565b50905050505050505050505050505050565b6060818311158015612c2a575060058054905082105b612c9c576040517f08c379a00000000000000000000000000000000000000000000000000000000081526004018080602001828103825260198152602001807f496c6b52656769737472792f696e76616c69642d696e7075740000000000000081525060200191505060405180910390fd5b606060018484030167ffffffffffffffff81118015612cba57600080fd5b50604051908082528060200260200182016040528015612ce95781602001602082028036833780820191505090505b5090506000808590505b848111612d3f5760058181548110612d0757fe5b9060005260206000200154838381518110612d1e57fe5b60200260200101818152505081806001019250508080600101915050612cf3565b50819250505092915050565b60006004600083815260200190815260200160002060000160009054906101000a90046bffffffffffffffffffffffff166bffffffffffffffffffffffff169050919050565b60016000803373ffffffffffffffffffffffffffffffffffffffff1673ffffffffffffffffffffffffffffffffffffffff1681526020019081526020016000205414612e45576040517f08c379a000000000000000000000000000000000000000000000000000000000815260040180806020018281038252601a8152602001807f496c6b52656769737472792f6e6f742d617574686f72697a656400000000000081525060200191505060405180910390fd5b60016000808373ffffffffffffffffffffffffffffffffffffffff1673ffffffffffffffffffffffffffffffffffffffff168152602001908152602001600020819055507fdd0e34038ac38b2a1ce960229778ac48a8719bc900b6c4f8d0475c6e8b385a6081604051808273ffffffffffffffffffffffffffffffffffffffff16815260200191505060405180910390a150565b6060600460008381526020019081526020016000206004018054600181600116156101000203166002900480601f016020809104026020016040519081016040528092919081815260200182805460018160011615610100020316600290048015612f855780601f10612f5a57610100808354040283529160200191612f85565b820191906000526020600020905b815481529060010190602001808311612f6857829003601f168201915b50505050509050919050565b6060600460008381526020019081526020016000206005018054600181600116156101000203166002900480601f01602080910402602001604051908101604052809291908181526020018280546001816001161561010002031660029004801561303d5780601f106130125761010080835404028352916020019161303d565b820191906000526020600020905b81548152906001019060200180831161302057829003601f168201915b50505050509050919050565b600360009054906101000a900473ffffffffffffffffffffffffffffffffffffffff1681565b7f000000000000000000000000000000000000000000000000000000000000000073ffffffffffffffffffffffffffffffffffffffff1660046000838152602001908152602001600020600001600c9054906101000a900473ffffffffffffffffffffffffffffffffffffffff1673ffffffffffffffffffffffffffffffffffffffff166336569e776040518163ffffffff1660e01b815260040160206040518083038186803b15801561312257600080fd5b505afa158015613136573d6000803e3d6000fd5b505050506040513d602081101561314c57600080fd5b810190808051906020019092919050505073ffffffffffffffffffffffffffffffffffffffff16146131e6576040517f08c379a00000000000000000000000000000000000000000000000000000000081526004018080602001828103825260178152602001807f496c6b52656769737472792f696e76616c69642d696c6b00000000000000000081525060200191505060405180910390fd5b600160046000838152602001908152602001600020600001600c9054906101000a900473ffffffffffffffffffffffffffffffffffffffff1673ffffffffffffffffffffffffffffffffffffffff1663957aa58c6040518163ffffffff1660e01b815260040160206040518083038186803b15801561326457600080fd5b505afa158015613278573d6000803e3d6000fd5b505050506040513d602081101561328e57600080fd5b8101908080519060200190929190505050146132f5576040517f08c379a000000000000000000000000000000000000000000000000000000000815260040180806020018281038252602b815260200180614fc1602b913960400191505060405180910390fd5b60006004600083815260200190815260200160002060020160009054906101000a90046bffffffffffffffffffffffff1690506001816bffffffffffffffffffffffff16148061335357506002816bffffffffffffffffffffffff16145b6133c5576040517f08c379a00000000000000000000000000000000000000000000000000000000081526004018080602001828103825260198152602001807f496c6b52656769737472792f696e76616c69642d636c6173730000000000000081525060200191505060405180910390fd5b6000600360009054906101000a900473ffffffffffffffffffffffffffffffffffffffff1673ffffffffffffffffffffffffffffffffffffffff1663d9638d36846040518263ffffffff1660e01b815260040180828152602001915050604080518083038186803b15801561343957600080fd5b505afa15801561344d573d6000803e3d6000fd5b505050506040513d604081101561346357600080fd5b810190808051906020019092919080519060200190929190505050509050600073ffffffffffffffffffffffffffffffffffffffff168173ffffffffffffffffffffffffffffffffffffffff161415613524576040517f08c379a00000000000000000000000000000000000000000000000000000000081526004018080602001828103825260178152602001807f496c6b52656769737472792f7069702d696e76616c696400000000000000000081525060200191505060405180910390fd5b8060046000858152602001908152602001600020600201600c6101000a81548173ffffffffffffffffffffffffffffffffffffffff021916908373ffffffffffffffffffffffffffffffffffffffff1602179055507f176e1433f84712b82b982cc7a7b738797bd98e17b0882a6edc1a9a89e3dcbdfa836040518082815260200191505060405180910390a1505050565b60006005805490508210613631576040517f08c379a000000000000000000000000000000000000000000000000000000000815260040180806020018281038252601e8152602001807f496c6b52656769737472792f696e6465782d6f75742d6f662d72616e6765000081525060200191505060405180910390fd5b6005828154811061363e57fe5b90600052602060002001549050919050565b600060046000838152602001908152602001600020600001600c9054906101000a900473ffffffffffffffffffffffffffffffffffffffff169050600073ffffffffffffffffffffffffffffffffffffffff168173ffffffffffffffffffffffffffffffffffffffff16141561372e576040517f08c379a00000000000000000000000000000000000000000000000000000000081526004018080602001828103825260178152602001807f496c6b52656769737472792f696e76616c69642d696c6b00000000000000000081525060200191505060405180910390fd5b60006004600084815260200190815260200160002060020160009054906101000a90046bffffffffffffffffffffffff1690506001816bffffffffffffffffffffffff16148061378c57506002816bffffffffffffffffffffffff16145b6137fe576040517f08c379a00000000000000000000000000000000000000000000000000000000081526004018080602001828103825260198152602001807f496c6b52656769737472792f696e76616c69642d636c6173730000000000000081525060200191505060405180910390fd5b60008273ffffffffffffffffffffffffffffffffffffffff1663957aa58c6040518163ffffffff1660e01b815260040160206040518083038186803b15801561384657600080fd5b505afa15801561385a573d6000803e3d6000fd5b505050506040513d602081101561387057600080fd5b8101908080519060200190929190505050146138f4576040517f08c379a00000000000000000000000000000000000000000000000000000000081526004018080602001828103825260148152602001807f496c6b52656769737472792f696c6b2d6c69766500000000000000000000000081525060200191505060405180910390fd5b6138fd83614b5d565b7f42f3b824eb9d522b949ff3d8f70db1872c46f3fc68b6df1a4c8d6aaebfcb6796836040518082815260200191505060405180910390a1505050565b60016000803373ffffffffffffffffffffffffffffffffffffffff1673ffffffffffffffffffffffffffffffffffffffff16815260200190815260200160002054146139ed576040517f08c379a000000000000000000000000000000000000000000000000000000000815260040180806020018281038252601a8152602001807f496c6b52656769737472792f6e6f742d617574686f72697a656400000000000081525060200191505060405180910390fd5b60008060008373ffffffffffffffffffffffffffffffffffffffff1673ffffffffffffffffffffffffffffffffffffffff168152602001908152602001600020819055507f184450df2e323acec0ed3b5c7531b81f9b4cdef7914dfd4c0a4317416bb5251b81604051808273ffffffffffffffffffffffffffffffffffffffff16815260200191505060405180910390a150565b60016000803373ffffffffffffffffffffffffffffffffffffffff1673ffffffffffffffffffffffffffffffffffffffff1681526020019081526020016000205414613b35576040517f08c379a000000000000000000000000000000000000000000000000000000000815260040180806020018281038252601a8152602001807f496c6b52656769737472792f6e6f742d617574686f72697a656400000000000081525060200191505060405180910390fd5b613b3e81614b5d565b7f42f3b824eb9d522b949ff3d8f70db1872c46f3fc68b6df1a4c8d6aaebfcb6796816040518082815260200191505060405180910390a150565b600060046000838152602001908152602001600020600201600c9054906101000a900473ffffffffffffffffffffffffffffffffffffffff169050919050565b60046020528060005260406000206000915090508060000160009054906101000a90046bffffffffffffffffffffffff169080600001600c9054906101000a900473ffffffffffffffffffffffffffffffffffffffff16908060010160009054906101000a900473ffffffffffffffffffffffffffffffffffffffff16908060010160149054906101000a900460ff16908060020160009054906101000a90046bffffffffffffffffffffffff169080600201600c9054906101000a900473ffffffffffffffffffffffffffffffffffffffff16908060030160009054906101000a900473ffffffffffffffffffffffffffffffffffffffff1690806004018054600181600116156101000203166002900480601f016020809104026020016040519081016040528092919081815260200182805460018160011615610100020316600290048015613d4b5780601f10613d2057610100808354040283529160200191613d4b565b820191906000526020600020905b815481529060010190602001808311613d2e57829003601f168201915b505050505090806005018054600181600116156101000203166002900480601f016020809104026020016040519081016040528092919081815260200182805460018160011615610100020316600290048015613de95780601f10613dbe57610100808354040283529160200191613de9565b820191906000526020600020905b815481529060010190602001808311613dcc57829003601f168201915b5050505050905089565b600060046000838152602001908152602001600020600001600c9054906101000a900473ffffffffffffffffffffffffffffffffffffffff169050919050565b606080600080600080600080613e47614ded565b600460008b8152602001908152602001600020604051806101200160405290816000820160009054906101000a90046bffffffffffffffffffffffff166bffffffffffffffffffffffff166bffffffffffffffffffffffff16815260200160008201600c9054906101000a900473ffffffffffffffffffffffffffffffffffffffff1673ffffffffffffffffffffffffffffffffffffffff1673ffffffffffffffffffffffffffffffffffffffff1681526020016001820160009054906101000a900473ffffffffffffffffffffffffffffffffffffffff1673ffffffffffffffffffffffffffffffffffffffff1673ffffffffffffffffffffffffffffffffffffffff1681526020016001820160149054906101000a900460ff1660ff1660ff1681526020016002820160009054906101000a90046bffffffffffffffffffffffff166bffffffffffffffffffffffff166bffffffffffffffffffffffff16815260200160028201600c9054906101000a900473ffffffffffffffffffffffffffffffffffffffff1673ffffffffffffffffffffffffffffffffffffffff1673ffffffffffffffffffffffffffffffffffffffff1681526020016003820160009054906101000a900473ffffffffffffffffffffffffffffffffffffffff1673ffffffffffffffffffffffffffffffffffffffff1673ffffffffffffffffffffffffffffffffffffffff168152602001600482018054600181600116156101000203166002900480601f0160208091040260200160405190810160405280929190818152602001828054600181600116156101000203166002900480156140f05780601f106140c5576101008083540402835291602001916140f0565b820191906000526020600020905b8154815290600101906020018083116140d357829003601f168201915b50505050508152602001600582018054600181600116156101000203166002900480601f0160208091040260200160405190810160405280929190818152602001828054600181600116156101000203166002900480156141925780601f1061416757610100808354040283529160200191614192565b820191906000526020600020905b81548152906001019060200180831161417557829003601f168201915b50505050508152505090508060e001518161010001518260800151836060015184604001518560a0015186602001518760c00151856bffffffffffffffffffffffff1695508460ff1694509850985098509850985098509850985050919395975091939597565b60006020528060005260406000206000915090505481565b600160009054906101000a900473ffffffffffffffffffffffffffffffffffffffff1681565b60016000803373ffffffffffffffffffffffffffffffffffffffff1673ffffffffffffffffffffffffffffffffffffffff16815260200190815260200160002054146142eb576040517f08c379a000000000000000000000000000000000000000000000000000000000815260040180806020018281038252601a8152602001807f496c6b52656769737472792f6e6f742d617574686f72697a656400000000000081525060200191505060405180910390fd5b7f6e616d650000000000000000000000000000000000000000000000000000000083141561433e578181600460008781526020019081526020016000206004019190614338929190614eb0565b506143e3565b7f73796d626f6c000000000000000000000000000000000000000000000000000083141561439157818160046000878152602001908152602001600020600501919061438b929190614eb0565b506143e2565b6040517f08c379a000000000000000000000000000000000000000000000000000000000815260040180806020018281038252602a815260200180615017602a913960400191505060405180910390fd5b5b7f6a04c0a277676f3a4d382fc6167bf871235d53006834505ea2d2c6101041eda88484848460405180858152602001848152602001806020018281038252848482818152602001925080828437600081840152601f19601f8201169050808301925050509550505050505060405180910390a150505050565b60016000803373ffffffffffffffffffffffffffffffffffffffff1673ffffffffffffffffffffffffffffffffffffffff1681526020019081526020016000205414614510576040517f08c379a000000000000000000000000000000000000000000000000000000000815260040180806020018281038252601a8152602001807f496c6b52656769737472792f6e6f742d617574686f72697a656400000000000081525060200191505060405180910390fd5b7f646f67000000000000000000000000000000000000000000000000000000000082141561457e5780600160006101000a81548173ffffffffffffffffffffffffffffffffffffffff021916908373ffffffffffffffffffffffffffffffffffffffff1602179055506146ad565b7f63617400000000000000000000000000000000000000000000000000000000008214156145ec5780600260006101000a81548173ffffffffffffffffffffffffffffffffffffffff021916908373ffffffffffffffffffffffffffffffffffffffff1602179055506146ac565b7f73706f740000000000000000000000000000000000000000000000000000000082141561465a5780600360006101000a81548173ffffffffffffffffffffffffffffffffffffffff021916908373ffffffffffffffffffffffffffffffffffffffff1602179055506146ab565b6040517f08c379a000000000000000000000000000000000000000000000000000000000815260040180806020018281038252602b815260200180614fec602b913960400191505060405180910390fd5b5b5b7f8fef588b5fc1afbf5b2f06c1a435d513f208da2e6704c3d8f0e0ec91167066ba8282604051808381526020018273ffffffffffffffffffffffffffffffffffffffff1681526020019250505060405180910390a15050565b600260009054906101000a900473ffffffffffffffffffffffffffffffffffffffff1681565b60016000803373ffffffffffffffffffffffffffffffffffffffff1673ffffffffffffffffffffffffffffffffffffffff16815260200190815260200160002054146147e0576040517f08c379a000000000000000000000000000000000000000000000000000000000815260040180806020018281038252601a8152602001807f496c6b52656769737472792f6e6f742d617574686f72697a656400000000000081525060200191505060405180910390fd5b7f67656d000000000000000000000000000000000000000000000000000000000082141561486257806004600085815260200190815260200160002060010160006101000a81548173ffffffffffffffffffffffffffffffffffffffff021916908373ffffffffffffffffffffffffffffffffffffffff160217905550614a3c565b7f6a6f696e000000000000000000000000000000000000000000000000000000008214156148e4578060046000858152602001908152602001600020600001600c6101000a81548173ffffffffffffffffffffffffffffffffffffffff021916908373ffffffffffffffffffffffffffffffffffffffff160217905550614a3b565b7f7069700000000000000000000000000000000000000000000000000000000000821415614966578060046000858152602001908152602001600020600201600c6101000a81548173ffffffffffffffffffffffffffffffffffffffff021916908373ffffffffffffffffffffffffffffffffffffffff160217905550614a3a565b7f786c6970000000000000000000000000000000000000000000000000000000008214156149e857806004600085815260200190815260200160002060030160006101000a81548173ffffffffffffffffffffffffffffffffffffffff021916908373ffffffffffffffffffffffffffffffffffffffff160217905550614a39565b6040517f08c379a000000000000000000000000000000000000000000000000000000000815260040180806020018281038252602b815260200180614fec602b913960400191505060405180910390fd5b5b5b5b7f4ff2caaa972a7c6629ea01fae9c93d73cc307d13ea4c369f9bbbb7f9b7e9461d838383604051808481526020018381526020018273ffffffffffffffffffffffffffffffffffffffff168152602001935050505060405180910390a1505050565b606080602067ffffffffffffffff81118015614ab957600080fd5b506040519080825280601f01601f191660200182016040528015614aec5781602001600182028036833780820191505090505b50905060005b6020811015614b5357838160208110614b0757fe5b1a60f81b828281518110614b1757fe5b60200101907effffffffffffffffffffffffffffffffffffffffffffffffffffffffffffff1916908160001a9053508080600101915050614af2565b5080915050919050565b60006004600083815260200190815260200160002060000160009054906101000a90046bffffffffffffffffffffffff166bffffffffffffffffffffffff1690506000600560016005805490500381548110614bb557fe5b906000526020600020015490508060058381548110614bd057fe5b9060005260206000200181905550816004600083815260200190815260200160002060000160006101000a8154816bffffffffffffffffffffffff02191690836bffffffffffffffffffffffff1602179055506005805480614c2e57fe5b6001900381819060005260206000200160009055905560046000848152602001908152602001600020600080820160006101000a8154906bffffffffffffffffffffffff021916905560008201600c6101000a81549073ffffffffffffffffffffffffffffffffffffffff02191690556001820160006101000a81549073ffffffffffffffffffffffffffffffffffffffff02191690556001820160146101000a81549060ff02191690556002820160006101000a8154906bffffffffffffffffffffffff021916905560028201600c6101000a81549073ffffffffffffffffffffffffffffffffffffffff02191690556003820160006101000a81549073ffffffffffffffffffffffffffffffffffffffff0219169055600482016000614d569190614f30565b600582016000614d669190614f30565b5050505050565b828054600181600116156101000203166002900490600052602060002090601f016020900481019282601f10614dae57805160ff1916838001178555614ddc565b82800160010185558215614ddc579182015b82811115614ddb578251825591602001919060010190614dc0565b5b509050614de99190614f78565b5090565b60405180610120016040528060006bffffffffffffffffffffffff168152602001600073ffffffffffffffffffffffffffffffffffffffff168152602001600073ffffffffffffffffffffffffffffffffffffffff168152602001600060ff16815260200160006bffffffffffffffffffffffff168152602001600073ffffffffffffffffffffffffffffffffffffffff168152602001600073ffffffffffffffffffffffffffffffffffffffff16815260200160608152602001606081525090565b828054600181600116156101000203166002900490600052602060002090601f016020900481019282601f10614ef157803560ff1916838001178555614f1f565b82800160010185558215614f1f579182015b82811115614f1e578235825591602001919060010190614f03565b5b509050614f2c9190614f78565b5090565b50805460018160011615610100020316600290046000825580601f10614f565750614f75565b601f016020900490600052602060002090810190614f749190614f78565b5b50565b5b80821115614f91576000816000905550600101614f79565b509056fe496c6b52656769737472792f66696c652d756e7265636f676e697a65642d706172616d2d75696e74323536496c6b52656769737472792f696c6b2d6e6f742d6c6976652d7573652d72656d6f76652d696e7374656164496c6b52656769737472792f66696c652d756e7265636f676e697a65642d706172616d2d61646472657373496c6b52656769737472792f66696c652d756e7265636f676e697a65642d706172616d2d737472696e67496c6b52656769737472792f696e76616c69642d61756374696f6e2d636f6e7472616374496c6b52656769737472792f696e76616c69642d6a6f696e2d616461707465722d766174496c6b52656769737472792f616461707465722d6e6f742d617574686f72697a6564a2646970667358221220fdf0154df91d53e4d56d14aff2df359f651731383c8c4776a023928f96af28c564736f6c634300060c0033608060405234801561001057600080fd5b5061047b806100206000396000f3fe608060405234801561001057600080fd5b50600436106100365760003560e01c8063019848921461003b578063a86e3576146100f8575b600080fd5b61007d6004803603602081101561005157600080fd5b81019080803573ffffffffffffffffffffffffffffffffffffffff1690602001909291905050506101b5565b6040518080602001828103825283818151815260200191508051906020019080838360005b838110156100bd5780820151818401526020810190506100a2565b50505050905090810190601f1680156100ea5780820380516001836020036101000a031916815260200191505b509250505060405180910390f35b61013a6004803603602081101561010e57600080fd5b81019080803573ffffffffffffffffffffffffffffffffffffffff1690602001909291905050506102fd565b6040518080602001828103825283818151815260200191508051906020019080838360005b8381101561017a57808201518184015260208101905061015f565b50505050905090810190601f1680156101a75780820380516001836020036101000a031916815260200191505b509250505060405180910390f35b60608173ffffffffffffffffffffffffffffffffffffffff166306fdde036040518163ffffffff1660e01b815260040160006040518083038186803b1580156101fd57600080fd5b505afa158015610211573d6000803e3d6000fd5b505050506040513d6000823e3d601f19601f82011682018060405250602081101561023b57600080fd5b810190808051604051939291908464010000000082111561025b57600080fd5b8382019150602082018581111561027157600080fd5b825186600182028301116401000000008211171561028e57600080fd5b8083526020830192505050908051906020019080838360005b838110156102c25780820151818401526020810190506102a7565b50505050905090810190601f1680156102ef5780820380516001836020036101000a031916815260200191505b506040525050509050919050565b60608173ffffffffffffffffffffffffffffffffffffffff166395d89b416040518163ffffffff1660e01b815260040160006040518083038186803b15801561034557600080fd5b505afa158015610359573d6000803e3d6000fd5b505050506040513d6000823e3d601f19601f82011682018060405250602081101561038357600080fd5b81019080805160405193929190846401000000008211156103a357600080fd5b838201915060208201858111156103b957600080fd5b82518660018202830111640100000000821117156103d657600080fd5b8083526020830192505050908051906020019080838360005b8381101561040a5780820151818401526020810190506103ef565b50505050905090810190601f1680156104375780820380516001836020036101000a031916815260200191505b50604052505050905091905056fea2646970667358221220ab6d83a31b68735a2ddd332604b7655b67d32f31691937679bf367710056b11a64736f6c634300060c0033",
  "linkReferences": {},
  "deployedLinkReferences": {}
}