{
  "_format": "hh-sol-artifact-1",
  "contractName": "DaiPoker",
  "sourceName": "contracts/DaiOracle.sol",
  "abi": [
    {
      "inputs": [],
      "stateMutability": "nonpayable",
      "type": "constructor"
    },
    {
      "inputs": [],
      "name": "DAI",
      "outputs": [
        {
          "internalType": "address",
          "name": "",
          "type": "address"
        }
      ],
      "stateMutability": "view",
      "type": "function"
    },
    {
      "inputs": [],
      "name": "DAIEDAI",
      "outputs": [
        {
          "internalType": "address",
          "name": "",
          "type": "address"
        }
      ],
      "stateMutability": "view",
      "type": "function"
    },
    {
      "inputs": [],
      "name": "LOG",
      "outputs": [
        {
          "internalType": "address",
          "name": "",
          "type": "address"
        }
      ],
      "stateMutability": "view",
      "type": "function"
    },
    {
      "inputs": [
        {
          "internalType": "address",
          "name": "usr",
          "type": "address"
        }
      ],
      "name": "deny",
      "outputs": [],
      "stateMutability": "nonpayable",
      "type": "function"
    },
    {
      "inputs": [
        {
          "internalType": "address",
          "name": "",
          "type": "address"
        }
      ],
      "name": "medians",
      "outputs": [
        {
          "internalType": "address",
          "name": "",
          "type": "address"
        }
      ],
      "stateMutability": "view",
      "type": "function"
    },
    {
      "inputs": [],
      "name": "oracleFactory",
      "outputs": [
        {
          "internalType": "contract IPulsexV1OracleFactory",
          "name": "",
          "type": "address"
        }
      ],
      "stateMutability": "view",
      "type": "function"
    },
    {
      "inputs": [],
      "name": "poke",
      "outputs": [],
      "stateMutability": "nonpayable",
      "type": "function"
    },
    {
      "inputs": [
        {
          "internalType": "address",
          "name": "usr",
          "type": "address"
        }
      ],
      "name": "rely",
      "outputs": [],
      "stateMutability": "nonpayable",
      "type": "function"
    },
    {
      "inputs": [
        {
          "internalType": "address",
          "name": "",
          "type": "address"
        }
      ],
      "name": "tokenIn",
      "outputs": [
        {
          "internalType": "address",
          "name": "",
          "type": "address"
        }
      ],
      "stateMutability": "view",
      "type": "function"
    },
    {
      "inputs": [
        {
          "internalType": "address",
          "name": "",
          "type": "address"
        }
      ],
      "name": "wards",
      "outputs": [
        {
          "internalType": "uint256",
          "name": "",
          "type": "uint256"
        }
      ],
      "stateMutability": "view",
      "type": "function"
    }
  ],
  "bytecode": "0x608060405273646daa135c6cd060573ef5957c1da3cef735837e600360006101000a81548173ffffffffffffffffffffffffffffffffffffffff021916908373ffffffffffffffffffffffffffffffffffffffff16021790555034801561006557600080fd5b50610c08806100756000396000f3fe608060405234801561001057600080fd5b506004361061009e5760003560e01c806399ce7e851161006657806399ce7e85146101355780639c52a7f114610165578063bf353dbb14610181578063c7f7fb90146101b1578063e0bab4c4146101cf5761009e565b80631816a5e1146100a357806318178358146100c157806333c82f56146100cb57806365fae35e146100fb5780639327d0f014610117575b600080fd5b6100ab6101ed565b6040516100b891906107bf565b60405180910390f35b6100c9610205565b005b6100e560048036038101906100e0919061080b565b610306565b6040516100f291906107bf565b60405180910390f35b6101156004803603810190610110919061080b565b610339565b005b61011f610401565b60405161012c91906107bf565b60405180910390f35b61014f600480360381019061014a919061080b565b610419565b60405161015c91906107bf565b60405180910390f35b61017f600480360381019061017a919061080b565b61044c565b005b61019b6004803603810190610196919061080b565b610514565b6040516101a89190610851565b60405180910390f35b6101b961052c565b6040516101c691906108cb565b60405180910390f35b6101d7610552565b6040516101e491906107bf565b60405180910390f35b73da0ab1e0017debcd72be8599041a2aa3ba7e740f81565b6000600360009054906101000a900473ffffffffffffffffffffffffffffffffffffffff1673ffffffffffffffffffffffffffffffffffffffff1663b646638473fc64556faa683e6087f425819c7ca3c558e13ac1736b175474e89094c44da98b954eedeac495271d0f670de0b6b3a76400006040518463ffffffff1660e01b815260040161029693929190610921565b602060405180830381865afa1580156102b3573d6000803e3d6000fd5b505050506040513d601f19601f820116820180604052508101906102d79190610984565b90506102f86103e8670de0b6b3a76400008361056a9092919063ffffffff16565b9050610303816105ad565b50565b60026020528060005260406000206000915054906101000a900473ffffffffffffffffffffffffffffffffffffffff1681565b60016000803373ffffffffffffffffffffffffffffffffffffffff1673ffffffffffffffffffffffffffffffffffffffff16815260200190815260200160002054146103ba576040517f08c379a00000000000000000000000000000000000000000000000000000000081526004016103b190610a0e565b60405180910390fd5b60016000808373ffffffffffffffffffffffffffffffffffffffff1673ffffffffffffffffffffffffffffffffffffffff1681526020019081526020016000208190555050565b73fc64556faa683e6087f425819c7ca3c558e13ac181565b60016020528060005260406000206000915054906101000a900473ffffffffffffffffffffffffffffffffffffffff1681565b60016000803373ffffffffffffffffffffffffffffffffffffffff1673ffffffffffffffffffffffffffffffffffffffff16815260200190815260200160002054146104cd576040517f08c379a00000000000000000000000000000000000000000000000000000000081526004016104c490610a0e565b60405180910390fd5b60008060008373ffffffffffffffffffffffffffffffffffffffff1673ffffffffffffffffffffffffffffffffffffffff1681526020019081526020016000208190555050565b60006020528060005260406000206000915090505481565b600360009054906101000a900473ffffffffffffffffffffffffffffffffffffffff1681565b736b175474e89094c44da98b954eedeac495271d0f81565b6000827fffffffffffffffffffffffffffffffffffffffffffffffffffffffffffffffff048411830215820261059f57600080fd5b818385020490509392505050565b670de0b6b3a764000081106105c157600080fd5b6105fe6105cc610601565b7f70617200000000000000000000000000000000000000000000000000000000006105f9846103e8610631565b610675565b50565b600061062c7f4d43445f53504f540000000000000000000000000000000000000000000000006106e7565b905090565b6000816002836106419190610a8c565b6b033b2e3c9fd0803ce8000000856106599190610abd565b6106639190610aff565b61066d9190610a8c565b905092915050565b8273ffffffffffffffffffffffffffffffffffffffff166329ae811483836040518363ffffffff1660e01b81526004016106b0929190610b4c565b600060405180830381600087803b1580156106ca57600080fd5b505af11580156106de573d6000803e3d6000fd5b50505050505050565b600073da0ab1e0017debcd72be8599041a2aa3ba7e740f73ffffffffffffffffffffffffffffffffffffffff166321f8a721836040518263ffffffff1660e01b81526004016107369190610b75565b602060405180830381865afa158015610753573d6000803e3d6000fd5b505050506040513d601f19601f820116820180604052508101906107779190610ba5565b9050919050565b600073ffffffffffffffffffffffffffffffffffffffff82169050919050565b60006107a98261077e565b9050919050565b6107b98161079e565b82525050565b60006020820190506107d460008301846107b0565b92915050565b600080fd5b6107e88161079e565b81146107f357600080fd5b50565b600081359050610805816107df565b92915050565b600060208284031215610821576108206107da565b5b600061082f848285016107f6565b91505092915050565b6000819050919050565b61084b81610838565b82525050565b60006020820190506108666000830184610842565b92915050565b6000819050919050565b600061089161088c6108878461077e565b61086c565b61077e565b9050919050565b60006108a382610876565b9050919050565b60006108b582610898565b9050919050565b6108c5816108aa565b82525050565b60006020820190506108e060008301846108bc565b92915050565b6000819050919050565b600061090b610906610901846108e6565b61086c565b610838565b9050919050565b61091b816108f0565b82525050565b600060608201905061093660008301866107b0565b61094360208301856107b0565b6109506040830184610912565b949350505050565b61096181610838565b811461096c57600080fd5b50565b60008151905061097e81610958565b92915050565b60006020828403121561099a576109996107da565b5b60006109a88482850161096f565b91505092915050565b600082825260208201905092915050565b7f466c69707065722f6e6f742d617574686f72697a656400000000000000000000600082015250565b60006109f86016836109b1565b9150610a03826109c2565b602082019050919050565b60006020820190508181036000830152610a27816109eb565b9050919050565b7f4e487b7100000000000000000000000000000000000000000000000000000000600052601260045260246000fd5b7f4e487b7100000000000000000000000000000000000000000000000000000000600052601160045260246000fd5b6000610a9782610838565b9150610aa283610838565b925082610ab257610ab1610a2e565b5b828204905092915050565b6000610ac882610838565b9150610ad383610838565b9250828202610ae181610838565b91508282048414831517610af857610af7610a5d565b5b5092915050565b6000610b0a82610838565b9150610b1583610838565b9250828201905080821115610b2d57610b2c610a5d565b5b92915050565b6000819050919050565b610b4681610b33565b82525050565b6000604082019050610b616000830185610b3d565b610b6e6020830184610842565b9392505050565b6000602082019050610b8a6000830184610b3d565b92915050565b600081519050610b9f816107df565b92915050565b600060208284031215610bbb57610bba6107da565b5b6000610bc984828501610b90565b9150509291505056fea2646970667358221220af120f010582de111556e21029fa8f47e524a174fe88141a47cd3a8211f7265f64736f6c63430008180033",
  "linkReferences": {},
  "deployedLinkReferences": {}
}